:020000040800F2
:10000000F0040020B10100083B1500089514000819
:1000100039150008BD0200086D1A00080000000034
:100020000000000000000000000000003F15000874
:1000300071030008000000003D150008411500088C
:10004000CB010008CB010008CB010008CB01000860
:10005000CB010008CB010008CB010008CB01000850
:10006000CB010008CB010008CB010008CB01000840
:10007000CB010008CB010008CB010008CB01000830
:10008000CB010008CB010008CB01000800000000F4
:10009000000000000000000000000000CB0100088C
:1000A000CB010008CB010008CB010008CB01000800
:1000B000CB010008CB010008CB010008CB010008F0
:1000C000CB010008CB010008CB010008CB010008E0
:1000D000CB0100081D1A0008CB0100080000000039
:1000E000CB010008CB010008CB0100080000000094
:1000F000000000000000000000000000CB0100082C
:1001000000000000CB010008CB010008CB01000873
:1001100000000000000000000000000000000000DF
:10012000CB010008CB010008C1020008CB01000888
:10013000CB010008000000000000000000000000EB
:10014000000000000000000000000000CB010008DB
:10015000CB010008CB010008CB010008CB0100084F
:10016000CB010008CB0100080000000000000000E7
:10017000000000000000000000000000000000007F
:1001800000000000CB01000800000000000000009B
:10019000CB010008CB010008DFF810D000F07CF89C
:1001A00000480047BD1B0008AFF30080F0040020AA
:1001B0000648804706480047FEE7FEE7FEE7FEE701
:1001C000FEE7FEE7FEE7FEE7FEE7FEE7D5150008DF
:1001D000990100082DE9F05F0546002092469B46F4
:1001E00088460646814640241BE02846414647464D
:1001F000224600F041F853465A46C01A914110D3A6
:1002000011461846224600F028F82D1A67EB01081F
:100210004F4622460120002100F01FF817EB00098D
:100220004E41201EA4F10104DFDC484631462A4637
:100230004346BDE8F09FD2B201E000F8012B491E11
:10024000FBD270470022F6E710B513460A46044673
:100250001946FFF7F0FF204610BD202A04DB203AA4
:1002600000FA02F1002070479140C2F1200320FA09
:1002700003F3194390407047202A04DB203A21FA07
:1002800002F00021704721FA02F3D040C2F12002AF
:100290009140084319467047064C074D06E0E06858
:1002A00040F0010394E8070098471034AC42F6D3BD
:1002B000FFF776FF301C0008501C0008FEE7000026
:1002C000014800F0B3B8000058000020016818236E
:1002D000CAB2103AB2FBF3F2054B6FF30901032ADD
:1002E0009B5CC36500D9091D816508467047000005
:1002F000101C000810B5014600208B698A6A4FF077
:10030000C07453B1B3F5005F15D072B1012A0CD09F
:10031000022A0AD0032A09D104E01AB1012A06D020
:10032000022A03D1C96AC90100D5012010BDC96ADA
:10033000A142FAD010BD002AF7D0012AF2D0022A39
:10034000F3D0032AF3D010BD30B50468256825F436
:1003500080252560046863608368402B036803D0B0
:1003600099600068C26030BD9A600068C16030BDAD
:10037000704772B6FEE72DE9F0410446876D00F044
:10038000C9FA064694F835000025022806D08020D8
:10039000606584F834500120BDE8F0812068016870
:1003A00021F0160101602068416921F0800141615E
:1003B000206C08B9A06C20B12068016821F0080108
:1003C00001602068016821F0010101600CE000F08B
:1003D000A1FA801B052807D920206065032084F836
:1003E000350084F83450D7E720680068C007EED1A4
:1003F00094F85C103F208840B860012084F83500F4
:1004000084F834500020C7E790F83510022903D053
:100410008021416501207047052180F83510006872
:10042000016821F001010160002070472DE9F843C7
:1004300004464FF00009CDF8009063484FF4165180
:10044000A56D0068B0FBF1F72E6894F85C100820E9
:1004500000FA01F131420FD021680A6852070BD52A
:100460000A6822F004020A6094F85C108840A860D0
:10047000606D40F00100606594F85C104FF0010879
:1004800008FA01F0304208D021684969090604D50C
:10049000A860606D40F00200606594F85C10042074
:1004A0008840304208D021680968890704D5A860CF
:1004B000606D40F00400606594F85C101020884086
:1004C000304218D021680968090714D5A86020684F
:1004D0000168490304D50068000308D5A16C07E052
:1004E0000168C90503D4016821F008010160216C8D
:1004F00009B12046884794F85C102020884030429B
:1005000031D021680968C9062DD5A86094F8350056
:1005100005282068016806D0490347D50068000314
:100520001DD4616C1CE021F0160101602068416956
:1005300021F080014161206C08B9A06C20B12068D5
:10054000016821F00801016094F85C103F208840A8
:10055000A86084F8358084F83490216D1FE0E16B49
:1005600009B120468847606D00282BD0606DC00718
:1005700014D0052084F835002068016821F00101BD
:1005800001600098401C0090B84203D820680068C1
:10059000C007F6D184F8358084F83490E16C0029E6
:1005A00010D001B02046BDE8F04308470168C905F6
:1005B000D5D4016821F01001016084F8358084F8F9
:1005C0003490CCE7BDE8F8830C0000202DE9F04121
:1005D000044600F09FF906465CB1022084F835001D
:1005E000002584F834502068016821F00101016081
:1005F0000DE00120BDE8F08100F08CF9801B05289A
:1006000005D920206065032084F83500F2E72068D2
:100610000068C007F0D12268116820480140D4E981
:1006200001031843D4E9033633431843636918437D
:10063000A3691843E3691843236A18430843616AAE
:10064000042903D1D4E90B1319430843106020682F
:100650004069666A20F0070130460E4301270428EE
:100660000CD1A06A0643E06A40B12046FFF742FE83
:1006700020B14020606584F83570BAE72068466193
:100680002046FFF723FE94F85C203F2191408160D3
:10069000656584F835700020ACE700003F8010F0FD
:1006A0002DE9F0410446866D90F8340000250128BC
:1006B0000DD0012084F8340094F835700020012F0B
:1006C00007D084F8340002252846BDE8F0810220D6
:1006D000FBE7022784F8357060652046FFF734FE9B
:1006E00094F85C103F208840B0602068016841F0B9
:1006F00016010160206C20B12068016841F00801FA
:1007000001602068016841F001010160DCE7000040
:1007100070B5044600F0FEF80546601C02D004489F
:100720000078044400F0F6F8401BA042FAD370BDF4
:10073000000000202DE9F84FDFF8B8A100220124C5
:1007400003254FF00F090AF1040BAAF1040E00BFB4
:100750000B6804FA02F63340B34273D10F7907F005
:100760000307012F01D0022F16D187684FEA4208F4
:1007700005FA08FC27EA0C07D1F80CC00CFA08FCB3
:100780004CEA070CC0F808C04768B7430E79C6F3B7
:10079000001696403E4346600E79F643B6070DD0EC
:1007A000C768560005FA06FC27EA0C07D1F808C00E
:1007B0000CFA06FC4CEA070CC0F80CC00E7906F0E7
:1007C0000306022E10D1D60800EB8608D8F8206068
:1007D00057074FEAD76C09FA0CF7BE430F6907FABF
:1007E0000CF73743C8F8207006684FEA420C05FA48
:1007F0000CF7BE430F7907F0030707FA0CF73743EE
:1008000007604E6816F4403F6DD03B4E376847F4A2
:1008100080473760366822F0030706F4804600966A
:10082000364E07EB060CDCF8086897073F0F09FA0D
:1008300007F826EA0806DFF8C880404503D14FF0E4
:1008400000081EE04FE0DFF8BC80404502D14FF0C9
:10085000010816E0DFF8B080404502D14FF00208F1
:100860000FE0DFF8A880404502D14FF0030808E010
:10087000DFF89C80404502D14FF0040801E04FF0C2
:10088000070808FA07F848EA0608CCF80888DAF8F2
:1008900000605746D1F804C09E435FEACC2C00D5D7
:1008A0001E433E60DBF800605F46D1F804C09E4303
:1008B0005FEA8C2C00D51E433E60DEF80060774670
:1008C000D1F804C09E435FEA8C3C00D51E433E60D5
:1008D000084F083F3E68D1F804C09E435FEACC3C15
:1008E00000D51E433E60521C102AFFF431AFBDE814
:1008F000F88F0000083C01404438024000300140BD
:10090000000002400004024000080240000C0240C7
:10091000001002400148806870470000000000207D
:10092000024881680278114481607047000000200D
:100930000B4810B5016841F400710160016841F491
:1009400080610160016841F480710160032000F062
:100950006FF80F2000F006F800F024F8002010BD1A
:10096000003C024070B50D4D04464FF47A71287872
:10097000B1FBF0F00A490968B1FBF0F000F00CFBA4
:1009800048B9102C07D200222146501E00F030F842
:1009900000206C6070BD012070BD000000000020D0
:1009A0000C0000200A4808B5016841F4804101604C
:1009B000006800F4804000900548001F016841F085
:1009C00080510160006800F08050009008BD000078
:1009D00044380240002809DB00F01F020121914049
:1009E0004009800000F1E020C0F8001170470000CD
:1009F000F0B40E4B1B680C46C3F30223C3F107058A
:100A0000042D00D90425191D072901D2002300E077
:100A1000DB1E012606FA05F1491E214099409E4041
:100A2000761E16403143F0BC01F032B80CED00E008
:100A3000064900F0070208684FF6FF03184040EA35
:100A40000220034A10430860704700000CED00E0EC
:100A50000000FA052DE9F0470E46050065D0DFF8E5
:100A60001481D8F80000F7B200F00700B04207D2B6
:100A700088F80070D8F8000000F00700B04254D1A8
:100A800028683D4C810712D5400703D5206840F403
:100A9000E05020602878000703D5206840F46040CB
:100AA00020602068A96820F0F000084320602878C2
:100AB000C0072DD0304968680839012812D00228B3
:100AC00013D0032811D00968890700292DDA21687D
:100AD00021F0030101432160FFF71CFF814641F231
:100AE000883A0EE009688903EFE709688901ECE7B5
:100AF000FFF710FFA0EB0901514502D90320BDE823
:100B0000F0872068696800F00C00B0EB810FEFD12E
:100B1000D8F80010404601F00701B14207D907702C
:100B2000006800F00700B04201D00120E7E7287814
:100B3000400705D52068E96820F4E05008432060AC
:100B40002878000706D52068296920F4604040EA2B
:100B5000C100206000F038F82168084AC1F3031191
:100B6000515CC8400649086006480068FFF7FAFE75
:100B70000020C4E7003C024008380240181C00086E
:100B80000C000020040000200448054900680968A2
:100B9000044AC1F38221515CC84070470C00002018
:100BA00008380240281C0008044805490068096804
:100BB000044AC1F34231515CC84070470C00002028
:100BC00008380240281C0008154810B5006810F0CD
:100BD0000C02144813D01449042A0FD0082A0ED14D
:100BE0000F4C241F2268236802F03F025B0207D5E6
:100BF0002068C0F38810A0FB010106E0084610BD84
:100C00002168C1F38811A1FB00010023FFF7E2FA7C
:100C10002168C1F30141491C4900B0FBF1F010BD4E
:100C2000083802400024F40040787D012DE9F84F97
:100C300004006ED02078DFF84C93C007A9F10405BA
:100C40004AD009F104000168C1F38101012908D0EB
:100C50000068C0F3810002280AD1D9F800004002E0
:100C600006D52868800337D560680028E1D033E0D6
:100C70006068B0F5803F10D0B0F5A02F286810D084
:100C800020F480302860286820F480202860606884
:100C9000A8B1FFF73FFE06460DE0286840F480301B
:100CA000F4E740F480202860F7E700BFFFF732FE4A
:100CB000801B642873D828688003F7D50CE0FFF701
:100CC00029FE064605E000BFFFF724FE801B6428CE
:100CD000F0D828688003F7D42078DFF8AC8280074A
:100CE0004FF0000A3ED5A748001D016811F00C0F17
:100CF00008D00068C0F3810002280BD1D9F80000A9
:100D0000400207D42868800716D5E068012800D182
:100D100012E033E1E068B8B10120C8F80000FFF745
:100D2000F9FD064605E000BFFFF7F4FD801B022831
:100D3000C0D828688007F7D52868216920F0F80016
:100D400040EAC10028600DE0C8F800A0FFF7E2FD0E
:100D5000064604E0FFF7DEFD801B02281FD8286846
:100D60008007F7D42078000722D5864F874861692D
:100D7000703771B101210160FFF7CCFD064604E038
:100D8000FFF7C8FD801B022809D838688007F7D50F
:100D90000EE0C0F800A0FFF7BDFD064605E082E0CA
:100DA000FFF7B8FD801B02287DD838688007F7D48C
:100DB0002078400768D5DFF8CCB100270BF13C0B59
:100DC000DBF80000C0000BD4DBF8001041F08051CC
:100DD000CBF80010DBF80000012700F080500090F5
:100DE0006B4E3068C00510D4306840F480703060BD
:100DF000FFF790FD009005E0FFF78CFD0099401A89
:100E0000022850D83068C005F6D55E4EA0686C3612
:100E100001280FD00528306810D020F00100306084
:100E2000306820F004003060A068B8B1FFF772FDB0
:100E300000900FE0306840F00100F4E740F004005B
:100E40003060F7E7FFF766FD0099411A41F28830FC
:100E5000814266D830688007F4D50EE0FFF75AFD6E
:100E6000009007E0FFF756FD0099411A41F28830E3
:100E7000814256D830688007F4D42FB1DBF80010D7
:100E800021F08051CBF80010A069C8B33D49091D7D
:100E90000968C1F3810102294AD00228504607D0CF
:100EA000C8F8600000E03CE0FFF734FD04463BE09A
:100EB0004746C8F86000FFF72DFD064605E000BF75
:100EC000FFF728FD801B02282BD828688001F7D463
:100ED000D4E907010843A16A2E4A490802EB0141FF
:100EE000626A41EA8211084394F82C1040EA0161D9
:100EF000C9F8001001203866FFF70CFD044606E033
:100F00003EE000BFFFF706FD001B022809D8286855
:100F10008001F7D534E000BFFFF7FCFC001B02287E
:100F200002D90320BDE8F88F28688001F4D427E0B7
:100F30000128F7D0D9F80000E26900F4800191425D
:100F40001CD1226A00F03F01914217D147F6C071CF
:100F5000626A0140B1EB821F10D1A26A4FF0FF33E9
:100F600000F4403103EB5202B1EB024F06D194F88A
:100F70002C1000F07060B0EB016F01D00120D1E7C0
:100F80000020CFE70438024000004742800E47426D
:100F9000007000400000FFFF10B5401EB0F1807FE0
:100FA00001D3012010BD4FF0E02460610F216017D4
:100FB00000F06EFD0020A06107202061002010BD20
:100FC000704710B504460068406994F83D10C0F3BE
:100FD000C010212911D180B12068143050E8001FC1
:100FE00021F0800140E80012002AF5D1606B08B1C1
:100FF000FFF7C1F9204600F097FB2068406994F89C
:101000003E10C0F38010222911D180B12068143025
:1010100050E8001F21F0400140E80012002AF5D1FD
:10102000A06B08B1FFF7A7F9204600F056FB00209F
:1010300010BD7047F8B5016804460868CA684B6976
:1010400010F00F0F4FF0000559D003F0010602F425
:101050009077374365D0C10705D0D10503D5216C02
:1010600041F001012164410705D5D90703D0216C66
:1010700041F002012164810705D5D90703D0216C15
:1010800041F004012164010707D502F0200131433A
:1010900003D0216C41F008012164216C00293AD071
:1010A000800604D5900602D5204600F04BFB206850
:1010B0004069216CC0F38010090700D460B320465A
:1010C00000F00BFB20684069400621D520681430F1
:1010D00050E8001F21F0400140E80012002AF5D13D
:1010E000A06BA8B16C490165A06BFFF78DF90028D2
:1010F00011D0A06B016D01B0BDE8F0400847830638
:101100000FD593060DD52046BDE8F84000F01ABB78
:101110002046FFF78EFFF8BD2046FFF78AFF2564C3
:10112000F8BD266B2023012E79D1C60677D5D606C9
:1011300075D50868486800904869400640D5A16B9D
:10114000086840680004000CEAD0A28D8242E7D90A
:10115000E085C869B0F5807F2DD020680C3050E85C
:10116000001F21F4807140E80012002AF5D12068A8
:10117000143050E8001F21F0010140E80012002A5D
:10118000F5D12068143050E8001F21F0400140E8FC
:101190000012002AF5D184F83E30256320680C3017
:1011A00050E8001F21F0100140E80012002AF5D19C
:1011B000A06BFFF7E0F8A08DE18D401A81B229E025
:1011C000A08DE18D401A81B2E08D0028A8D00029C1
:1011D000A6D020680C3050E8002F22F4907240E82E
:1011E0000026002EF5D12068143050E8002F22F0A0
:1011F000010240E80026002EF5D184F83E30256338
:1012000020680C3050E8002F22F0100240E8002344
:10121000002BF5D12046FFF7D3FEF8BDFFE705060A
:101220002BD5150629D594F83D002128F5D1A068C5
:10123000B0F5805F01D12069B0B1206A411C216204
:10124000216800784860E08C401E0004000CE084B7
:10125000E3D12068C16821F08001C1602068C168C5
:1012600041F04001C160D8E7206A0088C0F308005F
:101270004860206A801C2062E5E74006CDD5500614
:10128000CBD5CA68204622F04002CA6084F83D30BF
:1012900000F0FFF8C1E70000E515000870B5040094
:1012A00004D094F83D00002510B106E0012070BD87
:1012B00084F83C50204600F023F8242084F83D00B8
:1012C0002068C16821F40051C160204600F09AFAFC
:1012D0002068016921F4904101612068416921F091
:1012E0002A0141612068C16841F40051C160256450
:1012F000202084F83D0084F83E00002070BD0000EE
:1013000070B586B0064614216846FEF79BFF234958
:101310003068884240D122480025016841F0100120
:101320000160006800F0100005901D481438016845
:1013300041F0010101600068694600F0010005907C
:101340004FF4C06000900220CDE901050320039016
:10135000072004901348FFF7EDF9144C1248206061
:101360004FF00060C4E901054014C4E90350656111
:10137000A561E561256220466562FFF727F908B19E
:10138000FEF7F7FFB463002211462520A663FFF79E
:101390002FFB2520FFF71EFB06B070BD001001409B
:1013A00044380240000002404064024058000020DF
:1013B00090F83E30202B0ED159B152B190F83C300C
:1013C000012B08D0012380F83C300023036300F098
:1013D0009FBA012070470220704770477047000095
:1013E0002DE9F843044690F83D001F4616460D4689
:1013F00020284CD1C5B1BEB194F83C00012846D09C
:10140000012084F83C004FF00008C4F840802120FF
:1014100084F83D00FFF77EFAA6848146E684A06842
:10142000B0F5805F03D004E00120BDE8F8832069B7
:1014300028B12E465FF0000584F83C800EE00026BF
:10144000FAE78021204600F0ADFAA0B9AEB116F857
:10145000010B21684860E08C401EE084E08C4B4624
:101460004FF0000200970028EBD14FF040012046DA
:1014700000F098FA30B10320D7E735F8020BC0F33B
:101480000800E6E7202084F83D000020CDE7022098
:10149000CBE77047FEE70000094808B5016841F452
:1014A000800101600068002200F480000090114675
:1014B0003A20FFF79DFABDE808403A20FFF78ABAC4
:1014C000303802400D4808B5016841F00401016060
:1014D000016801F004010091016841F080010160A0
:1014E000016801F080010091016841F00101016093
:1014F000006800F00100009008BD00003038024094
:101500000C4810B50A4901604FF4E13141600021F7
:1015100081600C22C160C0E904128161C161FFF7E2
:10152000BDFE002803D0BDE81040FEF722BF10BD6D
:101530000010014014000020FEE7FEE770477047EE
:10154000FFF7EEB930B593B030216846FEF77AFE6A
:1015500014210CA8FEF776FE1C480024016841F017
:1015600080510160006800F08050119018480168B7
:1015700041F4404101600068022500F440401190B0
:101580000120039010200490009506950820CDE9D5
:1015900007406420CDE9090504200B906846FFF759
:1015A00045FB08B172B6FEE70F20CDE90C054FF4FC
:1015B0008050CDE90E4003210CA81094FFF74AFAA1
:1015C000002801D072B6FEE713B030BD40380240AB
:1015D000007000400248016841F4700101607047EA
:1015E00088ED00E010B5806B0021C185C184FFF754
:1015F00020FD10BD70B5846B2068406994F83D10E3
:10160000C0F3C0100025212904D118B1E58420467B
:1016100000F08AF82068406994F83E10C0F380100A
:10162000222904D118B1E585204600F056F8206C37
:1016300040F0100020642046FFF7FBFC70BD10B5A1
:101640000146806B09680968C9052FD40021C1854E
:1016500001680C3151E8002F22F4807241E8002328
:10166000002BF5D10168143151E8002F22F001025E
:1016700041E80023002BF5D10168143151E8002F17
:1016800022F0400241E80023002BF5D1202180F810
:101690003E10016B012909D101680C3151E8002F7E
:1016A00022F0100241E80023002BF5D1016B012943
:1016B00002D0FFF792FE10BD818DFFF781FC10BDB7
:1016C00010B5806B016B012902D0FFF787FE10BDBA
:1016D000818D4908FFF774FC10BD01680C3151E899
:1016E000002F22F4907241E80023002BF5D101680D
:1016F000143151E8002F22F0010241E80023002BB1
:10170000F5D1016B012909D101680C3151E8002F95
:1017100022F0100241E80023002BF5D1202180F8AF
:101720003E1000210163704701680C3151E8002F21
:1017300022F0C00241E80023002BF5D1202180F8DF
:101740003D10704708B590F83E10222901D00220C4
:1017500008BD82684FF480539A4201D1016921B1DA
:10176000816A9A421BD04AB10AE00268816A5268D3
:10177000C2F308020A80816A891C08E0026972B11A
:101780000268526802F07F020A70816A491C816215
:10179000C18D491E0904090CC18503D019E00268F6
:1017A0005268F1E70168CA6822F02002CA60016845
:1017B000CA6822F48072CA6001684A6922F0010294
:1017C0004A61202180F83E10016B012903D0FFF708
:1017D00004FE002008BD0021016301680C3151E8BE
:1017E000002F22F0100241E80023002BF5D1016800
:1017F0000A68D20602D50A6849680091818DFFF710
:10180000DFFBE6E770B5044600680169E26821F491
:101810004051114301612169A068E269084361698F
:10182000114308432168CA6849F20C639A43024392
:10183000CA6020684169A26921F440711143416185
:1018400031492068884202D03049884202D1FFF7EE
:10185000ABF901E0FFF798F9E2690023192164254B
:101860003226B2F5004F626828D0A0FB0101930F29
:101870009200FEF7AFFC0146B0FBF5F06FF01802E6
:10188000504301EB800006EB0010B0FBF5F000F0D8
:10189000F002B1FBF5F002EB0012B1FBF5F06FF0D6
:1018A0001803584301EB800006EB0010B0FBF5F085
:1018B00000F00F0021681044886070BDA0FB01019A
:1018C00092185B41FEF786FC0146B0FBF5F0020181
:1018D000B1FBF5F06FF01803584301EB800006EB05
:1018E000C000B0FBF5F000F0F80002EB4002B1FBE5
:1018F000F5F0584301EB800006EBC000B0FBF5F0BB
:1019000000F00700D6E7000000100140001401407D
:1019100038B581628285002513460446056422207D
:1019200084F83E00A26B1C48D063A26B1B48106475
:10193000A26B1B48D064A06B0A4605652168A06BAA
:10194000091DFEF7ADFE206801684068009084F82C
:101950003C50206948B120680C3050E8001F41F429
:10196000807140E80012002AF5D12068143050E858
:10197000001F41F0010140E80012002AF5D1206863
:10198000143050E8001F41F0400140E80012002AE6
:10199000F5D1002038BD00003F160008C116000830
:1019A000F51500082DE9F041984617460E46044605
:1019B000069D27E0681C25D02DB1FEF7ABFFA0EBFC
:1019C0000800A8421ED920680C3050E8001F21F4FE
:1019D000D07140E80012002AF5D12068143050E898
:1019E000001F21F0010140E80012002AF5D120205B
:1019F00084F83D0084F83E00002084F83C00032079
:101A0000BDE8F0812068006836EA000004D00020BC
:101A1000B842CFD00020F3E70120F9E710B50D4818
:101A200000680168C943C9060ED46FF01001016057
:101A30000848FFF7C6FA084908A000F019F8322252
:101A400005490448FFF7B4FCBDE810400148FFF722
:101A5000F1BA000014000020B80000207265636530
:101A6000697665206F6B3A25730D0A00FEE700006A
:101A70000FB4054B10B503A9044A029800F027F8EB
:101A800010BC5DF814FB0000A51B0008100000202E
:101A90000907090E002804DB00F1E02080F800149B
:101AA000704700F00F0000F1E02080F8141D70472F
:101AB00002E008C8121F08C1002AFAD17047704717
:101AC000002001E001C1121F002AFBD170472DE95F
:101AD000F84F9946924688460546002706E0252895
:101AE0000AD051464A4690476D1C7F1C2878002832
:101AF000F5D13846BDE8F88F002315F8011F1846C8
:101B00002E2915D115F8011F04232A290DD06FF0B5
:101B10002F022978A1F13004092C09D800EB8000AC
:101B200002EB400008446D1CF3E758F8040B6D1CF1
:101B30002A78002ADDD0632A07D0732A0FD01046F6
:101B400051464A4690477F1C2AE018F8042B8DF82E
:101B5000002000218DF801106E46012103E058F8A5
:101B6000046B4FF0FF315A074FF0000401D409E035
:101B7000641C84420BDA8C42FADB325D002AF7D116
:101B800005E0641C8C42FCDB305D0028F9D1274461
:101B900004E016F8010B51464A469047641EF8D2FD
:101BA0006D1CA3E713B54FF6FF7301226946024887
:101BB000FFF716FC00981CBD14000020FEF7B8FECD
:101BC000FFF7C0FCFFF77EFCFFF766FCFFF798FC11
:101BD000322209490948FFF7EBFB08480068C16851
:101BE00041F01001C1604FF4FA7405A0FFF740FF07
:101BF0002046FEF78DFDF8E7B80000201400002015
:101C00007561727420545820746573740D0A000055
:101C1000000610160006101600000000000000006C
:101C20000102030406070809000000000102030482
:101C3000501C00080000002014000000B01A00082A
:101C4000641C000814000020DC040000C01A000816
:101C50000100000010000000000000000024F4005B
:041C60000000000080
:040000050800019955
:00000001FF
