:020000040800F2
:1000000038940020B1010008673B0008AF280008C1
:10001000653B000811090008AD4000080000000021
:100020000000000000000000000000007D3C00080F
:100030003109000800000000693B00087F3C00080F
:10004000CB010008CB010008CB010008CB01000860
:10005000CB010008CB010008CB010008CB01000850
:10006000CB010008CB010008CB010008CB01000840
:10007000CB010008CB010008CB010008CB01000830
:10008000CB010008CB010008CB01000800000000F4
:10009000000000000000000000000000CB0100088C
:1000A000CB010008CB010008CB010008CB01000800
:1000B000CB010008CB010008CB010008CB010008F0
:1000C000CB010008CB010008CB010008CB010008E0
:1000D000CB010008CB010008CB01000800000000A4
:1000E000CB010008CB010008CB0100080000000094
:1000F000000000000000000000000000CB0100082C
:1001000000000000CB010008CB010008CB01000873
:1001100000000000000000000000000000000000DF
:10012000CB010008CB010008CB010008CB0100087F
:10013000CB010008000000000000000000000000EB
:10014000000000000000000000000000CB010008DB
:10015000CB010008CB010008CB010008CB0100084F
:10016000CB010008CB0100080000000000000000E7
:10017000000000000000000000000000000000007F
:1001800000000000CB01000800000000000000009B
:10019000CB010008CB010008DFF810D000F0A6FB6F
:1001A00000480047DD590008AFF300803894002074
:1001B0000648804706480047FEE7FEE7FEE7FEE701
:1001C000FEE7FEE7FEE7FEE7FEE7FEE7153D000877
:1001D000990100082DE9F05F0546002092469B46F4
:1001E00088460646814640241BE02846414647464D
:1001F000224600F02CFA53465A46C01A914110D3B9
:1002000011461846224600F013FA2D1A67EB010832
:100210004F4622460120002100F00AFA17EB0009A0
:100220004E41201EA4F10104DFDC484631462A4637
:100230004346BDE8F09FD2B201E000F8012B491E11
:10024000FBD270470022F6E710B513460A46044673
:100250001946FFF7F0FF204610BD2DE9FE4F8046FE
:1002600081EA0300C00F0C46009021F0004123F00A
:100270000045B8EB0200A94105D240462146904610
:100280001C460B46024623F00040104347D0270D82
:10029000C7F30A00C3F30A510290401A01904028A4
:1002A0006BDAC3F3130040F4801B0098924620B130
:1002B0000023D2EB030A63EB0B0B01985946C0F104
:1002C0004002504600F0B4F906460D4650465946E5
:1002D000019A00F0CCF910EB08006141002487EA94
:1002E000115284EAE7731A4340D0009A62B3019A2C
:1002F000012A4FEA075215DC001B61EB02014FF0A7
:10030000004202EA0752CDE90042001C41F580118B
:1003100032462B4600F003FA03B0BDE8F08F4046AA
:100320002146F9E7001B61EB0201001C41F5801337
:1003300000185B412018A2F5001747EB030140EAC3
:10034000D570B6196D4111E06D084FEA360645EAE1
:10035000C0754FEA0752001B61EB0201001C41F51A
:10036000801149084FEA30000019514132462B46AE
:1003700003B0BDE8F04F00F0C3B90098012240007F
:100380000023D0EB020263EBE073009821464FEAB2
:10039000E074B8EB000061EB0401E9E783F000438F
:1003A0005BE781F0004158E72DE9FE4F81EA030445
:1003B00004F0004421F0004100944FF0000B23F0C2
:1003C000004350EA01045ED052EA03045BD0C3F359
:1003D0000A54C1F30A552C44A4F2F3340194A0FB4F
:1003E0000254C1F3130141F48011C3F3130343F426
:1003F000801301FB024400FB034E840A970A44EA7F
:10040000815447EA8357A4FB076802958D0A05FBD0
:1004100007854FEA932C04FB0C542705029D4FEAF5
:10042000065847EA1637B5EB08056EEB070C870E42
:10043000920E47EA811742EA8312A7FB0201B6EB4C
:100440000B0164EB00042B0D43EA0C335E1844EB04
:100450001C50DA465146E7FB0201C5F313044FEA8C
:100460000B3343EA14534FEA0432019C43EA060378
:10047000A4F10C040294009CCDE900B400F04FF903
:1004800003B0BDE8F08F00200146F9E72DE9F04DFB
:1004900081EA030404F0004B21F0004514464FF0BC
:1004A000000A23F0004150EA050220D054EA01027C
:1004B0001DD0C5F30A570246C5F31303C1F3130059
:1004C000C1F30A5640F4801543F48013A7EB0608E5
:1004D000101BD64608F2FD3873EB050002D308F175
:1004E000010801E092185B41B8F1000F03DA002027
:1004F0000146BDE8F08D00204FF480110646844689
:100500000EE0171B73EB050705D3121B63EB050306
:1005100006434CEA010C49084FEA300092185B414F
:1005200050EA0107EDD152EA030012D082EA04003A
:1005300083EA0501084305D0101BAB4106D2012216
:10054000002306E000224FF0004302E06FF00102BA
:1005500053101AEB06004CEB085110EB0A0041EB6C
:100560000B01BDE8F04D00F0CBB80EB5C10F80EA2D
:10057000E0700844CA07002140F233438DE80E00C2
:100580000A460B4600F0CBF803B000BD0EB540F2B2
:10059000334102910021CDE900110A460B4600F0DB
:1005A000BEF803B000BD00F0004230F000400AD0B9
:1005B000C10D01F56071C0F3160042EA0151C20895
:1005C00040071143704700200146704701F0004387
:1005D00030B421F0004150EA010206D00A0DA2F524
:1005E0006072C1F31301002A02DC30BC00207047A6
:1005F000440F44EAC104C100E01830BC00EBC25013
:1006000000F047B830B50B460146002020220124F7
:1006100009E021FA02F59D4205D303FA02F5491BD0
:1006200004FA02F52844151EA2F10102F1DC30BDE6
:10063000202A04DB203A00FA02F1002070479140A2
:10064000C2F1200320FA03F3194390407047202A97
:1006500004DB203A21FA02F00021704721FA02F36C
:10066000D040C2F120029140084319467047202A29
:1006700006DBCB17203A41FA02F043EAE07306E0CA
:1006800041FA02F3D040C2F12002914008431946DA
:1006900070470029A8BF7047401C490008BF20F0E0
:1006A0000100704710B4B0FA80FC00FA0CF050EA78
:1006B000010404BF10BC704749B1CCF1200421FAF9
:1006C00004F411FA0CF118BF012121430843A3EBF4
:1006D0000C01CB1D4FEA00614FEA102042BF002001
:1006E00010BC704700EBC35010440029A4BF10BCDD
:1006F0007047401C490008BF20F0010010BC704743
:1007000010B5141E73F1000408DA401C41F1000119
:1007100092185B411A4301D120F0010010BD2DE970
:10072000F04D92469B4611B1B1FA81F202E0B0FA67
:1007300080F220329046FFF77BFF04460F4640EAE6
:100740000A0041EA0B0153465A46084313D01146AA
:1007500053EA010019D0C8F140025046FFF777FF75
:1007600005460E46504659464246FFF761FF08438C
:1007700005D0012004E020463946BDE8F08D002078
:10078000054346EAE0762C4337430A986305E40ABA
:10079000A0EB08000022FD0A44EA47540A3002D5C3
:1007A00000200146E9E7010510196941DDE9084526
:1007B00000196941BDE8F04DA2E770B521F0004392
:1007C00003430CD0C1F30A550024D5EB040564EBB8
:1007D0000403D617AD1AB34102DB0020014670BDF9
:1007E000201841EB025170BD2DE9F04D00231A464F
:1007F0001B1A8A4103DB00200146BDE8F08DC1F3DE
:100800000A52C1F3130141F480154FF0000BD107D8
:1008100002D100186D41521E0027044640F2FF111C
:10082000384601EB620A3E468046024600204FF4FD
:100830008011FFF70CFFC2197141BB1846EB010094
:10084000B4EB030C75EB000C04D3E41A65EB000564
:1008500017460E46241908F101006D4180463428E0
:10086000E3DDF91946EB0600091BA84103D24FF05E
:10087000FF32134601E0002213461BEB070046EB54
:100880000A51BDE8F04DFFF73BBFC1F30A52C1F377
:10089000130140F2FF3341F480119A4202DA002042
:1008A0000146704740F233439A42A2F2334202DCDF
:1008B0005242FFF7CCBEFFF7BBBE000030B5041EAE
:1008C00071F1000404DB4FF00044404264EB01018D
:1008D000141E73F1000405DB1C464FF00043524226
:1008E00063EB0403994208BF904230BD064C074DAC
:1008F00006E0E06840F0010394E8070098471034F0
:10090000AC42F6D3FFF74CFC409700086097000814
:10091000FEE7411A01F121026FF00500032A06D318
:100920004A1C032A03D31F39032900D30020704730
:10093000704772B6FEE700002DE9F04F07462DED37
:10094000068BADF6145D8846B0F84000C0F3031185
:10095000CDF8001DC0F30321CDF80C1D1E2100F0C1
:100960000F0C01EB1034B7F84200CDF8080D00224F
:100970000DF5496007EB42019300B1F84410521C99
:1009800001F00F0540F8235000EB8303C1F303157A
:100990005D60C1F30325090BC3E90251062AE9DBB7
:1009A0005FF0000150F82120072A02DD103A40F8DC
:1009B0002120491C1829F5DB00220DF5416107EBC8
:1009C00042039500B3F85030521C03F00F0641F873
:1009D000256001EB8505C3F303166E60C3F30326A0
:1009E0001B0BC5E90263082AE9DB002251F822301B
:1009F000072B02DD103B41F82230521C202AF5DB88
:100A0000012000FA0CFB0026DFED6F8A0DF1100AC1
:100A10002046FFF7BBFD9FED6D9BB6EE008A08F503
:100A20008059CDF8F41C01905FF0000505EB4610ED
:100A300007EB40010AEB8004B1F88010C1F3051107
:100A400000EE101A6349B8EE401A11EE100A84ED58
:100A5000001A884205DD9FED600A31EE400A84ED00
:100A6000000A00EE10BAD4ED000A0DF54960B8EEA8
:100A7000C00A20EE800A84ED000A50F82600DDF856
:100A80000C1D8840DDF8081D42180DF54160DDF8A9
:100A9000001D50F825008840104400EE900AF8EE42
:100AA000E00A30EE800AF0EE690A84ED000ADDF813
:100AB000F41C0198B0EE490A41EC110B03F030FB35
:100AC000B0EE401AF0EE601AB0EE41AAF0EE61AA64
:100AD0002068FFF768FD53EC1A2BFFF7D7FCFFF7F0
:100AE00075FD01EE100A6D1C84ED001A99ED940A53
:100AF000D9ED950A202D30EE200AD8ED060A20EE19
:100B0000200A00EE481A84ED001A88EE810A84ED6E
:100B1000000A8BDB761C182E86DB9DED041A012063
:100B200057464FF4407600BF07EB800191ED000A75
:100B3000B4EEC10AF1EE10FA01DDB0EE401A401C2D
:100B4000B042F1DB0024B0EE000A4FF08E4103E02A
:100B500021EE001A641CE4B211EE100A8842F7DBA1
:100B600000252046FFF712FD8A4681464AEC119B7C
:100B7000B0EE490AF0EE690A03F0D2FAB0EE40AAEC
:100B8000F0EE60AA57F82500FFF70DFD53EC1A2B85
:100B9000FFF70AFCFFF71AFD00EE100A08EB45010B
:100BA0006D1C30EE080AB542BCEEC00A10EE100A09
:100BB000A1F84A00DADB88F84A460DF6145DBDEC70
:100BC000068BBDE8F08F0000BD37863500000000C1
:100BD000000000400000F8410000804210B5828A09
:100BE000802303EA121282F08003B0F86A20204CBE
:100BF00002F03F0000EE100AB8EE400A10EE100AB4
:100C0000A04203DDDFED1B0A30EE600ADFED1A0AB9
:100C1000C2F38410194C60EE200A00EE100A9FED1A
:100C2000181AB8EE400A10EE100AA04201DD30EEAC
:100C3000410AF6EE001AD00A60EE211A00EE100A00
:100C4000B8EE400A10EE100AA04201DD30EE410A73
:100C5000B4EE001A81F8253001F5805120EE010A2A
:100C6000C1ED970AC1ED981A81ED990A10BD0000F7
:100C70000000F841000080420000803D000070410B
:100C8000000000422DE9F04105462DED088B0E468F
:100C90001B21B0F84000B5F8742001EB1031C2F30D
:100CA000090060F30F04B0F5007F03DBA0F580605E
:100CB00060F30F04900A60F31F441F2802DD4038E0
:100CC00060F31F4404EB244060F31F44B5F8720046
:100CD000574AC0F3090000EE100AB8EE408A18EE39
:100CE000100A904203DD9FED530A38EE408A084611
:100CF000FFF74CFC41EC110B9FED4F9BB0EE490A06
:100D0000F0EE690A03F00CFAB0EE401AF0EE601A49
:100D1000B0EE41AAF0EE61AA18EE100AFFF743FC0C
:100D200053EC1A2BFFF7B2FBFFF750FC01EE900AD1
:100D3000B5F8720011EE907A800A00EE100A404970
:100D4000B8EE401A11EE100A884203DD9FED3D0A0D
:100D500031EE401ADFED3C0AB7EE000A95F8760056
:100D600001EE200ADFF8E4809FED39BA60EE218AB7
:100D700000EE100AB8EE408A18EE100A404501DD78
:100D800038EE4B8A95F87000C0F303100830FFF777
:100D9000FDFB41EC110BB0EE490AF0EE690A03F0DD
:100DA000BFF9B0EE40AAF0EE60AA18EE100AFFF705
:100DB000FAFB53EC1A2BFFF769FBFFF707FC3062D5
:100DC000B5F87600000A00EE100AB8EE408A18EE78
:100DD000100A404501DD38EE4B8AB5F87000C0F3CB
:100DE0000320FFF7D3FB41EC110BB0EE490AF0EE04
:100DF000690A03F095F9B0EE409AF0EE609A18EEA9
:100E0000100AFFF7D0FB53EC192BFFF73FFBFFF75E
:100E1000DDFBF061A6F55B6606F500562014376031
:100E2000C6ED018A34817081BDEC088BBDE8F0818C
:100E30000080FF43000080440000000000000040EC
:100E40000000F841000080420000003C0000FE422B
:100E5000000080432DE9F0410E46002107460C4674
:100E60000D4608464FF6FF7306EB410202F580522D
:100E7000491CA2F8683289B2A2F872320529F3D36C
:100E800000214FF4407300BF07EB4102B2F880200D
:100E9000BAB1D20707D006EB450202F580526D1CAD
:100EA000A2F87212ADB2491C89B2994203D2052C44
:100EB00001D2052DE8D3042C0CD96FF00200BDE857
:100EC000F08106EB440202F58052641CA2F868121D
:100ED000A4B2E8E7042D02D96FF00300EFE761192F
:100EE000042902D96FF00400E9E7002317E006EBBC
:100EF00043015F1C01F580580DE000BF06EB470081
:100F000000F58050B0F86812B8F86802FFF701FDEC
:100F10000028D4D17F1CA742F0DB5B1C9BB2A3420C
:100F2000E5D3002317E006EB43015F1C01F5805871
:100F30000DE000BF06EB470000F58050B0F87212DC
:100F4000B8F87202FFF7E5FC0028B8D17F1CAF4269
:100F5000F0DB5B1C9BB2AB42E5D3002317E006EB52
:100F60004301002701F580580DE000BF06EB470064
:100F700000F58050B0F87212B8F86802FFF7C9FCAB
:100F800000289CD17F1CAF42F0DB5B1C9BB2A342CC
:100F9000E5D394E7B0F96000B0F5004F00DB00B294
:100FA00088827047B0F878000A4A000A00EE100AFA
:100FB000B8EE400A10EE100A904203DDDFED060A9B
:100FC00030EE600ADFED050A20EE200A81ED0A0A04
:100FD000704700000000FE4200008043000000391E
:100FE00030B530F87E2F6FF02703C2F3013202EBE9
:100FF00082025200A1F840300023A1F8423010F8DC
:101000000439C3F30313A1F844308488C4F30324E0
:1010100013FB02F3A1F8443014FB0232A1F846207E
:101020004FF4C872A1F848200279224D02F00F0354
:10103000012208339A400378DFED1F0A00EE103AD0
:10104000B8EE400A81ED0B0A03881B0A00EE103A45
:10105000B8EE400A81ED0C0A837800EE103AB8EE43
:10106000400A81ED0D0A4088000A00EE100A0020B7
:10107000B8EE400A81ED0E0A01EB800393ED0B0AF6
:1010800010EE104AAC4203DD30EE600A83ED0B0A2D
:10109000B0EE401A00EE102A401C0428B8EEC00A38
:1010A000C1EE001AC3ED0B1AE6DB9FED040A81EDD9
:1010B0000F0A30BD0000FE420000804317B751B94F
:1010C0002DE9F34F07462DED068BADF60C4DB0F82C
:1010D0006C1041F307207F2800DD40B28DF8080C2A
:1010E00048B27F2800DD40B28DF80A0CB7F86E10C8
:1010F00041F307207F2800DD40B28DF8090C48B28B
:101100007F2800DD40B28DF80B0C97F87010002698
:10111000C1F3031001F00F02012101FA02F9DFF817
:10112000B0A10DF6084BE8460830FFF72FFA9FED07
:10113000698B0DF5406203C25FF0000505EB4610B8
:10114000C11700EBD16200EB916189115211494244
:1011500002EB410100EBD07222F00102821A02EB95
:10116000410107EB400208EB800492F88020C9B2ED
:10117000C2F3420200EE102AB8EE401A11EE100A35
:1011800084ED001A504505DDB2EE000A31EE400A4A
:1011900084ED000A00EE109AD4ED000AB8EEC00A01
:1011A00020EE800A84ED000A1BF9010000EE900A8F
:1011B0000DF54060F8EEE00A30EE800AF0EE680AC5
:1011C00084ED000A03C8B0EE480A41EC110B02F0AE
:1011D000A7FFB0EE409AF0EE609A2068FFF7E3F9BF
:1011E00053EC192BFFF752F9FFF7F0F96D1C206053
:1011F000202DA3DB761C182E9EDB9DED000A01201E
:101200004746B0EEC01A4FF4407600BF07EB8001AE
:1012100091ED000AB0EEC00AB4EEC10AF1EE10FA88
:1012200001DDB0EE401A401CB042EFDB0025B0EE0D
:10123000000A4FF0854103E021EE001A6D1CEDB26B
:1012400011EE100A8842F7DB00242846FFF79EF9CA
:1012500089468046B0EE489AF0EE689AB6EE00AA4B
:1012600049EC118BB0EE490AF0EE690A02F058FF22
:10127000B0EE408AF0EE608A57F82400FFF793F949
:1012800053EC182BFFF790F8FFF7A0F900EE100AC7
:10129000B5EEC00AF1EE10FA02D230EE4A0A01E0D1
:1012A00030EE0A0ADDF8281C2144BDEEC00A641C99
:1012B000B44210EE100A81F84C0CD1DBDDF8280C9A
:1012C00080F84C5F0DF60C4DBDEC068BBDE8FC8F35
:1012D0000000404000000000000000402DE9F04FF9
:1012E00089462DED068BADF6044DB0F86820110B44
:1012F000072900DD10398DF8001CC2F303210729EE
:1013000000DD10398DF8021CC2F30311072900DD3E
:1013100010398DF8011C02F00F01072900DD10398A
:101320008DF8031CB0F870000025C0F303200DF504
:1013300040686F46FFF72AF98B4682469FED518B36
:101340005FF0000404EB4510C11700EBD16200EB25
:10135000916189115211494202EB410100EBD072B7
:1013600022F00102821A02EB4101C9B218F9011000
:1013700007EB800600EE101A4BEC11ABF0EE680A9A
:10138000B8EEC00A86ED000AB0EE480A02F0C8FEC8
:10139000B0EE409AF0EE609A3068FFF704F953EC33
:1013A000192BFFF773F8FFF711F9641C3060202C3C
:1013B000C8DB6D1C182DC3DB9DED000A01204FF426
:1013C0004076B0EEC00A00BF07EB8001D1ED000A05
:1013D000F0EEE00AF4EEC00AF1EE10FA01DDB0EE34
:1013E000600A401CB042EFDB0025F0EE000A4FF02F
:1013F000854103E020EE200A6D1CEDB210EE100ACC
:101400008842F7DB00242846FFF7C0F88A4680466A
:10141000B6EE009A4AEC118BB0EE480AF0EE680A7C
:1014200002F07EFEB0EE40AAF0EE60AA57F824006B
:10143000FFF7B9F853EC1A2BFEF7B6FFFFF7C6F823
:1014400000EE100AB5EEC00AF1EE10FA02D230EE4C
:10145000490A01E030EE090A09EB0401641CB442B8
:10146000BDEEC00A10EE100A81F84D0FD2DB41F23A
:101470004D2000F809500DF6044DBDEC068BBDE87B
:10148000F08F000000000000000000402DE9F04F48
:101490008B46018CB0F92240B8B001F00F09C1F3BE
:1014A000031CC1F3032AB4F5004F00DB24B2002172
:1014B00020AA00EB41038D009B8C491C03F00F0612
:1014C00042F8256002EB8505C3F303166E60C3F393
:1014D00003261B0BC5E902630629EADB5FF0000166
:1014E00052F82130072B02DD103B42F82130491C15
:1014F0001829F5DB0023694600EB43059E002D8E7D
:101500005B1C05F00F0741F8267001EB8606C5F35A
:1015100003177760C5F303272D0BC6E90275082B67
:10152000EADB002351F82350072D02DD103D41F87E
:1015300023505B1C202BF5DB0023964600225EF82F
:10154000235005FA0AF500BF02EB431600EB4607ED
:101550000BEB4606B7F88070BF0AA6F84C761F2F33
:1015600002DD403FA6F84C7631F82280BFB207FA80
:1015700009F708FA0CF8A84427444744521CA6F877
:101580004C76202AE0DB5B1C182BD7DB38B0BDE89B
:10159000F08F000070B50C462DED048B0546B0F8B9
:1015A0006410254A880A00EE100AB8EE400A10EED0
:1015B000100A904203DDDFED210A30EE600ADFED14
:1015C000200AC1F309001F4920EE208A00EE100A0C
:1015D000B8EE400A10EE100A884203DDDFED1A0A69
:1015E00030EE600AF4EE000AB5F862609FED171B5A
:1015F00060EE208A9FED170B02F092FD288CB0EE72
:10160000409AF0EE609A00F47040FEF7BFFF53EC92
:10161000192BFEF73BFF9FED111B53EC112BFEF72F
:101620001CFEFEF7D3FF84ED018AC4ED028AA68179
:101630002061BDEC048B70BD0000F84100008042C9
:10164000000080390080FF4300008044000000005B
:1016500000002C40000000000000004000000000DE
:101660000000204090F87800094A00EE100AB8EE19
:10167000400A10EE100A904203DDDFED060A30EE5C
:10168000600ADFED050A20EE200A81ED060A7047A8
:101690000000FE42000080430000003DB0F86620DC
:1016A000100A7F2801DDA0F580704001D2B24FF40E
:1016B000404303EB421208804A8070472DE9F84FFF
:1016C000DFF8B8A10022012403254FF00F090AF129
:1016D000040BAAF1040E00BF0B6804FA02F63340B3
:1016E000B34273D10F7907F00307012F01D0022F06
:1016F00016D187684FEA420805FA08FC27EA0C076A
:10170000D1F80CC00CFA08FC4CEA070CC0F808C071
:101710004768B7430E79C6F3001696403E434660CD
:101720000E79F643B6070DD0C768560005FA06FCD9
:1017300027EA0C07D1F808C00CFA06FC4CEA070CA3
:10174000C0F80CC00E7906F00306022E10D1D608A0
:1017500000EB8608D8F8206057074FEAD76C09FAE3
:101760000CF7BE430F6907FA0CF73743C8F820702F
:1017700006684FEA420C05FA0CF7BE430F7907F0F2
:10178000030707FA0CF7374307604E6816F4403F2B
:101790006DD03B4E376847F480473760366822F09B
:1017A000030706F480460096364E07EB060CDCF87D
:1017B000086897073F0F09FA07F826EA0806DFF8D6
:1017C000C880404503D14FF000081EE04FE0DFF82D
:1017D000BC80404502D14FF0010816E0DFF8B08030
:1017E000404502D14FF002080FE0DFF8A8804045E5
:1017F00002D14FF0030808E0DFF89C80404502D199
:101800004FF0040801E04FF0070808FA07F848EA2B
:101810000608CCF80888DAF800605746D1F804C00A
:101820009E435FEACC2C00D51E433E60DBF800608F
:101830005F46D1F804C09E435FEA8C2C00D51E435E
:101840003E60DEF800607746D1F804C09E435FEA50
:101850008C3C00D51E433E60084F083F3E68D1F8DF
:1018600004C09E435FEACC3C00D51E433E60521C40
:10187000102AFFF431AFBDE8F88F0000083C0140AA
:1018800044380240003001400000024000040240A1
:1018900000080240000C024000100240426921EAA8
:1018A00002030A4043EA0241816170470AB1816143
:1018B00070470904FBE7000001488068704700009A
:1018C0003000002070B5040025D094F83D000025BC
:1018D00020B984F83C50204600F04CFA242084F8CB
:1018E0003D002068016821F0010101602068016865
:1018F00041F4004101602068016821F40041016069
:1019000000F0A8FB4D4A6168914201D84C4900E0C3
:101910004C49884201D2012070BD4B492368B0FB7D
:10192000F1F15E6826F03F060E435E606368934205
:1019300006D94FF4967359434FF47A73B1FBF3F120
:101940002368491C1E6A26F03F063143196261680C
:10195000914210D84900401EB0FBF1F2521CC2F374
:101960000B02042A01D2042022E0B0FBF1F0401C5B
:10197000C0F30B001CE0A268F2B301EBC10303EB60
:101980000116431EB3FBF6F35B1C43F480431B05B7
:1019900049D092B301EBC10202EB0111401EB0FB32
:1019A000F1F0401CC0F30B0040F4804040F40040D4
:1019B0002168CA694CF6FF739A431043C861D4E9A1
:1019C000071001432068026822F0C0021143016041
:1019D000D4E9030101432068826848F2FF339A4347
:1019E00011438160D4E9050108432168CA6822F0E7
:1019F000FF021043C86001E00EE016E020680168B5
:101A000041F0010101602564202084F83D00256338
:101A100084F83E50002070BD01EB4106431EB3FB2D
:101A2000F6F35B1CB3E70120C2E701EB4101401E66
:101A3000B0FBF1F0401CC0F30B00B7E7A08601003B
:101A400080841E0000093D0040420F002DE9FF4F39
:101A500083B09A46DDE9119793460446DDF840804D
:101A6000FFF72AFF054694F83D00202870D119237E
:101A7000012271492046009501F02AF80028F5D18D
:101A800094F83C00012863D0012084F83C002068D1
:101A90000168C90703D1016841F0010101602068B4
:101AA000016821F400610160222084F83D0040209B
:101AB00084F83E0000262664C4F82480A4F82A9006
:101AC000608D20855D48E062CDE9007553465A4639
:101AD0002046049900F004FF00287CD1208DD0B16D
:101AE000012821D00228206824D041698069009013
:101AF000208D032869D801282BD0514902283B4664
:101B00004FF00002009559D08846204600F0E0FFD3
:101B1000002860D13CE0206841698169009101683A
:101B200041F40071016077E02068016821F4806170
:101B30000160F0E7016821F48061016020680168BC
:101B400041F400610160206841698069009063E0B0
:101B50006FE02A463946204601F039F898BB2068E4
:101B60000069616A08704EE02068016841F4007104
:101B7000016020680069616A0870606A401C6062E8
:101B8000218D491E2185618D491E6185216838E0BE
:101B90002068016821F48061016020680069616A41
:101BA0000870606A401C6062208D401E2085608D38
:101BB000401E60853B46002241460095204600F0CD
:101BC00087FF00B9D0E706E0FFE72A4639462046FE
:101BD00000F0FDFF18B1012007B0BDE8F08F2068CC
:101BE0000069616A0870606A401C6062218D491E4C
:101BF0002185618D491E618521684A69D24352075A
:101C00000AD409690170606A401C6062208D401E20
:101C10002085608D401E6085208D00287FF468AF90
:101C2000202084F83D0084F83E6084F83C60002069
:101C3000D2E70220D0E70000020010000000FFFF02
:101C4000040001002DE9FF4F83B09A46DDE91197AA
:101C500093460446DDF84080FFF72EFE054694F8D3
:101C60003D0020287FD119230122404920460095BC
:101C700000F02EFF002876D194F83C00012872D0A5
:101C8000012084F83C0020680168C90703D101687D
:101C900041F0010101602068016821F400610160E8
:101CA000212084F83D00402084F83E000026266470
:101CB000C4F82480A4F82A90608D20852C48E06226
:101CC000CDE9007553465A462046049900F086FE39
:101CD00070B930E02A463946204600F0ABFF58B1D3
:101CE000206C042804D12068016841F4007101606F
:101CF000012007B0BDE8F08F606A216800780861B4
:101D0000606A401C6062218D491E89B22185628D06
:101D1000521E628522685369DB435B070BD469B1AD
:101D200000781061606A401C6062208D401E208532
:101D3000608D401E6085208D0028CBD12A46394613
:101D4000204600F09FFE0028CAD154F83D0B0168E0
:101D500041F400710160202004F81E09E6776677DF
:101D60000020C6E7FFE70220C3E7000002001000E2
:101D70000000FFFFF0B587B0044614216846FEF767
:101D800061FA1D492068884233D11C48002401684B
:101D900041F004010160016801F00401059101684E
:101DA00041F0010101600068122500F0010005907A
:101DB0004FF40070CDE9000502AA0326042782E84B
:101DC000D00069460E48FFF779FCB801CDE900055F
:101DD00002AA694682E8D0000A48FFF76FFC07486C
:101DE0001030016841F400010160006800F4000057
:101DF000059007B0F0BD0000005C004030380240A4
:101E00000008024000000240024881680278114444
:101E100081607047300000200B4810B5016841F424
:101E200000710160016841F480610160016841F462
:101E300080710160032000F061F80F2000F006F8C7
:101E400000F024F8002010BD003C024070B50D4D9C
:101E500004464FF47A712878B1FBF0F00A4909681A
:101E6000B1FBF0F000F04FFC48B9102C07D2002273
:101E70002146501E00F022F800206C6070BD012049
:101E800070BD0000300000203C0000200A4808B56A
:101E9000016841F480410160006800F480400090D6
:101EA0000548001F016841F080510160006800F0A2
:101EB0008050009008BD000044380240F0B40E4B42
:101EC0001B680C46C3F30223C3F10705042D00D998
:101ED0000425191D072901D2002300E0DB1E01267D
:101EE00006FA05F1491E214099409E40761E164093
:101EF0003143F0BC02F004B90CED00E0064900F0FB
:101F0000070208684FF6FF03184040EA0220034A20
:101F100010430860704700000CED00E00000FA0577
:101F20002DE9F0470E46050065D0DFF81481D8F89A
:101F30000000F7B200F00700B04207D288F8007046
:101F4000D8F8000000F00700B04254D128683D4C9A
:101F5000810712D5400703D5206840F4E050206087
:101F60002878000703D5206840F46040206020688E
:101F7000A96820F0F000084320602878C0072DD021
:101F8000304968680839012812D0022813D0032884
:101F900011D00968890700292DDA216821F0030191
:101FA00001432160FFF788FC814641F2883A0EE048
:101FB00009688903EFE709688901ECE7FFF77CFC12
:101FC000A0EB0901514502D90320BDE8F087206844
:101FD000696800F00C00B0EB810FEFD1D8F8001069
:101FE000404601F00701B14207D90770006800F0D0
:101FF0000700B04201D00120E7E72878400705D567
:102000002068E96820F4E050084320602878000741
:1020100006D52068296920F4604040EAC1002060AC
:1020200000F038F82168084AC1F30311515CC84038
:102030000649086006480068FFF708FF0020C4E76B
:10204000003C024008380240969600083C00002000
:10205000340000200448054900680968044AC1F3B7
:102060008221515CC84070473C0000200838024083
:10207000A69600080448054900680968044AC1F3A7
:102080004231515CC84070473C0000200838024093
:10209000A6960008154810B5006810F00C02144808
:1020A00013D01449042A0FD0082A0ED10F4C241F34
:1020B0002268236802F03F025B0207D52068C0F364
:1020C0008810A0FB010106E0084610BD2168C1F39D
:1020D0008811A1FB00010023FEF77CF82168C1F301
:1020E0000141491C4900B0FBF1F010BD0838024025
:1020F0000024F40040787D012DE9F84F04006ED0F3
:102100002078DFF84C93C007A9F104054AD009F103
:1021100004000168C1F38101012908D00068C0F3FF
:10212000810002280AD1D9F80000400206D52868AB
:10213000800337D560680028E1D033E06068B0F5EF
:10214000803F10D0B0F5A02F286810D020F4803048
:102150002860286820F4802028606068A8B1FFF714
:10216000ABFB06460DE0286840F48030F4E740F40D
:1021700080202860F7E700BFFFF79EFB801B6428E4
:1021800073D828688003F7D50CE0FFF795FB064667
:1021900005E000BFFFF790FB801B6428F0D828689B
:1021A0008003F7D42078DFF8AC8280074FF0000A74
:1021B0003ED5A748001D016811F00C0F08D000683B
:1021C000C0F3810002280BD1D9F80000400207D4E7
:1021D0002868800716D5E068012800D112E033E1B5
:1021E000E068B8B10120C8F80000FFF765FB0646BB
:1021F00005E000BFFFF760FB801B0228C0D82868FD
:102200008007F7D52868216920F0F80040EAC1006E
:1022100028600DE0C8F800A0FFF74EFB064604E07A
:10222000FFF74AFB801B02281FD828688007F7D4D5
:102230002078000722D5864F87486169703771B1D1
:1022400001210160FFF738FB064604E0FFF734FB8D
:10225000801B022809D838688007F7D50EE0C0F83F
:1022600000A0FFF729FB064605E082E0FFF724FB0C
:10227000801B02287DD838688007F7D42078400773
:1022800068D5DFF8CCB100270BF13C0BDBF8000080
:10229000C0000BD4DBF8001041F08051CBF80010E7
:1022A000DBF80000012700F0805000906B4E306892
:1022B000C00510D4306840F480703060FFF7FCFA3D
:1022C000009005E0FFF7F8FA0099401A022850D86C
:1022D0003068C005F6D55E4EA0686C3601280FD078
:1022E0000528306810D020F001003060306820F000
:1022F00004003060A068B8B1FFF7DEFA00900FE08C
:10230000306840F00100F4E740F004003060F7E787
:10231000FFF7D2FA0099411A41F28830814266D81B
:1023200030688007F4D50EE0FFF7C6FA009007E0AA
:10233000FFF7C2FA0099411A41F28830814256D81B
:1023400030688007F4D42FB1DBF8001021F0805101
:10235000CBF80010A069C8B33D49091D0968C1F355
:10236000810102294AD00228504607D0C8F86000EF
:1023700000E03CE0FFF7A0FA04463BE04746C8F81F
:102380006000FFF799FA064605E000BFFFF794FAF0
:10239000801B02282BD828688001F7D4D4E90701D4
:1023A0000843A16A2E4A490802EB0141626A41EAE8
:1023B0008211084394F82C1040EA0161C9F800101A
:1023C00001203866FFF778FA044606E03EE000BFD9
:1023D000FFF772FA001B022809D828688001F7D598
:1023E00034E000BFFFF768FA001B022802D903207F
:1023F000BDE8F88F28688001F4D427E00128F7D0E1
:10240000D9F80000E26900F4800191421CD1226AEF
:1024100000F03F01914217D147F6C071626A014056
:10242000B1EB821F10D1A26A4FF0FF3300F44031AC
:1024300003EB5202B1EB024F06D194F82C1000F0DE
:102440007060B0EB016F01D00120D1E70020CFE731
:102450000438024000004742800E474200700040AE
:102460000000FFFF70B5040009D0606A002540B18C
:1024700025616561A56294F8510040B10CE001202E
:1024800070BD6068B0F5827FF4D0E561F2E784F852
:102490005050204600F044F8022084F85100206893
:1024A000016821F040010160A088218900F4827058
:1024B00001F404410843A18901F400610843217C2F
:1024C00001F002010843217D01F001010843218B45
:1024D00001F400710843217F01F03801084394F8AA
:1024E000201001F080010843218D01F400510843C0
:1024F00021680860A069042101EA104094F82410C2
:1025000001F010010843216848602068C16921F486
:102510000061C1616565012084F85100002070BD33
:1025200010B586B0044614216846FDF78BFE1349AA
:102530002068884220D112480021026842F480526B
:102540000260006800F4805005900D48143802685D
:1025500042F002020260006800F0020005902820AC
:1025600000900220CDE90101032003900520049092
:1025700069460448FFF7A2F806B010BD00300140DC
:1025800044380240000402402DE9F84F044690F818
:10259000500000271D461646894601280DD04FF0F1
:1025A000010B84F850B0FFF787F9804694F851008A
:1025B000BA46012804D0022793E00220BDE8F88F34
:1025C000B9F1000F73D0002E71D0032084F85100B0
:1025D000C4F854A0C4F83090A686E686C4F838A0A3
:1025E000A4F83CA0A4F83EA0C4F844A0C4F840A0BD
:1025F000A068B0F5004F09D12068016821F04001C2
:1026000001602068016841F4804101602068016830
:10261000490603D4016841F040010160E068B0F56B
:10262000006F606803D030B3012E24D041E008B1C0
:10263000012E1CD1206B21680088C86006E020684C
:102640008168890709D5216B0988C160206B801CCE
:102650002063E08E401EE08609E0FFF72DF9A0EB35
:102660000800A84202D3681C01D031E07DB3E08E9F
:102670000028E4D120E0206B21680078087306E090
:1026800020688168890709D5216B09780173206B5F
:10269000401C2063E08E401EE0860AE0FFF70CF944
:1026A000A0EB0800A84203D3681C02D010E017E09A
:1026B0006DB1E08E0028E3D142462946204601F064
:1026C00055FA08B120206065A06818B106E0FFE760
:1026D000032706E02068C16880680090606D00B143
:1026E000012784F851B084F850A0384666E74FF0CF
:1026F000E0210428086903D020F004000861704735
:1027000040F00400FAE710B5401EB0F1807F01D31D
:10271000012010BD4FF0E02460610F21601701F02F
:10272000EFFC0020A06107202061002010BD70B5E3
:10273000040004D094F83D00002510B106E001200B
:1027400070BD84F83C50204600F022F8242084F824
:102750003D002068C16821F40051C160204601F0AD
:10276000E3FB2068016921F490410161206841691F
:1027700021F02A0141612068C16841F40051C16023
:102780002564202084F83D0084F83E00002070BDC0
:1027900010B586B0044614216846FDF753FD144970
:1027A0002068884221D113480021026842F01002BB
:1027B0000260006800F0100005900E4814380268AE
:1027C00042F001020260006800F0010005904FF441
:1027D000C06000900220CDE9010103200390072092
:1027E000049069460448FEF769FF06B010BD00007A
:1027F0000010014044380240000002402DE9F84337
:10280000044690F83D001F4616460D4620284CD140
:10281000C5B1BEB194F83C00012846D0012084F82F
:102820003C004FF00008C4F84080212084F83D00AF
:10283000FFF742F8A6848146E684A068B0F5805F81
:1028400003D004E00120BDE8F883206928B12E46BA
:102850005FF0000584F83C800EE00026FAE7802156
:10286000204601F0E7FBA0B9AEB116F8010B2168D4
:102870004860E08C401EE084E08C4B464FF0000244
:1028800000970028EBD14FF04001204601F0D2FB29
:1028900030B10320D7E735F8020BC0F30800E6E7B4
:1028A000202084F83D000020CDE70220CBE7FEE7A2
:1028B00001684A69D24352050FD46FF480624A61BD
:1028C000002140F8301F202242738173026942F0D8
:1028D000040202610173012070470020704700006C
:1028E0002DE9F84F0446006889460B9D016898461B
:1028F000174641F4806101602068016841F48071ED
:10290000016000954FF0011B0022594620460A9BAA
:1029100000F0DEF84FF4007A40B120680068C0058E
:1029200001D5C4F840A00320BDE8F88F216809F064
:10293000FE0008612B46284920460A9A00F0FCF860
:10294000F0BB20684169806900902A4620460A99B8
:1029500000F070F940B1206C04283AD12068016879
:1029600041F40071016034E0FEB2B8F1010F09D00A
:102970002168380A08612A4620460A9900F05AF967
:102980000028E8D1206806612A4620460A9900F00E
:1029900051F90028DFD12068016841F4807101609D
:1029A00000950022594620460A9B00F091F8002825
:1029B000B3D1216809F0FF0040F00100086100E098
:1029C00007E02B46044920460A9A00F0B5F8002893
:1029D000AAD00120A8E70000020001002DE9F84379
:1029E000044600680D46DDE90897016898461646DA
:1029F00041F4807101604B4600224FF001112046E6
:102A0000009700F065F848B120680068C00502D55D
:102A10004FF4007020640320BDE8F883216805F0BE
:102A2000FE0008613B464A461549204600F084F8FE
:102A300088B920684169806900903A464946204635
:102A400000F0F8F848B1206C042804D1206801682F
:102A500041F4007101600120DEE7F5B2B8F1010F29
:102A600009D02168300A08613A464946204600F0FC
:102A7000E1F80028E7D1206805610020CCE70000DC
:102A80000200010070B516460D4604460DE02046D2
:102A9000FFF70EFF08B1012070BD681C05D0FEF7DE
:102AA0000BFF801BA84207D835B120684069C0439E
:102AB0004007ECD4002070BD002044F8300F2021E6
:102AC0006173A073216941F0200121612073E2E765
:102AD0002DE9F0471E4690460D460446C1F30747D0
:102AE000DDF8209008E0701C06D0FEF7E5FEA0EBB4
:102AF0000900B0420FD876B12068012F18D0806944
:102B000025EA00000004000C14D000214145EAD061
:102B10000020BDE8F087002044F8300F20216173C9
:102B2000A073216941F02001216120730120F0E7A9
:102B30004069E5E70121E9E72DE9F0479A4691462A
:102B40000E46044600254FF02008C1F3074725E054
:102B500020684069C043400514D42068016841F4EE
:102B60000071016021686FF480604861256384F81A
:102B70003D8084F83E50206C40F00400206484F8CE
:102B80003C501FE0B9F1FF3F08D0FEF795FEA0EBE7
:102B90000A0149450CD8B9F1000F09D02068012F6E
:102BA00013D0806926EA00000004000C0BD0CFE7A8
:102BB00044F8305F84F80D80A573206940F0200050
:102BC000206125730120BDE8F0874069EAE72DE91F
:102BD000F041002590460E460446202717E0406944
:102BE000C043C0060CD454F8301B6FF0100048618D
:102BF00044F810596777A577206A2062257717E097
:102C0000FEF75AFEA0EB0800B04208D83EB120689B
:102C10004169C9434906E2D40020BDE8F08144F887
:102C2000305F6773A573206940F020002061257331
:102C30000120F2E770B516460D4604460DE0204629
:102C4000FFF736FE08B1012070BD681C05D0FEF705
:102C500033FE801BA84207D835B120684069C043C5
:102C60000006ECD4002070BD002044F8300F202175
:102C70006173A073216941F0200121612073E2E7B3
:102C80002DE9F04104461D4616460F462A2000F065
:102C900039FA204600F026FA304600F023FA2B20BD
:102CA00000F030FA384600F01DFA284600F01AFA13
:102CB000BDE8F0412C2000F025BA10B514460B46B3
:102CC0000246FFF7DDFF2046BDE8104000F00ABADB
:102CD0002DE9F04780461F46581E83B2164602F182
:102CE000130082B208F114000C4680B2DDF8209087
:102CF000FFF7C6FF0AE0454604E0484600F0F2F957
:102D00006D1CADB2B542F8D3641CA4B2BC42F2D380
:102D1000BDE8F087F0B587B014216846FDF792FA58
:102D20002E48016841F004010160016801F00401CE
:102D30000591016841F002010160016801F00201A2
:102D40000591016841F008010160016801F0080186
:102D50000591016841F00101016000684FF40046EF
:102D600000F00100059001241D4FCDE9006403250A
:102D7000694603953846FEF7A1FC012231463846E4
:102D8000FEF794FD1020CDE90004164E6946039528
:102D90003046FEF793FC012210213046FEF786FDF7
:102DA0002603114FCDE90064694638460395FEF7C6
:102DB00085FC012231463846FEF778FD0420CDE936
:102DC00000040A4C694603952046FEF777FC012271
:102DD00004212046FEF76AFD07B0F0BD30380240FE
:102DE000000002400004024000080240000C0240C3
:102DF00010B5FFF78FFF002204216648FEF756FD4D
:102E0000654C002210212046FEF750FD642002F0A0
:102E100031FD012210212046FEF748FD642002F01A
:102E200029FD112000F06EF9782002F023FD3620F4
:102E300000F068F9A02000F07BF93A2000F062F978
:102E4000052000F075F9B22000F05CF90C2000F0CC
:102E50006FF90C2000F06CF9002000F069F93320C4
:102E600000F066F9332000F063F9B72000F04AF96A
:102E7000352000F05DF9BB2000F044F9192000F086
:102E800057F9C02000F03EF92C2000F051F9C22083
:102E900000F038F9012000F04BF9C32000F032F9BE
:102EA000122000F045F9C42000F02CF9202000F099
:102EB0003FF9C62000F026F90F2000F039F9D020A4
:102EC00000F020F9A42000F033F9A12000F030F93F
:102ED000E02000F017F9D02000F02AF9042000F0DB
:102EE00027F90D2000F024F9112000F021F913201A
:102EF00000F01EF92B2000F01BF93F2000F018F91C
:102F0000542000F015F94C2000F012F9182000F0C0
:102F10000FF90D2000F00CF90B2000F009F91F202B
:102F200000F006F9232000F003F9E12000F0EAF8B0
:102F3000D02000F0FDF8042000F0FAF80C2000F09A
:102F4000F7F8112000F0F4F8132000F0F1F82C202D
:102F500000F0EEF83F2000F0EBF8442000F0E8F835
:102F6000512000F0E5F82F2000F0E2F81F2000F0DB
:102F7000DFF81F2000F0DCF8202000F0D9F8232033
:102F800000F0D6F8212000F0BDF8BDE8104029205F
:102F900000F0B8B8000C0240000402402DE9FF4FD9
:102FA00081B00446DDF83C9000904FEA59074FF09D
:102FB0000008780700D0012000EBD70000FB09FBD8
:102FC000203AD0B20390029802994844401E83B23E
:102FD000E019401E82B22046FFF752FE002553E062
:102FE000B9F10C0F2AD0B9F1100F2ED0B9F1180F8A
:102FF0002ED0B9F1200F49D12749039801EB801059
:10300000002610F805A0109800284FF0010000FAE3
:1030100006F000EA0A0022D020B12046049A029964
:10302000FFF74BFE641C0098A4B2201AB84225D1C9
:103030000298009C401C80B2029023E0039817493C
:1030400000EB400001EB8000DAE71549039803E04C
:103050000398144900EB400001EB0010D0E708B1E1
:10306000049800E00E9800F03DF808F10100C0B2AD
:10307000B0FBF7F1804607FB118050B1761CF6B229
:10308000082EC0D36D1CADB25D45A9D305B0BDE817
:10309000F08F4FF00008F5E7AE7900087A5D000880
:1030A000EE610008DE6700082DE9FE4F9946DDE974
:1030B0000D6714468A460546DDF830800CE0CDF8F1
:1030C00000804B4651462846CDE90167FFF766FF71
:1030D00005EB560085B2641C2278002AEFD1BDE8CA
:1030E000FE8F000008B5010A8DF800108DF8010070
:1030F0000123022269460248FFF746FA08BD000094
:103100009C00002070B5094D06464FF48054002203
:1031100021462846FEF7CAFB304600F009F8214652
:103120002846BDE870400122FEF7C0BB00080240FF
:1031300001B501231A4669460148FFF725FA08BD83
:103140009C0000202DE9F74F07462DED020B0D46A0
:103150002DED108B88B0B0EE609AB0EE40EAB0F87A
:1031600082060290384600F07DFBF0EE408A294648
:10317000384600F00BFBB0EE408A9FEDFE1A95F842
:103180004C0F38EE010A20EE000A60EE001A39EE0C
:10319000010A20EE000A20EE000A30EE611AC1EEAC
:1031A0000E0A30EE609AFDF7F1F941EC110B9FED3C
:1031B000F2ABB0EE4A0AF0EE6A0A00F0B1FF51EC51
:1031C000100BFDF703FA05F580560DEE900A96F800
:1031D0004D02FDF7DBF941EC110BB0EE4A0AF0EEBF
:1031E0006A0A00F09DFF51EC100BFDF7EFF90DEEB0
:1031F000100A95F84A06FDF7C9F941EC110BB0EE3B
:103200004A0AF0EE6A0A00F08BFF51EC100BFDF752
:10321000DDF9B7EE00FAD5ED0B0A9FEDD91AB0EE45
:103220004F0A0AEE900A00EE810AD64ACFEE000A53
:10323000CDED030A8DED04FAB5F94400D5ED0C0A85
:1032400000EE100AB8EEC01AB0EE4F0A00EE810A86
:103250008DED050AB5F94610D5ED0D1A081A00EEE8
:10326000900AB8EEE01AF0EE4F0A41EE810A20EE25
:10327000800A8DED060AB7F8140600EE100AB8EEC3
:10328000400A10EE100ADFEDC00A904201DD30EE78
:10329000600AB5F91400802101EE100AB7F8800623
:1032A0006B46B8EEC11A01EA5019B7F81006C1EE24
:1032B000009A00EE100AB8EE400A8DED000AB7F849
:1032C000500600EE100A0020B8EE400A8DED010A0B
:1032D00003EB8001924691ED000A10EE104A9442F1
:1032E00005DDDFEDA90A30EE600A81ED000A20EE6F
:1032F000290A401C022881ED000AE9DBB3EE090A25
:10330000D5ED080A38EE40AAB0EE4F0AB6F95802D9
:1033100095ED071A00EE8A0A00EE900AF8EEE00A30
:1033200060EE201ADFED990A78EEE0EAF0EE4F0A3F
:1033300041EE2E0A9DED001A01EEE01A8DED001A05
:10334000B6F95A0295F8251001EE100A4945B8EE73
:10335000C11A02D120EE011A05E0D6ED971A31EE1E
:10336000211A21EE001A9DED010A002401EE600AE7
:103370008DED010A9FED86CBE31704EB936104EB1F
:10338000D36089114011494200EB410042B204EB85
:10339000D4704010404204EB400004F1020C504055
:1033A0004FEAEC784FFA80FB0CEB987CE01C4FEA7C
:1033B000E0784FEAAC0C00EB9870611CACEBA0001D
:1033C0004FEAE17C01EB9C7100EBA10004EB9371EF
:1033D000A0EBA1005342012101EB4301484341B25C
:1033E000B9F1000F7DD05846B7F88236834279D1C3
:1033F00037F8140000EE100AB8EE400A10EE100A7A
:10340000504503DDDFED600A30EE600A281995F8BB
:1034100025C090F94C3C90F94D0F00EE903A20EE0B
:10342000290ACC45B8EEE01AC1EE2D0A01EE100AC9
:1034300005EB4400F8EEC11AB0F94C3681EE8D1A56
:1034400001EE903AB8EEE12AF0EE4F1A40EE8A1AF9
:10345000F0EE4F0A62EE211A41EE2E0A01EEE00A6A
:1034600013D04FF0FF3303EB420200EE902A96EDAB
:10347000991AF8EEE00A01EE200A00EE901A96ED95
:10348000981AF8EEE00A01EE600A029A694601EB2A
:103490008201D5ED060A91ED001AB0F84A0000EE5F
:1034A000C10AC0EE0E8A9FED3C0A6AEE800A00EE69
:1034B000100A286BB8EE401A80EE810A95ED0A1AC0
:1034C000F0EE4F0A41EE0A0A20EE808A28EE080A42
:1034D00060EE080AB0EE680A08EE090A60EE80FAAB
:1034E00001E05BE0AFE0FDF75EF841EC1B0B1FEE87
:1034F000900AFDF758F841EC100B01F039FC01F08F
:1035000037FC53EC1B2B51EC100BFCF74DFFFDF778
:103510005DF8D5ED0C1A9FED171AF0EE4F0A00EE8C
:10352000100A41EEC10A08EE200AC8EE800A30EE09
:10353000890A10EE100AFDF736F841EC100B01F085
:1035400017FC01F015FC53EC1C2B51EC100BFCF795
:1035500025FFFDF73BF800EE100AB5F9420000EE3A
:10356000900AF8EEE00AF4EEC00AF1EE10FA17DD68
:10357000002030E03393884300000000000000404A
:103580000000204200FEFF460000804733335340D6
:103590000000006066127140BD378635104623E793
:1035A000B5F9440000EE900AF8EEE00AF4EEC00A25
:1035B000F1EE10FA01DD01200DE0B5F9460000EE54
:1035C000900AF8EEE00AF4EEC00AF1EE10FA01DD1E
:1035D000022000E0032005EB800191ED0B1A05EBC2
:1035E0004001B1F9401000EE901A03A901EB8000F0
:1035F000F8EEE00A70EE600AB0EE4F0A01EE200A23
:10360000D0ED000A60EE880A20EE200AC8EE800A9B
:1036100030EE890A10EE100AFCF7C5FF41EC100BE2
:1036200001F0A6FB01F0A4FBB0EE4C1AF0EE6C1A10
:1036300053EC112B51EC100BFCF7B0FEFCF7C6FF5E
:103640001C9941F82400641CB4F5407FFFF694AE49
:1036500008B0BDEC108B05B0BDE8F08F0B464FF401
:1036600050724FF4105100F05FB970B50C4605462A
:10367000FEF714F821462846FDF78CFF2146284620
:10368000FDF788FC21462846FDF7ECFFB5F87000F1
:103690002146C0F3013084F824002846FDF782FC5F
:1036A00021462846FDF79CFC21462846FDF7EAFA0C
:1036B00021462846FDF740F921462846FDF7E6FE5B
:1036C00021462846FDF7FCFC21462846FDF706FE6C
:1036D00021462846FDF782FA21462846BDE870407B
:1036E000FDF7B8BB2DE9FC470D46814600244FF499
:1036F00000466B4601223146484600F015F9002885
:103700002DD1BDF8000010F0080FF2D04FF4507723
:103710004FF48068052C1ED230223146484600F016
:1037200027F9411C1BD02B463A464146484600F03B
:10373000FBF8002813D16B4601223146484600F0C1
:10374000F3F800280BD1BDF8000004F1010410F0DB
:10375000080FE4B2DED1042C03D96FF00700BDE8F6
:10376000FC8701AB012248F20D01484600F0DCF86D
:103770000100BDF80400A5F88006BDF8000000F0C7
:103780000100A5F88206EAD00846E8E770B50C46C5
:103790002DED068B054600F065F8B5F84006B0EE55
:1037A000409A00EE100A2849B8EE408A9FED270A99
:1037B00018EE100A884201DD38EE408AB5F800069E
:1037C00000EE900AF8EE608A18EE900A884201DD59
:1037D00078EEC08A9FED1E1B9FED1F0B00F0A0FC32
:1037E000B0EE40AA94ED040AF0EE60AA48EE008A1A
:1037F00088EE280A10EE100AFCF7D5FE53EC1A2BBF
:10380000FCF7D2FDFCF7E2FEDFED150A94ED011A9C
:1038100000EE100A79EE601AF7EE000AA08941EE78
:10382000210A80EE201A00EE100AD4ED020AB8EE4A
:10383000400ABDEC068B31EE400A80EE201AB3EE52
:10384000090A31EE000A70BD00FEFF460000804705
:1038500000000000000032400000000000000040B6
:103860003333534010B50C462DED068BB0F854168B
:10387000284A00EE101AB8EE408A18EE101A91424B
:1038800003DD9FED250A38EE408AB0F88006C0F3CC
:103890008120FCF76AFE9FED21AB41EC110BB0EEED
:1038A0004A0AF0EE6A0A00F03BFCB0EE409AF0EEF5
:1038B000609A94F82400FCF769FE41EC110BB0EE1D
:1038C0004A0AF0EE6A0A00F02BFCB0EE401AF0EE65
:1038D000601A53EC192B51EC110BFCF7D7FDFCF7D8
:1038E00075FE00EE100AB4F9020000EE900AB4F979
:1038F0000000F8EEE00A50EE080A00EE100ABDECF7
:10390000068BB8EEC01A80EE810ADFED060A30EEB3
:10391000200A10BD00FEFF460000804700000000A6
:103920000000004033335340FEB516461D464FF6A7
:10393000FF724FF4FA7302EA46020095CDE90123C3
:1039400040000A460146002410230848FEF77EF88E
:1039500038B1601EFEBD28192A5D41784270295594
:10396000A41CB4EB460FF6DB0020FEBD480000208F
:103970007FB505460E464006010E100A8DF80C0074
:1039800014468DF80D204FF4FA73022203A88DE837
:103990000D00102332460B48FEF754F918B14FF0D2
:1039A000FF3004B070BD084B012231462846FFF7B6
:1039B000BBFF05480088A04202D06FF00100F0E78D
:1039C0000020EEE7480000202C00002038B548F227
:1039D0000D0405466B4601222146FFF7A5FF00288E
:1039E00007D1BDF80000214640F480522846FFF779
:1039F000BFFF38BDF8B505464807860D48F20D04EF
:103A00006B46012221462846FFF78EFF002808D189
:103A1000BDF80000214620F4607232432846FFF7CB
:103A2000A7FFF8BD70B586B014216846FCF70AFC04
:103A30001A480024016841F004010160016801F0A6
:103A400004010591016841F080010160016801F005
:103A500080010591016841F001010160016801F0F8
:103A600001010591016841F00201016000680C4EFE
:103A700000F002004FF40055059000222946304620
:103A8000FDF714FF01200095CDE901046946304699
:103A90000394FDF713FE06B070BD000030380240FD
:103AA000000802400D4810B50B4901600C49416007
:103AB00000214FF480428160C0E9031241618161BD
:103AC000C1610162FDF7FEFE002803D0BDE8104091
:103AD000FCF72FBF10BD0000005C00404800002034
:103AE000801A0600104810B50E4901604FF482712B
:103AF0004160002102228160C0E90312012242617B
:103B00005202C0E906210162416281620A21C1625A
:103B1000FEF7A8FC002803D0BDE81040FCF709BF61
:103B200010BD0000003001409C0000200C4810B582
:103B30000A4901604FF4E1314160002181600C22AB
:103B4000C160C0E904128161C161FEF7F0FD002887
:103B500003D0BDE81040FCF7ECBE10BD00100140E2
:103B6000F4000020FEE7FEE77047000038B5044689
:103B70001248134B0068B0FBF3F04FF47A735843CC
:103B800000906068B0F5827F0DD10B460092002254
:103B90008021204600F016F870B1606D40F02000E2
:103BA0006065032038BD009830B1401E0090206849
:103BB0008068C0430006F6D5002038BD3C000020D8
:103BC00000366E012DE9F8431E46914688460446AC
:103BD000089DFDF771FE401B351AFDF76DFE074687
:103BE00025480068C0F3CB30684338E0701C37D0FC
:103BF000FDF762FEC01BA84203D215B1009860B366
:103C00002CE02068416821F0E00141606068B0F577
:103C1000827F0BD1A068B0F5004F02D0B0F5806F65
:103C200004D12068016821F040010160A06AB0F56C
:103C3000005F09D12068016821F40051016020680B
:103C4000016841F400510160012084F85100002016
:103C500084F850000320BDE8F8830025401E009042
:103C60002068816838EA010004D000214945BDD1AF
:103C70000020F0E70121F9E73C0000207047FEF743
:103C8000C3B8000030B593B030216846FCF7DAFACB
:103C900014210CA8FCF7D6FA1C480025016841F055
:103CA00080510160006800F0805011901848016850
:103CB00041F4404101600068022400F4404011904A
:103CC00001200090000401908001CDE906400C2005
:103CD00008906020CDE9090404200B906846FEF7A7
:103CE0000BFA08B172B6FEE70CA90F2081E831008B
:103CF0004FF48050CDE90F0503210CA8FEF710F911
:103D0000002801D072B6FEE713B030BD4038024043
:103D1000007000400248016841F470010160704782
:103D200088ED00E030B57A48D0ED051ADFED790A6C
:103D3000D0ED062A61EEA03A32EEE12A83EE821A35
:103D400080EE823A13EE001A9FED733A7349B5EE96
:103D5000C01AF1EE10FA02D2B0EE431A05E011EEED
:103D6000102A8A4201DDB0EE601ABCEEC11A11EED3
:103D7000102AD2B2027090ED011AB4EEC10AF1EE2F
:103D800010FA01DD012400E0002490ED042AB4EED5
:103D9000C20AF1EE10FA01D2012300E000231C4216
:103DA0004FF0000309D021EE204A72EE412A24E0B0
:103DB000BCEEC11A11EE104A12E0B4EEC20AF1EEE6
:103DC00010FA01DB012400E00024B4EEE20AF1EE77
:103DD00010FA01D8012500E000252C4202D0FF2472
:103DE000447032E0B4EEE20AF1EE10FA90ED071AF8
:103DF00018DD21EE204A72EEC12A84EE221A80EEEE
:103E0000A24A14EE001AB5EEC01AF1EE10FA02D270
:103E1000B0EE431ACCE711EE104A8C42C8DDB0EE8A
:103E2000601AC5E7B4EEC10AF1EE10FA01DD012413
:103E300000E00024B4EEC20AF1EE10FA01D201252E
:103E400000E000252C4300D04370B4EEE10AF1EE0F
:103E500010FA18D872EE611A83EEA11A80EEA12A28
:103E600012EE001AB5EEC01AF1EE10FA03D200BF3E
:103E7000F0EE430A3AE011EE103A8B4236DC00BF16
:103E8000F0EE410A32E0B4EEE10AF1EE10FA01DDA3
:103E9000012100E00021D0ED070AB4EEE00AF1EEC6
:103EA00010FA01D8012400E00024214201D08370DF
:103EB00021E0B4EEE00AF1EE10FA1CDDD0ED021ABA
:103EC0009FED171A71EEE01A20EE812AC2EE210A48
:103ED00081EE212A52EE000AF5EEC00AF1EE10FA48
:103EE000C6D310EE901A0F4B9942C9DCBCEEE00A23
:103EF00010EE101A817002F0F8014278090202F007
:103F0000FC02807841EAC20141EAD00030BD0000E5
:103F10000000002000007F430000000000007F43FD
:103F2000000070430000704370B5044600680169EA
:103F3000E26821F44051114301612169A068E269FE
:103F400008436169114308432168CA6849F20C6358
:103F50009A430243CA6020684169A26921F4407112
:103F60001143416131492068884202D0304988427A
:103F700002D1FEF77FF801E0FEF76CF8E26900235A
:103F8000192164253226B2F5004F626828D0A0FBC3
:103F90000101930F9200FCF71DF90146B0FBF5F00B
:103FA0006FF01802504301EB800006EB0010B0FBED
:103FB000F5F000F0F002B1FBF5F002EB0012B1FBFE
:103FC000F5F06FF01803584301EB800006EB00108A
:103FD000B0FBF5F000F00F0021681044886070BD60
:103FE000A0FB010192185B41FCF7F4F80146B0FB1D
:103FF000F5F00201B1FBF5F06FF01803584301EB47
:10400000800006EBC000B0FBF5F000F0F80002EB1A
:104010004002B1FBF5F0584301EB800006EBC00015
:10402000B0FBF5F000F00700D6E7000000100140FB
:10403000001401402DE9F041984617460E4604460B
:10404000069D27E0681C25D02DB1FDF735FCA0EBBF
:104050000800A8421ED920680C3050E8001F21F447
:10406000D07140E80012002AF5D12068143050E8E1
:10407000001F21F0010140E80012002AF5D12020A4
:1040800084F83D0084F83E00002084F83C000320C2
:10409000BDE8F0812068006836EA000004D0002006
:1040A000B842CFD00020F3E70120F9E7FEE7000097
:1040B0000FB4054B10B503A9044A029801F040F86B
:1040C00010BC5DF814FB0000C5590008400000203A
:1040D00003B401984100009850EAC12018BF0420A1
:1040E0004A0D18BF40F0010040F2FF72B2EB515F81
:1040F00008BF40F00200012808BF052002B0704749
:104100000907090E002804DB00F1E02080F8001404
:10411000704700F00F0000F1E02080F8141D704798
:104120002DE9F04D2DED040B2DED0E8B96B0DDE954
:104130002550279CDDF890A025F0004624F000488B
:10414000BAF1000F14BF0121002101EB4502FC4927
:1041500053184A1093422AD3002814BF0123002386
:1041600003EB44030B44F7498B4220D358EA000188
:104170009FEDF59B76D0DFF8D8B35D4503D1BAF15A
:10418000000F05D188E0BAF1000F08BF002100D070
:10419000012101EB450111F5001F08D8002814BFCB
:1041A0000121002101EB440111F5001F0BD99DED08
:1041B000261B9DED240B16B0BDEC0E8B04B0BDE8A4
:1041C000F04D00F0A9BE0027002DBCBFE149884595
:1041D00021DAE1498845A8BF02271CDAC3451ADC69
:1041E000DE4901EB2851142908DDC1F1340220FA1F
:1041F00002F101FA02F282420DD108E058B9C1F190
:10420000140228FA02F101FA02F2424503D101F048
:104210000101C1F1020756EA0A0124D1002C22DA79
:10422000002D18BF022F01D0012F0AD0022000F06C
:10423000BFFE16B0BDEC0E8B04B0BDE8F04D00F033
:1042400053BE022000F0B4FE00F04EFE51EC100B05
:1042500081F0004141EC100B16B0BDEC0E8B04B0A8
:10426000BDE8F08D18E09FEDBEAB9FEDBF8B002841
:1042700071D1B848804522D105F1804010F58010F9
:1042800008BFBAF1000F07D0B3450ADC002CA8BF65
:104290009DED260BE0DA0DE0B0EE490AF0EE690A7A
:1042A000DAE7002C06DA9DED260B51EC100B81F0BD
:1042B00000416FE0AE48784490ED000BCCE7D84564
:1042C0004DD1002C48DA2EB186423AD1BAF1000F16
:1042D00042D126E0BAF1000F13D0022000F068FEB0
:1042E00000F036FE8DED020B9DED240B8DED000BE5
:1042F00010EE900A039961F31E0003909DED020BEE
:10430000AAE78DED02AB9DED240B1AEE901A10EE8C
:10431000900A8DED000B61F31E0003909DED020BE2
:104320009AE78DED028B9DED240B18EE901A10EE9E
:10433000900A8DED000B61F31E0003909DED020BC2
:104340008AE709DA9DED240B51EC190B53EC102B85
:10435000FCF79CF81EE020E09DED240B7CE78642F4
:104360001BDAB4F1804F0DD0A4F10050B0F1FF5032
:1043700013D1002D11DB9DED240B51EC100B01F03E
:10438000C5FC07E09DED240B53EC102B51EC100BFA
:1043900000F0C2BC41EC100B5EE79DED240B51EC2C
:1043A000100B01F003FBBAF1000FCDE90E0142D171
:1043B0009FED710B46B3A6F1E040B0F17F600CD0E9
:1043C0005E4538D1002D00DAA7B3022F0CBF0120C3
:1043D0004FF0FF30FCF7C9F8DCE7002D01DD002CC1
:1043E0000DDA002D01DD002C1FDB002D16DA002C6C
:1043F00014DB012F08BF9FED620B3FF42DAFB0EE31
:104400004A0AF0EE6A0A27E7022F18BF002D0CD0E7
:10441000012F0AD1002DFFF61FAF06E0002DB8BF17
:10442000002C08DA012F3FF417AFB0EE480AF0EE87
:10443000680A11E71BE0012000EBE57050EA070174
:1044400015D0791EB0EE498AF0EE698A084308BF9C
:104450009FED4D8B4E480025804570DD4D494E48FF
:10446000884514DDB0420DDB002C19DB2FE0012064
:1044700000F09EFD16B0BDEC0E8B04B0BDE8F04D13
:1044800000F056BDB34502DC002C09DC1FE086427B
:1044900002DA002C1BDA03E05E452BDD002C16DD72
:1044A000022000F085FD00F053FD8DED020B53EC72
:1044B0001A2B51EC180BFBF777FFCDE9000103999C
:1044C000019861F31E0003909DED020BC4E60220EB
:1044D00000F06EFD00F04CFD10EE901A18EE900A00
:1044E0008DED020B8DED008B61F31E0003909DEDB1
:1044F000020BB1E69DED0E0B53EC192B51EC100B9A
:10450000FBF74CFF9FED260BCDE9080153EC102B78
:104510009DED080B51EC100BFBF746FF9FED221BA6
:1045200053EC112BFBF73DFF9DED081B53EC112BBA
:10453000FBF73AFF9FED1E1B53EC112B3CE08CE088
:10454000FFFF1F00FFFF0F00000000000000F03F12
:104550000000F03F0000F07F0000404301FCFFFF3F
:10456000000000000000F07F0000000000000000DC
:104570007E540000000000000000000000000080E9
:10458000000000000000F0FF000000000000F0BF8D
:104590000000E0410000F043FFFFEF3F000000009B
:1045A000000000000000D03F555555555555D53FEA
:1045B000000000000000E03FFBF7F3FE9DED080B5C
:1045C00041EC1A0B53EC102B51EC100BFBF7ECFEEB
:1045D00053EC1A2BFBF7E8FE41EC1A0B9FEDFE0B98
:1045E00053EC102B9DED080B51EC100BFBF7DCFE90
:1045F00041EC1B0B9FEDFA0B51EC1A0B53EC102BFB
:10460000FBF7D2FE41EC1A0B9FEDF70B53EC102B8E
:104610009DED080B51EC100BFBF7C6FE53EC1A2B6B
:10462000FBF7BCFE41EC1A0B51EC1B0B53EC1A2BA5
:10463000FBF713FE0690CDE906519DED060B53ECFA
:104640001B2B51EC100BFBF7A9FE53EC1A2BFBF7BD
:10465000A8FE41EC100B00F0A1B90020B6F5801FB8
:104660000EDA9FEDE30B53EC102B9DED0E0B51EC8E
:10467000100BFBF799FECDE90E016FF034000E46EA
:1046800000EB2650A0F2FF37C6F31300DA4940F0E2
:104690007F6646F040568842D8BF002408DDD749DF
:1046A0008142C8BF012403DC0024A6F580167F1CCC
:1046B000D348784400EBC4000F9690ED00CB9DEDFD
:1046C0000E0B53EC1C2B51EC100BFBF767FE9DED12
:1046D0000E0B41EC1B0B53EC1C2B51EC100BFBF79E
:1046E000BCFD41EC100B51EC190B53EC102BFBF7FC
:1046F000CDFE41EC1D0B51EC1B0B53EC1D2BFBF7BE
:1047000053FE41EC1A0BBF488DED10AB7844109569
:1047100090ED000B4FF0005040EA660000EB844043
:104720008DED080B00F5002009909DED080B53EC72
:104730001C2B51EC100BFBF731FE9DED0E1B53ECC7
:10474000112BFBF72EFE41EC100B53EC102B9DEDC3
:10475000100B51EC100BFBF727FE9DED080B41EC05
:104760001C0B53EC102B9DED100B51EC100BFBF7B9
:104770001BFE53EC1B2BFBF714FE53EC1C2BFBF71F
:104780000DFE53EC1D2BFBF70FFE41EC1C0B53EC05
:104790001A2B51EC1A0BFBF707FE41EC1B0B9A4846
:1047A0000621B0EE4B0AF0EE6B0A784400F01DFBD8
:1047B000B0EE401AF0EE601AB0EE41DAF0EE61DAD7
:1047C00053EC1B2B51EC1B0BFBF7EEFD53EC1D2B9D
:1047D000FBF7EAFD9DED100B41EC1B0B53EC1A2B84
:1047E00051EC100BFBF739FD53EC1C2BFBF7DCFDF8
:1047F00053EC1B2BFBF731FD9DED100B41EC1B0B1C
:1048000053EC102B51EC100BFBF7CEFD41EC1D0BC4
:104810009FED7FEB53EC1E2BFBF71FFD53EC1B2B87
:10482000FBF71BFD0890CDE908519DED080B53ECFB
:104830001E2B51EC100BFBF7B1FD53EC1D2BFBF7BE
:10484000ADFD53EC1B2BFBF7ACFD9DED080B41ECD4
:104850001D0B53EC102B9DED100B51EC100BFBF7C7
:10486000A3FD41EC1B0B53EC1A2B51EC1D0BFBF77A
:104870009BFD9DED080B41EC1A0B53EC102B51ECFA
:104880001C0BFBF791FD53EC1A2BFBF7E6FC41ECFC
:104890001A0B51EC1B0B53EC1A2BFBF7DEFC0C90A4
:1048A000CDE90C519DED0C0B53EC1B2B51EC100B77
:1048B000FBF774FD53EC1A2BFBF773FD41EC1B0B5C
:1048C0009FED550B53EC102B9DED0C0B51EC100B89
:1048D000FBF76AFD41EC1A0B9FED510B51EC1B0BE2
:1048E00053EC102BFBF760FD41EC1B0B9FED4E0BC7
:1048F00053EC102B9DED0C0B51EC100BFBF754FD02
:1049000053EC1B2BFBF7A9FC41EC100B48487844F7
:1049100000EBC40090ED001B51EC100B53EC112B7D
:10492000FBF79BFC41EC1B0B3846FBF71EFECDE969
:10493000080153EC1B2B51EC1A0BFBF78EFC41ECDE
:10494000100B3C48784400EBC40090ED00CB51ECD8
:10495000100B53EC1C2BFBF780FC9DED081B53EC5C
:10496000112BFBF77AFC0690CDE906519DED080B63
:1049700053EC102B9DED060B51EC100BFBF70EFDCD
:1049800053EC1C2BFBF70AFD53EC1A2BFBF706FD2F
:1049900053EC1B2BFBF705FD41EC100B9DED261B8B
:1049A00053EC102B8DED001B00959DED260B51EC6B
:1049B000100BFBF7F9FC9DED000B41EC1A0B53ECCF
:1049C000102B9DED260B51EC100BFBF7E7FC9DED3A
:1049D000061B53EC112B2FE0000000604715F73F3A
:1049E000FE822B654715F73F44DF5DF80BAE543E62
:1049F00000000000000040438E9803007AB60B00D0
:104A0000FA4F000028500000324F00000000000064
:104A10000000000000000840000000E009C7EE3F71
:104A2000FD033ADC09C7EE3FF5015B14E02F3EBE03
:104A3000BE4D0000784D0000FBF7B6FC53EC1A2B7E
:104A4000FBF70BFC9DED060B41EC1A0B53EC102B06
:104A50009DED000B51EC100BFBF7A6FCCDE90C0112
:104A60009DED0C0B51EC1A0B53EC102BFBF7F5FBE7
:104A7000CDE902010C46AA498C422FDB611A08439A
:104A800018D19DED0C0B53EC102B9DED020B51EC4E
:104A9000100BFBF783FC41EC1B0B9FEDA30B51ECC0
:104AA0001A0B53EC102BFBF7D8FB53EC1B2BFBF72B
:104AB00005FF2DD2022000F07BFA00F049FA10EE3B
:104AC000901A18EE900A8DED020B8DED008B61F3BC
:104AD0001E0003909DED020BFFF7BEBB944A24F02D
:104AE0000041914214D39349214408437FF4EFAC31
:104AF0009DED0C0B53EC102B9DED020B51EC100BAC
:104B0000FBF74CFC53EC1A2BFBF7D8FE7FF6DFAC1F
:104B100024F000408849894A002601EB2051824256
:104B20002BDA481C4FF4801121FA00F02044844A0B
:104B3000C0F30A517A44A1F2FF3192ED000B814A91
:104B40008DED080BCA4020EA0202C0F3130040F4C6
:104B50008010C1F1140120FA01F60992002CB8BFAF
:104B600076429DED080B53EC102B9DED0C0B51EC98
:104B7000100BFBF713FCCDE90C019DED0C0B51EC78
:104B80001A0B53EC102BFBF768FB9FED6F0B089093
:104B9000CDE9085153EC102B9DED080B51EC100B97
:104BA000FBF702FC41EC1B0B9FED690B53EC102B48
:104BB0009DED080B51EC100BFBF7F6FB9DED0C0B7C
:104BC00041EC1C0B53EC102B9DED080B51EC100B22
:104BD000FBF7E4FB53EC1A2BFBF7E3FB9FED5E1BAB
:104BE00053EC112BFBF7E0FB53EC1C2BFBF735FBD5
:104BF00041EC1A0B51EC1B0B53EC1A2BFBF72DFB62
:104C0000CDE902019DED020B53EC1B2B51EC100B77
:104C1000FBF7C4FB53EC1A2BFBF7C3FB9DED020B18
:104C200041EC1A0B53EC102B51EC100BFBF7BCFBB7
:104C3000CDE908014A489DED080B0521784400F0B4
:104C4000D4F89DED081B51EC100B53EC112BFBF726
:104C5000ABFB9DED021B53EC112BFBF7A2FBCDE947
:104C600006019DED020B53EC1A2B51EC100BFBF7D8
:104C70009BFB53EC1A2BFBF7F0FA9FED3B0B41EC3F
:104C80001A0B53EC102B9DED060B51EC100BFBF7A0
:104C900085FB9DED060B41EC1B0B53EC102B9DEDA2
:104CA000020B51EC100BFBF77FFB53EC1B2BFBF7BC
:104CB000EDFB53EC1A2BFBF771FB9DED021B53EC44
:104CC000112BFBF76BFB53EC192BFBF76AFBCDE9C0
:104CD000020101EB065001150029C8BF039015DC45
:104CE0009DED020B324651EC100BFBF766FDFFF712
:104CF000EFF9042808BF00F03BF932469DED020BA6
:104D000051EC100BFBF759FDCDE902019DED020BB3
:104D100051EC180B53EC102BFBF746FBFFF73ABB9B
:104D20000000904000000000FE822B654715973C74
:104D300000CC904000346F3F01FCFFFF0000E03FDB
:104D4000004C0000FFFF0F0000000000432EE63F74
:104D5000396CA80C615C20BEEF39FAFE422EE63FAA
:104D6000D04A0000000000000000000000000040E9
:104D700000B52DED048BB0EE409AF0EE609A83B052
:104D800051EC190BFBF730FD41EC180B18EE100A33
:104D900018EE901A8DED008B002818BF01200843F3
:104DA00020F00040C0F17F6000F1E040C00F14D05F
:104DB00019EE101A19EE900A8DED009B002918BF0C
:104DC0000121084320F00040C0F17F6000F1E04085
:104DD000C00F04BF012000F0EBF8B0EE480A03B0AA
:104DE000F0EE680ABDEC048B00BD70B504462DEDF5
:104DF000028B4D1E00EBC500B0EE408AF0EE608ADB
:104E000090ED000B35F0060017D053EC182B51EC49
:104E1000100BFBF7C9FA41EC100B6D1E04EBC5003B
:104E200090ED001B51EC100B53EC112BFBF715FA16
:104E300041EC100B35F00600E7D1022D36D0042DE1
:104E40001CD0062D1CBFBDEC028B70BD53EC182B83
:104E500051EC100BFBF7A8FA94ED0A1B53EC112B45
:104E6000FBF7FBF953EC182BFBF79EFA94ED081BAC
:104E700053EC112BFBF7F1F941EC100B53EC182B11
:104E800051EC100BFBF790FA94ED061B53EC112B31
:104E9000FBF7E3F953EC182BFBF786FA94ED040BC0
:104EA00053EC102BFBF7D9F941EC100B53EC182BFA
:104EB00051EC100BFBF778FA94ED021B53EC112B1D
:104EC000FBF7CBF953EC182BFBF76EFA94ED001BB4
:104ED00053EC112BFBF7C1F9BDEC028B41EC100B2D
:104EE00070BD0000000000009FED070B10B553ECF3
:104EF000102B9FED070B51EC100BFBF7C7FA41ECA1
:104F0000100B10BD000000000000000000000000B9
:104F1000000000000000F03F10B553EC112B51ECE5
:104F2000100BFBF79AF941EC100B10BD00000000CC
:104F30009FED050B10B553EC102B51EC100BFBF74C
:104F4000A5FA41EC100B10BD0000000000000000AD
:104F50009FED050B10B553EC102B51EC100BFBF72C
:104F600023FA41EC100B10BD00000000000000709F
:104F70009FED050B10B553EC102B51EC100BFBF70C
:104F800013FA41EC100B10BD0000000000000010EF
:104F900002E008C8121F08C1002AFAD17047704702
:104FA000002001E001C1121F002AFBD17047000060
:104FB0000149086070470000440000202DE9FF5FB0
:104FC00082B00021DDE90430020DDDF840B003437A
:104FD00018D044F61050A2F2FF3242431514119833
:104FE00001281FD0A5EB0B00401C5FEA000A4FF020
:104FF00000064E4FDFF83891B046504615D5CAF13D
:10500000000413E0119801244AA3012801D16FEA9A
:105010000B010298119AC0E90031C0E9024206B0C2
:10502000BDE8F09FCBF10000DFE704460021404AD5
:10503000491842EB0450CDE9001012E0E00707D018
:1050400032463B4640464946FBF7AEF98046894624
:1050500032463B4610461946FBF7A6F906460F4670
:105060006410002CEAD1DDE90401DDE90023BAF186
:10507000000F06DAFBF798F942464B46FBF794F926
:1050800005E0FBF703FA42464B46FBF7FFF90446FF
:105090000E460022284BFBF711FC03D84FF0FF30DF
:1050A000014607E00022254B20463146FBF7D5F8A4
:1050B000FBF7EBFB102409E0002C0ADB0A2200239B
:1050C000FBF788F8039B30321A55641E50EA010240
:1050D000F2D1641C039AC4F111031444119A012AF9
:1050E00003D0012208430DD10AE0084304D0002078
:1050F0004FF0110B119072E7A3EB0B056D1E0DE045
:105100005B4504DD4FF0000205F1010504E003DA20
:105110004FF00002A5F10105002AECD00298119988
:10512000C0E90231C0E9004579E700000000144001
:105130000000F03F300000000000F0430000E03FBE
:105140002DE9FF4F95B09A46884606460025EEE1C8
:10515000252877D100242746F94A0121039400E04D
:10516000044316F8013F203B01FA03F01042F7D147
:1051700030782A2811D06FF02F033078A0F1300258
:10518000092A16D8039A44F0020402EB820203EBC8
:1051900042021044761C0390EFE758F8042B039268
:1051A000002A03DA504244F40054039044F002040D
:1051B000761C30782E2816D116F8010F44F004041E
:1051C0002A280DD06FF02F023078A0F13003092B80
:1051D00009D807EB870302EB4303C718761CF3E7F4
:1051E00058F8047B761C30786C280FD006DC4C28ED
:1051F00017D068280DD06A2814D104E0742810D084
:105200007A280FD10DE044F400140AE044F480142D
:1052100001E044F440147278824202D104F5801413
:10522000761C761C307866280BD013DC582877D093
:1052300009DC002875D04528F6D04628F4D0472848
:105240001AD193E118E0632835D0642879D0652815
:1052500012D18BE1702873D008DC6728F1D069285F
:105260006FD06E280DD06F2806D1ACE073282CD0FB
:10527000752874D0782853D05246179990476D1CE2
:1052800054E1C4F30250022809D003280DD0D8F805
:10529000001004280DD00D6008F1040846E1D8F88C
:1052A0000010EA17C1E90052F6E7D8F800100D80A7
:1052B000F2E70D70F0E718F8041B8DF800100020DD
:1052C0008DF80100EB46012003E058F804BB4FF0D5
:1052D000FF3061074FF0000102D40DE009F1010138
:1052E0008946B9420FDA8145F8DB1BF8091000291D
:1052F000F4D108E009F1010189468142FADB1BF88B
:1053000009100029F6D103985346A0EB090721465E
:105310003846179A00F080FA284400EB090507E0A8
:1053200044E008E10DE01BF8010B52461799904745
:10533000B9F10109F7D2534621463846179AF2E0EF
:1053400039E00A21C4F302524FF0000B0091022A07
:1053500006D058F8040BC117032A09D00AE023E04D
:1053600008F1070020F00702F2E80201904605E08C
:1053700000B2C117042A01D140B2C117002906DAD0
:105380000A460021404261EB02012D2202E0220583
:1053900004D52B228DF80420012203E0E20701D07E
:1053A0002022F7E7914657E00A2100E010214FF054
:1053B000000B00910BE010214FF0000B44F00404AF
:1053C0000827009103E008204FF0000B0090C4F381
:1053D0000252022A05D058F8040B0021032A08D0F3
:1053E00008E008F1070020F00702F2E80201904609
:1053F00003E080B2042A00D1C0B24FF000092207B6
:105400002AD53278702A07D0DDF800C08CF0100C55
:105410005CEA0B0C05D00EE040228DF8042001223E
:1054200008E050EA010306D030238DF804308DF8EF
:10543000052002229146009B83F0080353EA0B03E8
:105440000AD150EA010201D1620705D530228DF858
:1054500004204FF001097F1E3278582A04D039A267
:105460000C920CAA02920BE03BA2F9E75B46009A71
:10547000FAF7B0FE0C9B9B5C029A521E02921370CC
:1054800050EA0102F2D1029804A9081A00F1200B97
:10549000600702D524F4803400E001275F4502DD77
:1054A000A7EB0B0000E0002000EB0B01009003983D
:1054B0004944401A0390E00306D453462146179A04
:1054C000039800F0A9F90544002706E001A8524618
:1054D000C05D179990476D1C7F1C4F45F6DBE003BC
:1054E0000CD553462146179A039800F095F90544C8
:1054F00004E030205246179990476D1C0099481ED1
:1055000000900029F5DC08E00298029952460078E4
:10551000491C0291179990476D1CBBF10001ABF13A
:10552000010BF1DC5BE100F065F90544761C307895
:1055300000287FF40DAE19B02846BDE8F08F0000BA
:105540000928010030313233343536373839616259
:10555000636465660000000030313233343536371D
:10556000383941424344454600000000600700D4FA
:10557000062708F1070020F00700F0E80223804624
:1055800003F0004C5FEA0C0001D097A009E0200571
:1055900001D596A005E0E00701D095A001E0AFF2AB
:1055A0004C001390307823F0004365280CD006DCC3
:1055B000452809D046281DD047287FD13BE06628E2
:1055C00018D067287AD136E00021112F01DB112095
:1055D00000E0781CCDE9000104A90CA8FFF7EEFC5F
:1055E000DDE90D010C9A4FF0000B07F10109109253
:1055F00000914EE04FF000400097CDE9011004A962
:105600000CA8FFF7DBFCDDE90D020C9B0F994FF0B6
:10561000000B91461093009211B9791C00EB01091F
:10562000B7EB090003D4C0F1FF3B07F10109A9EB77
:105630000700019042E0012F00DA01270021112F1D
:1056400001DD112000E03846CDE9000104A90CA8D5
:10565000FFF7B4FCDDE90D010C9A00914FF0000B4F
:10566000B946109221070FD4009A4A4503DA9146B1
:1056700001E0A9F10109B9F1010F05DD109AA9F1C5
:105680000101515C3029F4D0B84202DA10F1040F64
:1056900003DA0121CDE9011010E0002803DC834486
:1056A000A9EB000102E0411C494500DD8946A0EB61
:1056B0000B00401C01904FF000400290200705D4E1
:1056C0000198484502DB4FF0FF30019000208DF833
:1056D0004B0002980DF14B07B0F1004F25D002208E
:1056E0000C902B200D90029800280CDA404202907A
:1056F0002D200D9007E00A210298FAF783FF303140
:10570000029007F8011D0C99481E0C900029F2DC4C
:1057100002980028EFD1791E0D980870307800F0BB
:10572000200040F0450007F8020D11A8C01BC01D65
:1057300002901398007800B1012000EB0901019854
:1057400001EBE071029801440398401A401E039057
:10575000E00306D453462146179A039800F05CF8FC
:1057600005441398007818B15246179990476D1C5C
:10577000E00323D553462146179A039800F04CF8CE
:1057800005441BE0BBF1000F07DB0098584504DD22
:105790001098179910F80B0001E017993020524625
:1057A000904701980BF1010B401E05F10105019096
:1057B00004D12E205246179990476D1CB9F1000173
:1057C000A9F10109DEDC05E017F8010B5246179933
:1057D00090476D1C0299481E02900029F4DC534644
:1057E0002146179A03989EE62D0000002B0000002A
:1057F000200000002DE9F041044600251E46174612
:10580000880404D405E039462020B0476D1C641E8E
:10581000F9D52846BDE8F0812DE9F0410446002580
:105820001E469046C80301D5302700E02027880493
:1058300004D505E041463846B0476D1C641EF9D5D5
:105840002846BDE8F081000010B50420FCF74FFFAA
:1058500006484FF47A710078B1FBF0F0044909680A
:10586000BDE81040B1FBF0F0FCF74DBF3000002068
:105870003C00002070B5054600244FF47A7603E022
:10588000304600F004F8641CAC42F9D370BD70B52A
:105890004FF0E0240022656964214843A169A369AF
:1058A0008B42FCD002D2A1EB030102E0A5EB030680
:1058B00031440A4419468242F1D370BD2DE9F05FAC
:1058C0000024A046D72340F21F1218212020FDF704
:1058D000D7F92E4800212E4D4FF6FF7B82464162BC
:1058E0000021CAF8201000BFDAF82410DAF82000EE
:1058F0000A0302EB0013C0F11F0000EB4111254821
:10590000A8EB880200EB810003EB42321FFA82F918
:1059100090ED000AFEF706FA020AC6B20021DC4644
:105920000CEA412300204B4403EB4007641CEA557A
:105930002F44401CC0B27E70A4B20828F4D3491C86
:10594000C9B20829ECD3B4F5405F0FD308F10100C8
:10595000002400F0FF0823464FF4C0420C490E48D3
:10596000FCF712FE10B10DA0FEF7A2FBDAF8200042
:105970005146401CCAF820002028B5DB486A401C6C
:10598000CAF824001828ABDBBDE8F09F0000002017
:1059900038010020347A00209C0000200D0A73702A
:1059A00069206572726F0D0A0000000082B0CDE9B7
:1059B000000121F0004001909DED000B02B051EC80
:1059C000100B704713B54FF6FF730122694602486A
:1059D000FCF714FF00981CBDF40000200EB5FCF786
:1059E0001BFAFEF74FF9FEF71DF8FEF75BF8FEF71E
:1059F00079F8FEF79BF8FFF727FFFDF7F9F9002488
:105A0000F0234FF48C72214620460094FDF760F994
:105A10001820CDE9004078214FF6FF7308A2084610
:105A20000294FDF741FB00F013F84FF40054074DCA
:105A300000F090F821462846FBF730FFF8E7000019
:105A400057656C636F6D652100000000000802401F
:105A500010B504213320FDF7CDFF134C011EE0608B
:105A600002D012A0FEF724FB3320FDF7AFFFE06069
:105A7000011E02D015A0FEF71BFB1B493320FDF7CA
:105A8000EDFDE060011E02D018A0FEF711FB2349D6
:105A90001548FDF7EAFDE060011E04D0BDE81040A6
:105AA0001FA0FEF705BB10BD000000200D0A7365A6
:105AB000742072656672657368206572726F206308
:105AC0006F64653A25640D0A000000000D0A7365D5
:105AD00074206368657373206572726F20636F64EE
