:020000040800F2
:1000000058EC002095020008ED4300080F3100086D
:10001000EB4300088110000831490008000000008F
:100020000000000000000000000000000145000882
:100030000311000800000000EF430008034500081A
:10004000AF020008AF020008AF020008AF020008CC
:10005000AF020008AF020008AF020008AF020008BC
:10006000AF020008AF020008AF020008AF020008AC
:10007000AF020008AF020008AF020008AF0200089C
:10008000AF020008AF020008AF0200080000000045
:10009000000000000000000000000000AF020008A7
:1000A000AF020008AF020008AF020008AF0200086C
:1000B000AF020008AF020008AF020008AF0200085C
:1000C000AF020008AF020008AF020008AF0200084C
:1000D000AF020008AF020008AF02000800000000F5
:1000E000AF020008AF020008AF02000800000000E5
:1000F000000000000000000000000000AF02000847
:1001000000000000AF020008AF020008AF020008C4
:1001100000000000000000000000000000000000DF
:10012000AF020008AF020008AF020008AF020008EB
:10013000AF02000800000000000000000000000006
:10014000000000000000000000000000AF020008F6
:10015000AF020008AF020008AF020008AF020008BB
:10016000AF020008AF02000800000000000000001D
:10017000000000000000000000000000000000007F
:1001800000000000AF0200080000000000000000B6
:10019000AF020008AF02000800F002F800F06BF8B0
:1001A0000AA090E8000C82448344AAF10107DA45D2
:1001B00001D100F060F8AFF2090EBAE80F0013F0B9
:1001C000010F18BFFB1A43F001031847301001005C
:1001D000501001000A444FF0000C10F8013B13F0DE
:1001E000070408BF10F8014B1D1108BF10F8015B90
:1001F000641E05D010F8016B641E01F8016BF9D183
:1002000013F0080F1EBF10F8014BAD1C0C1B09D1D9
:100210006D1E58BF01F801CBFAD505E014F8016B4B
:1002200001F8016B6D1EF9D59142D6D370470000DD
:100230000023002400250026103A28BF78C1FBD8EF
:10024000520728BF30C148BF0B607047642900F0D7
:100250006381002070471FB509F029FF9DE8030066
:1002600000F004FB00F0A9F900F0BEFC1FBD10B5C2
:1002700000F023FD10BD00F068FE1146FFF7EBFF14
:1002800008F058FC00F086FE03B4FFF7F0FF03BC53
:1002900000F0D0FE0948804709480047FEE7FEE726
:1002A000FEE7FEE7FEE7FEE7FEE7FEE7FEE7FEE726
:1002B00004480549054A064B704700009945000867
:1002C0009901000858D6002058EC002058DE002084
:1002D00058DE002070B5064600F0ACFA056806F15D
:1002E0000B0020F00704B4429CBF002070BD2B46D9
:1002F0006A68BAB11068A04210D304F108018842BC
:100300003CBF5068586007D35168101941601168AC
:10031000091B016058601460101D70BD13465268BF
:10032000002AE7D12146284600F08CFA0028DED1C9
:1003300070BD70B50446051F00F07CFA0068002C03
:1003400014BF446870BD002C18BFAC423CBF2046AF
:100350006468F8D301680A18AA4218BF456003D13F
:100360002A6805461144016028684119A1421CBF52
:100370006C6070BD6168696021680844286070BD68
:1003800053EA020C00F069802DE9F04B4FF00006B3
:10039000002B1FBFB3FA83F503FA05F424FA05F620
:1003A0005E4012BF1643B2FA82F502FA05F4C5F1B7
:1003B00020051EBF22FA05FC44EA0C04203556EA4B
:1003C000044C4FEA144418BF641C4FF000084FF06F
:1003D0000009904271EB030C39D3002919BFB1FA1F
:1003E00081F701FA07F6B0FA80F700FA07F6C7F1CD
:1003F00020071EBF20FA07FC46EA0C062037B6FB92
:10040000F4FCA7EB0507103F07F01F0BCBF120060C
:100410000CFA0BFB2CFA06F644BFB3460026202F3D
:10042000A4BF5E464FF0000B5BEA060C08BF4FF01E
:10043000010B19EB0B09ABFB027C48EB0608C01B58
:1004400006FB02CC0BFB03CC71EB0C01C1E70B46A6
:10045000024641464846BDE8F08B13B54FF0000018
:100460004FF00001AFF30080BDE81C407047000072
:100470000FB4044910B503AA029800F0AFFA10BCFB
:100480005DF814FB6CD400200FB41CB5074B06AA12
:100490007B4469460090059800F087FA0020694681
:1004A00000F096FA1CBC5DF814FB00003D0500004E
:1004B0002DE9F0410E460446002020622046E16806
:1004C000884730B3252805D0D4E901219047206A18
:1004D000401CF2E7E168204600278847050018D055
:1004E000A5F14100192802D820354FF400673246A3
:1004F000294620462760FFF7A9FE40B1012804D015
:10050000F61D26F007060836D8E7361DD6E728463A
:10051000DAE7206ABDE8F0812DE9F04106460024C3
:1005200010687529314616A510D0AFF30080002859
:1005300002DA404213A507E031688A0701D512A507
:1005400002E0490704D511A5012401E0AFF30080C2
:1005500000210A2206F1240709E0B0FBF2FCB0FBFF
:10056000F2F302FB1C00303078541846491C002876
:10057000F3D123462A463046BDE8F04100F0B7B932
:10058000000000002D0000002B00000020000000F3
:100590000B4910B5A1F17C020A4CC2E93712372190
:1005A00006E000EB104342F82130074B00FB03400C
:1005B0000B1EA1F10101F4DC10BD0120E8E70000F1
:1005C00090D50020E119D666CD0D010040EA010367
:1005D00010B59B070FD1042A0DD310C808C9121FEC
:1005E0009C42F8D020BA19BA884201D9012010BD26
:1005F0004FF0FF3010BD1AB1D30703D0521C07E0F3
:10060000002010BD10F8013B11F8014B1B1B07D156
:1006100010F8013B11F8014B1B1B01D1921EF1D1C7
:10062000184610BD10B5431C02E010F8011B71B153
:100630008107FAD14FF0013202C88C1A8C4314EAB8
:10064000C211F9D0C01A0A0603D0C01E10BDC01ACC
:1006500010BD0A0401D0801E10BD0902FCD0401E4E
:1006600010BD40EA010370B59B072ED14FF0013653
:10067000042A2AD308C810C99D1B9D43121F15EADE
:10068000C61517D0D8B2E1B2401A50EA056110D1B0
:1006900098B2A1B2401A50EA05410AD123F07F4036
:1006A00024F07F41401A50EA052102D1180EA0EB38
:1006B000146070BDA342DBD018BA21BA884201D9B8
:1006C000012070BD4FF0FF3070BD0AB9002070BD31
:1006D00010F8013B11F8014B63B1A3420AD1521E3D
:1006E00008D010F8013B11F8014B1BB1A34201D116
:1006F000521EEDD1181B70BD10B5203AC0F00B8012
:10070000B1E81850203AA0E81850B1E81850A0E815
:100710001850BFF4F5AF5FEA027C24BFB1E818506F
:10072000A0E8185044BF18C918C0BDE810405FEADF
:10073000827C24BF51F8043B40F8043B08BF70475B
:10074000D20728BF31F8023B48BF11F8012B28BF60
:1007500020F8023B48BF00F8012B70474FF0000221
:1007600000B5134694469646203922BFA0E80C50A7
:10077000A0E80C50B1F12001BFF4F7AF090728BF82
:10078000A0E80C5048BF0CC05DF804EB890028BFFE
:1007900040F8042B08BF704748BF20F8022B11F027
:1007A000804F18BF00F8012B704700004FF0013C4C
:1007B00050F8042B51F8043B9A4221D1A2EB0C03D0
:1007C000934313EACC1317D150F8042B51F8043B90
:1007D0009A4215D1A2EB0C03934313EACC130BD12D
:1007E00050F8042B51F8043B9A4209D1A2EB0C03B8
:1007F000934313EACC13DBD04FF00000704700BFE7
:10080000D01A01BAB1FA81F101F0180122FA01F00F
:10081000CB40C1F12001DBB2C0B2C01A2CFA01F307
:10082000D11A914311EAC311E6D17047704770475E
:10083000704700000048704700D60020704770479E
:100840007047704738B504460A4600206946AFF342
:100850000080002808BF38BD02460099204600F0FD
:1008600067FA012038BD012000F067BBF8B5AFF38F
:100870000080054600200C46102000BF0646A8193F
:10088000A0420DD9324669460020AFF30080070030
:1008900008BF00F052FB0098A04218BF0546C419DB
:1008A000FFF7C8FF05600746F01D20F00700461956
:1008B000284600F00AF8B44208BFF8BDA21B314632
:1008C0003868BDE8F84000F033BA00210160C0E9A3
:1008D000011070471020704710B500F025FA00682D
:1008E00010BD10B5044600F01FFA046010BD2DE9DC
:1008F000F0470D4699469246044600F124080168E7
:10090000880604D5E06921F01001216000E0012093
:10091000A84201DD471B00E00027A1697A1902EB1C
:100920000900081AA0612078C00602D42046AFF35F
:100930000080002608E0D4E901211AF8060090475B
:10094000206A401C761C20624E45F4DB2078C006ED
:100950000AD52046AFF3008006E0D4E9012130201B
:100960009047206A401C2062381EA7F10107F4DC82
:1009700007E0D4E9012118F805009047206A401CDF
:100980002062281EA5F10105F3DC2046AFF30080AC
:100990002078000602D50220BDE8F0870120FBE7A1
:1009A00001694A1C02610878704700B58FB0CDE933
:1009B00001310021059105497944CDE90310114623
:1009C0006846FFF775FD0FB000BD0000E5FFFFFFB3
:1009D0000A6802F8010B0A6070470000074B70B507
:1009E0000D467B44FFF7E1FF0446284600F0BAF9C4
:1009F00010B14FF0FF3070BD204670BD037F000086
:100A00002DE9F041044616460D464769007B8007F4
:100A10002ED0384605F010FD50BB3EB3012E02D05B
:100A2000022E25D104E0204600F0A0F905441DE087
:100A3000384605F0FFFCE168002841F01001E16054
:100A400005DA204600F058F80120BDE8F081C9031E
:100A50000BD56268E16A914200D81146A26911443F
:100A60002269891A814200DD08460544002D01DA19
:100A70000220EAE7E16A6068E268814206D29103F7
:100A8000E06203D522F4003141F01002A66900278C
:100A9000AE4213DCE16A814201D90B4600E0034615
:100AA00003EB060C2369ACEB030CAC4506DD81427D
:100AB00001D98C4600E084469C4505D1A76027609B
:100AC00042F02000A5620DE0AD1BE669AE1B81423D
:100AD000A66000D90846C01A281A2060581960601C
:100AE00022F0200003490840E060002084F84870AC
:100AF000ABE70000BFCFD7FFC16821F4001141F080
:100B00008001C16000218160016070472DE9F047DC
:100B1000814614460E464FF0FF383248D568576973
:100B2000054209D03846A16905F0BEFC002811DB5A
:100B30002C48C0430540E5602B46324649463846BE
:100B400005F0B5FCA16920F00042B21A114400285A
:100B5000A16103D02046FFF7CFFF4046BDE8F087F4
:100B600070B504460569C06A6168884200D80846C5
:100B7000E16821F42011E160C90312D5A84208D030
:100B80002246411B2846FFF7C1FF10B14FF0FF304E
:100B900070BD0020E562C4E90150E06820F48030B7
:100BA000E060002070BD10B50446C06820F0200051
:100BB000E060A16AA06988420DD02046FFF7D0FF0F
:100BC000E06820F4405040F01000E060A06AA061AE
:100BD0002069E062606044F24001E0688843E060C0
:100BE00010BD00001000020010B542485421FFF76C
:100BF000B5FD41485421FFF7B1FD40485421FFF7AE
:100C0000ADFD3F493B483C4A3F4B08603D490A60C7
:100C10003A491960531C0365481C1065012008659A
:100C20003B48344A39A1784400F0E4F820B9384808
:100C300078440A3800F07AF937482F4A35A17844C9
:100C400000F0D8F820B9344878440A3800F06EF93A
:100C500032482A4A2FA1784400F0CCF820B92F4816
:100C600078440A3800F062F940232248DC00002171
:100C7000224600F09CF820B125487844543800F012
:100C800055F91D4822464023002100F090F820B17C
:100C900021487844543800F049F918482246102376
:100CA000002100F084F8002806D01C487844BDE8F4
:100CB0001040563800F03AB910BD104870B5006DBC
:100CC00020F001040B4800F00BF90B4800F008F984
:100CD0000A4800F005F909E0206D20F001052046E2
:100CE00000F0FEF82046FFF724FB2C46002CF3D141
:100CF00070BD000018D400206CD40020C0D40020A7
:100D0000D40D0020D80D0020DC0D00207200000062
:100D10007ECA0000770000006DCA00005DCA0000B6
:100D200000487047F8D5002000487047F8D50020EB
:100D3000034640688C46002818BF88423CBF0346E3
:100D40004068F8D318681844884207D00CF10300B3
:100D500020F00700001D411A521A0146081D0A60C2
:100D6000FFF7E7BA007B00F08000704710B501463E
:100D7000C268900703D0900607D5886A0AE0FFF79B
:100D8000D3FF01210160881E10BD8B69486818449B
:100D90000B69C01A91F848301BB191F84910401AFC
:100DA00010BD1103FCD50028FADD401E10BD70B542
:100DB000C468A50713D0650211D4B2F5807F09D0AD
:100DC000B2F5007F06D0B2F5806F08D1012300F1A3
:100DD000240106E05D1E6FF07F46B54201D301207D
:100DE00070BD0161C361416024F470611143C16051
:100DF000002070BD2DE9F0410C460746164610460E
:100E000000F06EF82078611C61280AD0722802D0A8
:100E100077283CD102E00125002405E002250424C6
:100E200002E0082448F2020511F8010B2B2806D035
:100E3000622809D011F8010C74280AD00BE045F0A3
:100E4000030544F00204EFE745F0040544F0010413
:100E5000EAE744F010043846214605F0F9FA411C4F
:100E600015D00021316171604FF40071F560F161BE
:100E70007061200704D5304602220021FFF7C0FD33
:100E8000306D40F0010030653046BDE8F081002053
:100E9000FBE72DE9F0410D460646104C206DC107D9
:100EA00004D0410804D020F00104F7E722460EE008
:100EB0005420FFF70FFA07000ED0206D47F0010114
:100EC0000843542120653846FFF748FC3A46294636
:100ED0003046BDE8F0418DE70020D6E718D4002069
:100EE0002DE9F04704464FF000094FF0FF37C56881
:100EF000D4E90486A80707D02046FFF731FE304624
:100F000005F08CFA002802DA3846BDE8F08728059B
:100F100002D54046FFF70DFA4C212046FFF71EFC94
:100F2000206D20F0010020654846EEE710B500F086
:100F30003FF8BDE8104000F036B810B500F052F8A8
:100F4000BDE8104000F02FB870477546FFF7E8FE87
:100F5000AE4605006946534620F00700854618B0A6
:100F600020B5FFF7A5F9BDE820404FF000064FF08F
:100F700000074FF000084FF0000B21F00701AC46CE
:100F8000ACE8C009ACE8C009ACE8C009ACE8C009ED
:100F90008D46704710B50446AFF300802046BDE88B
:100FA0001040FFF771B9002801D000F043B8704736
:100FB00010B5014602A000F043F8012010BD00006A
:100FC00053494752545245443A2052656469726508
:100FD00063743A2063616E2774206F70656E3A20E7
:100FE0000000000010B5012805D0002103A000F08A
:100FF00027F8012010BD09A1F8E700005349475226
:10100000544D454D3A204F7574206F6620686561D8
:1010100070206D656D6F7279000000003A204865A0
:101020006170206D656D6F727920636F727275707B
:101030007465640001491820ABBEFEE7260002007B
:1010400070B505460C460A2000E06D1C00F011F852
:1010500035B128780028F8D102E0641C00F009F8C6
:1010600014B120780028F8D1BDE870400A20AFF311
:10107000008008B569468DF800000320ABBE08BDAE
:10108000FEE7000010B504F05EFE11490968114B3F
:10109000C1F30221104A012404290BD00F490C602E
:1010A0000C68002CFCD10D4908390B60096891428D
:1010B0000AD0FEE70A498C608C68002CFCD10B60DA
:1010C0000968914200D0FEE704F0B0FE10BD0000B8
:1010D000002004E0C2A507F4CDB5E8B5084C0258DD
:1010E00000300240411A01F121026FF00500032A8D
:1010F00006D34A1C032A03D31F39032900D3002037
:101100007047704772B6FEE72DE9F04F07462DEDA8
:10111000068BADF6145D8846B0F84000C0F30311AD
:10112000CDF8001DC0F30321CDF80C1D1E2100F0E9
:101130000F0C01EB1034B7F84200CDF8080D002277
:101140000DF5496007EB42019300B1F84410521CC1
:1011500001F00F0540F8235000EB8303C1F30315A2
:101160005D60C1F30325090BC3E90251062AE9DBDF
:101170005FF0000150F82120072A02DD103A40F804
:101180002120491C1829F5DB00220DF5416107EBF0
:1011900042039500B3F85030521C03F00F0641F89B
:1011A000256001EB8505C3F303166E60C3F30326C8
:1011B0001B0BC5E90263082AE9DB002251F8223043
:1011C000072B02DD103B41F82230521C202AF5DBB0
:1011D000012000FA0CFB0026DFED6F8A0DF1100AEA
:1011E000204608F0AEFB9FED6D9BB6EE008A08F539
:1011F0008059CDF8F41C01905FF0000505EB461016
:1012000007EB40010AEB8004B1F88010C1F305112F
:1012100000EE101A6349B8EE401A11EE100A84ED80
:10122000001A884205DD9FED600A31EE400A84ED28
:10123000000A00EE10BAD4ED000A0DF54960B8EED0
:10124000C00A20EE800A84ED000A50F82600DDF87E
:101250000C1D8840DDF8081D42180DF54160DDF8D1
:10126000001D50F825008840104400EE900AF8EE6A
:10127000E00A30EE800AF0EE690A84ED000ADDF83B
:10128000F41C0198B0EE490A41EC110B03F0FCFC90
:10129000B0EE401AF0EE601AB0EE41AAF0EE61AA8C
:1012A000206808F093FE53EC1A2B08F0DBF908F0E5
:1012B000EBF801EE100A6D1C84ED001A99ED940A0A
:1012C000D9ED950A202D30EE200AD8ED060A20EE41
:1012D000200A00EE481A84ED001A88EE810A84ED97
:1012E000000A8BDB761C182E86DB9DED041A01208C
:1012F00057464FF4407600BF07EB800191ED000A9E
:10130000B4EEC10AF1EE10FA01DDB0EE401A401C55
:10131000B042F1DB0024B0EE000A4FF08E4103E052
:1013200021EE001A641CE4B211EE100A8842F7DBC9
:101330000025204608F005FB8A4681464AEC119BB1
:10134000B0EE490AF0EE690A03F09EFCB0EE40AA46
:10135000F0EE60AA57F8250008F038FE53EC1A2B7F
:1013600008F03EFB08F090F800EE100A08EB45018B
:101370006D1C30EE080AB542BCEEC00A10EE100A31
:10138000A1F84A00DADB88F84A460DF6145DBDEC98
:10139000068BBDE8F08F0000BD37863500000000E9
:1013A000000000400000F8410000804210B5828A31
:1013B000802303EA121282F08003B0F86A20204CE6
:1013C00002F03F0000EE100AB8EE400A10EE100ADC
:1013D000A04203DDDFED1B0A30EE600ADFED1A0AE2
:1013E000C2F38410194C60EE200A00EE100A9FED43
:1013F000181AB8EE400A10EE100AA04201DD30EED5
:10140000410AF6EE001AD00A60EE211A00EE100A28
:10141000B8EE400A10EE100AA04201DD30EE410A9B
:10142000B4EE001A81F8253001F5805120EE010A52
:10143000C1ED970AC1ED981A81ED990A10BD00001F
:101440000000F841000080420000803D0000704133
:10145000000000422DE9F04105462DED088B0E46B7
:101460001B21B0F84000B5F8742001EB1031C2F335
:10147000090060F30F04B0F5007F03DBA0F5806086
:1014800060F30F04900A60F31F441F2802DD403808
:1014900060F31F4404EB244060F31F44B5F872006E
:1014A000574AC0F3090000EE100AB8EE408A18EE61
:1014B000100A904203DD9FED530A38EE408A084639
:1014C00008F03FFA41EC110B9FED4F9BB0EE490A3B
:1014D000F0EE690A03F0D8FBB0EE401AF0EE601AA5
:1014E000B0EE41AAF0EE61AA18EE100A08F06EFD07
:1014F00053EC1A2B08F0B6F807F0C6FF01EE900A7D
:10150000B5F8720011EE907A800A00EE100A404998
:10151000B8EE401A11EE100A884203DD9FED3D0A35
:1015200031EE401ADFED3C0AB7EE000A95F876007E
:1015300001EE200ADFF8E4809FED39BA60EE218ADF
:1015400000EE100AB8EE408A18EE100A404501DDA0
:1015500038EE4B8A95F87000C0F30310083008F09D
:10156000F0F941EC110BB0EE490AF0EE690A03F014
:101570008BFBB0EE40AAF0EE60AA18EE100A08F05D
:1015800025FD53EC1A2B08F06DF807F07DFF306253
:10159000B5F87600000A00EE100AB8EE408A18EEA0
:1015A000100A404501DD38EE4B8AB5F87000C0F3F3
:1015B000032008F0C6F941EC110BB0EE490AF0EE39
:1015C000690A03F061FBB0EE409AF0EE609A18EE03
:1015D000100A08F0FBFC53EC192B08F043F807F055
:1015E00053FFF061A6F55B6606F5005620143760E0
:1015F000C6ED018A34817081BDEC088BBDE8F081B5
:101600000080FF4300008044000000000000004014
:101610000000F841000080420000003C0000FE4253
:10162000000080432DE9F0410E46002107460C469C
:101630000D4608464FF6FF7306EB410202F5805255
:10164000491CA2F8683289B2A2F872320529F3D394
:1016500000214FF4407300BF07EB4102B2F8802035
:10166000BAB1D20707D006EB450202F580526D1CD5
:10167000A2F87212ADB2491C89B2994203D2052C6C
:1016800001D2052DE8D3042C0CD96FF00200BDE87F
:10169000F08106EB440202F58052641CA2F8681245
:1016A000A4B2E8E7042D02D96FF00300EFE7611957
:1016B000042902D96FF00400E9E7002317E006EBE4
:1016C00043015F1C01F580580DE000BF06EB4700A9
:1016D00000F58050B0F86812B8F86802FFF702FD14
:1016E0000028D4D17F1CA742F0DB5B1C9BB2A34235
:1016F000E5D3002317E006EB43015F1C01F580589A
:101700000DE000BF06EB470000F58050B0F8721204
:10171000B8F87202FFF7E6FC0028B8D17F1CAF4290
:10172000F0DB5B1C9BB2AB42E5D3002317E006EB7A
:101730004301002701F580580DE000BF06EB47008C
:1017400000F58050B0F87212B8F86802FFF7CAFCD2
:1017500000289CD17F1CAF42F0DB5B1C9BB2A342F4
:10176000E5D394E7B0F96000B0F5004F00DB00B2BC
:1017700088827047B0F878000A4A000A00EE100A22
:10178000B8EE400A10EE100A904203DDDFED060AC3
:1017900030EE600ADFED050A20EE200A81ED0A0A2C
:1017A000704700000000FE42000080430000003946
:1017B00030B530F87E2F6FF02703C2F3013202EB11
:1017C00082025200A1F840300023A1F8423010F804
:1017D0000439C3F30313A1F844308488C4F3032409
:1017E00013FB02F3A1F8443014FB0232A1F84620A7
:1017F0004FF4C872A1F848200279224D02F00F037D
:10180000012208339A400378DFED1F0A00EE103AF8
:10181000B8EE400A81ED0B0A03881B0A00EE103A6D
:10182000B8EE400A81ED0C0A837800EE103AB8EE6B
:10183000400A81ED0D0A4088000A00EE100A0020DF
:10184000B8EE400A81ED0E0A01EB800393ED0B0A1E
:1018500010EE104AAC4203DD30EE600A83ED0B0A55
:10186000B0EE401A00EE102A401C0428B8EEC00A60
:10187000C1EE001AC3ED0B1AE6DB9FED040A81ED01
:101880000F0A30BD0000FE420000804317B751B977
:101890002DE9F34F07462DED068BADF60C4DB0F854
:1018A0006C1041F307207F2800DD40B28DF8080C52
:1018B00048B27F2800DD40B28DF80A0CB7F86E10F0
:1018C00041F307207F2800DD40B28DF8090C48B2B3
:1018D0007F2800DD40B28DF80B0C97F870100026C1
:1018E000C1F3031001F00F02012101FA02F9DFF840
:1018F000B0A10DF6084BE846083008F022F89FED3D
:10190000698B0DF5406203C25FF0000505EB4610E0
:10191000C11700EBD16200EB91618911521149426C
:1019200002EB410100EBD07222F00102821A02EBBD
:10193000410107EB400208EB800492F88020C9B215
:10194000C2F3420200EE102AB8EE401A11EE100A5D
:1019500084ED001A504505DDB2EE000A31EE400A72
:1019600084ED000A00EE109AD4ED000AB8EEC00A29
:1019700020EE800A84ED000A1BF9010000EE900AB7
:101980000DF54060F8EEE00A30EE800AF0EE680AED
:1019900084ED000A03C8B0EE480A41EC110B03F0D5
:1019A00073F9B0EE409AF0EE609A206808F00EFBF2
:1019B00053EC192B07F056FE07F066FD6D1C2060F6
:1019C000202DA3DB761C182E9EDB9DED000A012046
:1019D0004746B0EEC01A4FF4407600BF07EB8001D7
:1019E00091ED000AB0EEC00AB4EEC10AF1EE10FAB1
:1019F00001DDB0EE401A401CB042EFDB0025B0EE36
:101A0000000A4FF0854103E021EE001A6D1CEDB293
:101A100011EE100A8842F7DB0024284607F091FFF8
:101A200089468046B0EE489AF0EE689AB6EE00AA73
:101A300049EC118BB0EE490AF0EE690A03F024F983
:101A4000B0EE408AF0EE608A57F8240008F0BEFA43
:101A500053EC182B07F0C4FF07F016FD00EE100A38
:101A6000B5EEC00AF1EE10FA02D230EE4A0A01E0F9
:101A700030EE0A0ADDF8281C2144BDEEC00A641CC1
:101A8000B44210EE100A81F84C0CD1DBDDF8280CC2
:101A900080F84C5F0DF60C4DBDEC068BBDE8FC8F5D
:101AA0000000404000000000000000402DE9F04F21
:101AB00089462DED068BADF6044DB0F86820110B6C
:101AC000072900DD10398DF8001CC2F30321072916
:101AD00000DD10398DF8021CC2F30311072900DD67
:101AE00010398DF8011C02F00F01072900DD1039B3
:101AF0008DF8031CB0F870000025C0F303200DF52D
:101B000040686F4607F01DFF8B4682469FED518B64
:101B10005FF0000404EB4510C11700EBD16200EB4D
:101B2000916189115211494202EB410100EBD072DF
:101B300022F00102821A02EB4101C9B218F9011028
:101B400007EB800600EE101A4BEC11ABF0EE680AC2
:101B5000B8EEC00A86ED000AB0EE480A03F094F829
:101B6000B0EE409AF0EE609A306808F02FFA53EC2D
:101B7000192B07F077FD07F087FC641C3060202CE0
:101B8000C8DB6D1C182DC3DB9DED000A01204FF44E
:101B90004076B0EEC00A00BF07EB8001D1ED000A2D
:101BA000F0EEE00AF4EEC00AF1EE10FA01DDB0EE5C
:101BB000600A401CB042EFDB0025F0EE000A4FF057
:101BC000854103E020EE200A6D1CEDB210EE100AF4
:101BD0008842F7DB0024284607F0B3FE8A46804699
:101BE000B6EE009A4AEC118BB0EE480AF0EE680AA5
:101BF00003F04AF8B0EE40AAF0EE60AA57F82400CD
:101C000008F0E4F953EC1A2B07F0EAFE07F03CFC6D
:101C100000EE100AB5EEC00AF1EE10FA02D230EE74
:101C2000490A01E030EE090A09EB0401641CB442E0
:101C3000BDEEC00A10EE100A81F84D0FD2DB41F262
:101C40004D2000F809500DF6044DBDEC068BBDE8A3
:101C5000F08F000000000000000000402DE9F04F70
:101C60008B46018CB0F92240B8B001F00F09C1F3E6
:101C7000031CC1F3032AB4F5004F00DB24B200219A
:101C800020AA00EB41038D009B8C491C03F00F063A
:101C900042F8256002EB8505C3F303166E60C3F3BB
:101CA00003261B0BC5E902630629EADB5FF000018E
:101CB00052F82130072B02DD103B42F82130491C3D
:101CC0001829F5DB0023694600EB43059E002D8EA5
:101CD0005B1C05F00F0741F8267001EB8606C5F383
:101CE00003177760C5F303272D0BC6E90275082B90
:101CF000EADB002351F82350072D02DD103D41F8A7
:101D000023505B1C202BF5DB0023964600225EF857
:101D1000235005FA0AF500BF02EB431600EB460715
:101D20000BEB4606B7F88070BF0AA6F84C761F2F5B
:101D300002DD403FA6F84C7631F82280BFB207FAA8
:101D400009F708FA0CF8A84427444744521CA6F89F
:101D50004C76202AE0DB5B1C182BD7DB38B0BDE8C3
:101D6000F08F000070B50C462DED048B0546B0F8E1
:101D70006410254A880A00EE100AB8EE400A10EEF8
:101D8000100A904203DDDFED210A30EE600ADFED3C
:101D9000200AC1F309001F4920EE208A00EE100A34
:101DA000B8EE400A10EE100A884203DDDFED1A0A91
:101DB00030EE600AF4EE000AB5F862609FED171B82
:101DC00060EE208A9FED170B02F05EFF288CB0EECC
:101DD000409AF0EE609A00F4704007F0B2FD53ECC8
:101DE000192B07F03FFC9FED111B53EC112B07F053
:101DF0007DFB07F049FB84ED018AC4ED028AA681D0
:101E00002061BDEC048B70BD0000F84100008042F1
:101E1000000080390080FF43000080440000000083
:101E200000002C4000000000000000400000000006
:101E30000000204090F87800094A00EE100AB8EE41
:101E4000400A10EE100A904203DDDFED060A30EE84
:101E5000600ADFED050A20EE200A81ED060A7047D0
:101E60000000FE42000080430000003DB0F8662004
:101E7000100A7F2801DDA0F580704001D2B24FF436
:101E8000404303EB421208804A80704710B50400BB
:101E900002D0607910B106E0012010BD0020207151
:101EA000204600F005F801206071002010BD000000
:101EB00008B500680649884208D10648016841F41F
:101EC00080510160006800F48050009008BD00005F
:101ED000003002403038024070B5044600F016F978
:101EE0000546601C02D004480078044400F00EF956
:101EF000401BA042FAD370BDC40D00202DE9F84F5D
:101F0000DFF8B8A10022012403254FF00F090AF1E0
:101F1000040BAAF1040E00BF0B6804FA02F633406A
:101F2000B34273D10F7907F00307012F01D0022FBD
:101F300016D187684FEA420805FA08FC27EA0C0721
:101F4000D1F80CC00CFA08FC4CEA070CC0F808C029
:101F50004768B7430E79C6F3001696403E43466085
:101F60000E79F643B6070DD0C768560005FA06FC91
:101F700027EA0C07D1F808C00CFA06FC4CEA070C5B
:101F8000C0F80CC00E7906F00306022E10D1D60858
:101F900000EB8608D8F8206057074FEAD76C09FA9B
:101FA0000CF7BE430F6907FA0CF73743C8F82070E7
:101FB00006684FEA420C05FA0CF7BE430F7907F0AA
:101FC000030707FA0CF7374307604E6816F4403FE3
:101FD0006DD03B4E376847F480473760366822F053
:101FE000030706F480460096364E07EB060CDCF835
:101FF000086897073F0F09FA07F826EA0806DFF88E
:10200000C880404503D14FF000081EE04FE0DFF8E4
:10201000BC80404502D14FF0010816E0DFF8B080E7
:10202000404502D14FF002080FE0DFF8A88040459C
:1020300002D14FF0030808E0DFF89C80404502D150
:102040004FF0040801E04FF0070808FA07F848EAE3
:102050000608CCF80888DAF800605746D1F804C0C2
:102060009E435FEACC2C00D51E433E60DBF8006047
:102070005F46D1F804C09E435FEA8C2C00D51E4316
:102080003E60DEF800607746D1F804C09E435FEA08
:102090008C3C00D51E433E60084F083F3E68D1F897
:1020A00004C09E435FEACC3C00D51E433E60521CF8
:1020B000102AFFF431AFBDE8F88F0000083C014062
:1020C0004438024000300140000002400004024059
:1020D00000080240000C0240001002400AB1816179
:1020E00070470904FBE7000002480068C0F30B00DA
:1020F00070470000002004E000487047000108011C
:1021000001480068000C7047002004E00148806826
:1021100070470000C40D002070B5040025D094F86D
:102120003D00002520B984F83C50204600F04CFAD0
:10213000242084F83D002068016821F0010101603D
:102140002068016841F4004101602068016821F4C1
:102150000041016000F0AEFB4D4A6168914201D838
:102160004C4900E04C49884201D2012070BD4B49E6
:102170002368B0FBF1F15E6826F03F060E435E6017
:102180006368934206D94FF4967359434FF47A73B8
:10219000B1FBF3F12368491C1E6A26F03F06314368
:1021A00019626168914210D84900401EB0FBF1F2FB
:1021B000521CC2F30B02042A01D2042022E0B0FB1D
:1021C000F1F0401CC0F30B001CE0A268F2B301EB7D
:1021D000C10303EB0116431EB3FBF6F35B1C43F490
:1021E00080431B0549D092B301EBC10202EB011100
:1021F000401EB0FBF1F0401CC0F30B0040F48040E7
:1022000040F400402168CA694CF6FF739A431043BA
:10221000C861D4E9071001432068026822F0C002B7
:1022200011430160D4E9030101432068826848F248
:10223000FF339A4311438160D4E9050108432168C3
:10224000CA6822F0FF021043C86001E00EE016E009
:102250002068016841F0010101602564202084F8B4
:102260003D00256384F83E50002070BD01EB41061F
:10227000431EB3FBF6F35B1CB3E70120C2E701EB9F
:102280004101401EB0FBF1F0401CC0F30B00B7E76A
:10229000A086010080841E0000093D0040420F001E
:1022A0002DE9FF4F83B09A46DDE911979346044626
:1022B000DDF84080FFF72AFF054694F83D0020280E
:1022C00070D11923012271492046009501F030F8A0
:1022D0000028F5D194F83C00012863D0012084F84F
:1022E0003C0020680168C90703D1016841F0010181
:1022F00001602068016821F400610160222084F8F7
:102300003D00402084F83E0000262664C4F8248066
:10231000A4F82A90608D20855D48E062CDE90075C3
:1023200053465A462046049900F00AFF00287CD103
:10233000208DD0B1012821D00228206824D0416905
:1023400080690090208D032869D801282BD051493D
:1023500002283B464FF00002009559D0884620469F
:1023600000F0E6FF002860D13CE020684169816907
:102370000091016841F40071016077E02068016814
:1023800021F480610160F0E7016821F4806101605F
:102390002068016841F4006101602068416980693A
:1023A000009063E06FE02A463946204601F03FF88E
:1023B00098BB20680069616A08704EE02068016877
:1023C00041F40071016020680069616A0870606A08
:1023D000401C6062218D491E2185618D491E6185E9
:1023E000216838E02068016821F48061016020687C
:1023F0000069616A0870606A401C6062208D401E3E
:102400002085608D401E60853B4600224146009538
:10241000204600F08DFF00B9D0E706E0FFE72A462E
:102420003946204601F003F818B1012007B0BDE895
:10243000F08F20680069616A0870606A401C606201
:10244000218D491E2185618D491E618521684A695A
:10245000D24352070AD409690170606A401C606265
:10246000208D401E2085608D401E6085208D0028B7
:102470007FF468AF202084F83D0084F83E6084F843
:102480003C600020D2E70220D0E7000002001000EC
:102490000000FFFF040001002DE9FF4F83B09A46C2
:1024A000DDE9119793460446DDF84080FFF72EFEE4
:1024B000054694F83D0020287FD119230122404988
:1024C0002046009500F034FF002876D194F83C00B7
:1024D000012872D0012084F83C0020680168C907F7
:1024E00003D1016841F0010101602068016821F415
:1024F00000610160212084F83D00402084F83E0006
:1025000000262664C4F82480A4F82A90608D2085D3
:102510002C48E062CDE9007553465A46204604999E
:1025200000F08CFE70B930E02A463946204600F0B3
:10253000B1FF58B1206C042804D12068016841F42F
:1025400000710160012007B0BDE8F08F606A21686A
:1025500000780861606A401C6062218D491E89B262
:102560002185628D521E628522685369DB435B07B9
:102570000BD469B100781061606A401C6062208DE4
:10258000401E2085608D401E6085208D0028CBD1A7
:102590002A463946204600F0A5FE0028CAD154F844
:1025A0003D0B016841F400710160202004F81E0910
:1025B000E67766770020C6E7FFE70220C3E7000062
:1025C000020010000000FFFFF0B587B004461421A0
:1025D0006846FEF7C3F81D492068884233D11C487D
:1025E0000024016841F004010160016801F0040168
:1025F0000591016841F0010101600068122500F0B9
:10260000010005904FF40070CDE9000502AA0326F1
:10261000042782E8D00069460E48FFF76FFCB80136
:10262000CDE9000502AA694682E8D0000A48FFF712
:1026300065FC07481030016841F400010160006842
:1026400000F40000059007B0F0BD0000005C004001
:102650003038024000080240000002400248816811
:102660000278114481607047C40D00200B4810B5FA
:10267000016841F400710160016841F4806101600A
:10268000016841F480710160032000F061F80F20BF
:1026900000F006F800F024F8002010BD003C0240D5
:1026A00070B50D4D04464FF47A712878B1FBF0F007
:1026B0000A490968B1FBF0F000F055FC48B9102C4C
:1026C00007D200222146501E00F022F800206C6044
:1026D00070BD012070BD0000C40D0020D00D002091
:1026E0000A4808B5016841F480410160006800F4BF
:1026F000804000900548001F016841F08051016052
:10270000006800F08050009008BD0000443802408E
:10271000F0B40E4B1B680C46C3F30223C3F107054C
:10272000042D00D90425191D072901D2002300E03A
:10273000DB1E012606FA05F1491E214099409E4004
:10274000761E16403143F0BC02F01EB90CED00E0DD
:10275000064900F0070208684FF6FF03184040EAF8
:102760000220034A10430860704700000CED00E0AF
:102770000000FA052DE9F0470E46050065D0DFF8A8
:102780001481D8F80000F7B200F00700B04207D279
:1027900088F80070D8F8000000F00700B04254D16B
:1027A00028683D4C810712D5400703D5206840F4C6
:1027B000E05020602878000703D5206840F460408E
:1027C00020602068A96820F0F00008432060287885
:1027D000C0072DD0304968680839012812D0022876
:1027E00013D0032811D00968890700292DDA216840
:1027F00021F0030101432160FFF788FC814641F28B
:10280000883A0EE009688903EFE709688901ECE777
:10281000FFF77CFCA0EB0901514502D90320BDE87C
:10282000F0872068696800F00C00B0EB810FEFD1F1
:10283000D8F80010404601F00701B14207D90770EF
:10284000006800F00700B04201D00120E7E72878D7
:10285000400705D52068E96820F4E050084320606F
:102860002878000706D52068296920F4604040EAEE
:10287000C100206000F03EF82168084AC1F303114E
:10288000515CC8400649086006480068FFF708FF29
:102890000020C4E7003C024008380240081001084C
:1028A000D00D0020C80D00200148006870470000CE
:1028B000D00D00200448054900680968044AC1F3A6
:1028C0008221515CC8407047D00D0020083802407A
:1028D000181001080448054900680968044AC1F352
:1028E0004231515CC8407047D00D0020083802408A
:1028F00018100108154810B5006810F00C021448B3
:1029000013D01449042A0FD0082A0ED10F4C241FCB
:102910002268236802F03F025B0207D52068C0F3FB
:102920008810A0FB010106E0084610BD2168C1F334
:102930008811A1FB00010023FDF722FD2168C1F3EE
:102940000141491C4900B0FBF1F010BD08380240BC
:102950000024F40040787D012DE9F84F04006ED08A
:102960002078DFF84C93C007A9F104054AD009F19B
:1029700004000168C1F38101012908D00068C0F397
:10298000810002280AD1D9F80000400206D5286843
:10299000800337D560680028E1D033E06068B0F587
:1029A000803F10D0B0F5A02F286810D020F48030E0
:1029B0002860286820F4802028606068A8B1FFF7AC
:1029C000A5FB06460DE0286840F48030F4E740F4AB
:1029D00080202860F7E700BFFFF798FB801B642882
:1029E00073D828688003F7D50CE0FFF78FFB064605
:1029F00005E000BFFFF78AFB801B6428F0D8286839
:102A00008003F7D42078DFF8AC8280074FF0000A0B
:102A10003ED5A748001D016811F00C0F08D00068D2
:102A2000C0F3810002280BD1D9F80000400207D47E
:102A30002868800716D5E068012800D112E033E14C
:102A4000E068B8B10120C8F80000FFF75FFB064658
:102A500005E000BFFFF75AFB801B0228C0D828689A
:102A60008007F7D52868216920F0F80040EAC10006
:102A700028600DE0C8F800A0FFF748FB064604E018
:102A8000FFF744FB801B02281FD828688007F7D473
:102A90002078000722D5864F87486169703771B169
:102AA00001210160FFF732FB064604E0FFF72EFB31
:102AB000801B022809D838688007F7D50EE0C0F8D7
:102AC00000A0FFF723FB064605E082E0FFF71EFBB0
:102AD000801B02287DD838688007F7D4207840070B
:102AE00068D5DFF8CCB100270BF13C0BDBF8000018
:102AF000C0000BD4DBF8001041F08051CBF800107F
:102B0000DBF80000012700F0805000906B4E306829
:102B1000C00510D4306840F480703060FFF7F6FADA
:102B2000009005E0FFF7F2FA0099401A022850D809
:102B30003068C005F6D55E4EA0686C3601280FD00F
:102B40000528306810D020F001003060306820F097
:102B500004003060A068B8B1FFF7D8FA00900FE029
:102B6000306840F00100F4E740F004003060F7E71F
:102B7000FFF7CCFA0099411A41F28830814266D8B9
:102B800030688007F4D50EE0FFF7C0FA009007E048
:102B9000FFF7BCFA0099411A41F28830814256D8B9
:102BA00030688007F4D42FB1DBF8001021F0805199
:102BB000CBF80010A069C8B33D49091D0968C1F3ED
:102BC000810102294AD00228504607D0C8F8600087
:102BD00000E03CE0FFF79AFA04463BE04746C8F8BD
:102BE0006000FFF793FA064605E000BFFFF78EFA94
:102BF000801B02282BD828688001F7D4D4E907016C
:102C00000843A16A2E4A490802EB0141626A41EA7F
:102C10008211084394F82C1040EA0161C9F80010B1
:102C200001203866FFF772FA044606E03EE000BF76
:102C3000FFF76CFA001B022809D828688001F7D535
:102C400034E000BFFFF762FA001B022802D903201C
:102C5000BDE8F88F28688001F4D427E00128F7D078
:102C6000D9F80000E26900F4800191421CD1226A87
:102C700000F03F01914217D147F6C071626A0140EE
:102C8000B1EB821F10D1A26A4FF0FF3300F4403144
:102C900003EB5202B1EB024F06D194F82C1000F076
:102CA0007060B0EB016F01D00120D1E70020CFE7C9
:102CB0000438024000004742800E47420070004046
:102CC0000000FFFF70B5040009D0606A002540B124
:102CD00025616561A56294F8510040B10CE00120C6
:102CE00070BD6068B0F5827FF4D0E561F2E784F8EA
:102CF0005050204600F044F8022084F8510020682B
:102D0000016821F040010160A088218900F48270EF
:102D100001F404410843A18901F400610843217CC6
:102D200001F002010843217D01F001010843218BDC
:102D300001F400710843217F01F03801084394F841
:102D4000201001F080010843218D01F40051084357
:102D500021680860A069042101EA104094F8241059
:102D600001F010010843216848602068C16921F41E
:102D70000061C1616565012084F85100002070BDCB
:102D800010B586B0044614216846FDF7E7FC1349E8
:102D90002068884220D112480021026842F4805203
:102DA0000260006800F4805005900D4814380268F5
:102DB00042F002020260006800F002000590282044
:102DC00000900220CDE9010103200390052004902A
:102DD00069460448FFF792F806B010BD0030014084
:102DE00044380240000402402DE9F84F044690F8B0
:102DF000500000271D461646894601280DD04FF089
:102E0000010B84F850B0FFF781F9804694F8510027
:102E1000BA46012804D0022793E00220BDE8F88FCB
:102E2000B9F1000F73D0002E71D0032084F8510047
:102E3000C4F854A0C4F83090A686E686C4F838A03A
:102E4000A4F83CA0A4F83EA0C4F844A0C4F840A054
:102E5000A068B0F5004F09D12068016821F0400159
:102E600001602068016841F48041016020680168C8
:102E7000490603D4016841F040010160E068B0F503
:102E8000006F606803D030B3012E24D041E008B158
:102E9000012E1CD1206B21680088C86006E02068E4
:102EA0008168890709D5216B0988C160206B801C66
:102EB0002063E08E401EE08609E0FFF727F9A0EBD3
:102EC0000800A84202D3681C01D031E07DB3E08E37
:102ED0000028E4D120E0206B21680078087306E028
:102EE00020688168890709D5216B09780173206BF7
:102EF000401C2063E08E401EE0860AE0FFF706F9E2
:102F0000A0EB0800A84203D3681C02D010E017E031
:102F10006DB1E08E0028E3D142462946204601F0FB
:102F200067FA08B120206065A06818B106E0FFE7E5
:102F3000032706E02068C16880680090606D00B1DA
:102F4000012784F851B084F850A0384666E74FF066
:102F5000E0210428086903D020F0040008617047CC
:102F600040F00400FAE710B5401EB0F1807F01D3B5
:102F7000012010BD4FF0E02460610F21601701F0C7
:102F800003FD0020A06107202061002010BD70B566
:102F9000040004D094F83D00002510B106E00120A3
:102FA00070BD84F83C50204600F022F8242084F8BC
:102FB0003D002068C16821F40051C160204601F045
:102FC000F5FB2068016921F49041016120684169A5
:102FD00021F02A0141612068C16841F40051C160BB
:102FE0002564202084F83D0084F83E00002070BD58
:102FF00010B586B0044614216846FDF7AFFB1449AE
:103000002068884221D113480021026842F0100252
:103010000260006800F0100005900E481438026845
:1030200042F001020260006800F0010005904FF4D8
:10303000C06000900220CDE9010103200390072029
:10304000049069460448FEF759FF06B010BD000021
:103050000010014044380240000002402DE9F843CE
:10306000044690F83D001F4616460D4620284CD1D8
:10307000C5B1BEB194F83C00012846D0012084F8C7
:103080003C004FF00008C4F84080212084F83D0047
:10309000FFF73CF8A6848146E684A068B0F5805F1F
:1030A00003D004E00120BDE8F883206928B12E4652
:1030B0005FF0000584F83C800EE00026FAE78021EE
:1030C000204601F0F9FBA0B9AEB116F8010B21685A
:1030D0004860E08C401EE084E08C4B464FF00002DC
:1030E00000970028EBD14FF04001204601F0E4FBAF
:1030F00030B10320D7E735F8020BC0F30800E6E74C
:10310000202084F83D000020CDE70220CBE7FEE739
:1031100001684A69D24352050FD46FF480624A6154
:10312000002140F8301F202242738173026942F06F
:103130000402026101730120704700207047000003
:103140002DE9F84F0446006889460B9D01689846B2
:10315000174641F4806101602068016841F4807184
:10316000016000954FF0011B0022594620460A9B42
:1031700000F0DEF84FF4007A40B120680068C00526
:1031800001D5C4F840A00320BDE8F88F216809F0FC
:10319000FE0008612B46284920460A9A00F0FCF8F8
:1031A000F0BB20684169806900902A4620460A9950
:1031B00000F070F940B1206C04283AD12068016811
:1031C00041F40071016034E0FEB2B8F1010F09D0A2
:1031D0002168380A08612A4620460A9900F05AF9FF
:1031E0000028E8D1206806612A4620460A9900F0A6
:1031F00051F90028DFD12068016841F48071016035
:1032000000950022594620460A9B00F091F80028BC
:10321000B3D1216809F0FF0040F00100086100E02F
:1032200007E02B46044920460A9A00F0B5F800282A
:10323000AAD00120A8E70000020001002DE9F84310
:10324000044600680D46DDE9089701689846164671
:1032500041F4807101604B4600224FF0011120467D
:10326000009700F065F848B120680068C00502D5F5
:103270004FF4007020640320BDE8F883216805F056
:10328000FE0008613B464A461549204600F084F896
:1032900088B920684169806900903A4649462046CD
:1032A00000F0F8F848B1206C042804D120680168C7
:1032B00041F4007101600120DEE7F5B2B8F1010FC1
:1032C00009D02168300A08613A464946204600F094
:1032D000E1F80028E7D1206805610020CCE7000074
:1032E0000200010070B516460D4604460DE020466A
:1032F000FFF70EFF08B1012070BD681C05D0FEF776
:1033000005FF801BA84207D835B120684069C0433B
:103310004007ECD4002070BD002044F8300F20217D
:103320006173A073216941F0200121612073E2E7FC
:103330002DE9F0471E4690460D460446C1F3074767
:10334000DDF8209008E0701C06D0FEF7DFFEA0EB51
:103350000900B0420FD876B12068012F18D08069DB
:1033600025EA00000004000C14D000214145EAD0F9
:103370000020BDE8F087002044F8300F2021617361
:10338000A073216941F02001216120730120F0E741
:103390004069E5E70121E9E72DE9F0479A469146C2
:1033A0000E46044600254FF02008C1F3074725E0EC
:1033B00020684069C043400514D42068016841F486
:1033C0000071016021686FF480604861256384F8B2
:1033D0003D8084F83E50206C40F00400206484F866
:1033E0003C501FE0B9F1FF3F08D0FEF78FFEA0EB85
:1033F0000A0149450CD8B9F1000F09D02068012F06
:1034000013D0806926EA00000004000C0BD0CFE73F
:1034100044F8305F84F80D80A573206940F02000E7
:10342000206125730120BDE8F0874069EAE72DE9B6
:10343000F041002590460E460446202717E04069DB
:10344000C043C0060CD454F8301B6FF01000486124
:1034500044F810596777A577206A2062257717E02E
:10346000FEF754FEA0EB0800B04208D83EB1206839
:103470004169C9434906E2D40020BDE8F08144F81F
:10348000305F6773A573206940F0200020612573C9
:103490000120F2E770B516460D4604460DE02046C1
:1034A000FFF736FE08B1012070BD681C05D0FEF79D
:1034B0002DFE801BA84207D835B120684069C04363
:1034C0000006ECD4002070BD002044F8300F20210D
:1034D0006173A073216941F0200121612073E2E74B
:1034E0002DE9F04104461D4616460F462A2000F0FD
:1034F00039FA204600F026FA304600F023FA2B2055
:1035000000F030FA384600F01DFA284600F01AFAAA
:10351000BDE8F0412C2000F025BA10B514460B464A
:103520000246FFF7DDFF2046BDE8104000F00ABA72
:103530002DE9F04780461F46581E83B2164602F119
:10354000130082B208F114000C4680B2DDF820901E
:10355000FFF7C6FF0AE0454604E0484600F0F2F9EE
:103560006D1CADB2B542F8D3641CA4B2BC42F2D318
:10357000BDE8F087F0B587B014216846FDF7EEF896
:103580002E48016841F004010160016801F0040166
:103590000591016841F002010160016801F002013A
:1035A0000591016841F008010160016801F008011E
:1035B0000591016841F00101016000684FF4004687
:1035C00000F00100059001241D4FCDE900640325A2
:1035D000694603953846FEF791FC0122314638468C
:1035E000FEF77CFD1020CDE90004164E69460395D8
:1035F0003046FEF783FC012210213046FEF76EFDB7
:103600002603114FCDE90064694638460395FEF75D
:1036100075FC012231463846FEF760FD0420CDE9F5
:1036200000040A4C694603952046FEF767FC012218
:1036300004212046FEF752FD07B0F0BD30380240AD
:10364000000002400004024000080240000C02405A
:1036500010B5FFF78FFF002204216648FEF73EFDFC
:10366000654C002210212046FEF738FD642004F04E
:10367000B1FB012210212046FEF730FD642004F04A
:10368000A9FB112000F06EF9782004F0A3FB36208E
:1036900000F068F9A02000F07BF93A2000F062F910
:1036A000052000F075F9B22000F05CF90C2000F064
:1036B0006FF90C2000F06CF9002000F069F933205C
:1036C00000F066F9332000F063F9B72000F04AF902
:1036D000352000F05DF9BB2000F044F9192000F01E
:1036E00057F9C02000F03EF92C2000F051F9C2201B
:1036F00000F038F9012000F04BF9C32000F032F956
:10370000122000F045F9C42000F02CF9202000F030
:103710003FF9C62000F026F90F2000F039F9D0203B
:1037200000F020F9A42000F033F9A12000F030F9D6
:10373000E02000F017F9D02000F02AF9042000F072
:1037400027F90D2000F024F9112000F021F91320B1
:1037500000F01EF92B2000F01BF93F2000F018F9B3
:10376000542000F015F94C2000F012F9182000F058
:103770000FF90D2000F00CF90B2000F009F91F20C3
:1037800000F006F9232000F003F9E12000F0EAF848
:10379000D02000F0FDF8042000F0FAF80C2000F032
:1037A000F7F8112000F0F4F8132000F0F1F82C20C5
:1037B00000F0EEF83F2000F0EBF8442000F0E8F8CD
:1037C000512000F0E5F82F2000F0E2F81F2000F073
:1037D000DFF81F2000F0DCF8202000F0D9F82320CB
:1037E00000F0D6F8212000F0BDF8BDE810402920F7
:1037F00000F0B8B8000C0240000402402DE9FF4F71
:1038000081B00446DDF83C9000904FEA59074FF034
:103810000008780700D0012000EBD70000FB09FB6F
:10382000203AD0B20390029802994844401E83B2D5
:10383000E019401E82B22046FFF752FE002553E0F9
:10384000B9F10C0F2AD0B9F1100F2ED0B9F1180F21
:103850002ED0B9F1200F49D12749039801EB8010F0
:10386000002610F805A0109800284FF0010000FA7B
:1038700006F000EA0A0022D020B12046049A0299FC
:10388000FFF74BFE641C0098A4B2201AB84225D161
:103890000298009C401C80B2029023E003981749D4
:1038A00000EB400001EB8000DAE71549039803E0E4
:1038B0000398144900EB400001EB0010D0E708B179
:1038C000049800E00E9800F03DF808F10100C0B245
:1038D000B0FBF7F1804607FB118050B1761CF6B2C1
:1038E000082EC0D36D1CADB25D45A9D305B0BDE8AF
:1038F000F08F4FF00008F5E720F30008ECD6000841
:1039000060DB000850E100082DE9FE4F9946DDE933
:103910000D6714468A460546DDF830800CE0CDF888
:1039200000804B4651462846CDE90167FFF766FF08
:1039300005EB560085B2641C2278002AEFD1BDE861
:10394000FE8F000008B5010A8DF800108DF8010007
:103950000123022269460248FFF746FA08BD00002B
:103960008042002070B5094D06464FF48054002275
:1039700021462846FEF7B2FB304600F009F8214602
:103980002846BDE870400122FEF7A8BB00080240AF
:1039900001B501231A4669460148FFF725FA08BD1B
:1039A000804200202DE9F74F07462DED020B0D4612
:1039B0002DED108B88B0B0EE609AB0EE40EAB0F812
:1039C00082060290384600F07DFBF0EE408A2946E0
:1039D000384600F00BFBB0EE408A9FEDFE1A95F8DA
:1039E0004C0F38EE010A20EE000A60EE001A39EEA4
:1039F000010A20EE000A20EE000A30EE611AC1EE44
:103A00000E0A30EE609A05F09CFF41EC110B9FED21
:103A1000F2ABB0EE4A0AF0EE6A0A01F035F951EC69
:103A2000100B05F031FD05F580560DEE900A96F865
:103A30004D0205F086FF41EC110BB0EE4A0AF0EEA4
:103A40006A0A01F021F951EC100B05F01DFD0DEE95
:103A5000100A95F84A0605F074FF41EC110BB0EE20
:103A60004A0AF0EE6A0A01F00FF951EC100B05F06A
:103A70000BFDB7EE00FAD5ED0B0A9FEDD91AB0EEAB
:103A80004F0A0AEE900A00EE810AD64ACFEE000AEB
:103A9000CDED030A8DED04FAB5F94400D5ED0C0A1D
:103AA00000EE100AB8EEC01AB0EE4F0A00EE810A1E
:103AB0008DED050AB5F94610D5ED0D1A081A00EE80
:103AC000900AB8EEE01AF0EE4F0A41EE810A20EEBD
:103AD000800A8DED060AB7F8140600EE100AB8EE5B
:103AE000400A10EE100ADFEDC00A904201DD30EE10
:103AF000600AB5F91400802101EE100AB7F88006BB
:103B00006B46B8EEC11A01EA5019B7F81006C1EEBB
:103B1000009A00EE100AB8EE400A8DED000AB7F8E0
:103B2000500600EE100A0020B8EE400A8DED010AA2
:103B300003EB8001924691ED000A10EE104A944288
:103B400005DDDFEDA90A30EE600A81ED000A20EE06
:103B5000290A401C022881ED000AE9DBB3EE090ABC
:103B6000D5ED080A38EE40AAB0EE4F0AB6F9580271
:103B700095ED071A00EE8A0A00EE900AF8EEE00AC8
:103B800060EE201ADFED990A78EEE0EAF0EE4F0AD7
:103B900041EE2E0A9DED001A01EEE01A8DED001A9D
:103BA000B6F95A0295F8251001EE100A4945B8EE0B
:103BB000C11A02D120EE011A05E0D6ED971A31EEB6
:103BC000211A21EE001A9DED010A002401EE600A7F
:103BD0008DED010A9FED86CBE31704EB936104EBB7
:103BE000D36089114011494200EB410042B204EB1D
:103BF000D4704010404204EB400004F1020C5040ED
:103C00004FEAEC784FFA80FB0CEB987CE01C4FEA13
:103C1000E0784FEAAC0C00EB9870611CACEBA000B4
:103C20004FEAE17C01EB9C7100EBA10004EB937186
:103C3000A0EBA1005342012101EB4301484341B2F3
:103C4000B9F1000F7DD05846B7F88236834279D15A
:103C500037F8140000EE100AB8EE400A10EE100A11
:103C6000504503DDDFED600A30EE600A281995F853
:103C700025C090F94C3C90F94D0F00EE903A20EEA3
:103C8000290ACC45B8EEE01AC1EE2D0A01EE100A61
:103C900005EB4400F8EEC11AB0F94C3681EE8D1AEE
:103CA00001EE903AB8EEE12AF0EE4F1A40EE8A1A91
:103CB000F0EE4F0A62EE211A41EE2E0A01EEE00A02
:103CC00013D04FF0FF3303EB420200EE902A96ED43
:103CD000991AF8EEE00A01EE200A00EE901A96ED2D
:103CE000981AF8EEE00A01EE600A029A694601EBC2
:103CF0008201D5ED060A91ED001AB0F84A0000EEF7
:103D0000C10AC0EE0E8A9FED3C0A6AEE800A00EE00
:103D1000100A286BB8EE401A80EE810A95ED0A1A57
:103D2000F0EE4F0A41EE0A0A20EE808A28EE080AD9
:103D300060EE080AB0EE680A08EE090A60EE80FA42
:103D400001E05BE0AFE006F041F941EC1B0B1FEE38
:103D5000900A06F03BF941EC100B01F0BDFD01F0BB
:103D6000BBFD53EC1B2B51EC100B05F039FE05F09D
:103D70008BFBD5ED0C1A9FED171AF0EE4F0A00EEF3
:103D8000100A41EEC10A08EE200AC8EE800A30EEA1
:103D9000890A10EE100A06F019F941EC100B01F037
:103DA0009BFD01F099FD53EC1C2B51EC100B06F020
:103DB00023F805F069FB00EE100AB5F9420000EEA9
:103DC000900AF8EEE00AF4EEC00AF1EE10FA17DD00
:103DD000002030E0339388430000000000000040E2
:103DE0000000204200FEFF4600008047333353406E
:103DF0000000006066127140BD378635104623E72B
:103E0000B5F9440000EE900AF8EEE00AF4EEC00ABC
:103E1000F1EE10FA01DD01200DE0B5F9460000EEEB
:103E2000900AF8EEE00AF4EEC00AF1EE10FA01DDB5
:103E3000022000E0032005EB800191ED0B1A05EB59
:103E40004001B1F9401000EE901A03A901EB800087
:103E5000F8EEE00A70EE600AB0EE4F0A01EE200ABA
:103E6000D0ED000A60EE880A20EE200AC8EE800A33
:103E700030EE890A10EE100A06F0A8F841EC100B9B
:103E800001F02AFD01F028FDB0EE4C1AF0EE6C1A9C
:103E900053EC112B51EC100B05F0AEFF05F0F4FACA
:103EA0001C9941F82400641CB4F5407FFFF694AEE1
:103EB00008B0BDEC108B05B0BDE8F08F0B464FF499
:103EC00050724FF4105100F05FB970B50C460546C2
:103ED000FDF7CCFF21462846FDF744FF2146284642
:103EE000FDF740FC21462846FDF7A4FFB5F8700019
:103EF0002146C0F3013084F824002846FDF73AFC3F
:103F000021462846FDF754FC21462846FDF7A2FA33
:103F100021462846FDF7F8F821462846FDF79EFE83
:103F200021462846FDF7B4FC21462846FDF7BEFD94
:103F300021462846FDF73AFA21462846BDE870405A
:103F4000FDF770BB2DE9FC470D46814600244FF478
:103F500000466B4601223146484600F015F900281C
:103F60002DD1BDF8000010F0080FF2D04FF45077BB
:103F70004FF48068052C1ED230223146484600F0AE
:103F800027F9411C1BD02B463A464146484600F0D3
:103F9000FBF8002813D16B4601223146484600F059
:103FA000F3F800280BD1BDF8000004F1010410F073
:103FB000080FE4B2DED1042C03D96FF00700BDE88E
:103FC000FC8701AB012248F20D01484600F0DCF805
:103FD0000100BDF80400A5F88006BDF8000000F05F
:103FE0000100A5F88206EAD00846E8E770B50C465D
:103FF0002DED068B054600F065F8B5F84006B0EEED
:10400000409A00EE100A2849B8EE408A9FED270A30
:1040100018EE100A884201DD38EE408AB5F8000635
:1040200000EE900AF8EE608A18EE900A884201DDF0
:1040300078EEC08A9FED1E1B9FED1F0B00F024FE43
:10404000B0EE40AA94ED040AF0EE60AA48EE008AB1
:1040500088EE280A10EE100A05F0B8FF53EC1A2B70
:1040600005F0BEFC05F010FADFED150A94ED011A1B
:1040700000EE100A79EE601AF7EE000AA08941EE10
:10408000210A80EE201A00EE100AD4ED020AB8EEE2
:10409000400ABDEC068B31EE400A80EE201AB3EEEA
:1040A000090A31EE000A70BD00FEFF46000080479D
:1040B000000000000000324000000000000000404E
:1040C0003333534010B50C462DED068BB0F8541623
:1040D000284A00EE101AB8EE408A18EE101A9142E3
:1040E00003DD9FED250A38EE408AB0F88006C0F364
:1040F000812005F00FFC9FED21AB41EC110BB0EEE0
:104100004A0AF0EE6A0A00F0BFFDB0EE409AF0EE07
:10411000609A94F8240005F014FC41EC110BB0EE09
:104120004A0AF0EE6A0A00F0AFFDB0EE401AF0EE77
:10413000601A53EC192B51EC110B05F093FA05F0B2
:10414000A3F900EE100AB4F9020000EE900AB4F9E7
:104150000000F8EEE00A50EE080A00EE100ABDEC8E
:10416000068BB8EEC01A80EE810ADFED060A30EE4B
:10417000200A10BD00FEFF4600008047000000003E
:104180000000004033335340FEB516461D464FF63F
:10419000FF724FF4FA7302EA46020095CDE901235B
:1041A00040000A460146002410230848FEF778F82C
:1041B00038B1601EFEBD28192A5D4178427029552C
:1041C000A41CB4EB460FF6DB0020FEBD2C42002001
:1041D0007FB505460E464006010E100A8DF80C000C
:1041E00014468DF80D204FF4FA73022203A88DE8CF
:1041F0000D00102332460B48FEF74EF918B14FF070
:10420000FF3004B070BD084B012231462846FFF74D
:10421000BBFF05480088A04202D06FF00100F0E724
:104220000020EEE72C420020C00D002038B548F2F7
:104230000D0405466B4601222146FFF7A5FF002825
:1042400007D1BDF80000214640F480522846FFF710
:10425000BFFF38BDF8B505464807860D48F20D0486
:104260006B46012221462846FFF78EFF002808D121
:10427000BDF80000214620F4607232432846FFF763
:10428000A7FFF8BD074910B5054808600846FDF7C7
:10429000FDFD002803D0BDE81040FCF733BF10BD82
:1042A000003002408C0D002000B587B01421684614
:1042B000FCF754FA17480021026842F00402026039
:1042C000026802F004020592026842F08002026075
:1042D000026802F080020592026842F00102026068
:1042E000026802F001020592026842F002020260D6
:1042F000006800F0020005904FF4005000904FF469
:104300008810CDE9010169460348FDF7F7FD07B0C4
:1043100000BD000030380240000802400D4810B5D2
:104320000B4901600C49416000214FF480428160DB
:10433000C0E9031241618161C1610162FDF7ECFED8
:10434000002803D0BDE81040FCF7DCBE10BD000023
:10435000005C00402C420020801A0600104810B576
:104360000E4901604FF48271416000210222816098
:10437000C0E90312012242615202C0E90621016232
:10438000416281620A21C162FEF79CFC002803D0D1
:10439000BDE81040FCF7B6BE10BD00000030014083
:1043A000804200200C4810B50A4901604FF4E13109
:1043B0004160002181600C22C160C0E9041281616A
:1043C000C161FEF7E4FD002803D0BDE81040FCF712
:1043D00099BE10BD00100140D842002010B5FFF773
:1043E000E1FFBDE8104002F097BDFEE7FEE7704731
:1043F00038B504461248134B0068B0FBF3F04FF495
:104400007A73584300906068B0F5827F0DD10B46F7
:10441000009200228021204600F016F870B1606DF5
:1044200040F020006065032038BD009830B1401E88
:10443000009020688068C0430006F6D5002038BD93
:10444000D00D002000366E012DE9F8431E4691463E
:1044500088460446089DFDF759FE401B351AFDF7B6
:1044600055FE074625480068C0F3CB30684338E066
:10447000701C37D0FDF74AFEC01BA84203D215B10D
:10448000009860B32CE02068416821F0E0014160B1
:104490006068B0F5827F0BD1A068B0F5004F02D004
:1044A000B0F5806F04D12068016821F040010160FF
:1044B000A06AB0F5005F09D12068016821F40051BD
:1044C00001602068016841F400510160012084F816
:1044D0005100002084F850000320BDE8F883002537
:1044E000401E00902068816838EA010004D0002155
:1044F0004945BDD10020F0E70121F9E7D00D0020AA
:104500007047FEF7ABB8000030B593B03021684675
:10451000FCF724F914210CA8FCF720F91C4800250D
:10452000016841F080510160006800F080501190F6
:104530001848016841F4404101600068022400F419
:104540004040119001200090000401908001CDE9CD
:1045500006400C2008906020CDE9090407200B904C
:104560006846FEF7F9F908B172B6FEE70CA90F200C
:1045700081E831004FF48050CDE90F0503210CA8EC
:10458000FEF7F8F8002801D072B6FEE713B030BD90
:1045900040380240007000400248016841F4700158
:1045A0000160704788ED00E030B57A48D0ED051A1B
:1045B000DFED790AD0ED062A61EEA03A32EEE12A6B
:1045C00083EE821A80EE823A13EE001A9FED733A60
:1045D0007349B5EEC01AF1EE10FA02D2B0EE431AEA
:1045E00005E011EE102A8A4201DDB0EE601ABCEE41
:1045F000C11A11EE102AD2B2027090ED011AB4EE77
:10460000C10AF1EE10FA01DD012400E0002490ED72
:10461000042AB4EEC20AF1EE10FA01D2012300E03E
:1046200000231C424FF0000309D021EE204A72EE15
:10463000412A24E0BCEEC11A11EE104A12E0B4EE99
:10464000C20AF1EE10FA01DB012400E00024B4EE0E
:10465000E20AF1EE10FA01D8012500E000252C4213
:1046600002D0FF24447032E0B4EEE20AF1EE10FA18
:1046700090ED071A18DD21EE204A72EEC12A84EE71
:10468000221A80EEA24A14EE001AB5EEC01AF1EE1C
:1046900010FA02D2B0EE431ACCE711EE104A8C4267
:1046A000C8DDB0EE601AC5E7B4EEC10AF1EE10FA4B
:1046B00001DD012400E00024B4EEC20AF1EE10FA9C
:1046C00001D2012500E000252C4300D04370B4EE58
:1046D000E10AF1EE10FA18D872EE611A83EEA11A0F
:1046E00080EEA12A12EE001AB5EEC01AF1EE10FA11
:1046F00003D200BFF0EE430A3AE011EE103A8B42CB
:1047000036DC00BFF0EE410A32E0B4EEE10AF1EE31
:1047100010FA01DD012100E00021D0ED070AB4EE1E
:10472000E00AF1EE10FA01D8012400E00024214251
:1047300001D0837021E0B4EEE00AF1EE10FA1CDD46
:10474000D0ED021A9FED171A71EEE01A20EE812AC1
:10475000C2EE210A81EE212A52EE000AF5EEC00ACD
:10476000F1EE10FAC6D310EE901A0F4B9942C9DC45
:10477000BCEEE00A10EE101A817002F0F8014278E7
:10478000090202F0FC02807841EAC20141EAD0004D
:1047900030BD0000940D002000007F4300000000A9
:1047A00000007F43000070430000704370B5044672
:1047B00000680169E26821F44051114301612169F7
:1047C000A068E26908436169114308432168CA6827
:1047D00049F20C639A430243CA6020684169A269A6
:1047E00021F440711143416131492068884202D06F
:1047F0003049884202D1FEF76DF801E0FEF75AF821
:10480000E2690023192164253226B2F5004F62685F
:1048100028D0A0FB0101930F9200FBF7B1FD0146E8
:10482000B0FBF5F06FF01802504301EB800006EB8F
:104830000010B0FBF5F000F0F002B1FBF5F002EB78
:104840000012B1FBF5F06FF01803584301EB800044
:1048500006EB0010B0FBF5F000F00F0021681044EB
:10486000886070BDA0FB010192185B41FBF788FDD9
:104870000146B0FBF5F00201B1FBF5F06FF0180353
:10488000584301EB800006EBC000B0FBF5F000F0F0
:10489000F80002EB4002B1FBF5F0584301EB800059
:1048A00006EBC000B0FBF5F000F00700D6E7000013
:1048B00000100140001401402DE9F04198461746D0
:1048C0000E460446069D27E0681C25D02DB1FDF755
:1048D0001DFCA0EB0800A8421ED920680C3050E84F
:1048E000001F21F4D07140E80012002AF5D12068A1
:1048F000143050E8001F21F0010140E80012002AA6
:10490000F5D1202084F83D0084F83E00002084F892
:104910003C000320BDE8F0812068006836EA000012
:1049200004D00020B842CFD00020F3E70120F9E7FF
:10493000FEE703B401984100009850EAC12018BF77
:1049400004204A0D18BF40F0010040F2FF72B2EBA4
:10495000515F08BF40F00200012808BF052002B0E7
:1049600070474100080218BF04200A0E18BF40F02B
:1049700001004FF07F4232EA010108BF40F002001F
:10498000012808BF052070470907090E002804DB2D
:1049900000F1E02080F80014704700F00F0000F1F3
:1049A000E02080F8141D70479FED3C0A63E000BFD3
:1049B00092ED003A91ED004AD2ED012AD1ED013A93
:1049C00004EE030A92ED022A91ED021AD2ED030AD7
:1049D000D1ED031A91ED044A03EEA20AD2ED043A96
:1049E00092ED053AD1ED052A01EE020A92ED062A72
:1049F00092ED071A01EEA00AD1ED061AD1ED070AD1
:104A000004EE230AD2ED083A91ED084A02EE830A39
:104A1000D2ED092A91ED093A01EE820A92ED0A2AB5
:104A2000D1ED0A1A00EE810A92ED0B1AD1ED0B0AB4
:104A300004EE230A91ED0C4AD1ED0D3A03EE220A61
:104A400092ED0C3AD2ED0D2A01EE820A92ED0E2A79
:104A5000D1ED0F1A00EE810A91ED0E1AD2ED0F0A78
:104A600040314032103B04EE030A03EEA20A01EE8D
:104A7000020A01EEA00A102B9AD206E0F1EC010A1C
:104A80005B1EB2EC011A00EE810A002BF6D1D0EDCC
:104A9000000A30EE800A80ED000A70470000000036
:104AA00010B510EE104A4FF019406849002200EB93
:104AB00044002DED028B884257D8DFED650A14F0D3
:104AC000004F60EE200A14BFBEEE001AB6EE001AC8
:104AD00071EE200AFDEEE00A10EE900A00EE900A58
:104AE000F8EEE00A9FED5B1A00EEC10A9FED5A1A3C
:104AF00000EEC10ADFED590A9FED591A00EE201AA7
:104B0000DFED580A40EE010A9FED571A574B00F0AF
:104B1000030100EE201A21EE000A7B4403EB81031F
:104B2000D3ED000A524B7B4403EB810393ED001A53
:104B3000504B41EE000A7B4403EB8101801091ED64
:104B4000000A70EE800AEABB00EE100AB8EEC01A46
:104B5000DFED491A9FED490ABDEC028B01EE210AF7
:104B6000BCEEC00A20EE200A10BD4FF0FF40A0436B
:104B70001BD04FF0CE40B0EB440F82BFB7EE000A1F
:104B8000BDEC028B10BD3E48B0EB440F28BF0122A4
:104B900093D20220FBF7A5FE14F0004F15D0BDEC18
:104BA000028BBDE8104000F0B3BF14F5000F02BF48
:104BB0009FED340ABDEC028B10BDBDEC028BBDE84D
:104BC000104000E007E000F097BFBDEC028BBDE8AD
:104BD000104000F095BF00EBD07359104FF07E529B
:104BE00002EBC15100EE101AA0EB630002EBC050C3
:104BF00060EE200A00EE100A20EE208A18EE100A5D
:104C000088B118EE100AB0F1FF4F15D018EE100A57
:104C1000FFF7A7FE042808BF00F07AFFB0EE480AAD
:104C2000BDEC028B10BD0220FBF75BFEBDEC028BDE
:104C3000BDE8104000F06CBF0220FBF752FEBDEC57
:104C4000028BBDE8104000F05BBF00000000501E6A
:104C50003BAAB8400070313EF4FD053712BB2A3D37
:104C600012BB2A3EFFFFFF3EFFFF7F3F7EC50000D5
:104C700082C5000052C500000000004B00007E4EBF
:104C80000000A085000000002DE9F04D2DED040B83
:104C90002DED0E8B96B0DDE92550279CDDF890A018
:104CA00025F0004624F00048BAF1000F14BF01219E
:104CB000002101EB4502FC4953184A1093422AD3C4
:104CC000002814BF0123002303EB44030B44F749DE
:104CD0008B4220D358EA00019FEDF59B76D0DFF898
:104CE000D8B35D4503D1BAF1000F05D188E0BAF120
:104CF000000F08BF002100D0012101EB450111F593
:104D0000001F08D8002814BF0121002101EB440135
:104D100011F5001F0BD99DED261B9DED240B16B040
:104D2000BDEC0E8B04B0BDE8F04D00F0A9BE00272D
:104D3000002DBCBFE149884521DAE1498845A8BF7B
:104D400002271CDAC3451ADCDE4901EB285114297D
:104D500008DDC1F1340220FA02F101FA02F28242C6
:104D60000DD108E058B9C1F1140228FA02F101FA94
:104D700002F2424503D101F00101C1F1020756EAF6
:104D80000A0124D1002C22DA002D18BF022F01D0F5
:104D9000012F0AD00220FBF7A4FD16B0BDEC0E8B4C
:104DA00004B0BDE8F04D00F053BE0220FBF799FDC2
:104DB00000F04EFE51EC100B04F05AFB41EC100BCE
:104DC00016B0BDEC0E8B04B0BDE8F08D18E09FED81
:104DD000BEAB9FEDBF8B002871D1B848804522D172
:104DE00005F1804010F5801008BFBAF1000F07D020
:104DF000B3450ADC002CA8BF9DED260BE0DA0DE0E0
:104E0000B0EE490AF0EE690ADAE7002C06DA9DED09
:104E1000260B51EC100B04F02BFB6FE0AE487844EE
:104E200090ED000BCCE7D8454DD1002C48DA2EB1DF
:104E300086423AD1BAF1000F42D126E0BAF1000F12
:104E400013D00220FBF74DFD00F036FE8DED020B76
:104E50009DED240B8DED000B10EE900A039961F38C
:104E60001E0003909DED020BAAE78DED02AB9DEDB8
:104E7000240B1AEE901A10EE900A8DED000B61F3E0
:104E80001E0003909DED020B9AE78DED028B9DEDC8
:104E9000240B18EE901A10EE900A8DED000B61F3C2
:104EA0001E0003909DED020B8AE709DA9DED240BAD
:104EB00051EC190B53EC102B04F0D4FB1EE020E056
:104EC0009DED240B7CE786421BDAB4F1804F0DD0B8
:104ED000A4F10050B0F1FF5013D1002D11DB9DED76
:104EE000240B51EC100B04F04BF807E09DED240B64
:104EF00053EC102B51EC100B00F0C2BC41EC100B2A
:104F00005EE79DED240B51EC100B03F0C7F8BAF1EE
:104F1000000FCDE90E0142D19FED710B46B3A6F112
:104F2000E040B0F17F600CD05E4538D1002D00DA52
:104F3000A7B3022F0CBF01204FF0FF3004F0EAFCB2
:104F4000DCE7002D01DD002C0DDA002D01DD002C49
:104F50001FDB002D16DA002C14DB012F08BF9FED9C
:104F6000620B3FF42DAFB0EE4A0AF0EE6A0A27E773
:104F7000022F18BF002D0CD0012F0AD1002DFFF6F3
:104F80001FAF06E0002DB8BF002C08DA012F3FF458
:104F900017AFB0EE480AF0EE680A11E71BE00120F7
:104FA00000EBE57050EA070115D0791EB0EE498A92
:104FB000F0EE698A084308BF9FED4D8B4E480025EF
:104FC000804570DD4D494E48884514DDB0420DDB0B
:104FD000002C19DB2FE00120FBF783FC16B0BDECA1
:104FE0000E8B04B0BDE8F04D00F056BDB34502DCB9
:104FF000002C09DC1FE0864202DA002C1BDA03E0F9
:105000005E452BDD002C16DD0220FBF76AFC00F06C
:1050100053FD8DED020B53EC1A2B51EC180B04F0E1
:10502000DFFCCDE900010399019861F31E000390B4
:105030009DED020BC4E60220FBF753FC00F04CFD93
:1050400010EE901A18EE900A8DED020B8DED008B8C
:1050500061F31E0003909DED020BB1E69DED0E0B7A
:1050600053EC192B51EC100B04F0C6FE9FED260BF0
:10507000CDE9080153EC102B9DED080B51EC100B02
:1050800004F0AEFC9FED221B53EC112B04F0DCFD71
:105090009DED081B53EC112B04F0A2FC9FED1E1B91
:1050A00053EC112B3CE08CE0FFFF1F00FFFF0F00D3
:1050B000000000000000F03F0000F03F0000F07F23
:1050C0000000404301FCFFFF000000000000F07FF3
:1050D000000000000000000026C3000000000000E7
:1050E0000000000000000080000000000000F0FF51
:1050F000000000000000F0BF0000E0410000F043AD
:10510000FFFFEF3F00000000000000000000D03F64
:10511000555555555555D53F000000000000E03F5E
:1051200004F092FD9DED080B41EC1A0B53EC102B93
:1051300051EC100B04F054FC53EC1A2B04F050FC0F
:1051400041EC1A0B9FEDFE0B53EC102B9DED080B61
:1051500051EC100B04F044FC41EC1B0B9FEDFA0BDF
:1051600051EC1A0B53EC102B04F03AFC41EC1A0BE7
:105170009FEDF70B53EC102B9DED080B51EC100B32
:1051800004F02EFC53EC1A2B04F036FE41EC1A0B03
:1051900051EC1B0B53EC1A2B04F0A8F90690CDE947
:1051A00006519DED060B53EC1B2B51EC100B04F03C
:1051B00023FE53EC1A2B04F047FD41EC100B00F0DA
:1051C000A1B90020B6F5801F0EDA9FEDE30B53EC7A
:1051D000102B9DED0E0B51EC100B04F001FCCDE9F2
:1051E0000E016FF034000E4600EB2650A0F2FF37A0
:1051F000C6F31300DA4940F07F6646F04056884215
:10520000D8BF002408DDD7498142C8BF012403DC90
:105210000024A6F580167F1CD348784400EBC40018
:105220000F9690ED00CB9DED0E0B53EC1C2B51EC2B
:10523000100B04F0E1FD9DED0E0B41EC1B0B53EC4C
:105240001C2B51EC100B04F051F941EC100B51ECFC
:10525000190B53EC102B04F005FA41EC1D0B51EC2B
:105260001B0B53EC1D2B04F0BBFB41EC1A0BBF488E
:105270008DED10AB7844109590ED000B4FF0005081
:1052800040EA660000EB84408DED080B00F500203D
:1052900009909DED080B53EC1C2B51EC100B04F006
:1052A000ABFD9DED0E1B53EC112B04F0CDFC41EC3E
:1052B000100B53EC102B9DED100B51EC100B04F068
:1052C0008FFB9DED080B41EC1C0B53EC102B9DED5F
:1052D000100B51EC100B04F083FB53EC1B2B04F070
:1052E000B3FC53EC1C2B04F087FD53EC1D2B04F096
:1052F00077FB41EC1C0B53EC1A2B51EC1A0B04F00E
:105300006FFB41EC1B0B9A480621B0EE4B0AF0EE06
:105310006B0A784400F01DFBB0EE401AF0EE601A04
:10532000B0EE41DAF0EE61DA53EC1B2B51EC1B0BC3
:1053300004F056FB53EC1D2B04F052FB9DED100BBB
:1053400041EC1B0B53EC1A2B51EC100B04F0CEF874
:1053500053EC1C2B04F044FB53EC1B2B04F0C6F85D
:105360009DED100B41EC1B0B53EC102B51EC100B73
:1053700004F036FB41EC1D0B9FED7FEB53EC1E2B35
:1053800004F0B4F853EC1B2B04F0B0F80890CDE90E
:1053900008519DED080B53EC1E2B51EC100B04F043
:1053A0002BFD53EC1D2B04F027FD53EC1B2B04F0BD
:1053B0004BFC9DED080B41EC1D0B53EC102B9DEDB0
:1053C000100B51EC100B04F00BFB41EC1B0B53ECDE
:1053D0001A2B51EC1D0B04F003FB9DED080B41EC67
:1053E0001A0B53EC102B51EC1C0B04F0F9FA53EC94
:1053F0001A2B04F07BF841EC1A0B51EC1B0B53EC0D
:105400001A2B04F073F80C90CDE90C519DED0C0BA8
:1054100053EC1B2B51EC100B04F0EEFC53EC1A2B4D
:1054200004F012FC41EC1B0B9FED550B53EC102BC1
:105430009DED0C0B51EC100B04F0D2FA41EC1A0B61
:105440009FED510B51EC1B0B53EC102B04F0C8FAE1
:1054500041EC1B0B9FED4E0B53EC102B9DED0C0BF9
:1054600051EC100B04F0BCFA53EC1B2B04F03EF88B
:1054700041EC100B4848784400EBC40090ED001B51
:1054800051EC100B53EC112B04F030F841EC1B0BDA
:10549000384604F03FFACDE9080153EC1B2B51ECE0
:1054A0001A0B04F023F841EC100B3C48784400EB55
:1054B000C40090ED00CB51EC100B53EC1C2B04F00E
:1054C00015F89DED081B53EC112B04F00FF8069016
:1054D000CDE906519DED080B53EC102B9DED060B0D
:1054E00051EC100B04F088FC53EC1C2B04F084FCF2
:1054F00053EC1A2B04F080FC53EC1B2B04F0A4FBA0
:1055000041EC100B9DED261B53EC102B8DED001B79
:1055100000959DED260B51EC100B04F061FA9DED0A
:10552000000B41EC1A0B53EC102B9DED260B51ECAC
:10553000100B04F061FC9DED061B53EC112B2FE0CA
:10554000000000604715F73FFE822B654715F73FC7
:1055500044DF5DF80BAE543E000000000000404305
:105560008E9803007AB60B00A2BE0000D0BE0000E9
:10557000DABD00000000000000000000000008404C
:10558000000000E009C7EE3FFD033ADC09C7EE3F2B
:10559000F5015B14E02F3EBE66BC000020BC00009D
:1055A00004F01EFA53EC1A2B03F0A0FF9DED060B3E
:1055B00041EC1A0B53EC102B9DED000B51EC100B32
:1055C00004F00EFACDE90C019DED0C0B51EC1A0B19
:1055D00053EC102B03F08AFFCDE902010C46AA49D7
:1055E0008C422FDB611A084318D19DED0C0B53EC54
:1055F000102B9DED020B51EC100B04F0FDFB41EC68
:105600001B0B9FEDA30B51EC1A0B53EC102B03F06B
:105610006DFF53EC1B2B04F0E1FA2DD20220FBF7B7
:1056200060F900F049FA10EE901A18EE900A8DED2C
:10563000020B8DED008B61F31E0003909DED020BBC
:10564000FFF7BEBB944A24F00041914214D3934922
:10565000214408437FF4EFAC9DED0C0B53EC102B71
:105660009DED020B51EC100B04F0C6FB53EC1A2B12
:1056700004F0B4FA7FF6DFAC24F000408849894A90
:10568000002601EB205182422BDA481C4FF4801196
:1056900021FA00F02044844AC0F30A517A44A1F26E
:1056A000FF3192ED000B814A8DED080BCA4020EAD4
:1056B0000202C0F3130040F48010C1F1140120FA7B
:1056C00001F60992002CB8BF76429DED080B53EC11
:1056D000102B9DED0C0B51EC100B04F08DFBCDE964
:1056E0000C019DED0C0B51EC1A0B53EC102B03F03D
:1056F000FDFE9FED6F0B0890CDE9085153EC102B88
:105700009DED080B51EC100B04F06AF941EC1B0BFA
:105710009FED690B53EC102B9DED080B51EC100B1A
:1057200004F05EF99DED0C0B41EC1C0B53EC102BBF
:105730009DED080B51EC100B04F05EFB53EC1A2BA3
:1057400004F082FA9FED5E1B53EC112B04F048F934
:1057500053EC1C2B03F0CAFE41EC1A0B51EC1B0B53
:1057600053EC1A2B03F0C2FECDE902019DED020BB2
:1057700053EC1B2B51EC100B04F03EFB53EC1A2B9B
:1057800004F062FA9DED020B41EC1A0B53EC102B66
:1057900051EC100B04F024F9CDE908014A489DEDC5
:1057A000080B0521784400F0D4F89DED081B51EC5E
:1057B000100B53EC112B04F013F99DED021B53EC6D
:1057C000112B04F041FACDE906019DED020B53ECDB
:1057D0001A2B51EC100B04F003F953EC1A2B03F0C5
:1057E00085FE9FED3B0B41EC1A0B53EC102B9DED0E
:1057F000060B51EC100B04F0FFFA9DED060B41EC8B
:105800001B0B53EC102B9DED020B51EC100B04F015
:10581000E7F853EC1B2B03F025FF53EC1A2B04F095
:10582000EBFA9DED021B53EC112B04F0E5FA53EC5F
:10583000192B04F009FACDE9020101EB065001151C
:105840000029C8BF039015DC9DED020B324651ECD8
:10585000100B04F0A5FCFFF76CF8042808BF00F05B
:105860003BF932469DED020B51EC100B04F098FC15
:10587000CDE902019DED020B51EC180B53EC102BFE
:1058800004F0AEF8FFF73ABB0000904000000000C3
:10589000FE822B654715973C00CC904000346F3F4B
:1058A00001FCFFFF0000E03FA8BA0000FFFF0F006F
:1058B00000000000432EE63F396CA80C615C20BE5E
:1058C000EF39FAFE422EE63F78B9000000000000F2
:1058D000000000000000004000B52DED048BB0EE8C
:1058E000409AF0EE609A83B051EC190B04F0B8F9CD
:1058F00041EC180B18EE100A18EE901A8DED008B83
:10590000002818BF0120084320F00040C0F17F604C
:1059100000F1E040C00F14D019EE101A19EE900AF1
:105920008DED009B002918BF0121084320F00040A5
:10593000C0F17F6000F1E040C00F04BF0120FAF722
:10594000D0FFB0EE480A03B0F0EE680ABDEC048B5D
:1059500000BD70B504462DED028B4D1E00EBC50059
:10596000B0EE408AF0EE608A90ED000B35F0060054
:1059700017D053EC182B51EC100B04F031F841EC1C
:10598000100B6D1E04EBC50090ED001B51EC100BCD
:1059900053EC112B03F0AAFD41EC100B35F006007F
:1059A000E7D1022D36D0042D1CD0062D1CBFBDEC36
:1059B000028B70BD53EC182B51EC100B04F010F857
:1059C00094ED0A1B53EC112B03F090FD53EC182BB4
:1059D00004F006F894ED081B53EC112B03F086FD40
:1059E00041EC100B53EC182B51EC100B03F0F8FFAB
:1059F00094ED061B53EC112B03F078FD53EC182BA0
:105A000003F0EEFF94ED040B53EC102B03F06EFD4E
:105A100041EC100B53EC182B51EC100B03F0E0FF92
:105A200094ED021B53EC112B03F060FD53EC182B8B
:105A300003F0D6FF94ED001B53EC112B03F056FD41
:105A4000BDEC028B41EC100B70BD000000000000AB
:105A50009FED070B10B553EC102B9FED070B51EC8E
:105A6000100B03F0FFFD41EC100B10BD0000000017
:105A70000000000000000000000000000000F03FF7
:105A800010B553EC112B51EC100B03F02FFD41EC32
:105A9000100B10BD000000009FED050B10B553EC7E
:105AA000102B51EC100B03F0DDFD41EC100B10BD81
:105AB00000000000000000009FED050B10B553EC46
:105AC000102B51EC100B03F08BFF41EC100B10BDB1
:105AD00000000000000000709FED050B10B553ECB6
