:020000040800F2
:100000006885012071020008313B0008952C00082A
:1000100031390008F9080008FD4C00080000000014
:10002000000000000000000000000000B101000816
:100030003D0B0008000000000D020008ED42000822
:100040008B0200088B0200088B020008153E000896
:100050008B0200088B0200083F0B00088B0200088F
:100060008B0200088B0200088B0200088B0200083C
:100070008B0200088B0200088B0200088B0200082C
:100080008B0200088B0200088B02000800000000B1
:100090000000000000000000000000008B020008CB
:1000A0008B0200088B020008AD4300088B02000899
:1000B0008B0200088B0200088B0200088B020008EC
:1000C0008B0200088B0200088B0200088B020008DC
:1000D0008B020008BD4C00088B02000800000000E5
:1000E0008B0200088B0200088B0200080000000051
:1000F0000000000000000000000000008B0200086B
:10010000000000008B0200088B0200088B02000830
:1001100000000000000000000000000000000000DF
:100120008B0200088B020008750A00088B02000889
:100130008B0200080000000000000000000000002A
:100140000000000000000000000000008B0200081A
:10015000810A00088B0200088D0A00088B02000843
:100160008B0200088B020008000000000000000065
:10017000000000000000000000000000000000007F
:10018000000000008B0200080000000000000000DA
:100190008B0200088B020008DFF810D000F000FB93
:1001A00000480047F1060208AFF30080688501208F
:1001B0002C4B19680868B0E8F04F80F30988BFF34A
:1001C0006F8F4FF0000080F311887047000000002F
:1001D00008480068006880F308884FF0000080F34A
:1001E000148862B661B6BFF34F8FBFF36F8F00DF25
:1001F00000BF00BF08ED00E0DFF80C00016841F42B
:1002000070010160704700BF88ED00E0EFF30980E6
:10021000BFF36F8F134B1A681EF0100F08BF20ED4D
:10022000108A20E9F04F106009B44FF0500080F3BD
:100230001188BFF34F8FBFF36F8F2BF043FE4FF04A
:10024000000080F3118809BC19680868B0E8F04F15
:100250001EF0100F08BFB0EC108A80F30988BFF3BE
:100260006F8F704788050020EFF30580704700000E
:100270000648804706480047FEE7FEE7FEE7FEE740
:10028000FEE7FEE7FEE7FEE7FEE7FEE79D43000828
:10029000990100082DE9F05F0546002092469B4633
:1002A00088460646814640241BE02846414647468C
:1002B000224600F0ADF853465A46C01A914110D379
:1002C00011461846224600F094F82D1A67EB0108F3
:1002D0004F4622460120002100F08BF817EB000961
:1002E0004E41201EA4F10104DFDC484631462A4677
:1002F0004346BDE8F09F00000649074A086850439E
:1003000043F2390210440860400870470149086010
:1003100070470000B00700206D4EC64140EA01035F
:100320009B0703D009E008C9121F08C0042AFAD2AB
:1003300003E011F8013B00F8013B521EF9D270476F
:10034000D2B201E000F8012B491EFBD27047002217
:10035000F6E710B513460A4604461946FFF7F0FFC4
:10036000204610BD421C10F8011B0029FBD1801A49
:10037000704710B5002200E0521C835C8C5CA342E5
:1003800001D1002BF8D1D8B2E1B2401A10BD03461A
:1003900011F8012B00F8012B002AF9D118467047FB
:1003A00000F0004230F000400AD0C10D01F560714C
:1003B000C0F3160042EA0151C208400711437047DA
:1003C00000200146704730B50B4601460020202230
:1003D000012409E021FA02F59D4205D303FA02F552
:1003E000491B04FA02F52844151EA2F10102F1DCB2
:1003F00030BD202A04DB203A00FA02F100207047C9
:100400009140C2F1200320FA03F319439040704752
:10041000202A04DB203A21FA02F00021704721FA59
:1004200002F3D040C2F120029140084319467047C0
:100430002DE9FE4F804681EA0300C00F0C46009074
:1004400021F0004123F00045B8EB0200A94105D29C
:100450004046214690461C460B46024623F000408B
:10046000104347D0270DC7F30A00C3F30A51029087
:10047000401A019040286BDAC3F3130040F4801B4C
:100480000098924620B10023D2EB030A63EB0B0BDA
:1004900001985946C0F140025046FFF7AAFF0646B0
:1004A0000D4650465946019A00F08CF910EB0800B1
:1004B0006141002487EA115284EAE7731A4340D06D
:1004C000009A62B3019A012A4FEA075215DC001B19
:1004D00061EB02014FF0004202EA0752CDE900420F
:1004E000001C41F5801132462B4600F08CF903B018
:1004F000BDE8F08F40462146F9E7001B61EB0201A1
:10050000001C41F5801300185B412018A2F500176C
:1005100047EB030140EAD570B6196D4111E06D0853
:100520004FEA360645EAC0754FEA0752001B61EBF9
:100530000201001C41F5801149084FEA3000001902
:10054000514132462B4603B0BDE8F04F00F04CB9A4
:100550000098012240000023D0EB020263EBE0731D
:10056000009821464FEAE074B8EB000061EB04010B
:10057000E9E783F000435BE781F0004158E72DE9AC
:10058000FE4F81EA030404F0004421F0004100948E
:100590004FF0000B23F0004350EA01045ED052EA12
:1005A00003045BD0C3F30A54C1F30A552C44A4F2EC
:1005B000F3340194A0FB0254C1F3130141F4801100
:1005C000C3F3130343F4801301FB024400FB034E07
:1005D000840A970A44EA815447EA8357A4FB0768D0
:1005E00002958D0A05FB07854FEA932C04FB0C54FA
:1005F0002705029D4FEA065847EA1637B5EB08056E
:100600006EEB070C870E920E47EA811742EA8312BF
:10061000A7FB0201B6EB0B0164EB00042B0D43EAD0
:100620000C335E1844EB1C50DA465146E7FB0201DE
:10063000C5F313044FEA0B3343EA14534FEA043271
:10064000019C43EA0603A4F10C040294009CCDE94A
:1006500000B400F0D8F803B0BDE8F08F00200146E8
:10066000F9E72DE9F04D81EA030404F0004B21F095
:10067000004514464FF0000A23F0004150EA0502FD
:1006800020D054EA01021DD0C5F30A570246C5F333
:100690001303C1F31300C1F30A5640F4801543F469
:1006A0008013A7EB0608101BD64608F2FD3873EB43
:1006B000050002D308F1010801E092185B41B8F18E
:1006C000000F03DA00200146BDE8F08D00204FF452
:1006D0008011064684460EE0171B73EB050705D311
:1006E000121B63EB050306434CEA010C49084FEA71
:1006F000300092185B4150EA0107EDD152EA030045
:1007000012D082EA040083EA0501084305D0101BD9
:10071000AB4106D20122002306E000224FF0004345
:1007200002E06FF0010253101AEB06004CEB085187
:1007300010EB0A0041EB0B01BDE8F04D00F054B89E
:10074000C1F30A52C1F3130140F2FF3341F48011A7
:100750009A4202DA00200146704740F233439A423F
:10076000A2F2334202DC5242FFF752BEFFF741BE13
:1007700030B5041E71F1000404DB4FF00044404228
:1007800064EB0101141E73F1000405DB1C464FF0FD
:100790000043524263EB0403994208BF904230BDCC
:1007A000064C074D06E0E06840F0010394E80700BE
:1007B00098471034AC42F6D3FFF7F2FCA07405085A
:1007C000C0740508202A06DBCB17203A41FA02F054
:1007D00043EAE07306E041FA02F3D040C2F120029E
:1007E000914008431946704710B5141E73F1000478
:1007F00008DA401C41F1000192185B411A4301D113
:1008000020F0010010BD2DE9F04D92469B4611B13C
:10081000B1FA81F202E0B0FA80F220329046FFF79E
:10082000E8FD04460F4640EA0A0041EA0B01534640
:100830005A46084313D0114653EA010019D0C8F1B3
:1008400040025046FFF7E4FD05460E465046594625
:100850004246FFF7CEFD084305D0012004E02046C4
:100860003946BDE8F08D0020054346EAE0762C438A
:1008700037430A986305E40AA0EB08000022FD0A4A
:1008800044EA47540A3002D500200146E9E7010551
:1008900010196941DDE9084500196941BDE8F04DCD
:1008A000A2E770B58C1810F8015B15F0070301D1B1
:1008B00010F8013B2A1106D110F8012B03E010F8C3
:1008C000016B01F8016B5B1EF9D12B0705D40023E6
:1008D000521E0DD401F8013BFAE710F8013BCB1A88
:1008E000921C03E013F8015B01F8015B521EF9D57D
:1008F000A142D8D3002070BDFEE7000030B587B01C
:1009000014216846FFF723FD0F48016841F00201FA
:10091000016000684FF4807400F00200059001202F
:10092000CDE9004002900320084D03906946284617
:1009300000F054FB01222146284600F04CFC0448FC
:1009400002F0BAF907B030BD30380240000402406E
:100950007C050020022000F027B800001CB501A88B
:1009600000900423032215210E4802F0ABFA9DF8F3
:1009700004109DF8050001F00F0140EA01229DF8E6
:1009800007009DF80630074903F00F030F3040EAD7
:1009900003200839A0F21710C2F1EF024042C1E96A
:1009A00000201CBD7C05002002461521014802F0F4
:1009B000CDBA00007C05002070B50A4D4FF480745C
:1009C00000222146284600F006FC0A2000F0E6FA44
:1009D00001222146284600F0FEFBBDE8704064205D
:1009E00000F0DCBA0004024010B50C460346497919
:1009F000601E085C2B2806D02D280ED02A2816D081
:100A00002F281ED026E0187D03EB800010ED020A8F
:100A100050ED010A70EE200A1CE0187D03EB800007
:100A200010ED020A50ED010A70EE600A12E0187D26
:100A300003EB800010ED020A50ED010A60EE200A7F
:100A400008E0187D03EB800010ED020A10ED011A9A
:100A5000C0EE010A184603F079F8184603F076F85C
:100A6000B0EE600A184603F081F82046BDE8104059
:100A700003F011BC014800F01FB90000300800204D
:100A8000014800F019B900001C090020014800F0DD
:100A900013B900007C09002001681823CAB2103A7B
:100AA000B2FBF3F2054B6FF30901032A9B5CC365AC
:100AB00000D9091D816508467047000098EC0308BD
:100AC00010B5014600208B698A6A4FF0C07453B19B
:100AD000B3F5005F15D072B1012A0CD0022A0AD0FA
:100AE000032A09D104E01AB1012A06D0022A03D14F
:100AF000C96AC90100D5012010BDC96AA142FAD056
:100B000010BD002AF7D0012AF2D0022AF3D0032A1E
:100B1000F3D010BD30B50468256825F48025256024
:100B2000046863608368402B036803D099600068A1
:100B3000C26030BD9A600068C16030BD704701205E
:100B400000F040BA72B6FEE770B5104C00201421D8
:100B5000208084F8740004F124000546FFF7F7FBB9
:100B60000BA060630AA0A06409A0E06509A020674B
:100B7000A01C10F003FAA11C28462AF099FE064892
:100B800029468068BDE8704012F03ABBD40A0020C4
:100B90000A00000000000000740100200549002048
:100BA0000A5C0AB100207047401C80B21028F7D3BD
:100BB000012070474C0B002010B500200F4A014661
:100BC0001154401CC0B21128FAD300201318401C45
:100BD000C0B283F864101028F8D3FF2002F8740F15
:100BE000102150700822054810F038FF0349BDE875
:100BF000104001F114002AF037BE00004C0B002019
:100C00002DE9F0410446876D00F0EAFA064694F8B3
:100C100035000025022806D08020606584F8345015
:100C20000120BDE8F0812068016821F01601016013
:100C30002068416921F080014161206C08B9A06CF5
:100C400020B12068016821F0080101602068016876
:100C500021F0010101600CE000F0C2FA801B0528C0
:100C600007D920206065032084F8350084F83450CB
:100C7000D7E720680068C007EED194F85C103F20E9
:100C80008840B860012084F8350084F83450002092
:100C9000C7E790F83510022903D080214165012073
:100CA0007047052180F835100068016821F00101C6
:100CB00001600020704700002DE9F84304464FF022
:100CC0000009CDF8009063484FF41651A56D0068F7
:100CD000B0FBF1F72E6894F85C10082000FA01F1DF
:100CE00031420FD021680A6852070BD50A6822F0FA
:100CF00004020A6094F85C108840A860606D40F0BF
:100D00000100606594F85C104FF0010808FA01F0EA
:100D1000304208D021684969090604D5A860606D91
:100D200040F00200606594F85C1004208840304276
:100D300008D021680968890704D5A860606D40F073
:100D40000400606594F85C1010208840304218D090
:100D500021680968090714D5A8602068016849035B
:100D600004D50068000308D5A16C07E00168C90537
:100D700003D4016821F008010160216C09B120460B
:100D8000884794F85C1020208840304231D0216898
:100D90000968C9062DD5A86094F835000528206893
:100DA000016806D0490347D5006800031DD4616C73
:100DB0001CE021F0160101602068416921F08001EA
:100DC0004161206C08B9A06C20B12068016821F055
:100DD0000801016094F85C103F208840A86084F806
:100DE000358084F83490216D1FE0E16B09B1204615
:100DF0008847606D00282BD0606DC00714D0052097
:100E000084F835002068016821F001010160009834
:100E1000401C0090B84203D820680068C007F6D193
:100E200084F8358084F83490E16C002910D001B04A
:100E30002046BDE8F04308470168C905D5D40168DC
:100E400021F01001016084F8358084F83490CCE7FB
:100E5000BDE8F8836C0500202DE9F041044600F060
:100E6000BFF906465CB1022084F83500002584F8FD
:100E700034502068016821F0010101600DE001207B
:100E8000BDE8F08100F0ACF9801B052805D92020D1
:100E90006065032084F83500F2E720680068C00729
:100EA000F0D12268116820480140D4E901031843B9
:100EB000D4E903363343184363691843A3691843DD
:100EC000E3691843236A18430843616A042903D17C
:100ED000D4E90B1319430843106020684069666A1F
:100EE00020F0070130460E43012704280CD1A06AE8
:100EF0000643E06A40B12046FFF7E2FD20B1402002
:100F0000606584F83570BAE7206846612046FFF7CF
:100F1000C3FD94F85C203F2191408160656584F8B1
:100F200035700020ACE700003F8010F02DE9F04163
:100F30000446866D90F83400002501280DD001206C
:100F400084F8340094F835700020012F07D084F81D
:100F5000340002252846BDE8F0810220FBE7022785
:100F600084F8357060652046FFF7D4FD94F85C1076
:100F70003F208840B0602068016841F016010160A0
:100F8000206C20B12068016841F0080101602068F0
:100F9000016841F001010160DCE7000070B5044622
:100FA00000F01EF90546601C02D004480078044495
:100FB00000F016F9401BA042FAD370BD6005002076
:100FC00070470000044910B50A68024202D0086068
:100FD000FFF7F6FF10BD0000143C01402DE9F84F6B
:100FE000DFF8B8A10022012403254FF00F090AF110
:100FF000040BAAF1040E00BF0B6804FA02F633409A
:10100000B34273D10F7907F00307012F01D0022FEC
:1010100016D187684FEA420805FA08FC27EA0C0750
:10102000D1F80CC00CFA08FC4CEA070CC0F808C058
:101030004768B7430E79C6F3001696403E434660B4
:101040000E79F643B6070DD0C768560005FA06FCC0
:1010500027EA0C07D1F808C00CFA06FC4CEA070C8A
:10106000C0F80CC00E7906F00306022E10D1D60887
:1010700000EB8608D8F8206057074FEAD76C09FACA
:101080000CF7BE430F6907FA0CF73743C8F8207016
:1010900006684FEA420C05FA0CF7BE430F7907F0D9
:1010A000030707FA0CF7374307604E6816F4403F12
:1010B0006DD03B4E376847F480473760366822F082
:1010C000030706F480460096364E07EB060CDCF864
:1010D000086897073F0F09FA07F826EA0806DFF8BD
:1010E000C880404503D14FF000081EE04FE0DFF814
:1010F000BC80404502D14FF0010816E0DFF8B08017
:10110000404502D14FF002080FE0DFF8A8804045CB
:1011100002D14FF0030808E0DFF89C80404502D17F
:101120004FF0040801E04FF0070808FA07F848EA12
:101130000608CCF80888DAF800605746D1F804C0F1
:101140009E435FEACC2C00D51E433E60DBF8006076
:101150005F46D1F804C09E435FEA8C2C00D51E4345
:101160003E60DEF800607746D1F804C09E435FEA37
:101170008C3C00D51E433E60084F083F3E68D1F8C6
:1011800004C09E435FEACC3C00D51E433E60521C27
:10119000102AFFF431AFBDE8F88F0000083C014091
:1011A0004438024000300140000002400004024088
:1011B00000080240000C0240001002400069084094
:1011C00000D001207047426921EA02030A4043EA45
:1011D0000241816170470AB1816170470904FBE7F0
:1011E000014880687047000060050020024881685F
:1011F0000278114481607047600500200B4810B5EB
:10120000016841F400710160016841F4806101608E
:10121000016841F480710160032000F099F80F200B
:1012200000F006F800F04AF8002010BD003C024033
:1012300030B505461C4887B00024016841F4802180
:101240000160006806A900F48020009001A800F069
:10125000D5F900F003FA1549154AB0FBF1F115482C
:10126000491E026040F2E732C0E90324C0E90114DC
:10127000846101F03DF8040012D10E4801F066F8D7
:1012800004000DD11A2000F035F8102D07D20022ED
:1012900029461A2000F03CF80748056000E00124C8
:1012A00007B0204630BD00004438024040420F00E5
:1012B00000480140F8090020640500200C4882B075
:1012C000016841F480410160006800F480400090B2
:1012D0000748001F016841F080510160006800224A
:1012E00000F0805000900F21901E02B000F010B866
:1012F00044380240002809DB00F01F020121914020
:101300004009800000F1E020C0F8001170470000A3
:10131000F0B40E4B1B680C46C3F30223C3F1070560
:10132000042D00D90425191D072901D2002300E04E
:10133000DB1E012606FA05F1491E214099409E4018
:10134000761E16403143F0BC03F070BD0CED00E09A
:10135000064900F0070208684FF6FF03184040EA0C
:101360000220034A10430860704700000CED00E0C3
:101370000000FA052DE9F843044600684FF0010922
:10138000C1074FF0000601D1400729D5DFF82081C1
:10139000C8F86860FFF724FF0746464D05E000BF28
:1013A000FFF71EFFC01B022859D828680001F7D498
:1013B000A068217B800140EA0170616808433D49D3
:1013C00084310860C8F86890FFF70AFF074604E018
:1013D000FFF706FFC01B022841D828680001F7D597
:1013E0002078800752D533484030016841F0805161
:1013F00001600068304D00F080500090286840F493
:1014000080702860FFF7ECFE074604E0FFF7E8FE77
:10141000C01B022823D82868C005F7D5254D703594
:10142000286810F4407020D0218A01F44071814274
:101430001BD02868214920F44070C1F800900E604C
:1014400028602868C00710D0FFF7CAFE064641F2A0
:10145000883707E0FFF7C4FE801BB84202D903209B
:10146000BDE8F88328688007F4D521691148C1F3E5
:1014700001220830032A12D0016821F4F81101601A
:101480002868218AC1F30B010843286020780007EF
:1014900003D50B49207DC1F8E0010020E0E7026898
:1014A000084B22F4F81219400A430260E8E70000F2
:1014B000000047420038024000700040400E4742A2
:1014C00000104742FFFCFF0F2DE9F0470E460500D4
:1014D00065D0DFF81481D8F80000F7B200F00700FB
:1014E000B04207D288F80070D8F8000000F007007A
:1014F000B04254D128683D4C810712D5400703D52E
:10150000206840F4E05020602878000703D5206868
:1015100040F4604020602068A96820F0F000084393
:1015200020602878C0072DD0304968680839012824
:1015300012D0022813D0032811D009688907002986
:101540002DDA216821F0030101432160FFF748FEF5
:10155000814641F2883A0EE009688903EFE709689D
:101560008901ECE7FFF73CFEA0EB0901514502D9E8
:101570000320BDE8F0872068696800F00C00B0EB3C
:10158000810FEFD1D8F80010404601F00701B142B9
:1015900007D90770006800F00700B04201D00120B1
:1015A000E7E72878400705D52068E96820F4E0508F
:1015B000084320602878000706D52068296920F4B0
:1015C000604040EAC100206000F058F82168084AF5
:1015D000C1F30311515CC840064908600648006821
:1015E000FFF726FE0020C4E7003C02400838024016
:1015F000A0EC03086C050020640500200F220260A7
:101600000C4A136803F003034360136803F0F0030C
:101610008360136803F4E053C36012684FF4E0532F
:1016200003EAD20202610448006800F00700086083
:101630007047000008380240003C02400448054959
:1016400000680968044AC1F38221515CC8407047B0
:101650006C05002008380240B0EC03080448054936
:1016600000680968044AC1F34231515CC8407047C0
:101670006C05002008380240B0EC0308154810B58E
:10168000006810F00C02144813D01449042A0FD03B
:10169000082A0ED10F4C241F2268236802F03F0253
:1016A0005B0207D52068C0F38810A0FB010106E0AB
:1016B000084610BD2168C1F38811A1FB0001002379
:1016C000FEF7E8FD2168C1F30141491C4900B0FB68
:1016D000F1F010BD083802400024F40040787D018C
:1016E0002DE9F84F04006ED02078DFF84C93C00746
:1016F000A9F104054AD009F104000168C1F3810190
:10170000012908D00068C0F3810002280AD1D9F865
:101710000000400206D52868800337D5606800289D
:10172000E1D033E06068B0F5803F10D0B0F5A02F75
:10173000286810D020F480302860286820F48020A9
:1017400028606068A8B1FFF74BFD06460DE02868E9
:1017500040F48030F4E740F480202860F7E700BFD1
:10176000FFF73EFD801B642873D828688003F7D5F7
:101770000CE0FFF735FD064605E000BFFFF730FD42
:10178000801B6428F0D828688003F7D42078DFF81D
:10179000AC8280074FF0000A3ED5A748001D0168C3
:1017A00011F00C0F08D00068C0F3810002280BD1A3
:1017B000D9F80000400207D42868800716D5E068F1
:1017C000012800D112E033E1E068B8B10120C8F887
:1017D0000000FFF705FD064605E000BFFFF700FD2E
:1017E000801B0228C0D828688007F7D5286821699F
:1017F00020F0F80040EAC10028600DE0C8F800A021
:10180000FFF7EEFC064604E0FFF7EAFC801B022827
:101810001FD828688007F7D42078000722D5864F84
:1018200087486169703771B101210160FFF7D8FC09
:10183000064604E0FFF7D4FC801B022809D838686C
:101840008007F7D50EE0C0F800A0FFF7C9FC0646F8
:1018500005E082E0FFF7C4FC801B02287DD83868D1
:101860008007F7D42078400768D5DFF8CCB100278F
:101870000BF13C0BDBF80000C0000BD4DBF80010D0
:1018800041F08051CBF80010DBF80000012700F098
:10189000805000906B4E3068C00510D4306840F422
:1018A00080703060FFF79CFC009005E0FFF798FC2B
:1018B0000099401A022850D83068C005F6D55E4E0F
:1018C000A0686C3601280FD00528306810D020F0B1
:1018D00001003060306820F004003060A068B8B1CA
:1018E000FFF77EFC00900FE0306840F00100F4E765
:1018F00040F004003060F7E7FFF772FC0099411AEE
:1019000041F28830814266D830688007F4D50EE015
:10191000FFF766FC009007E0FFF762FC0099411AB0
:1019200041F28830814256D830688007F4D42FB114
:10193000DBF8001021F08051CBF80010A069C8B38B
:101940003D49091D0968C1F3810102294AD00228D5
:10195000504607D0C8F8600000E03CE0FFF740FCCC
:1019600004463BE04746C8F86000FFF739FC0646EE
:1019700005E000BFFFF734FC801B02282BD8286845
:101980008001F7D4D4E907010843A16A2E4A490827
:1019900002EB0141626A41EA8211084394F82C107B
:1019A00040EA0161C9F8001001203866FFF718FC11
:1019B000044606E03EE000BFFFF712FC001B0228D1
:1019C00009D828688001F7D534E000BFFFF708FC8C
:1019D000001B022802D90320BDE8F88F2868800187
:1019E000F4D427E00128F7D0D9F80000E26900F428
:1019F000800191421CD1226A00F03F01914217D12F
:101A000047F6C071626A0140B1EB821F10D1A26A31
:101A10004FF0FF3300F4403103EB5202B1EB024FC1
:101A200006D194F82C1000F07060B0EB016F01D07B
:101A30000120D1E70020CFE70438024000004742F0
:101A4000800E4742007000400000FFFF00685030E9
:101A500050F8210070470068503040F8212070474E
:101A60002DE9F8478A4639494FF4FA4C91460F68F8
:101A70004FF47A72B7FBFCF151430091017F0129C9
:101A800062D001250577022141770268CA2151629F
:101A900002685321516201688A684FF000035205C1
:101AA0004FF0FF044FF0030608D5009AB2F1010889
:101AB000CDF8008018D3CA685207F6D48A6822F499
:101AC00080628A600168CA6802F0800262F49062F3
:101AD000CA60B7FBFCF14FF47A7251430091016880
:101AE000009A571E009705D24C6246770377032071
:101AF000BDE8F887CA685207F2D58A6822F0070263
:101B00008A6001688A6842EA09028A600268C2F84B
:101B100014A00F490A6842F480020A600C49083197
:101B20000A6842F480020A6001688A6842F48042CE
:101B30008A6001688A6842F480628A6001684C6247
:101B4000457703770020D3E70220D1E76C0500201A
:101B5000003C01407047000010B504460068C068B2
:101B6000400509D52046FFF7F5FF2068C16801F060
:101B7000800161F49061C16003494FF48000086006
:101B80000120607710BD0000143C014010B50068D2
:101B90000B4641680D480140080CD870C1F304247D
:101BA0005C7001F03F049C70C1F34231197052B96E
:101BB00002F0AAF8D870587802F0A6F85870987811
:101BC00002F0A2F89870002010BD00003FFFFF0057
:101BD00010B50B460168896A596001680969C1F34B
:101BE0000E019960006801680D480140C1F305408D
:101BF0001870C1F306245C7001F07F049C70890D9D
:101C0000D97052B902F080F81870587802F07CF858
:101C10005870987802F078F89870002010BD000095
:101C20007F7F7F0010B5040002D0607F10B106E016
:101C3000012010BD00202077204600F039F8022056
:101C400060772168CA204862216853204862204694
:101C500002F070F830BB20688168144A114081603E
:101C60002168886862681043D4E904231A4310434A
:101C700088602168E068086120680169228941EA7A
:101C800002410161204602F079F858B921680A6CD6
:101C900022F480220A6421680A6CA3691A430A6448
:101CA000012161772268FF21516210BDBFFF8FFFC4
:101CB00010B586B0044618216846FEF748FB0D496A
:101CC0002068884214D102200090000204906846E7
:101CD000FFF750FB08B1FEF735FF07490120086008
:101CE000002205210320FFF713FB0320FFF702FB6F
:101CF00006B010BD002800403C0E474270B50446B7
:101D0000007F0B46012819D0012626770220607734
:101D1000B2B19878D97840EA01455878197800022C
:101D200040EA413005432168CA20486221685320B7
:101D30004862204601F0FEFFD0B122E0022070BDD3
:101D40005878C10603D500F0EF000A305870D878F3
:101D500001F0E3FF0204587801F0DFFF42EA0022BD
:101D6000987801F0DAFF0243187842EA4035DAE762
:101D70000748054020684560204601F0FFFF00B994
:101D800066772268FF2151620021217770BD000033
:101D90003FFFFF002DE9F0410446007F0D4601287A
:101DA00023D04FF0010884F81C800220607720685F
:101DB000002780684FEA4060D2B1002800DBEF7056
:101DC000A878297840EA01466878E978000240EA74
:101DD000815006432168CA20486221685320486226
:101DE000204601F0A7FFB8B12CE00220BDE8F08149
:101DF000002800DBEF70287801F08FFF020468787C
:101E000001F08BFF42EA0022A87801F086FF02432E
:101E1000E87842EA8056DDE70D4806402068066013
:101E20002068816821F480218160D5E9030108439D
:101E300021688A6810438860204601F09FFF08B936
:101E400084F81D802268FF2151622777CEE70000C9
:101E50007F7F7F0070B504460068C16821F0A00153
:101E6000C160FFF7BDF905464FF47A7607E000BF81
:101E7000FFF7B6F9401BB04201D9032070BD2068BE
:101E8000C0688006F4D5002070BD704770B50400AE
:101E900009D0606A002540B125616561A56294F8AA
:101EA000510040B10CE0012070BD6068B0F5827F48
:101EB000F4D0E561F2E784F85050204600F044F891
:101EC000022084F851002068016821F0400101607F
:101ED000A088218900F4827001F404410843A1899B
:101EE00001F400610843217C01F002010843217DD7
:101EF00001F001010843218B01F400710843217FA7
:101F000001F03801084394F8201001F080010843E3
:101F1000218D01F40051084321680860A069042163
:101F200001EA104094F8241001F0100108432168E0
:101F300048602068C16921F40061C16165650120C4
:101F400084F85100002070BD70B586B0064614219B
:101F50006846FEF7FCF92049306888423AD11F48AC
:101F60000025016841F480510160006800F4805050
:101F700005901A481438016841F0020101600068B8
:101F8000694600F002000590282000900220CDE96B
:101F9000010503200390052004901148FFF71EF867
:101FA000114C104820604FF0806060604020C4E910
:101FB000020500012061400060618000C4E906055F
:101FC000256220466562FEF747FF08B1FEF7BAFDBD
:101FD000B464A66306B070BD0030014044380240CE
:101FE0000004024040640240300800202DE9F84F10
:101FF000044690F8500000271D46164689460128E1
:102000000DD04FF0010B84F850B0FFF7E9F880468F
:1020100094F85100BA46012804D0022793E0022028
:10202000BDE8F88FB9F1000F73D0002E71D00320F6
:1020300084F85100C4F854A0C4F83090A686E6860F
:10204000C4F838A0A4F83CA0A4F83EA0C4F844A06A
:10205000C4F840A0A068B0F5004F09D1206801681D
:1020600021F0400101602068016841F48041016075
:1020700020680168490603D4016841F0400101600D
:10208000E068B0F5006F606803D030B3012E24D053
:1020900041E008B1012E1CD1206B21680088C86086
:1020A00006E020688168890709D5216B0988C1602D
:1020B000206B801C2063E08E401EE08609E0FFF765
:1020C0008FF8A0EB0800A84202D3681C01D031E0D1
:1020D0007DB3E08E0028E4D120E0206B21680078F9
:1020E000087306E020688168890709D5216B0978A3
:1020F0000173206B401C2063E08E401EE0860AE0E6
:10210000FFF76EF8A0EB0800A84203D3681C02D0CA
:1021100010E017E06DB1E08E0028E3D14246294679
:10212000204601F00BFF08B120206065A06818B1BF
:1021300006E0FFE7032706E02068C168806800909A
:10214000606D00B1012784F851B084F850A0384682
:1021500066E700002DE9F041044690F850000026A3
:10216000012809D0012784F8507094F85100002507
:10217000012804D002264EE00220BDE8F08189B19A
:1021800082B1032084F8510065652163A286E2864E
:10219000A56365642564A587E587A068B0F5004F51
:1021A00002D00BE0012636E02068016821F04001F2
:1021B00001602068016841F480410160A16C184809
:1021C0000864A16C1748C863A16C1748C864A06C68
:1021D0000565E38E2268216B0C32A06CFEF7A6FE2B
:1021E00038B1606D40F010006065012684F85170D0
:1021F00011E020680168490603D4016841F04001FC
:1022000001602068416841F0200141602068416818
:1022100041F00201416084F850503046ADE70000C3
:10222000CD3E0008D73E0008AB3E0008704770471F
:102230004FF0E0210428086903D020F00400086171
:10224000704740F00400FAE710B5401EB0F1807FFF
:1022500001D3012010BD4FF0E02460610F21601711
:1022600002F0E4FD0020A06107202061002010BDE5
:102270007047704770B590F83C20012A2CD001249B
:1022800080F83C40022280F83D2003685A689D682F
:1022900022F070060A6832435A60104B02689A4274
:1022A0000ED0B2F1804F0BD00D4B9A4208D00D4B9F
:1022B0009A4205D00C4B9A4202D00C4B9A4204D160
:1022C000496825F080031943916080F83D40002162
:1022D00080F83C10084670BD022070BD000001402F
:1022E0000004004000080040000C00400040014095
:1022F00010B5040003D094F83D0010B107E00120B0
:1023000010BD002084F83C00204600F01EF802209A
:1023100084F83D00211D206802F04EF8012084F869
:10232000460084F83E0084F83F0084F8400084F8BA
:10233000410084F8420084F8430084F8440084F8A3
:10234000450084F83D00002010BD704790F83D1016
:10235000012901D001207047022180F83D10016859
:10236000CA6842F00102CA6000680E4988420ED075
:10237000B0F1804F0BD00C49884208D00B498842FD
:1023800005D00B49884202D00A49884204D18168AD
:1023900001F00701062903D0016841F00101016045
:1023A0000020704700000140000400400008004089
:1023B000000C004000400140704770B504460068C2
:1023C00001694FF00005C943890715D4C168C943A5
:1023D000890711D4E91E01610120207720688069F6
:1023E0008007204602D0FFF7E7FF04E000F0C0F8C6
:1023F000204600F063F9257720680169C943490741
:1024000017D4C168C943490713D46FF004010161AF
:10241000022020772068806910F4407F204602D097
:10242000FFF7CAFF04E000F0A3F8204600F046F9E9
:10243000257720680169C943090716D4C168C943D3
:10244000090712D46FF00801016104202077206889
:10245000C0698007204602D0FFF7AEFF04E000F01D
:1024600087F8204600F02AF9257720680169C943DA
:10247000C90617D4C168C943C90613D46FF0100147
:102480000161082020772068C06910F4407F204651
:1024900002D0FFF791FF04E000F06AF8204600F058
:1024A0000DF9257720680169C943C90708D1C168BA
:1024B000C943C90704D1891E0161204600F058F9BB
:1024C00020680169C943090609D4C168C9430906DE
:1024D00005D46FF0800101612046FFF7C9FE206836
:1024E0000169C943490609D4C168C943490605D4ED
:1024F0006FF040010161204600F044F92068016955
:10250000C94389060BD4C168C943890607D46FF053
:10251000200101612046BDE87040FFF7AABE70BDF2
:1025200010B586B0044614216846FDF710FF2068F8
:10253000B0F1804F16D10C480021026842F0010230
:102540000260006800F0010005904FF40040009028
:102550000220CDE901010120CDE9031069460348BD
:10256000FEF73CFD06B010BD3038024000000240CE
:10257000704770B5044690F83C0000260D460128CF
:102580000FD0012084F83C006AB1042A1DD0082A2B
:102590002FD00C2A3FD00126002084F83C00304682
:1025A00070BD022070BD206801F060FF2068816965
:1025B00041F0080181612068816921F00401816195
:1025C000206881692A69114311E0206801F076FFD3
:1025D0002068816941F4006181612068816921F48A
:1025E00080618161206881692A6941EA02218161F3
:1025F000D2E7206801F08EFF2068C16941F0080130
:10260000C1612068C16921F00401C1612068C1690C
:102610002A69114311E0206801F0A8FF2068C16910
:1026200041F40061C1612068C16921F48061C16128
:102630002068C1692A6941EA0221C161ACE710B58D
:10264000040003D094F83D0010B107E0012010BD54
:10265000002084F83C00204600F01EF8022084F898
:102660003D00211D206801F0A7FE012084F84600EE
:1026700084F83E0084F83F0084F8400084F841006C
:1026800084F8420084F8430084F8440084F845004C
:1026900084F83D00002010BD08B50068B0F1804FFF
:1026A00008D10548016841F001010160006800F0AF
:1026B0000100009008BD0000403802407047000053
:1026C00010B50446022249B104290ED0082913D0BE
:1026D00094F84100012816D0012010BD94F83E0066
:1026E0000128F9D184F83E200FE094F83F0001283A
:1026F000F2D184F83F2008E094F840000128EBD1A3
:1027000084F8402001E084F841200122206801F093
:102710009FFE12492068884203D1426C42F4004275
:102720004264206888420ED0B0F1804F0BD00C4933
:10273000884208D00B49884205D00B49884202D014
:102740000A49884204D1816801F00701062903D0B3
:10275000016841F001010160002010BD000001404E
:102760000004004000080040000C00400040014010
:1027700000680349884201D1FEF738BD7047000068
:10278000004801407047704710B504460068406932
:1027900094F83D10C0F3C010212911D180B12068F8
:1027A000143050E8001F21F0800140E80012002A98
:1027B000F5D1606B08B1FEF723FA204602F004F968
:1027C0002068406994F83E10C0F38010222911D18E
:1027D00080B12068143050E8001F21F0400140E82B
:1027E0000012002AF5D1A06B08B1FEF709FA2046C5
:1027F00002F0C3F8002010BD70470000F8B5016872
:1028000004460868CA684B6910F00F0F4FF00005C6
:1028100059D003F0010602F49077374365D0C10721
:1028200005D0D10503D5216C41F001012164410798
:1028300005D5D90703D0216C41F00201216481073D
:1028400005D5D90703D0216C41F0040121640107AB
:1028500007D502F02001314303D0216C41F008017B
:102860002164216C00293AD0800604D5900602D557
:10287000204602F0B7F820684069216CC0F3801050
:10288000090700D460B3204602F077F82068406959
:10289000400621D52068143050E8001F21F0400187
:1028A00040E80012002AF5D1A06BA8B16C4901657F
:1028B000A06BFEF7EEF9002811D0A06B016D01B0FE
:1028C000BDE8F040084783060FD593060DD5204696
:1028D000BDE8F84002F086B82046FFF78DFFF8BD4E
:1028E0002046FFF789FF2564F8BD266B2023012EC3
:1028F00079D1C60677D5D60675D5086848680090A0
:102900004869400640D5A16B086840680004000C87
:10291000EAD0A28D8242E7D9E085C869B0F5807F10
:102920002DD020680C3050E8001F21F4807140E861
:102930000012002AF5D12068143050E8001F21F061
:10294000010140E80012002AF5D12068143050E857
:10295000001F21F0400140E80012002AF5D184F860
:102960003E30256320680C3050E8001F21F0100134
:1029700040E80012002AF5D1A06BFEF741F9A08DC6
:10298000E18D401A81B229E0A08DE18D401A81B21B
:10299000E08D0028A8D00029A6D020680C3050E88F
:1029A000002F22F4907240E80026002EF5D1206816
:1029B000143050E8002F22F0010240E80026002EDB
:1029C000F5D184F83E30256320680C3050E8002FA4
:1029D00022F0100240E80023002BF5D12046FFF73B
:1029E000D2FEF8BDFFE705062BD5150629D594F8CC
:1029F0003D002128F5D1A068B0F5805F01D12069A4
:102A0000B0B1206A411C2162216800784860E08CE6
:102A1000401E0004000CE084E3D12068C16821F06E
:102A20008001C1602068C16841F04001C160D8E701
:102A3000206A0088C0F308004860206A801C206279
:102A4000E5E74006CDD55006CBD5CA68204622F032
:102A50004002CA6084F83D3000F01BF9C1E7000075
:102A60008548000870B5040004D094F83D000025A6
:102A700010B106E0012070BD84F83C50204600F003
:102A800023F8242084F83D002068C16821F4005117
:102A9000C160204602F006F82068016921F49041E7
:102AA00001612068416921F02A0141612068C16803
:102AB00041F40051C1602564202084F83D0084F871
:102AC0003E00002070BD00002DE9F04186B00646B2
:102AD00014216846FDF73BFC30493068884259D1E3
:102AE0002F480024016841F010010160006800F0E7
:102AF000100005902A481438016841F00101016076
:102B00000068694600F0010005904FF4C060009035
:102B10000220CDE9010403200390072004902148FE
:102B2000FEF75CFA214D20484FF000672860C5E9A8
:102B300001744FF48068C5E903486C61AC61EC61D5
:102B40002C6228466C62FEF787F908B1FDF7FAFFA0
:102B5000B563AE63154D144860353030E5E80207C3
:102B60004020A5E81101114845F814496030AC61D6
:102B7000EC612C626C62FEF76FF908B1FDF7E2FFC1
:102B80007563002205212520AE63FEF7C1FB2520D9
:102B9000FEF7B0FB06B0BDE8F08100000010014078
:102BA0004438024000000240886402401C090020B2
:102BB00090F83E30202B0ED159B152B190F83C30F4
:102BC000012B08D0012380F83C300023036301F07F
:102BD000EFBF012070470220704770477047000028
:102BE0002DE9F843044690F83D001F4616460D4671
:102BF00020284CD1C5B1BEB194F83C00012846D084
:102C0000012084F83C004FF00008C4F840802120E7
:102C100084F83D00FEF7E4FAA6848146E684A068C5
:102C2000B0F5805F03D004E00120BDE8F88320699F
:102C300028B12E465FF0000584F83C800EE00026A7
:102C4000FAE78021204601F0FDFFA0B9AEB116F8E9
:102C5000010B21684860E08C401EE084E08C4B460C
:102C60004FF0000200970028EBD14FF040012046C2
:102C700001F0E8FF30B10320D7E735F8020BC0F3CD
:102C80000800E6E7202084F83D000020CDE7022080
:102C9000CBE77047FEE7000008B5064D4FF4FA7425
:102CA00000231A46694628681EF012FC20461EF0D2
:102CB000D3FBF5E73400002010B586B0044614219C
:102CC0006846FDF744FB20890090012001900290A6
:102CD0000220039069462068FEF780F96089009021
:102CE00069466068FEF77AF906B010BD70B5064611
:102CF0000824002501F0A6F813E06806050E00215F
:102D0000304601F08DF8022006F0B1F8012130467E
:102D100001F086F8012006F0AAF8304601F089F8A3
:102D20000543641EE4B2E8D20021304601F078F891
:102D3000304601F0A5F8284670BD10B504460021C4
:102D400001F095F8012006F092F80121204601F0EB
:102D500067F8012006F08BF80021204601F060F8AA
:102D6000BDE81040012006F082B8000070B50C46A6
:102D70000646082519E000BF01F052F8022006F0CF
:102D800076F804F08001304601F071F8012006F079
:102D90006EF86006040E012006F069F80121304645
:102DA00001F03EF8012006F062F86D1EEDB24FF022
:102DB00000013046E0D201F033F8BDE87040022057
:102DC00006F055B810B50446012101F050F8012075
:102DD00006F04DF80121204601F022F8012006F00E
:102DE00046F80021204601F01BF8BDE81040022003
:102DF00006F03DB810B50446012101F038F8022074
:102E000006F035F80121204601F00AF8012006F00D
:102E10002EF80021204601F02AF8012006F027F8BC
:102E20000021204600F0FCFFBDE81040012006F024
:102E30001EB810B50446002100F0F2FF022006F093
:102E400016F80021204601F012F8012006F00FF8D4
:102E50000121204600F0E4FF012006F008F80121DE
:102E6000204601F004F8BDE81040012005F0FFBF46
:102E700070B50546052400F0E5FF0121284600F065
:102E8000CFFF05E0641EA4B2012005F0F0FF84B17D
:102E9000284600F0CEFF0028F4D1284600F0F0FFCD
:102EA0000021284600F0BCFF022005F0E0FF0020D2
:102EB00070BD284600F0E4FF2846FFF7BAFF012066
:102EC00070BD00002DE9F0411D4617460C468046B6
:102ED000069EFFF78FFF6006010E4046FFF746FF94
:102EE0004046FFF7C5FF28B14046FFF7A2FF01208B
:102EF000BDE8F08139464046FFF738FF4046FFF70E
:102F0000B7FF4046FFF776FF012000EB4400C1B257
:102F10004046FFF72BFF4046FFF7AAFF00246F1E35
:102F20000AE000BFFFF7E2FE3055BC4202DA40463D
:102F3000FFF703FF641CE4B2AC424046F2D3FFF754
:102F400041FF4046FFF775FF0020D1E770B51646F8
:102F50000C460546FFF74EFF6006010E2846FFF7B8
:102F600005FF2846FFF784FF31462846FFF7FEFE9F
:102F70002846FFF77DFF2846FFF73CFF012000EBC6
:102F80004400C1B22846FFF7F1FE2846FFF770FF64
:102F90002846FFF7ABFE04462846FFF713FF2846F6
:102FA000FFF747FF204670BD38B5154C1549002581
:102FB0002088401C80B22080097801EB8101B0EBB1
:102FC000410F08D110488DF80050012300226946B6
:102FD00000681EF0DBFA0D482188007800EB8000C5
:102FE000B1EB400F0AD101208DF8000003460848DC
:102FF00025800022694600681EF0C8FA38BD00002E
:1030000006000020100400202800002011040020E9
:103010002C0000202DE9F0410025124C124F012612
:1030200008B1267001E0207820B101213846FEF772
:10303000C5F858B103201EF00FFA01213846FEF7FB
:10304000BDF800B126702846BDE8F08103201EF0CF
:1030500003FA01213846FEF7B1F80028F3D1012523
:103060002070F0E770050020000002401CB5002031
:103070000E4E0F4D8DF800008DF804000124002045
:10308000FFF7C8FF01280DD18DF800400123002271
:10309000694630681EF07AFA0123002201A92868E7
:1030A0001EF074FA01201EF0D7F9E8E72400002092
:1030B0003000002000B587B014216846FDF747F9BD
:1030C0000E48016841F00101016000684FF40411ED
:1030D00000F0010005900120CDE900010290694651
:1030E0000748FDF77BFF002211460620FEF710F986
:1030F0000620FEF7FFF807B000BD000030380240A0
:10310000000002402DE9F04104461D4616460F46D8
:103110002A2000F067FA204600F054FA304600F00A
:1031200051FA2B2000F05EFA384600F04BFA2846A0
:1031300000F048FABDE8F0412C2000F053BA00003E
:1031400070B55D1A141A641C6D1C143314316C4371
:103150009BB289B2049EFFF7D5FF0D4D4FF400607E
:10316000E8602868016841F400610160A2B231465C
:103170002846FEF7EFFF0748006841680029FCD1A8
:103180000020E8602868016821F40061016070BDDA
:10319000D80700203008002010B514460B46024620
:1031A000FFF7B0FF2046BDE8104000F00BBA2DE954
:1031B000F04780461F4603F1130083B21646501EA7
:1031C00082B20C4601F1140081B24046DDF8209035
:1031D000FFF798FF0AE0454604E0484600F0F2F9A0
:1031E0006D1CADB2B542F8D3641CA4B2BC42F2D39C
:1031F000BDE8F087F0B587B014216846FDF7A7F861
:103200002748016841F004010160016801F00401F0
:103210000591016841F002010160016801F00201BD
:103220000591016841F008010160016801F00801A1
:103230000591016841F0010101600068012400F07E
:10324000010005901020CDE90004164E03256946C3
:1032500003953046FDF7C2FE012210213046FDF7EE
:10326000BAFF2603104FCDE900646946384603953E
:10327000FDF7B4FE012231463846FDF7ACFF0420CD
:10328000CDE90004094C694603952046FDF7A6FEEA
:10329000012204212046FDF79EFF07B0F0BD00008B
:1032A000303802400004024000080240000C024096
:1032B00010B5FFF79FFF002204216648FDF78BFF42
:1032C000654C002210212046FDF785FF642005F0A3
:1032D000C1FD012210212046FDF77DFF642005F08D
:1032E000B9FD112000F07EF9782005F0B3FD3620FD
:1032F00000F078F9C02000F08BF93A2000F072F964
:10330000052000F085F9B22000F06CF90C2000F0E7
:103310007FF90C2000F07CF9002000F079F93320CF
:1033200000F076F9332000F073F9B72000F05AF975
:10333000352000F06DF9BB2000F054F9192000F0A1
:1033400067F9C02000F04EF92C2000F061F9C2208E
:1033500000F048F9012000F05BF9C32000F042F9C9
:10336000122000F055F9C42000F03CF9202000F0B4
:103370004FF9C62000F036F90F2000F049F9D020AF
:1033800000F030F9A42000F043F9A12000F040F94A
:10339000E02000F027F9D02000F03AF9042000F0F6
:1033A00037F90D2000F034F9112000F031F9132025
:1033B00000F02EF92B2000F02BF93F2000F028F927
:1033C000542000F025F94C2000F022F9182000F0DC
:1033D0001FF90D2000F01CF90B2000F019F91F2037
:1033E00000F016F9232000F013F9E12000F0FAF8BC
:1033F000D02000F00DF9042000F00AF90C2000F0B4
:1034000007F9112000F004F9132000F001F92C2035
:1034100000F0FEF83F2000F0FBF8442000F0F8F840
:10342000512000F0F5F82F2000F0F2F81F2000F0F6
:10343000EFF81F2000F0ECF8202000F0E9F823203E
:1034400000F0E6F8212000F0CDF8BDE8104029207A
:1034500000F0C8B8000C024000040240411F5F2980
:1034600009D84FF4967110FB01F06421B0FBF1F024
:103470000149096848637047900800202DE9FF4F13
:1034800081B00446DDF83C9000904FEA59074FF0B8
:103490000008780700D0012000EBD70000FB09FBF3
:1034A000203AD0B20390029802994844401E83B259
:1034B000E019401E82B22046FFF724FE002553E0AB
:1034C000B9F10C0F2AD0B9F1100F2ED0B9F1180FA5
:1034D0002ED0B9F1200F49D12749039801EB801074
:1034E000002610F805A0109800284FF0010000FAFF
:1034F00006F000EA0A0022D020B12046049A029980
:10350000FFF74AFE641C0098A4B2201AB84225D1E5
:103510000298009C401C80B2029023E00398174957
:1035200000EB400001EB8000DAE71549039803E067
:103530000398144900EB400001EB0010D0E708B1FC
:10354000049800E00E9800F03DF808F10100C0B2C8
:10355000B0FBF7F1804607FB118050B1761CF6B244
:10356000082EC0D36D1CADB25D45A9D305B0BDE832
:10357000F08F4FF00008F5E7EC080408B8EC0308FA
:103580002CF103081CF703082DE9FE4F9946DDE9ED
:103590000D6714468A460546DDF830800CE0CDF80C
:1035A00000804B4651462846CDE90167FFF766FF8C
:1035B00005EB560085B2641C2278002AEFD1BDE8E5
:1035C000FE8F000008B5010A8DF800108DF801008B
:1035D0000123022269460248FEF708FD08BD0000EB
:1035E000D807002070B5094D06464FF480540022DC
:1035F00021462846FDF7EFFD304600F009F8214648
:103600002846BDE870400122FDF7E5BD00080240F4
:1036100001B501231A4669460148FEF7E7FC08BDDB
:10362000D807002038B50E4C0EA16846627801F02C
:10363000E9FB6946206A15F039FFA27809A16846BE
:1036400001F0E0FB6946A06A15F030FFE27805A1C1
:10365000684601F0D7FB6946206B15F027FF38BD9F
:10366000B8040020253032640000000008B50020B6
:103670000A4C8DF800004FF47A75002010F01CFC05
:10368000A84205D200231A466946A06A1DF07EFFB3
:103690001CF0E4FB01201DF0DFFEEEE70800002037
:1036A000114808B5016841F48001016000680022FA
:1036B00000F48000009005213A20FDF729FE3A2011
:1036C000FDF718FE002205214420FDF721FE4420CD
:1036D000FDF710FE002205214620FDF719FEBDE88A
:1036E00008404620FDF706BE3038024010B501F014
:1036F00007FB044A002104481DF07CFF03490860D1
:1037000010BD00004CCC02080D4200080000002053
:1037100070B586B014216846FCF719FE19480024DC
:10372000016841F004010160016801F004010591A4
:10373000016841F080010160016801F0800105919C
:10374000016841F001010160016801F0010105918A
:10375000016841F0020101600068012200F00200EE
:10376000094E5503059029463046FDF734FD0120EA
:103770000095CDE90104694630460394FDF72EFC1F
:1037800006B070BD303802400008024030B587B046
:1037900014216846FCF7DBFD2848002426490594DF
:1037A000C0E900147F218160FF21C0E90314446156
:1037B0008461FEF737FA08B1FDF7C4F900211F480C
:1037C000FEF744F945F25005A84232D011208DF899
:1037D000000059208DF8010050208DF8020003945C
:1037E0000122694615480494FEF7D4FA08B1FDF7A2
:1037F000A9F901208DF814008DF815008DF8160038
:1038000024208DF81700012205A90C48FEF776FA4E
:1038100008B1FDF797F900224FF4FA610748FEF767
:103820001FF908B1FDF78EF92A4600210348FEF77B
:1038300012F907B030BD000000280040B807002092
:10384000104810B50E4901604FF4827141600021AB
:1038500002228160C0E90312012242615202C0E9E2
:1038600006210162416281620A21C162FEF70EFBFC
:10387000002803D0BDE81040FDF764B910BD00007A
:1038800000300140D807002010B58AB0002407940A
:103890001C2168460894FCF75AFD16484FF08041F9
:1038A00001606321C0E901144FF49671C0E903146B
:1038B0008461FEF7C4FE08B1FDF744F9079407A937
:1038C0000C480894FEF7D6FC08B1FDF73BF96020E0
:1038D000CDE9000402940022694606480494FEF7EC
:1038E00048FE08B1FDF72EF90248FEF719FE0AB0AE
:1038F00010BD0000900800200C4810B50A49016076
:103900004FF4E1314160002181600C22C160C0E9C7
:1039100004128161C161FFF7A5F8002803D0BDE85A
:103920001040FDF70FB910BD00100140D80800206D
:10393000FEE7000086B0434E00254FF47A773078DA
:1039400000287AD0404835708DF8045001230022B9
:1039500001A900681DF01AFE3C493DA001F042FAA1
:103960003EA13A48FCF705FD78B13DA13748FCF788
:1039700000FD60B13DA13548FCF7FBFC58B1334870
:10398000FCF7F0FC142842D053E03AA000E03BA042
:1039900001F028FA4DE03D4C0022211D3C48FEF785
:1039A00017F9002221463A48FEF7F0F83948007826
:1039B000207639480078607638480078A076384814
:1039C0000078E07637480088A083A278617836A036
:1039D00001F008FAA3796279217937A001F002FA9F
:1039E00094F918103AA001F0FDF994F919103CA0CF
:1039F00001F0F8F9A17E3FA001F0F4F9E17E42A0C8
:103A000001F0F0F9A18B43A001F0ECF911E002956F
:103A1000039502A90D48049500F008FC4148007880
:103A200038B141A102A8FCF7A4FC10B9074800F086
:103A3000FFFD19210548FCF78AFC38461DF00CFDF6
:103A40007DE700000400002030000020DC09002099
:103A50005265635374723A25730D0A004F56000085
:103A60004F562B56455253494F4E00004F562B533D
:103A7000454E44004F4B0D0A00000000564552537E
:103A8000494F4E3D56322E330D0A0000400A0020A9
:103A9000B80700204D0100204C010020B00200209A
:103AA000A0040020FA010020646174613A253264A8
:103AB0002D253032640D0A0074696D653A25303267
:103AC000643A253032643A253032640D0A00000031
:103AD00068756D69646974793A256425250D0A0055
:103AE00074656D70657261747572653A25640D0A4E
:103AF00000000000486561727420526174653A25C7
:103B00006425250D0A00000053504F323A256425E4
:103B1000250D0A005374657020746F6461793A252D
:103B2000640D0A00D80000204F562B5354000000AB
:103B3000FEE700B5034602E0184600F007F8184615
:103B400000F021F80028F7D000BD0000017D49B148
:103B500000EB8102491E9FED040A017582ED000A07
:103B600000207047FF20704700000000017D0429FD
:103B700007D000EB8102491C017582ED000A00208C
:103B80007047FF207047007D08B10020704701207A
:103B900070472DE9FF4F81B006460F460398FFF7A7
:103BA000C8FF049800F06BFB0020824660F3070416
:103BB000009030786AF307054FF0010BA0463038CB
:103BC000A9466BF307080A2803D3012005B0BDE816
:103BD000F08F0025F2EE041A91E0725D2E2A08D1D2
:103BE000032060F3070418F0FF0F01D00220EDE777
:103BF000A046A2F13000092847D80399097D05297C
:103C000003D8049A5279052A01D90320DEE700EE91
:103C1000100A48466AF30700B8EEC00A81466AF304
:103C2000070418F0FF00F0EE400A02D0032827D066
:103C300022E0009818B1401CC0B200900DE003983B
:103C4000F0EE400A00EB810010ED011A41EE210A6E
:103C50000DE080EEA10AF0EE400A401EC0B2F8D29C
:103C6000039800EB810010ED010A70EE800A0398C2
:103C7000FFF76CFFB0EE600A0398FFF777FF3CE0B8
:103C8000C0EE210A01200090EAE72B2A05D02D2A58
:103C900003D02A2A01D02F2A30D10398007D05288D
:103CA00003D804984079052801D904208EE74846B6
:103CB00062F3070081460020009008F0FF006BF3DC
:103CC0000704012804D0049800F0F9FA10B110E0BC
:103CD00005207BE704984179401E085C114600F0FE
:103CE000F4FA30B1DDE90301FCF77EFE09F0FF01D3
:103CF00000E01146049800F0D8FAA0466D1CBD42C1
:103D0000FFF66BAF002061E7010901EB810100F0D4
:103D10000F0000EB4100C0B27047002103E0491CD6
:103D20000A38C9B2C0B20A28F9D2090740EA1160BC
:103D3000704700002DE9F041044600680025C16885
:103D4000490618D4C16841F08001C160FDF748FA06
:103D500006464FF47A78042707E000BFFDF740FAE3
:103D6000801B404501D9677701252068C06840065F
:103D700001D4002DF2D02846BDE8F08170B504468C
:103D800000680025C16821F08001C160206880685A
:103D9000800606D42046FEF75DF810B10420607757
:103DA0000125284670BD000008B5002300938DF85A
:103DB00002208DF801108DF80300142328F05CF91F
:103DC0008DF80000002269460348FDF797FF0028A0
:103DD00001D0FCF7B7FE08BDB807002070B586B06B
:103DE0000D460646144614216846FCF7B0FA8DF8D5
:103DF00000608DF801508DF80240002269460448A9
:103E0000FDF7C8FF002801D0FCF79CFE06B070BD8E
:103E1000B80700200148FDF79FBE0000B80700204A
:103E20004289406811B18169114300E01104816148
:103E3000704710B501890068FDF7C0F9012800D06E
:103E4000002010BD10B586B0044614216846FCF76A
:103E50007EFA20890090002001900120029002202B
:103E6000039069462068FDF7B9F806B010BD0289D5
:103E7000006811B18169114300E01104816170474C
:103E800010B586B0044614216846FCF760FA208914
:103E900000901120019000200290022003906946BA
:103EA0002068FDF79BF806B010BD10B5806B016867
:103EB0004A6822F003024A60416D41F010014165F9
:103EC000012180F85110FDF7E0FF10BD10B5806BA7
:103ED000FEF7ADF910BD38B50546846BFDF780F9E6
:103EE000024628680068C00523D42068416821F094
:103EF000200141602068416821F002014160642195
:103F0000204600F01BF818B1606D40F0200060659D
:103F1000A068002118B92068C26880680090E18616
:103F2000012084F85100606D18B12046FDF7ADFF07
:103F300038BD2046FEF77AF938BD000038B5044692
:103F40001248134B0068B0FBF3F04FF47A735843F8
:103F500000906068B0F5827F0DD10B460092002280
:103F60008021204600F016F870B1606D40F020000E
:103F70006065032038BD009830B1401E0090206875
:103F80008068C0430006F6D5002038BD6C050020CF
:103F900000366E012DE9F8431E46914688460446D8
:103FA000089DFDF71DF9401B351AFDF719F9074665
:103FB00025480068C0F3CB30684338E0701C37D028
:103FC000FDF70EF9C01BA84203D215B1009860B3EB
:103FD0002CE02068416821F0E00141606068B0F5A4
:103FE000827F0BD1A068B0F5004F02D0B0F5806F92
:103FF00004D12068016821F040010160A06AB0F599
:10400000005F09D12068016821F400510160206837
:10401000016841F400510160012084F85100002042
:1040200084F850000320BDE8F8830025401E00906E
:104030002068816838EA010004D000214945BDD1DB
:104040000020F0E70121F9E76C0500201CB50024F1
:10405000504D8DF804402A4623464F4827F02FFD47
:104060004E4FDFF83C81DFF83CA1DFF83CB1DFF8D0
:104070002891012600231A4601A938681DF028FA64
:10408000002805D19DF80400012802D002286CD038
:104090007CE0414827F003FD3F4827F020FD80B138
:1040A00023F054FC002300961A460621D8F800009D
:1040B0001AF0A4F92A460023374827F000FD4246AB
:1040C00060E099F8301009EBC10151E902018C461A
:1040D00080EA050261400A4319D0214680EA0802BD
:1040E0008CEA01031A431AD080EA0A028CEA01031F
:1040F0001A431FD080EA0B028CEA01031A4322D034
:104100002A4B8CEA04025840104325D03EE022F0AE
:104110003FFB002300961A460621286807E023F09B
:1041200015FC002300961A460621D8F800001AF064
:1041300065F92BE022F036F8002300961A46062196
:10414000DAF80000F3E725F09DFA002300961A46FE
:104150000621DBF80000EAE721F06CFB134800239E
:1041600000961A4606210068E1E70B4827F08BFC11
:1041700022F00EFB002300961A46062128681AF04A
:104180003DF92A460023044827F099FC0A201DF037
:1041900063F96FE7FC010020780A0020240000206A
:1041A000E8020020E001002048040020DC0000209C
:1041B00010B5044602E0204600F006F8204600F064
:1041C0001EF80028F7D010BD817A31B100224B00D3
:1041D000491E8172C25210467047FF207047827A92
:1041E000042A05D05300521C8272C152002070472D
:1041F000FF20704700210160017181727047807A51
:1042000008B100207047012070470000064D4FF4B0
:1042100000544FF4FA7621462846FCF7D4FF304686
:104220001DF01AF9F7E7000000080240002202E042
:104230008B54521CD2B2835C3D2BF9D1704770B5C0
:1042400015460E460446FCF78DF8C1B22B463246A1
:104250002046FFF79EFC58B13046FFF76AFC28461F
:1042600000F00DF8FF2070BD29463046FCF7BCFB7E
:10427000284600F024F80028F6D0002070BD10B5C4
:10428000044602E0204600F006F8204600F017F849
:104290000028F7D010BD417929B100234A1E427190
:1042A000435418467047FF2070474279042A04D0CF
:1042B000531C4371815400207047FF2070474079A0
:1042C00008B100207047012070472A280CD02F2801
:1042D0000AD02B2804D02D2805D12B2904D001E0A9
:1042E0002D2901D0002070470120704710B54FF0F4
:1042F000E020006928F09EFA012803D0BDE81040B4
:1043000027F05EBF10BD000030B593B03021684685
:10431000FCF71DF814210CA8FCF719F81D4800241F
:10432000016841F080510160006800F080501190F8
:104330001948016841F4404101600068102100F40F
:10434000404011900A2000900120CDE90301022590
:10435000CDE905050820CDE907406420CDE9090530
:1043600004200B906846FDF7BBF908B172B6FEE772
:104370000F20CDE90C054FF48050CDE90E4003210C
:104380000CA81094FDF7A0F8002801D072B6FEE743
:1043900013B030BD40380240007000400248016850
:1043A00041F470010160704788ED00E00148FEF7BC
:1043B00004B80000F8090020F0B502681D4B1E4C3F
:1043C0009F031E4D1E4E984207D0B84205D0A04212
:1043D00003D0A84201D0B04204D122F0700C4A6848
:1043E00042EA0C02984210D0B8420ED0A0420CD043
:1043F000A8420AD0B04208D0124CA04205D0124CBC
:10440000A04202D0114CA04203D122F44074CA68E9
:1044100022434C6922F08002224302608A68C26211
:104420000A688262984201D10969016301214161F0
:10443000F0BD000000000140000400400008004002
:10444000000C004000400140004401400048014091
:1044500010B501F01F030121046A99408C430462E6
:10446000016A9A401143016210BD000030B5026A32
:1044700022F001020262026A4368846924F0730533
:104480000C682C4322F002058A682A430A4DA84290
:104490000BD122F00805CA6823F440732A434D6902
:1044A00022F004021D438B692B43436084614968F9
:1044B0004163026230BD00000000014030B5026A75
:1044C00022F010020262026A436884690D6824F4D3
:1044D000E64444EA05248D6822F0200242EA0512EF
:1044E0000B4DA8420ED1CD6822F0800242EA05129F
:1044F0004D6923F4406343EA85038D6922F040024D
:1045000043EA85034360846149688163026230BD88
:104510000000014030B5026A22F480720262036A30
:104520004268C46923F4007324F073050C682C43BB
:104530008D6843EA05230C4DA8420ED1CD6823F4C3
:10454000006343EA05234D6922F4405242EA051212
:104550008D6923F4806342EA05124260C4614968B0
:10456000C163036230BD00000000014030B5026A43
:1045700022F480520262046A4268C3690D6823F41F
:10458000E64343EA05238D6824F4005444EA0534E5
:10459000064DA84204D14D6922F4804242EA8512B8
:1045A0004260C36149680164046230BD000001409B
:1045B00038B501201BF016FC17480078002829D0D8
:1045C000164900240878401CC2B215480A700A2A0D
:1045D00003D30C700178491C01700178114D6429D6
:1045E0000CD3047028780023401C28700E488DF8E6
:1045F00000401A466946806A1CF0C8FF29780B48BB
:104600003C2903D32C700178491C017001783C29A6
:1046100000D3047038BD0000B8040020BC040020A2
:10462000BB040020BA04002008000020B9040020C8
:104630002DE9F041017A427A303901EB81016FF0C6
:104640002F0303EB41012C4C1144CDB2E570817A6C
:10465000C27A303901EB810103EB41011144C9B247
:104660006170027B467B303A02EB820203EB42022E
:104670003244D2B2A270867BC77B303E06EB860600
:1046800003EB46063E44F6B22671077C90F811C053
:10469000303F07EB870703EB47076744FFB26771BB
:1046A00090F813C0807C303800EB800003EB4000B2
:1046B0006044C0B26B1EA071622B1AD2002918D0C0
:1046C0000C2916D8002A14D01F2A12D8172E10D859
:1046D0003B2F0ED83B280CD82846FFF765FBA27964
:1046E00061792079FFF77AFBBDE8F04103A000F083
:1046F00079BBBDE8F0810000600A002054494D45B7
:104700005345544F4B0D0A008AB0454D454EDFF8D6
:104710001891DFF818A1464CDFF818B1DFF81881BE
:10472000002700BF95F8300005EBC00151E90201F8
:104730007040794008436ED1002201A93F48FDF73F
:1047400047FA002269463D48FDF720FA9DF805200A
:1047500099F800108A420AD089F8002038A106A8EA
:1047600000F050FB384806A9006814F09FFE9DF841
:1047700004209AF800108A420AD08AF8002033A157
:1047800006A800F03FFB324806A9006814F08EFE30
:104790009DF80230207883421AD023709DF80010D3
:1047A0008BF8001098F800202AA106A800F02AFB38
:1047B0002B4806A9006814F079FE2A489BF80010DF
:1047C00000EB810050F8041C2748006814F06EFECE
:1047D0009DF8012098F800108A421CD088F800202B
:1047E0009DF8023023709DF800108BF8001019A17D
:1047F00006A800F007FB1A4806A9006814F056FE48
:1048000018489BF8001000EB810050F8041C164873
:10481000006814F04BFE4FF4FA701CF01DFE81E7A7
:10482000780A0020FC010020F1010020F0010020A6
:10483000F3010020F4010020F2010020B80700205D
:104840002530326400000000080200202532640098
:10485000000200202532642D253032640000000063
:1048600018020020940200201C02002010B51DF048
:1048700071FC002805D0D0E90021BDE810400846B1
:10488000104710BD10B5806B0021C185C184FDF7B4
:10489000B3FF10BD70B5846B2068406994F83D107B
:1048A000C0F3C0100025212904D118B1E5842046A9
:1048B00000F08AF82068406994F83E10C0F3801038
:1048C000222904D118B1E585204600F056F8206C65
:1048D00040F0100020642046FDF78EFF70BD10B53B
:1048E0000146806B09680968C9052FD40021C1857C
:1048F00001680C3151E8002F22F4807241E8002356
:10490000002BF5D10168143151E8002F22F001028B
:1049100041E80023002BF5D10168143151E8002F44
:1049200022F0400241E80023002BF5D1202180F83D
:104930003E10016B012909D101680C3151E8002FAB
:1049400022F0100241E80023002BF5D1016B012970
:1049500002D0FEF742F910BD818DFDF714FF10BDA6
:1049600010B5806B016B012902D0FEF737F910BD3D
:10497000818D4908FDF707FF10BD01680C3151E832
:10498000002F22F4907241E80023002BF5D101683A
:10499000143151E8002F22F0010241E80023002BDE
:1049A000F5D1016B012909D101680C3151E8002FC3
:1049B00022F0100241E80023002BF5D1202180F8DD
:1049C0003E1000210163704701680C3151E8002F4F
:1049D00022F0C00241E80023002BF5D1202180F80D
:1049E0003D10704708B590F83E10222901D00220F2
:1049F00008BD82684FF480539A4201D1016921B108
:104A0000816A9A421BD04AB10AE00268816A526800
:104A1000C2F308020A80816A891C08E0026972B147
:104A20000268526802F07F020A70816A491C816242
:104A3000C18D491E0904090CC18503D019E0026823
:104A40005268F1E70168CA6822F02002CA60016872
:104A5000CA6822F48072CA6001684A6922F00102C1
:104A60004A61202180F83E10016B012903D0FEF736
:104A7000B4F8002008BD0021016301680C3151E841
:104A8000002F22F0100241E80023002BF5D101682D
:104A90000A68D20602D50A6849680091818DFDF73F
:104AA00072FEE6E770B5044600680169E26821F429
:104AB0004051114301612169A068E26908436169BD
:104AC000114308432168CA6849F20C639A430243C0
:104AD000CA6020684169A26921F4407111434161B3
:104AE00031492068884202D03049884202D1FCF71F
:104AF000B5FD01E0FCF7A2FDE26900231921642560
:104B00003226B2F5004F626828D0A0FB0101930F56
:104B10009200FBF7BFFB0146B0FBF5F06FF0180207
:104B2000504301EB800006EB0010B0FBF5F000F005
:104B3000F002B1FBF5F002EB0012B1FBF5F06FF003
:104B40001803584301EB800006EB0010B0FBF5F0B2
:104B500000F00F0021681044886070BDA0FB0101C7
:104B600092185B41FBF796FB0146B0FBF5F00201A2
:104B7000B1FBF5F06FF01803584301EB800006EB32
:104B8000C000B0FBF5F000F0F80002EB4002B1FB12
:104B9000F5F0584301EB800006EBC000B0FBF5F0E8
:104BA00000F00700D6E700000010014000140140AB
:104BB00038B58162828500251346044605642220AB
:104BC00084F83E00A26B1C48D063A26B1B481064A3
:104BD000A26B1B48D064A06B0A4605652168A06BD8
:104BE000091DFCF7A3F9206801684068009084F86B
:104BF0003C50206948B120680C3050E8001F41F457
:104C0000807140E80012002AF5D12068143050E885
:104C1000001F41F0010140E80012002AF5D1206890
:104C2000143050E8001F41F0400140E80012002A13
:104C3000F5D1002038BD0000DF48000861490008B8
:104C4000954800082DE9F041984617460E4604465F
:104C5000069D27E0681C25D02DB1FCF7C1FAA0EB1A
:104C60000800A8421ED920680C3050E8001F21F42B
:104C7000D07140E80012002AF5D12068143050E8C5
:104C8000001F21F0010140E80012002AF5D1202088
:104C900084F83D0084F83E00002084F83C000320A6
:104CA000BDE8F0812068006836EA000004D00020EA
:104CB000B842CFD00020F3E70120F9E70C4810B547
:104CC00000680168C943C9060DD40A4A0121117060
:104CD0006FF0100101600648FDF756FD19220649E4
:104CE0000348FDF765FFBDE810400148FDF786BDAC
:104CF000D808002004000020DC090020FEE70000A6
:104D000038B500231A4601212D481CF0B9FC2D4C62
:104D1000642120601CF0F0FC0121002208461CF0F8
:104D200009FC0121E061002208461CF003FC01217E
:104D30002062002208461CF0FDFB01216062002277
:104D400008461CF0F7FB0121A062002208461CF077
:104D5000F1FBE0620022012102201CF0EBFB20634A
:104D6000194A002119481CF045FC174A606024329A
:104D7000002117481CF03EFC134AA0604832002175
:104D800014481CF037FC104AE0606C3200211248D5
:104D90001CF030FC0C4A2061903200210F481CF0BE
:104DA00029FC094A6061B43200210D481CF022FC44
:104DB000A061012300226946E06A1CF0E7FB38BDD0
:104DC000A92F00080800002070CC02086D360008EA
:104DD0006D3000084D40000809470008992C000874
:104DE000353900080FB4054B10B503A9044A0298E1
:104DF00001F066FE10BC5DF814FB000075F40008BD
:104E0000B40700200FB4084B10B504A902AA0398F8
:104E100001F056FE044602A9002002F0D4F9204613
:104E200010BC5DF814FB0000C77100080907090EEB
:104E3000002804DB00F1E02080F80014704700F047
:104E40000F0000F1E02080F8141D704702E008C850
:104E5000121F08C1002AFAD170477047002001E0F4
:104E600001C1121F002AFBD1704770B5044600250E
:104E70006FF02F0608E02068411C2160007805EBE8
:104E8000850106EB410145182068007800F0C6F85E
:104E90000028F0D1284670BD2DE9FF5F82B00021C7
:104EA000DDE90430020DDDF840B0034318D044F6CC
:104EB0001050A2F2FF3242431514119801281FD05E
:104EC000A5EB0B00401C5FEA000A4FF000064E4FB6
:104ED000DFF83891B046504615D5CAF1000413E00A
:104EE000119801244AA3012801D16FEA0B0102980D
:104EF000119AC0E90031C0E9024206B0BDE8F09F56
:104F0000CBF10000DFE704460021404A491842EB9C
:104F10000450CDE9001012E0E00707D032463B46CE
:104F200040464946FBF72BFB8046894632463B46C6
:104F300010461946FBF723FB06460F466410002C6B
:104F4000EAD1DDE90401DDE90023BAF1000F06DA58
:104F5000FBF715FB42464B46FBF711FB05E0FBF761
:104F600080FB42464B46FBF77CFB04460E46002284
:104F7000284BFBF7FDFB03D84FF0FF30014607E05D
:104F80000022254B20463146FBF752FAFBF7D8FBAF
:104F9000102409E0002C0ADB0A220023FBF77AF92F
:104FA000039B30321A55641E50EA0102F2D1641C90
:104FB000039AC4F111031444119A012A03D0012267
:104FC00008430DD10AE0084304D000204FF0110B34
:104FD000119072E7A3EB0B056D1E0DE05B4504DD40
:104FE0004FF0000205F1010504E003DA4FF0000282
:104FF000A5F10105002AECD002981199C0E902310F
:10500000C0E9004579E70000000014400000F03FCF
:10501000300000000000F0430000E03F3038092875
:1050200001D80120704700207047000010B54021D2
:10503000074801F081F800220A2106481AF0DCFE38
:10504000054CA06002F00AFC0020207010BD00009A
:1050500014550020057900080C07002070B5B1F93F
:105060000030B2F90040A34200DC23460380B1F9CE
:105070000250B2F90240A54200DD2C464480B1F94D
:105080000460B2F90450AE4200DA35468580B1F9C9
:105090000610B2F90620914200DB1146C1800120C2
:1050A000AB4201DC8C4200DD002070BDF8B50D463E
:1050B0000446B0F90000B1F900101646884247DBFB
:1050C000B4F90210B5F90220914241DBB4F90410A1
:1050D000B5F9042091423BDCB4F90610B5F906207D
:1050E000914235DC96B3ADF800006088ADF802005F
:1050F00032466946284600F099F8002827D0A08853
:10510000ADF800006088ADF80200324669462846D6
:1051100000F08CF800281AD02088ADF80000E08854
:10512000ADF8020032466946284600F07FF80028B4
:105130000DD0A088ADF80000E088ADF8020032463E
:105140006946284600F072F8002800D00120F8BD1A
:105150000020F8BDB0F90020B1F904309A4213DC08
:10516000B0F90420B1F900309A420DDBB0F9022009
:10517000B1F906309A4207DCB0F90600B1F9021025
:10518000884201DB0120704700207047F8B50D46CA
:105190000446B0F90400B1F900101646884243DB1A
:1051A000B4F90600B5F9021088423DDBB4F90000FD
:1051B000B5F90410884237DCB4F90210B5F90620BD
:1051C000914231DC76B3ADF800006088ADF80200A2
:1051D00032466946284600F029F818BBA088ADF889
:1051E00000006088ADF8020032466946284600F0AB
:1051F0001DF8B8B92088ADF80000E088ADF80200CD
:1052000032466946284600F011F858B9A088ADF832
:105210000000E088ADF8020032466946284600F0FA
:1052200005F808B10020F8BD0120F8BD2DE9FC41CA
:1052300014460E46B1F90020B0F9001005468A4226
:105240003ADBB5F90400824236DCB6F90270B5F9F2
:105250000220974230DBB5F906309F422CDC002C4F
:1052600075DD401A9A1A401C521C00B212B200EBB3
:10527000D07002EBD27240105210904200DB104608
:10528000844200DD0446ADF8001028880022204446
:10529000ADF804006888ADF8020068883146204403
:1052A000ADF806006846FFF7C1FF40B1BDF8040045
:1052B0002044ADF804003FE00020BDE8FC81E88810
:1052C0000022001BADF80200E888ADF80600314668
:1052D0006846FFF7ABFF28B1BDF804002044ADF8E5
:1052E000040011E0A8880022001BADF80000A88887
:1052F000ADF8040031466846FFF798FF50B1BDF89D
:105300000000001BADF80000BDF80200001BADF866
:10531000020016E06888ADF8020068880022204488
:10532000ADF8060031466846FFF780FF70B1BDF862
:105330000000001BADF80000BDF806002044ADF8E9
:1053400006003146684618F04DFBB6E7FFE701203E
:10535000B3E710B5B1F90040B2F900309C4200DA71
:1053600023460380B1F90240B2F902309C4200DAD0
:1053700023464380B1F90440B2F904309C4200DD79
:1053800023468380B1F90610B2F90620914200DC71
:105390001146C18010BD0000FEB507461AF018FD89
:1053A0000025354C0646009537B1F86860603846F0
:1053B0001AF0F0FD606802E00EF050FD60600069D8
:1053C00018F0ACFA6068406908B118F0A7FA606894
:1053D000C06918F0A3FA6068006A18F09FFA606864
:1053E0000169E1B318F024FD18F0A0FC6068B0F882
:1053F000501199B30168097C890715D50EF0A8FDF5
:10540000401E07B260680EF041FD401E03B200224C
:10541000114601A800970DF08BF9606801A9026898
:10542000926B516004F08AFC60684FF480713030F8
:1054300014F0BEFA6068202100F5987014F0B8FAF4
:105440006068A0F8505130461AF0BCFC00906068CB
:105450000068436A13B122680099984700E007E0AA
:1054600014F0E8F800F036F8BDE8FE4000F006B8A9
:10547000A0F85051FEBD00003406002070B50A4D62
:10548000002400BFC4EBC40655F8260008B114F090
:1054900045F905EB86001C2114F08AFA641CE4B27D
:1054A000042CEFD370BD0000F05500200849496876
:1054B0000AE04A68824202D00A68824203D10A7E28
:1054C00042F001020A7649690029F2D170470000D2
:1054D00008060020704700000421014800F02CBE9F
:1054E000085500201C21014800F026BE2055002050
:1054F0002DE9FF5F0446DDE90E0613B9B0F5807FA4
:105500007ED0B6F900504FF0FF376D42454307EBB0
:1055100025252DB22580B6F902C0CCF1000C0CFB7C
:1055200000FC07EB2C273FB26780B6F900C0A1EB67
:105530000C0141434FF0020C0CEB212109B2A18078
:10554000B6F90280A2EB080242430CEB222000B223
:10555000E080002B7ED04FF00A0A93FBFAF56842F8
:1055600000EB800003EB400705F1010928B21AF0B7
:105570004DFE00900FFA89F01AF048FE83465A3526
:1055800028B21AF043FE804609F15A0000B21AF020
:105590003DFE0146009AC7F10A0000FB02F300FB42
:1055A00008F00BFB073301FB070193FBFAF291FBB9
:1055B000FAF04FEA601AB4F90010B4F902000AFBDD
:1055C00001FCCDF80CC05511378805FB10C207EB64
:1055D000A2220FFA82F905FB01F2BB4602927788FC
:1055E0000AFB002107EBA1210BB2B4F90410BE465F
:1055F0000AFB01FC05FB10C20BEBA22216B200E075
:105600002FE005FB01F7CDE9007CB4F90680DDF859
:105610000CC00AFB007005FB18C1DDF804C0009F38
:1056200005FB18C5029A0AFB087C0AFB08220BEB53
:10563000A1210EEBAC270EEBA02009B20EEBA222AB
:105640000BEBA5250FFA87FC00B212B22DB24F4624
:10565000494500E00EE000DA0F46B54216DAA846EA
:1056600015E000202080491E6080A180521EE2804B
:10567000BDE8FF9F32882A44228072883A446280C3
:1056800032881144A180718808444FE0B0464745F4
:1056900004DA4F46494506DA0F4604E0B54201DA1E
:1056A0002F4600E0374627804F46494500DD0F462C
:1056B000B54201DDA84600E0B046474503DD4D4652
:1056C000494505DC01E0B54201DD294600E03146EF
:1056D000A1809A4201DA154600E01D46844501DAB0
:1056E000614600E001468D4205DA9A4201DA114630
:1056F00006E0194604E0844501DA614600E001460F
:1057000061809A4201DD114600E01946844501DDC1
:10571000654600E00546A94205DD9A4201DD1046D6
:1057200004E0184602E0844500DD6046E0809FE723
:105730002DE9FE4F0446D0F800B0B0F90800E58925
:10574000081AB4F90A10511AD4E90932B5F5807F64
:1057500038D0A589ADB3A66B704345114E43701187
:10576000266BE16A06FB05F701FB1077694306FB30
:10577000001003EBA72902EBA02080460612B4F923
:1057800004004FEA2927B8424EDD002F4CDBB4F964
:105790000610B14248DD002E46DB94F834104A076B
:1057A00045D58A0704F1140322D400FB0670450096
:1057B0004FF0020A0BEB05015246184614F0AEF802
:1057C00027E00DE0256BE66A05FB00F706FB117785
:1057D000464305FB016003EBA70902EBA000CCE701
:1057E000A56B68434D4303EB601902EB6510C4E7FA
:1057F00000FB067000EB40054FF0030A0BEB0501C0
:105800000222184614F08AF8E81C584410F8010CDB
:10581000A07594F83400C0071FD04FF4FC60ADF8B9
:105820000000A18A814218D10020BDE8FE8F32B26B
:1058300004F118002369CDE90102002539B2AA4616
:105840008B4611F0B3FE0090BDF80000A082DDE9A8
:105850000102594611F042FEDAE7E07C78B1A4F883
:105860003C90A4F83E80A4F84070A4F842606564BF
:1058700084F848A02046BDE8FE4F00F002B80120A1
:10588000D3E72DE9F04F044690F83C10D0F8009093
:1058900090F83E0087B04FF0FF36702907DAB4F970
:1058A00040203546012A00D5002580310DE09029A1
:1058B00016DDB4F94020B4F904300125521C9A4297
:1058C00000DB0025A1F27F114942C9B28846702849
:1058D00009DAB4F94210012900D50026803010E021
:1058E0000025FF21F2E790280DDDB4F94210B4F94C
:1058F00006200126491C914200DB0026A0F27F1001
:105900004042C7B201E00026FF2760690090A07DF9
:105910000590002083468246049094F834004007A6
:1059200044D594F84810606C11FB050149440222EB
:1059300001A813F0F3FFA08894F8481010FB01F0C1
:10594000616C022206FB0011494403A813F0E6FF34
:10595000A18894F8480011FB00F1626C06FB01225B
:1059600010FB05901118022202A813F0D7FF94F83B
:105970003400800761D594F84800626C10FB052361
:1059800000EB09010B4413F8013C0493A38813FBBB
:1059900000F306FB0322114411F801BC10FB0500C3
:1059A000111801EB090010F8010C45E0B4F84000B3
:1059B000B4F94220284401B204F118008146236959
:1059C00011F0F4FD0190B4F84200B4F940103044F5
:1059D00002B254F8103F484611F0E8FD0390608E83
:1059E0002368304402B2208E284401B2484611F0A8
:1059F000DDFD029094F82400103C80071DD5B4F919
:105A0000422034F8400F284401B2484611F066FDA8
:105A100004906088B4F90010304402B2484611F096
:105A20005DFD83466088304402B234F84009284462
:105A300001B2484611F052FD824694F834004246C5
:105A40004546800735D5059810FB08F30499C8F141
:105A5000FF0011FB0031C1F307211BFB08F61AFB05
:105A60000060C0F3072011FB07F3C7F1FF0610FB2E
:105A700006331B0AA375022907D8022803D8002081
:105A800007B0BDE8F08F002702E0022800D8FF270A
:105A90000598022800D800220498022800D8FF2286
:105AA000BBF1020F00D80025BAF1020F03D8FF2581
:105AB00001E0FF20A075EAB1FF2A04D0DDE9000172
:105AC0000EF02EF80090BDB1FF2D17D0DDE90210C9
:105AD0002A460EF025F8049097B1FF2F05D0014615
