:020000040800F2
:10000000509801207102000839520008A33A0008F4
:1000100009500008810C00088567000800000000F6
:10002000000000000000000000000000B101000816
:1000300099100008000000000D020008915E000801
:100040008B0200088B0200088B020008F95600089A
:100050008B0200088B020008A91100088B0200081F
:100060008B0200088B0200088B0200088B0200083C
:100070008B0200088B0200088B0200088B0200082C
:100080008B0200088B0200088B02000800000000B1
:100090000000000000000000000000008B020008CB
:1000A0008B0200085D5F00088B0200088B020008CD
:1000B0008B0200088B0200088B0200088B020008EC
:1000C0008B0200088B0200088B0200088B020008DC
:1000D0008B020008456700088B0200080000000042
:1000E0008B0200088B0200088B0200080000000051
:1000F0000000000000000000000000008B0200086B
:10010000000000008B0200088B0200088B02000830
:1001100000000000000000000000000000000000DF
:100120008B0200088B020008250F00088B020008D4
:100130008B0200080000000000000000000000002A
:100140000000000000000000000000008B0200081A
:10015000310F00088B0200083D0F00088B020008D9
:100160008B0200088B020008000000000000000065
:10017000000000000000000000000000000000007F
:10018000000000008B0200080000000000000000DA
:100190008B0200088B020008DFF810D000F0C4FBCF
:1001A0000048004711320208AFF300805098012048
:1001B0002C4B19680868B0E8F04F80F30988BFF34A
:1001C0006F8F4FF0000080F311887047000000002F
:1001D00008480068006880F308884FF0000080F34A
:1001E000148862B661B6BFF34F8FBFF36F8F00DF25
:1001F00000BF00BF08ED00E0DFF80C00016841F42B
:1002000070010160704700BF88ED00E0EFF30980E6
:10021000BFF36F8F134B1A681EF0100F08BF20ED4D
:10022000108A20E9F04F106009B44FF0500080F3BD
:100230001188BFF34F8FBFF36F8F2EF0E3FB4FF0AA
:10024000000080F3118809BC19680868B0E8F04F15
:100250001EF0100F08BFB0EC108A80F30988BFF3BE
:100260006F8F7047E0070020EFF3058070470000B4
:100270000648804706480047FEE7FEE7FEE7FEE740
:10028000FEE7FEE7FEE7FEE7FEE7FEE7415F000868
:10029000990100082DE9F05F0546002092469B4633
:1002A00088460646814640241BE02846414647468C
:1002B000224600F051FA53465A46C01A914110D3D3
:1002C00011461846224600F038FA2D1A67EB01084D
:1002D0004F4622460120002100F02FFA17EB0009BB
:1002E0004E41201EA4F10104DFDC484631462A4677
:1002F0004346BDE8F09F00000649074A086850439E
:1003000043F2390210440860400870470149086010
:1003100070470000080A00206D4EC64140EA010304
:100320009B0703D009E008C9121F08C0042AFAD2AB
:1003300003E011F8013B00F8013B521EF9D270476F
:10034000D2B201E000F8012B491EFBD27047002217
:10035000F6E710B513460A4604461946FFF7F0FFC4
:10036000204610BD421C10F8011B0029FBD1801A49
:10037000704710B5002200E0521C835C8C5CA342E5
:1003800001D1002BF8D1D8B2E1B2401A10BD03461A
:1003900011F8012B00F8012B002AF9D118467047FB
:1003A0002DE9FE4F804681EA0300C00F0C46009005
:1003B00021F0004123F00045B8EB0200A94105D22D
:1003C0004046214690461C460B46024623F000401C
:1003D000104347D0270DC7F30A00C3F30A51029018
:1003E000401A019040286BDAC3F3130040F4801BDD
:1003F0000098924620B10023D2EB030A63EB0B0B6B
:1004000001985946C0F14002504600F096F9064660
:100410000D4650465946019A00F0AEF910EB08001F
:100420006141002487EA115284EAE7731A4340D0FD
:10043000009A62B3019A012A4FEA075215DC001BA9
:1004400061EB02014FF0004202EA0752CDE900429F
:10045000001C41F5801132462B4600F0E5F903B04F
:10046000BDE8F08F40462146F9E7001B61EB020131
:10047000001C41F5801300185B412018A2F50017FD
:1004800047EB030140EAD570B6196D4111E06D08E4
:100490004FEA360645EAC0754FEA0752001B61EB8A
:1004A0000201001C41F5801149084FEA3000001993
:1004B000514132462B4603B0BDE8F04F00F0A5B9DC
:1004C0000098012240000023D0EB020263EBE073AE
:1004D000009821464FEAE074B8EB000061EB04019C
:1004E000E9E783F000435BE781F0004158E72DE93D
:1004F000FE4F81EA030404F0004421F0004100941F
:100500004FF0000B23F0004350EA01045ED052EAA2
:1005100003045BD0C3F30A54C1F30A552C44A4F27C
:10052000F3340194A0FB0254C1F3130141F4801190
:10053000C3F3130343F4801301FB024400FB034E97
:10054000840A970A44EA815447EA8357A4FB076860
:1005500002958D0A05FB07854FEA932C04FB0C548A
:100560002705029D4FEA065847EA1637B5EB0805FE
:100570006EEB070C870E920E47EA811742EA831250
:10058000A7FB0201B6EB0B0164EB00042B0D43EA61
:100590000C335E1844EB1C50DA465146E7FB02016F
:1005A000C5F313044FEA0B3343EA14534FEA043202
:1005B000019C43EA0603A4F10C040294009CCDE9DB
:1005C00000B400F031F903B0BDE8F08F002001461F
:1005D000F9E72DE9F04D81EA030404F0004B21F026
:1005E000004514464FF0000A23F0004150EA05028E
:1005F00020D054EA01021DD0C5F30A570246C5F3C4
:100600001303C1F31300C1F30A5640F4801543F4F9
:100610008013A7EB0608101BD64608F2FD3873EBD3
:10062000050002D308F1010801E092185B41B8F11E
:10063000000F03DA00200146BDE8F08D00204FF4E2
:100640008011064684460EE0171B73EB050705D3A1
:10065000121B63EB050306434CEA010C49084FEA01
:10066000300092185B4150EA0107EDD152EA0300D5
:1006700012D082EA040083EA0501084305D0101B6A
:10068000AB4106D20122002306E000224FF00043D6
:1006900002E06FF0010253101AEB06004CEB085118
:1006A00010EB0A0041EB0B01BDE8F04D00F0ADB8D6
:1006B00000F0004230F000400AD0C10D01F5607139
:1006C000C0F3160042EA0151C208400711437047C7
:1006D00000200146704701F0004330B421F0004192
:1006E00050EA010206D00A0DA2F56072C1F31301AF
:1006F000002A02DC30BC00207047440F44EAC104E9
:10070000C100E01830BC00EBC25000F047B830B573
:100710000B46014600202022012409E021FA02F5BF
:100720009D4205D303FA02F5491B04FA02F5284459
:10073000151EA2F10102F1DC30BD202A04DB203AB3
:1007400000FA02F1002070479140C2F1200320FA24
:1007500003F3194390407047202A04DB203A21FA22
:1007600002F00021704721FA02F3D040C2F12002CA
:100770009140084319467047202A06DBCB17203AE0
:1007800041FA02F043EAE07306E041FA02F3D04096
:10079000C2F1200291400843194670470029A8BFC2
:1007A0007047401C490008BF20F00100704710B49A
:1007B000B0FA80FC00FA0CF050EA010404BF10BC4F
:1007C000704749B1CCF1200421FA04F411FA0CF17C
:1007D00018BF012121430843A3EB0C01CB1D4FEAB5
:1007E00000614FEA102042BF002010BC704700EBB0
:1007F000C35010440029A4BF10BC7047401C4900DE
:1008000008BF20F0010010BC704710B5141E73F132
:10081000000408DA401C41F1000192185B411A43C0
:1008200001D120F0010010BD2DE9F04D92469B460C
:1008300011B1B1FA81F202E0B0FA80F220329046B2
:10084000FFF77BFF04460F4640EA0A0041EA0B012E
:1008500053465A46084313D0114653EA010019D0B3
:10086000C8F140025046FFF777FF05460E46504656
:1008700059464246FFF761FF084305D0012004E0D6
:1008800020463946BDE8F08D0020054346EAE07673
:100890002C4337430A986305E40AA0EB08000022C2
:1008A000FD0A44EA47540A3002D500200146E9E730
:1008B000010510196941DDE9084500196941BDE8E4
:1008C000F04DA2E7C1F30A52C1F3130140F2FF3326
:1008D00041F480119A4202DA00200146704740F24A
:1008E00033439A42A2F2334202DC5242FFF734BF52
:1008F000FFF723BF30B5041E71F1000404DB4FF095
:100900000044404264EB0101141E73F1000405DB56
:100910001C464FF00043524263EB0403994208BF68
:10092000904230BD00207047064C074D06E0E0685D
:1009300040F0010394E8070098471034AC42F6D326
:10094000FFF72EFC8CEA0508ACEA050870B58C1898
:1009500010F8015B15F0070301D110F8013B2A11D3
:1009600006D110F8012B03E010F8016B01F8016BC0
:100970005B1EF9D12B0705D40023521E0DD401F8BC
:10098000013BFAE710F8013BCB1A921C03E013F885
:10099000015B01F8015B521EF9D5A142D8D30020BA
:1009A00070BD0000464910B54A6822F440324A60E2
:1009B0004A6843681A434A6001684A6822F48072B0
:1009C0004A6001684A68036942EA03224A60016892
:1009D0004A6822F040724A6001684A6883681A4394
:1009E0004A6001688A6822F400628A6001688A6845
:1009F000C3681A438A60816A6FF07062D1420168ED
:100A00008A6822F070628A6001688A680CD0836A02
:100A10001A438A6001688A6822F040528A6001683D
:100A20008A68C36A1A4301E022F040528A60016872
:100A30008A6822F002028A6001688A68037E42EABC
:100A400043028A6090F82010002901684A680FD09C
:100A500042F400624A6001684A6822F460424A60D7
:100A600001684A68174C436A04EB43331A4301E0B8
:100A700022F400624A600168CA6A22F47002CA6203
:100A80000168CA6A838B104C04EB03531A43CA6291
:100A900001688A6822F400728A6001688A6890F8A6
:100AA000303042EA43228A6001688A6822F4806218
:100AB0008A6001688A68406942EA8020886010BDC7
:100AC0000023014000E0FFFF0000F0FF10B504F03C
:100AD00037FD9FED091AF0EE400A80EE810ADFED46
:100AE000070A06F0FFF9F7EE000A30EEC00ADFED64
:100AF000040A20EE200A10BD80E6C54701DE423E12
:100B0000002A2D472DE9F0411D462DED068B144698
:100B10000E4607469DED0D8ADDED0C8A11FB06F0B1
:100B200012FB040000EE100AB8EEC00A06F0D4FD75
:100B3000F0EE400A00EE107AB8EEC00A05F024FF8D
:100B4000F0EE409A17FB07F014FB040000EE100AC9
:100B5000B8EEC00A06F0C0FDF0EE400A00EE106AE2
:100B6000B8EEC00A05F010FFB0EE409A06F012F998
:100B7000F8EEE80A60EE208AB0EE490A06F0E4FCDE
:100B8000F0EE400A00EE105AB8EEC00A20EE80AA3D
:100B9000B0EE690A06F0D8FC4AEE008AB0EE690AA7
:100BA00006F0F8F8F8EEC80A20EE20AAB0EE490ADE
:100BB00006F0CAFC4AEE408AB0EE690A06F0EAF88E
:100BC000F0EE400A00EE105AB8EEC00A20EE809A0D
:100BD000B0EE690A06F0B8FCF8EEC80A00EE809A9A
:100BE000B0EE680AF0EE490A05F0CEFE10EE100AEB
:100BF000FFF75EFD9FED091B53EC112BFFF777FC10
:100C00009FED081B53EC112BFFF7E3FCFFF763FD8F
:100C1000BDEC068B00EE100ABDE8F081000000007C
:100C2000008066404AD8124DFB210940064882B038
:100C3000016841F001010160006800F001000090CE
:100C4000024802B003F01AB93038024054070020BD
:100C500008B50B46009202465021024803F014FAF0
:100C600008BD00005407002008B50B46009202465C
:100C70005021024803F07AFA08BD00005407002012
:100C8000FEE7000030B587B014216846FFF75FFB30
:100C90000F48016841F00201016000684FF4807460
:100CA00000F0020005900120CDE9004002900320F1
:100CB000084D03906946284600F02AFF012221468C
:100CC000284601F022F8044803F0D8F807B030BDF8
:100CD000303802400004024048070020022000F0A3
:100CE00027B800001CB501A8009004230322152199
:100CF0000E4803F0C9F99DF804109DF8050001F0B5
:100D00000F0140EA01229DF806309DF807000749CF
:100D100003F00F0340EA03200839A0F21710C2F1D4
:100D2000EF024042C1E900201CBD0000480700203E
:100D300002461521014803F0EBB9000048070020E6
:100D40000B4602461521014803F044BA480700202B
:100D500070B50A4D4FF4807400222146284600F0F9
:100D6000D4FF0A2000F01EFE01222146284600F092
:100D7000CCFFBDE87040642000F014BE00040240C7
:100D80000321E520FFF7DCBFFFF7E2BF10B50C46FB
:100D900003464979601E085C2B2806D02D280ED00A
:100DA0002A2816D02F281ED026E0187D03EB8000BD
:100DB00010ED020A50ED010A70EE200A1CE0187DC9
:100DC00003EB800010ED020A50ED010A70EE600A9C
:100DD00012E0187D03EB800010ED020A50ED010ACD
:100DE00060EE200A08E0187D03EB800010ED020A97
:100DF00010ED011AC0EE010A184604F02BFA18464D
:100E000004F028FAB0EE600A184604F033FA2046DF
:100E1000BDE8104005F011B8114D124F124E0024DC
:100E20004FF4FA782878B8B13C802C7000F074F850
:100E300040B104F03BFB8068B04203D00B4804F0A3
:100E400041FB09E000F068F830B904F02FFB80683E
:100E5000B04201D104F0DCFA404623F041F8E1E76A
:100E6000080000205800002008010020FC0000209D
:100E70007FB504F01BFB80681E49884236D11E4DA9
:100E800002A8296888471D489DF80D20194C017853
:100E90008A4208D002701AA1684605F03DFD6946F5
:100EA00060691BF093F818489DF80C2001788A427D
:100EB00008D0027012A1684605F02EFD694620692F
:100EC0001BF084F8A86A8047104D01462870401E28
:100ED00063280CD8606814F0DCF82A780CA1684606
:100EE00005F01AFD6946E0681BF070F87FBD002030
:100EF00028707FBD08010020600000203D03002015
:100F000025303264000000003C0300204103002033
:100F100025326425250000000421014800F0E8BEC8
:100F200000000240014800F0CBBB0000D40A0020C2
:100F3000014800F0C5BB0000C00B0020014800F0D4
:100F4000BFBB0000200C002001681823CAB2103A71
:100F5000B2FBF3F2054B6FF30901032A9B5CC365F7
:100F600000D9091D816508467047000070600408BB
:100F700010B5014600208B698A6A4FF0C07453B1E6
:100F8000B3F5005F15D072B1012A0CD0022A0AD045
:100F9000032A09D104E01AB1012A06D0022A03D19A
:100FA000C96AC90100D5012010BDC96AA142FAD0A1
:100FB00010BD002AF7D0012AF2D0022AF3D0032A6A
:100FC000F3D010BD30B50468256825F48025256070
:100FD000046863608368402B036803D099600068ED
:100FE000C26030BD9A600068C16030BD0EB5264E4B
:100FF000264C00258DF808500123002202A93068F4
:1010000022F0AAFF78BB94F835008DF80000204844
:101010000222102100788DF80100684604F0EBFDF3
:10102000002201A91B4801F077FB0322202168461A
:1010300004F0CCFD9DF800009DF80610884216D003
:1010400094F8300010B9A16C002088479DF8060084
:101050008DF800008DF802508DF8015003222021F8
:10106000684604F0C8FD642022F03AFFC2E7606CD5
:1010700080479DF806108DF800108DF80200000AD8
:101080008DF80100EAE70000540000206000002015
:10109000DC0100205C0A0020704708B50A200AF035
:1010A00015FC6A4602210020FFF7D2FD9DF80000E2
:1010B000552803D19DF80100AA2821D055208DF88C
:1010C0000000AA208DF801000A200AF0FFFB6A4602
:1010D00002210020FFF7C8FD002000900A200AF03E
:1010E000F5FB6A4602210020FFF7B2FD9DF80000E3
:1010F000552803D19DF80100AA2801D0012008BD80
:10110000002008BDFFF792BD10B5292000F00CF8B3
:101110004FF6FF7101EA0024282000F005F8204373
:1011200010BD0020AFF3008002462421014802F0E8
:10113000EFBF0000A00700200B4602462421014813
:1011400003F048B8A007002010B5052404E064208F
:1011500000F028FC641EE4B2FFF7E3FF362802D05B
:10116000002CF4D106E02CB100210120FFF7E4FFB0
:10117000002010BD012010BD10B5052404E064203E
:1011800000F010FC641EE4B2FFF7CBFF362802D05B
:10119000002CF4D106E02CB108210120FFF7CCFF90
:1011A000002010BD012010BD012000F0A5BC0000F2
:1011B0007CB50F4C0F4DB4F862005A3400EB800040
:1011C000400001B2A86819F075FD22890AA168469D
:1011D00005F0A2FB694628691AF0F8FE228807A1EB
:1011E000684605F099FB6946E8691AF0EFFE7CBD98
:1011F00060000020340100203A2564003A25646D27
:10120000000000007CB5104C104D002214F84D1F5A
:10121000686814F09AF961780022A86814F095F9CA
:1012200022780BA1684605F077FB6946E8681AF05A
:10123000CDFE627806A1684605F06EFB6946286916
:101240001AF0C4FE7CBD0000600000207402002083
:101250002564000072B6FEE72DE9F0411A4F002523
:1012600007F124003D803C4687F87450142106465F
:10127000FFF76DF815A0606314A0A06413A0E065EB
:1012800013A020670020A41C002104EBC00200BFB3
:1012900022F81150491CC9B20429F9D3401CC0B22C
:1012A0000428F1D3204608F0FBFE204608F0F8FEA3
:1012B000B91C30462DF080F8064831468068BDE8FC
:1012C000F04114F01DBD00005C0D00200A0000007C
:1012D000000000009C020020054900200A5C0AB1C1
:1012E00000207047401C80B21028F7D301207047BF
:1012F000D40D002010B500200F4A01461154401CA7
:10130000C0B21128FAD300201318401CC0B283F8D1
:1013100064101028F8D3FF2002F8740F10215070C9
:101320000822054813F01AF90349BDE8104001F1FD
:1013300014002DF01DB80000D40D002070B502205F
:1013400004F0F6FA0546012004F0F2FA0446002003
:1013500004F0EEFA44EA002145EA0120010201D539
:1013600040F07F4070BD70B5052004F0E1FA0546FD
:10137000042004F0DDFA0446032004F0D9FA44EA1C
:10138000002145EA0120010201D540F07F4070BDF7
:1013900078B50024009490F83C20012A19D001224D
:1013A00080F83C200A6807230568092A13D9EE68EB
:1013B0000A3A02EB420293409E43EE600B788A6841
:1013C0000A3B03EB43039A400368DD682A43DA6073
:1013D00010E0022078BD2E6902EB420293409E434A
:1013E0002E610B788A6803EB43039A4003681D69FA
:1013F0002A431A614A681F23072A13D205686E6BB5
:10140000521E02EB820293409E436E630A8893B29F
:101410000A79521E02EB820293400268556B2B43FD
:10142000536327E005680D2A12D22E6BD21F02EB00
:10143000820293409E432E630B790A88DB1F92B28F
:1014400003EB83039A4003681D6B2A431A6311E080
:10145000EE6A0D3A02EB820293409E43EE620B79F4
:101460000A880D3B92B203EB83039A400368DD6A5E
:101470002A43DA621B4B0568194A9D420AD10D685E
:10148000122D07D1556825F400055560556845F4BF
:101490008005556005689D421DD1134D0B68AB4218
:1014A00001D0112B17D1536823F480035360536884
:1014B00043F4000353600968A9420CD10B490C4A5C
:1014C0000968B1FBF2F101EB8101490000E0491E1E
:1014D00000910029FBD180F83C40002078BD00003D
:1014E0000023014000200140120000103C070020B2
:1014F00040420F0070B504004FF0000503D0206C8F
:10150000002610B107E0012070BD204600F01CF855
:10151000666484F83C60206CC00610D4206C20F413
:10152000885040F0020020642046FFF73BFA6664D2
:10153000206C20F0020040F00100206400E0012552
:1015400084F83C60284670BD10B586B0044614216E
:101550006846FEF7FCFE1149206888421CD11048FD
:101560000021026842F480720260006800F480701A
:1015700005900B481438026842F0010202600068CE
:1015800000F001000590022000900320CDE9010148
:101590006946044800F0BCFA06B010BD00200140C6
:1015A00044380240000002402DE9F0410446876DB6
:1015B00000F0B0FB064694F835000025022806D05E
:1015C0008020606584F834500120BDE8F0812068F7
:1015D000016821F0160101602068416921F0800155
:1015E0004161206C08B9A06C20B12068016821F02D
:1015F000080101602068016821F0010101600CE030
:1016000000F088FB801B052807D920206065032097
:1016100084F8350084F83450D7E720680068C007A4
:10162000EED194F85C103F208840B860012084F827
:10163000350084F834500020C7E790F835100229AF
:1016400003D08021416501207047052180F83510C5
:101650000068016821F0010101600020704770B549
:1016600004002BD094F83500022826D020680168A9
:1016700021F00101016020680025056020684560B7
:10168000206885602068C560206805612168212088
:1016900048612046FFF758FCE56325646564A5644E
:1016A000E564256594F85C203F2191408160656583
:1016B00084F8355084F83450002070BD012070BD8E
:1016C0002DE9F84304464FF00009CDF80090634837
:1016D0004FF41651A56D0068B0FBF1F72E6894F831
:1016E0005C10082000FA01F131420FD021680A682D
:1016F00052070BD50A6822F004020A6094F85C10C5
:101700008840A860606D40F00100606594F85C104E
:101710004FF0010808FA01F0304208D02168496909
:10172000090604D5A860606D40F00200606594F879
:101730005C1004208840304208D02168096889077D
:1017400004D5A860606D40F00400606594F85C10FA
:1017500010208840304218D021680968090714D544
:10176000A86020680168490304D50068000308D513
:10177000A16C07E00168C90503D4016821F00801E4
:101780000160216C09B12046884794F85C10202044
:101790008840304231D021680968C9062DD5A8603B
:1017A00094F8350005282068016806D0490347D51C
:1017B000006800031DD4616C1CE021F0160101607B
:1017C0002068416921F080014161206C08B9A06C5A
:1017D00020B12068016821F00801016094F85C10D4
:1017E0003F208840A86084F8358084F83490216DCB
:1017F0001FE0E16B09B120468847606D00282BD0BF
:10180000606DC00714D0052084F835002068016899
:1018100021F0010101600098401C0090B84203D8FB
:1018200020680068C007F6D184F8358084F83490C9
:10183000E16C002910D001B02046BDE8F043084714
:101840000168C905D5D4016821F01001016084F850
:10185000358084F83490CCE7BDE8F8833C0700205D
:101860002DE9F041044600F055FA06465CB102202D
:1018700084F83500002584F834502068016821F090
:10188000010101600DE00120BDE8F08100F042FAA5
:10189000801B052805D920206065032084F83500C9
:1018A000F2E720680068C007F0D12268116820487C
:1018B0000140D4E901031843D4E903363343184304
:1018C00063691843A3691843E3691843236A1843FB
:1018D0000843616A042903D1D4E90B13194308436F
:1018E000106020684069666A20F0070130460E43A8
:1018F000012704280CD1A06A0643E06A40B12046C3
:10190000FFF736FB20B14020606584F83570BAE7F8
:10191000206846612046FFF717FB94F85C203F21C2
:1019200091408160656584F835700020ACE7000067
:101930003F8010F02DE9F0410446866D90F83400A8
:10194000002501280DD0012084F8340094F835706A
:101950000020012F07D084F8340002252846BDE876
:10196000F0810220FBE7022784F83570606520468D
:10197000FFF728FB94F85C103F208840B060206897
:10198000016841F016010160206C20B120680168F7
:1019900041F0080101602068016841F00101016027
:1019A000DCE7000070B5044600F0B4F90546601CA1
:1019B00002D004480078044400F0ACF9401BA04277
:1019C000FAD370BD300700202DE9F04F0022DFF878
:1019D00008B101264FF00F0906FA02F401EA0403E8
:1019E000A34274D122F003075F44D7F80888950713
:1019F0004FEA157C09FA0CFA0AEA0805DFF8DC80E0
:101A0000404502D14FF000081DE0DFF8D48040458A
:101A100002D14FF0010816E0DFF8C880404502D13E
:101A20004FF002080FE0DFF8C080404502D14FF0D0
:101A3000030808E0DFF8B480404502D14FF0040805
:101A400001E04FF0070808FA0CF8A84522D1284D0C
:101A5000D5F800C02CEA030CC5F800C02D1DD5F840
:101A600000C02CEA030CC5F800C0214D0C35D5F898
:101A700000C02CEA030CC5F800C02D1FD5F800C02B
:101A80002CEA030CC5F800C0D7F8085825EA0A0567
:101A9000C7F80858056857000323BB409D430560FD
:101AA000D50800EB8505D5F820C057074FEAD76861
:101AB00009FA08F72CEA070CC5F820C0C5689D4351
:101AC000C5604568A543456084689C438460521C9A
:101AD000102A81D3BDE8F08F0030014000000240A1
:101AE0000004024000080240000C024000100240C6
:101AF000003C014070470000044910B50A680242EA
:101B000002D00860FFF7F6FF10BD0000143C014052
:101B10002DE9F84FDFF8B8A10022012403254FF08A
:101B20000F090AF1040BAAF1040E00BF0B6804FAB6
:101B300002F63340B34273D10F7907F00307012F48
:101B400001D0022F16D187684FEA420805FA08FC37
:101B500027EA0C07D1F80CC00CFA08FC4CEA070C79
:101B6000C0F808C04768B7430E79C6F30016964020
:101B70003E4346600E79F643B6070DD0C76856005F
:101B800005FA06FC27EA0C07D1F808C00CFA06FC97
:101B90004CEA070CC0F80CC00E7906F00306022EC2
:101BA00010D1D60800EB8608D8F8206057074FEA16
:101BB000D76C09FA0CF7BE430F6907FA0CF73743E5
:101BC000C8F8207006684FEA420C05FA0CF7BE43CD
:101BD0000F7907F0030707FA0CF7374307604E68E1
:101BE00016F4403F6DD03B4E376847F4804737606E
:101BF000366822F0030706F480460096364E07EB5F
:101C0000060CDCF8086897073F0F09FA07F826EA80
:101C10000806DFF8C880404503D14FF000081EE0F9
:101C20004FE0DFF8BC80404502D14FF0010816E0DC
:101C3000DFF8B080404502D14FF002080FE0DFF836
:101C4000A880404502D14FF0030808E0DFF89C80EF
:101C5000404502D14FF0040801E04FF0070808FAB0
:101C600007F848EA0608CCF80888DAF80060574612
:101C7000D1F804C09E435FEACC2C00D51E433E60E1
:101C8000DBF800605F46D1F804C09E435FEA8C2C0D
:101C900000D51E433E60DEF800607746D1F804C0F0
:101CA0009E435FEA8C3C00D51E433E60084F083FD0
:101CB0003E68D1F804C09E435FEACC3C00D51E4389
:101CC0003E60521C102AFFF431AFBDE8F88F0000CF
:101CD000083C01404438024000300140000002400E
:101CE0000004024000080240000C024000100240C4
:101CF0000069084000D001207047426921EA0203D0
:101D00000A4043EA0241816170470AB1816170472C
:101D10000904FBE701488068704700003007002095
:101D200002488168027811448160704730070020C2
:101D30000B4810B5016841F400710160016841F47D
:101D400080610160016841F480710160032000F04E
:101D5000A9F80F2000F006F800F04AF8002010BDA6
:101D6000003C024030B505461C4887B0002401689D
:101D700041F001010160006806A900F00100009037
:101D800001A800F001FA00F02FFA1549154AB0FB3E
:101D9000F1F11548491E026040F2E732C0E9032420
:101DA000C0E90114846101F069F8040012D10E4801
:101DB00001F092F804000DD1192000F046F8102D22
:101DC00007D200222946192000F04CF80748056088
:101DD00000E0012407B0204630BD00004438024036
:101DE00040420F00000001409C0C002034070020FE
:101DF0000C4882B0016841F480410160006800F441
:101E0000804000900748001F016841F08051016048
:101E10000068002200F0805000900F21901E02B058
:101E200000F020B84438024000280DDB00F01F020B
:101E3000012191404009800000F1E020C0F88011AC
:101E4000BFF34F8FBFF36F8F7047002809DB00F09F
:101E50001F02012191404009800000F1E020C0F8FC
:101E600000117047F0B40E4B1B680C46C3F30223FD
:101E7000C3F10705042D00D90425191D072901D236
:101E8000002300E0DB1E012606FA05F1491E214071
:101E900099409E40761E16403143F0BC04F063BD6D
:101EA0000CED00E0064900F0070208684FF6FF035A
:101EB000184040EA0220034A1043086070470000BF
:101EC0000CED00E00000FA050B4A136823F0030351
:101ED000034313600948026842F0040202600129CA
:101EE00007D040BF20BF20BF016821F0040101607E
:101EF000704730BFF8E700000070004010ED00E0D0
:101F00002DE9F843044600684FF00109C1074FF07E
:101F1000000601D1400729D5DFF82081C8F86860A4
:101F2000FFF7F8FE0746464D05E000BFFFF7F2FE5B
:101F3000C01B022859D828680001F7D4A068217B6B
:101F4000800140EA0170616808433D4984310860BE
:101F5000C8F86890FFF7DEFE074604E0FFF7DAFEF8
:101F6000C01B022841D828680001F7D520788007D7
:101F700052D533484030016841F08051016000681B
:101F8000304D00F080500090286840F48070286048
:101F9000FFF7C0FE074604E0FFF7BCFEC01B0228A7
:101FA00023D82868C005F7D5254D7035286810F46A
:101FB000407020D0218A01F4407181421BD02868F2
:101FC000214920F44070C1F800900E602860286814
:101FD000C00710D0FFF79EFE064641F2883707E0A3
:101FE000FFF798FE801BB84202D90320BDE8F883B2
:101FF00028688007F4D521691148C1F3012208300F
:10200000032A12D0016821F4F81101602868218A9E
:10201000C1F30B01084328602078000703D50B4962
:10202000207DC1F8E0010020E0E70268084B22F4BF
:10203000F81219400A430260E8E700000000474236
:102040000038024000700040400E474200104742F6
:10205000FFFCFF0F2DE9F0470E46050065D0DFF8C5
:102060001481D8F80000F7B200F00700B04207D2A0
:1020700088F80070D8F8000000F00700B04254D192
:1020800028683D4C810712D5400703D5206840F4ED
:10209000E05020602878000703D5206840F46040B5
:1020A00020602068A96820F0F000084320602878AC
:1020B000C0072DD0304968680839012812D002289D
:1020C00013D0032811D00968890700292DDA216867
:1020D00021F0030101432160FFF71CFE814641F21C
:1020E000883A0EE009688903EFE709688901ECE79F
:1020F000FFF710FEA0EB0901514502D90320BDE80E
:10210000F0872068696800F00C00B0EB810FEFD118
:10211000D8F80010404601F00701B14207D9077016
:10212000006800F00700B04201D00120E7E72878FE
:10213000400705D52068E96820F4E0500843206096
:102140002878000706D52068296920F4604040EA15
:10215000C100206000F058F82168084AC1F303115B
:10216000515CC8400649086006480068FFF7FAFD60
:102170000020C4E7003C02400838024078600408B0
:102180003C070020340700200F2202600C4A13682D
:1021900003F003034360136803F0F00383601368E4
:1021A00003F4E053C36012684FF4E05303EAD20231
:1021B00002610448006800F00700086070470000F2
:1021C00008380240003C024004480549006809689C
:1021D000044AC1F38221515CC84070473C0700208B
:1021E0000838024088600408044805490068096806
:1021F000044AC1F34231515CC84070473C0700209B
:102200000838024088600408154810B5006810F0CE
:102210000C02144813D01449042A0FD0082A0ED1F6
:102220000F4C241F2268236802F03F025B0207D58F
:102230002068C0F38810A0FB010106E0084610BD2D
:102240002168C1F38811A1FB00010023FEF722F8E9
:102250002168C1F30141491C4900B0FBF1F010BDF8
:10226000083802400024F40040787D012DE9F84F41
:1022700004006ED02078DFF84C93C007A9F1040564
:102280004AD009F104000168C1F38101012908D095
:102290000068C0F3810002280AD1D9F8000040028A
:1022A00006D52868800337D560680028E1D033E080
:1022B0006068B0F5803F10D0B0F5A02F286810D02E
:1022C00020F480302860286820F48020286060682E
:1022D000A8B1FFF71FFD06460DE0286840F48030E6
:1022E000F4E740F480202860F7E700BFFFF712FD15
:1022F000801B642873D828688003F7D50CE0FFF7AB
:1023000009FD064605E000BFFFF704FD801B6428B9
:10231000F0D828688003F7D42078DFF8AC828007F3
:102320004FF0000A3ED5A748001D016811F00C0FC0
:1023300008D00068C0F3810002280BD1D9F8000052
:10234000400207D42868800716D5E068012800D12C
:1023500012E033E1E068B8B10120C8F80000FFF7EF
:10236000D9FC064605E000BFFFF7D4FC801B02281D
:10237000C0D828688007F7D52868216920F0F800C0
:1023800040EAC10028600DE0C8F800A0FFF7C2FCD9
:10239000064604E0FFF7BEFC801B02281FD8286811
:1023A0008007F7D42078000722D5864F87486169D7
:1023B000703771B101210160FFF7ACFC064604E003
:1023C000FFF7A8FC801B022809D838688007F7D5DA
:1023D0000EE0C0F800A0FFF79DFC064605E082E095
:1023E000FFF798FC801B02287DD838688007F7D457
:1023F0002078400768D5DFF8CCB100270BF13C0B03
:10240000DBF80000C0000BD4DBF8001041F0805175
:10241000CBF80010DBF80000012700F0805000909E
:102420006B4E3068C00510D4306840F48070306066
:10243000FFF770FC009005E0FFF76CFC0099401A74
:10244000022850D83068C005F6D55E4EA0686C36BC
:1024500001280FD00528306810D020F0010030602E
:10246000306820F004003060A068B8B1FFF752FC7B
:1024700000900FE0306840F00100F4E740F0040005
:102480003060F7E7FFF746FC0099411A41F28830C7
:10249000814266D830688007F4D50EE0FFF73AFC39
:1024A000009007E0FFF736FC0099411A41F28830AE
:1024B000814256D830688007F4D42FB1DBF8001081
:1024C00021F08051CBF80010A069C8B33D49091D27
:1024D0000968C1F3810102294AD00228504607D079
:1024E000C8F8600000E03CE0FFF714FC04463BE065
:1024F0004746C8F86000FFF70DFC064605E000BF40
:10250000FFF708FC801B02282BD828688001F7D42D
:10251000D4E907010843A16A2E4A490802EB0141A8
:10252000626A41EA8211084394F82C1040EA016182
:10253000C9F8001001203866FFF7ECFB044606E0FE
:102540003EE000BFFFF7E6FB001B022809D8286821
:102550008001F7D534E000BFFFF7DCFB001B022849
:1025600002D90320BDE8F88F28688001F4D427E061
:102570000128F7D0D9F80000E26900F48001914207
:102580001CD1226A00F03F01914217D147F6C07179
:10259000626A0140B1EB821F10D1A26A4FF0FF3393
:1025A00000F4403103EB5202B1EB024F06D194F834
:1025B0002C1000F07060B0EB016F01D00120D1E76A
:1025C0000020CFE70438024000004742800E474217
:1025D000007000400000FFFF0068503050F82100FC
:1025E00070470068503040F8212070472DE9F847C7
:1025F0008A4639494FF4FA4C91460F684FF47A7283
:10260000B7FBFCF151430091017F012962D0012504
:102610000577022141770268CA215162026853217D
:10262000516201688A684FF0000352054FF0FF04C1
:102630004FF0030608D5009AB2F10108CDF80080EA
:1026400018D3CA685207F6D48A6822F480628A6076
:102650000168CA6802F0800262F49062CA60B7FB47
:10266000FCF14FF47A72514300910168009A571EB1
:10267000009705D24C62467703770320BDE8F887C0
:10268000CA685207F2D58A6822F007028A60016898
:102690008A6842EA09028A600268C2F814A00F49F7
:1026A0000A6842F480020A600C4908310A6842F460
:1026B00080020A6001688A6842F480428A60016888
:1026C0008A6842F480628A6001684C6245770377C9
:1026D0000020D3E70220D1E73C070020003C014066
:1026E0007047000010B504460068C068400509D571
:1026F0002046FFF7F5FF2068C16801F0800161F412
:102700009061C16003494FF4800008600120607748
:1027100010BD0000143C014010B500680B46416834
:102720000D480140080CD870C1F304245C7001F01E
:102730003F049C70C1F34231197052B902F056FF48
:10274000D870587802F052FF5870987802F04EFF17
:102750009870002010BD00003FFFFF0010B50B4631
:102760000168896A596001680969C1F30E019960BD
:10277000006801680D480140C1F305401870C1F3BD
:1027800006245C7001F07F049C70890DD97052B9E9
:1027900002F02CFF1870587802F028FF58709878D3
:1027A00002F024FF9870002010BD00007F7F7F00A2
:1027B00010B5040002D0607F10B106E0012010BD0A
:1027C00000202077204600F039F802206077216849
:1027D000CA204862216853204862204602F01CFF4C
:1027E00030BB20688168144A114081602168886884
:1027F00062681043D4E904231A43104388602168B7
:10280000E068086120680169228941EA02410161AA
:10281000204602F025FF58B921680A6C22F4802274
:102820000A6421680A6CA3691A430A64012161776A
:102830002268FF21516210BDBFFF8FFF10B586B027
:10284000044618216846FDF782FD0D49206888423C
:1028500014D102200090C00104906846FFF750FB9D
:1028600008B1FEF7F7FC07490120086000220521A6
:102870000320FFF7F7FA0320FFF7E7FA06B010BDD1
:10288000002800403C0E474270B50446007F0B46CE
:10289000012819D00126267702206077B2B19878F6
:1028A000D97840EA014558781978000240EA413069
:1028B00005432168CA2048622168532048622046A7
:1028C00002F0AAFED0B122E0022070BD5878C10605
:1028D00003D500F0EF000A305870D87802F08FFE70
:1028E0000204587802F08BFE42EA0022987802F047
:1028F00086FE0243187842EA4035DAE70748054089
:1029000020684560204602F0ABFE00B96677226879
:10291000FF2151620021217770BD00003FFFFF00C1
:102920002DE9F0410446007F0D46012823D04FF0E9
:10293000010884F81C8002206077206800278068E6
:102940004FEA4060D2B1002800DBEF70A878297808
:1029500040EA01466878E978000240EA815006437F
:102960002168CA204862216853204862204602F04C
:1029700053FEB8B12CE00220BDE8F081002800DB56
:10298000EF70287802F03BFE0204687802F037FE10
:1029900042EA0022A87802F032FE0243E87842EAD6
:1029A0008056DDE70D480640206806602068816893
:1029B00021F480218160D5E90301084321688A68F8
:1029C00010438860204602F04BFE08B984F81D8051
:1029D0002268FF2151622777CEE700007F7F7F00CA
:1029E00070B504460068C16821F0A001C160FFF71E
:1029F00091F905464FF47A7607E000BFFFF78AF9B0
:102A0000401BB04201D9032070BD2068C068800619
:102A1000F4D5002070BD704770B5040009D0606A1D
:102A2000002540B125616561A56294F8510040B16F
:102A30000CE0012070BD6068B0F5827FF4D0E561E4
:102A4000F2E784F85050204600F044F8022084F861
:102A500051002068016821F040010160A0882189AF
:102A600000F4827001F404410843A18901F400617B
:102A70000843217C01F002010843217D01F001019E
:102A80000843218B01F400710843217F01F03801D4
:102A9000084394F8201001F080010843218D01F4CF
:102AA0000051084321680860A069042101EA104030
:102AB00094F8241001F01001084321684860206850
:102AC000C16921F40061C1616565012084F851008C
:102AD000002070BD70B586B0064614216846FDF72B
:102AE00036FC2049306888423AD11F4800250168E9
:102AF00041F480510160006800F4805005901A484C
:102B00001438016841F0020101600068694600F074
:102B100002000590282000900220CDE90105032045
:102B20000390052004901148FEF7F2FF114C104865
:102B300020604FF0806060604020C4E90205000121
:102B40002061400060618000C4E9060525622046DE
:102B50006562FEF785FE08B1FEF77CFBB464A663F0
:102B600006B070BD0030014044380240000402400D
:102B700040640240D40A00202DE9F84F044690F842
:102B8000500000271D461646894601280DD04FF0FB
:102B9000010B84F850B0FFF7BDF8804694F851005F
:102BA000BA46012804D0022793E00220BDE8F88F3E
:102BB000B9F1000F73D0002E71D0032084F85100BA
:102BC000C4F854A0C4F83090A686E686C4F838A0AD
:102BD000A4F83CA0A4F83EA0C4F844A0C4F840A0C7
:102BE000A068B0F5004F09D12068016821F04001CC
:102BF00001602068016841F480410160206801683B
:102C0000490603D4016841F040010160E068B0F575
:102C1000006F606803D030B3012E24D041E008B1CA
:102C2000012E1CD1206B21680088C86006E0206856
:102C30008168890709D5216B0988C160206B801CD8
:102C40002063E08E401EE08609E0FFF763F8A0EB0A
:102C50000800A84202D3681C01D031E07DB3E08EA9
:102C60000028E4D120E0206B21680078087306E09A
:102C700020688168890709D5216B09780173206B69
:102C8000401C2063E08E401EE0860AE0FFF742F819
:102C9000A0EB0800A84203D3681C02D010E017E0A4
:102CA0006DB1E08E0028E3D142462946204602F06D
:102CB000B7FD08B120206065A06818B106E0FFE705
:102CC000032706E02068C16880680090606D00B14D
:102CD000012784F851B084F850A0384666E7000018
:102CE0002DE9F041044690F850000026012809D053
:102CF000012784F8507094F851000025012804D071
:102D000002264EE00220BDE8F08189B182B10320A5
:102D100084F8510065652163A286E286A563656437
:102D20002564A587E587A068B0F5004F02D00BE0C9
:102D3000012636E02068016821F04001016020682A
:102D4000016841F480410160A16C18480864A16CDD
:102D50001748C863A16C1748C864A06C0565E38E6A
:102D60002268216B0C32A06CFEF7E4FD38B1606D77
:102D700040F010006065012684F8517011E0206871
:102D80000168490603D4016841F0400101602068F0
:102D9000416841F0200141602068416841F0020132
:102DA000416084F850503046ADE70000B15700084C
:102DB000BB5700088F570008704770474FF0E0215D
:102DC0000428086903D020F004000861704740F02F
:102DD0000400FAE710B5401EB0F1807F01D3012056
:102DE00010BD4FF0E02460610F21601703F0BBFDC0
:102DF0000020A06107202061002010BD70477047AF
:102E000070B590F83C20012A2CD0012480F83C4079
:102E1000022280F83D2003685A689D6822F07006FF
:102E20000A6832435A60104B02689A420ED0B2F1DF
:102E3000804F0BD00D4B9A4208D00D4B9A4205D0D3
:102E40000C4B9A4202D00C4B9A4204D1496825F0AF
:102E500080031943916080F83D40002180F83C10C8
:102E6000084670BD022070BD000001400004004013
:102E700000080040000C00400040014010B5040074
:102E800003D094F83D0010B107E0012010BD0020F0
:102E900084F83C00204600F01EF8022084F83D0033
:102EA000211D206803F07AF8012084F8460084F898
:102EB0003E0084F83F0084F8400084F8410084F824
:102EC000420084F8430084F8440084F8450084F804
:102ED0003D00002010BD704790F83D10012901D041
:102EE00001207047022180F83D100168CA6842F055
:102EF0000102CA6000680E4988420ED0B0F1804FCE
:102F00000BD00C49884208D00B49884205D00B49A8
:102F1000884202D00A49884204D1816801F0070141
:102F2000062903D0016841F00101016000207047CB
:102F3000000001400004004000080040000C004078
:102F400000400140704770B50446006801694FF0C9
:102F50000005C943890715D4C168C943890711D43D
:102F6000E91E0161012020772068806980072046E2
:102F700002D0FFF7E7FF04E000F0C0F8204600F0C1
:102F800063F9257720680169C943490717D4C168E7
:102F9000C943490713D46FF004010161022020776F
:102FA0002068806910F4407F204602D0FFF7CAFFF6
:102FB00004E000F0A3F8204600F046F925772068E9
:102FC0000169C943090716D4C168C943090712D466
:102FD0006FF008010161042020772068C069800734
:102FE000204602D0FFF7AEFF04E000F087F820464D
:102FF00000F02AF9257720680169C943C90617D46A
:10300000C168C943C90613D46FF0100101610820DB
:1030100020772068C06910F4407F204602D0FFF777
:1030200091FF04E000F06AF8204600F00DF92577E2
:1030300020680169C943C90708D1C168C943C907E4
:1030400004D1891E0161204600F058F92068016909
:10305000C943090609D4C168C943090605D46FF0FC
:10306000800101612046FFF7C9FE20680169C9435C
:10307000490609D4C168C943490605D46FF0400127
:103080000161204600F044F920680169C9438906BE
:103090000BD4C168C943890607D46FF020010161D0
:1030A0002046BDE87040FFF7AABE70BD10B586B0DF
:1030B000044614216846FDF74AF92068B0F1804FB4
:1030C00016D10C480021026842F00102026000683B
:1030D00000F0010005904FF4004000900220CDE97F
:1030E00001010120CDE9031069460348FEF710FDF8
:1030F00006B010BD3038024000000240704770B585
:10310000044690F83C0000260D4601280FD001200F
:1031100084F83C006AB1042A1DD0082A2FD00C2A5A
:103120003FD00126002084F83C00304670BD0220CC
:1031300070BD206802F08CFF2068816941F00801B1
:1031400081612068816921F00401816120688169C1
:103150002A69114311E0206802F0A2FF206881690A
:1031600041F4006181612068816921F4806181619D
:10317000206881692A6941EA02218161D2E72068D9
:1031800002F0BAFF2068C16941F00801C1612068FE
:10319000C16921F00401C1612068C1692A69114334
:1031A00011E0206802F0D4FF2068C16941F4006199
:1031B000C1612068C16921F48061C1612068C16971
:1031C0002A6941EA0221C161ACE710B5040003D0CD
:1031D00094F83D0010B107E0012010BD002084F8F4
:1031E0003C00204600F01EF8022084F83D00211D1E
:1031F000206802F0D3FE012084F8460084F83E00E7
:1032000084F83F0084F8400084F8410084F84200CC
:1032100084F8430084F8440084F8450084F83D00B5
:10322000002010BD08B50068B0F1804F08D10548F6
:10323000016841F001010160006800F001000090A8
:1032400008BD0000403802407047000010B5044639
:10325000022249B104290ED0082913D094F8410064
:10326000012816D0012010BD94F83E000128F9D1A4
:1032700084F83E200FE094F83F000128F2D184F852
:103280003F2008E094F840000128EBD184F840206A
:1032900001E084F841200122206802F0CBFE1249AF
:1032A0002068884203D1426C42F4004242642068A4
:1032B00088420ED0B0F1804F0BD00C49884208D024
:1032C0000B49884205D00B49884202D00A498842FE
:1032D00004D1816801F00701062903D0016841F09B
:1032E00001010160002010BD000001400004004009
:1032F00000080040000C0040004001400068034905
:10330000884201D1FEF70CBD70470000000001406B
:103310007047704710B504460068406994F83D1046
:10332000C0F3C010212911D180B12068143050E8B9
:10333000001F21F0800140E80012002AF5D1606BE7
:1033400008B1FEF731F9204603F082F820684069A1
:1033500094F83E10C0F38010222911D180B120686A
:10336000143050E8001F21F0400140E80012002A0C
:10337000F5D1A06B08B1FEF717F9204603F041F82C
:10338000002010BD70470000F8B5016804460868C9
:10339000CA684B6910F00F0F4FF0000559D003F0C9
:1033A000010602F49077374365D0C10705D0D105F7
:1033B00003D5216C41F001012164410705D5D907EE
:1033C00003D0216C41F002012164810705D5D907A2
:1033D00003D0216C41F004012164010707D502F0FC
:1033E0002001314303D0216C41F008012164216C9C
:1033F00000293AD0800604D5900602D5204603F075
:1034000035F820684069216CC0F38010090700D4AA
:1034100060B3204602F0F5FF20684069400621D5E0
:103420002068143050E8001F21F0400140E80012ED
:10343000002AF5D1A06BA8B16C490165A06BFEF71D
:10344000FCF8002811D0A06B016D01B0BDE8F04080
:10345000084783060FD593060DD52046BDE8F840F2
:1034600003F004B82046FFF78DFFF8BD2046FFF7B4
:1034700089FF2564F8BD266B2023012E79D1C6066D
:1034800077D5D60675D50868486800904869400623
:1034900040D5A16B086840680004000CEAD0A28DFA
:1034A0008242E7D9E085C869B0F5807F2DD02068D9
:1034B0000C3050E8001F21F4807140E80012002A0F
:1034C000F5D12068143050E8001F21F0010140E8D8
:1034D0000012002AF5D12068143050E8001F21F0B6
:1034E000400140E80012002AF5D184F83E302563FF
:1034F00020680C3050E8001F21F0100140E8001255
:10350000002AF5D1A06BFEF74FF8A08DE18D401A8F
:1035100081B229E0A08DE18D401A81B2E08D0028B2
:10352000A8D00029A6D020680C3050E8002F22F443
:10353000907240E80026002EF5D12068143050E843
:10354000002F22F0010240E80026002EF5D184F879
:103550003E30256320680C3050E8002F22F0100226
:1035600040E80023002BF5D12046FFF7D2FEF8BD3E
:10357000FFE705062BD5150629D594F83D0021282F
:10358000F5D1A068B0F5805F01D12069B0B1206AA3
:10359000411C2162216800784860E08C401E0004D4
:1035A000000CE084E3D12068C16821F08001C16093
:1035B0002068C16841F04001C160D8E7206A0088F6
:1035C000C0F308004860206A801C2062E5E74006DE
:1035D000CDD55006CBD5CA68204622F04002CA603D
:1035E00084F83D3000F03DF9C1E700000D630008AC
:1035F00070B5040004D094F83D00002510B106E039
:10360000012070BD84F83C50204600F045F824208D
:1036100084F83D002068C16821F40051C160204653
:1036200002F084FF2068016921F490410161206863
:10363000416921F02A0141612068C16841F40051CB
:10364000C1602564202084F83D0084F83E000020FD
:1036500070BD000010B5044600680C49884214D1C2
:103660000B48016821F0100101604FF4C061094866
:10367000FEF7AAF9A06BFDF7F2FF606BFDF7EFFF15
:10368000BDE810402520FEF7CFBB10BD0010014063
:1036900044380240000002402DE9F04186B0064661
:1036A00014216846FCF753FE30493068884259D1EE
:1036B0002F480024016841F010010160006800F00B
:1036C000100005902A481438016841F0010101609A
:1036D0000068694600F0010005904FF4C06000905A
:1036E0000220CDE901040320039007200490214823
:1036F000FEF70EFA214D20484FF000672860C5E91B
:1037000001744FF48068C5E903486C61AC61EC61F9
:103710002C6228466C62FEF7A3F808B1FDF79AFD0B
:10372000B563AE63154D144860353030E5E80207E7
:103730004020A5E81101114845F814496030AC61FA
:10374000EC612C626C62FEF78BF808B1FDF782FD2C
:103750007563002205212520AE63FEF783FB25203B
:10376000FEF773FB06B0BDE8F081000000100140D9
:10377000443802400000024088640240C00B002030
:1037800090F83E30202B0ED159B152B190F83C3018
:10379000012B08D0012380F83C300023036302F0A2
:1037A0004BBF0120704702207047704770470000F0
:1037B0002DE9F843044690F83D001F4616460D4695
:1037C00020284CD1C5B1BEB194F83C00012846D0A8
:1037D000012084F83C004FF00008C4F8408021200C
:1037E00084F83D00FEF796FAA6848146E684A06838
:1037F000B0F5805F03D004E00120BDE8F8832069C4
:1038000028B12E465FF0000584F83C800EE00026CB
:10381000FAE78021204602F059FFA0B9AEB116F8B0
:10382000010B21684860E08C401EE084E08C4B4630
:103830004FF0000200970028EBD14FF040012046E6
:1038400002F044FF30B10320D7E735F8020BC0F394
:103850000800E6E7202084F83D000020CDE70220A4
:10386000CBE7704708B50020184E194FDFF8648089
:10387000194C8DF8000000BF01F018FE8068B042BE
:103880001FD1012300226946386820F0C3FBFDF7F1
:1038900073FC94F86C00A0B92BF0ACF8FDF734FC85
:1038A000D8F8001000F02EF8C5B22BF05BFE94F8AB
:1038B0006D00A84205D0322D03D9782D01D284F8AD
:1038C0006D50322020F00CFBD6E7000028040020C9
:1038D0004C0000205C000020600000201CB5064861
:1038E00006A190F86D20684603F016F80448694672
:1038F000406818F06BFB1CBD6000002025640000D0
:103900002804002070B504460D462B4810F061FADB
:1039100010B1294807F0FEFF2748203010F059FA6F
:1039200018B12548203007F0F5FF2348403010F04B
:1039300050FA18B12048403007F0ECFF21461E48ED
:103940000DF0D6FA1C48294620300DF0D1FA1A485D
:103950001A4CD0E9032191422CD38268914229D399
:103960004268914226D94269914223D382699142A9
:1039700020D3C06981421DD90F48A11C20300269A3
:103980000888131AB3F5D57F14D3488092B20A8001
:10399000101A4EF6602191FBF0F1074840300DF00F
:1039A000A7FA05484030C16921B10721001D00F088
:1039B00057FA2070207870BD4C0E0020AC07002014
:1039C0007047FF207047704770477047FF2070476F
:1039D000FF2070477047FF207047704700F0D4BE4B
:1039E00000207047FF2070474FF0FF30704770474E
:1039F00070470020704770477047000010B586B0D0
:103A000004001FD0002269460F48FEF7A7FE0022DF
:103A100005A90D48FEF780FE9DF81700E0709DF89F
:103A2000151061709DF81620A27014232BF0C4F8B5
:103A300020709DF8000020719DF8010060719DF8D4
:103A40000200A07106B010BD5C0A002001F01EBE8D
:103A500001F036BE10B5012901D0022903D1401E64
:103A60000C31C0B2C9B21A24491C11FB04F10A245A
:103A7000B1FBF4F100EB900000EB9300084410441C
:103A8000594200EB4100401E00E0C01D0028FCDB55
:103A9000072190FBF1F201FB120000B90720C0B230
:103AA00010BDFEE788B0DFF8FC81DFF8FC917F4CA9
:103AB0004FF4FA6A002500BF2AF09CFF002251460D
:103AC0007B48FEF793FD08B1FDF7C4FB1922794945
:103AD0007448FFF755FED8F80000C16841F01001A6
:103AE000C16000217448FFF7B1FB07F0D9FE206ADE
:103AF000804700F06DFC032606E0761E206DF6B2CE
:103B0000804784F84C001EB194F84C000028F4D192
:103B1000032606E0761E606EF6B2804784F86000E9
:103B200026B194F860000028F4D102E094F8600017
:103B300008B9A06E8047032606E0761EE06DF6B257
:103B4000804784F858001EB194F858000028F4D13A
:103B5000032606E0761EA06BF6B2804784F830009C
:103B60001EB194F830000028F4D1032606E0761E3A
:103B7000206FF6B2804784F86C0026B194F86C0090
:103B80000028F4D102E010F0FF0F01D1606F8047F0
:103B9000FDF7B8FAFDF781FA90BB022210216846C2
:103BA00002F014F89DF8000008B1012804D19DF836
:103BB000011031B1012904D084F8355089F8005042
:103BC00003E084F8350089F80010002201A9384884
:103BD000FEF7A2FD03222021684601F0F7FF9DF8C1
:103BE00000009DF8061088420AD19DF801009DF85A
:103BF000021041EA002094F8301009B907F0C5FE20
:103C000020698047A0698047FDF73CF8FDF7A0F8E0
:103C100000F0E4FC00214FF48C73F022084600957C
:103C200000F05BFC0A2007F051FE322000F0ACFDF2
:103C30001826CDE900564FF6FF773B461FA28C2190
:103C40004820029500F036FE042003460090022230
:103C50001DA103A802F060FECDE900563B4603AA71
:103C6000BC212220029500F025FE4FF47A7007F067
:103C70002DFEBD23F02274210020009500F02DFCC4
:103C800017F0D8FA1CF05AFC1CF07CFC2AF08EF9D4
:103C90002BF068FC00202AF0DFFD4FF4FA7020F0D2
:103CA0001FF909E77C0B0020DC01002060000020E8
:103CB0005C0A0020800C0020340B002057656C63E8
:103CC0006F6D6521000000004F562D5761746368C9
:103CD000205625642E25642E2564000070B586B01C
:103CE00001F0E4FB8068534988427DD1524D68461B
:103CF000296888474F4C9DF80520103C6078824227
:103D000008D062704DA102A802F006FE02A9E06987
:103D100018F05CF99DF804202078824208D02270C7
:103D200048A102A802F0F8FD02A9606918F04EF956
:103D3000404E9DF80230E0789C36834214D0E37008
:103D40009DF800002071A2783FA102A802F0E4FDD6
:103D500002A9E06A18F03AF9207906EB800050F8E1
:103D6000041C206B18F032F99DF80120A0788242E3
:103D700016D0A2709DF80230E3709DF8000020710B
:103D800031A102A802F0C8FD02A9E06A18F01EF9EC
:103D9000207906EB800050F8041C206B18F016F90F
:103DA000297F607981420CD06171206A11F071F92C
:103DB000627928A102A802F0AFFD02A9A06A18F05A
:103DC00005F96A8EA089824208D0A28123A102A8A7
:103DD00002F0A2FD02A9E06B18F0F8F895F94D1079
:103DE00094F90900814200E022E00DD06172606C1C
:103DF00011F04FF994F9092018A102A802F08CFDE6
:103E000002A9E06C18F0E2F895F94E1094F90A0056
:103E100081420DD0A172606D11F03BF994F90A2036
:103E20000EA102A802F078FD02A9A06D18F0CEF84C
:103E300006B070BD4C0300206000002025303264C5
:103E400000000000253264002532642D25303264E4
:103E500000000000253264252500000025640000D4
:103E600010B5002205E000BF50F82240521C234448
:103E7000D2B28A42F8D3B3FBF1F010BD10B586B0D0
:103E8000044614216846FCF762FA2089009001205C
:103E9000019002900220039069462068FDF738FEE9
:103EA0006089009069466068FDF732FE06B010BD7B
:103EB00070B506460824002501F036FC13E06806BC
:103EC000050E0021304601F01DFC022007F00BFD1D
:103ED0000121304601F016FC012007F004FD3046B8
:103EE00001F019FC0543641EE4B2E8D2002130461B
:103EF00001F008FC304601F035FC284670BD10B5D5
:103F00000446002101F025FC012007F0ECFC012112
:103F1000204601F0F7FB012007F0E5FC00212046D8
:103F200001F0F0FBBDE81040012007F0DCBC000010
:103F300070B50C460646082519E000BF01F0E2FB0B
:103F4000022007F0D0FC04F08001304601F001FCB3
:103F5000012007F0C8FC6006040E012007F0C3FC36
:103F60000121304601F0CEFB012007F0BCFC6D1EA4
:103F7000EDB24FF000013046E0D201F0C3FBBDE8E6
:103F80007040022007F0AFBC10B50446012101F0DB
:103F9000E0FB012007F0A7FC0121204601F0B2FB65
:103FA000012007F0A0FC0021204601F0ABFBBDE89A
:103FB0001040022007F097BC10B50446012101F023
:103FC000C8FB022007F08FFC0121204601F09AFB7C
:103FD000012007F088FC0021204601F0BAFB0120F7
:103FE00007F081FC0021204601F08CFBBDE8104069
:103FF000012007F078BC10B50446002101F082FBD7
:10400000022007F070FC0021204601F0A2FB0120F5
:1040100007F069FC0121204601F074FB012007F044
:1040200062FC0121204601F094FBBDE81040012014
:1040300007F059BC70B50546052401F075FB012158
:10404000284601F05FFB05E0641EA4B2012007F0E2
:104050004AFC84B1284601F05EFB0028F4D12846D2
:1040600001F080FB0021284601F04CFB022007F004
:104070003AFC002070BD284601F074FB2846FFF78B
:10408000BAFF012070BD00002DE9F0411D46174622
:104090000C468046069EFFF78FFF6006010E4046E5
:1040A000FFF746FF4046FFF7C5FF28B14046FFF740
:1040B000A2FF0120BDE8F08139464046FFF738FFF6
:1040C0004046FFF7B7FF4046FFF776FF012000EBC1
:1040D0004400C1B24046FFF72BFF4046FFF7AAFF5E
:1040E00000246F1E0AE000BFFFF7E2FE3055BC421D
:1040F00002DA4046FFF703FF641CE4B2AC424046DC
:10410000F2D3FFF741FF4046FFF775FF0020D1E7EC
:1041100070B516460C460546FFF74EFF6006010EC9
:104120002846FFF705FF2846FFF784FF314628465B
:10413000FFF7FEFE2846FFF77DFF2846FFF73CFF0E
:10414000012000EB4400C1B22846FFF7F1FE2846EB
:10415000FFF770FF2846FFF7ABFE04462846FFF73F
:1041600013FF2846FFF747FF204670BD2DE9F041B9
:104170001D4617460C468046069EFFF71DFF60064B
:10418000010E4046FFF7D4FE4046FFF753FF28B12B
:104190004046FFF730FF0120BDE8F0813946404638
:1041A000FFF7C6FE4046FFF745FF002408E0315DFB
:1041B0004046FFF7BDFE4046FFF73CFF641CE4B2FB
:1041C000AC42F4D34046FFF716FF012007F08BFB0B
:1041D0000020E1E72DE9F0411D4616460C46074652
:1041E000FFF7EAFE6006010E3846FFF7A1FE3846EB
:1041F000FFF720FF28B13846FFF7FDFE0120BDE89C
:10420000F08131463846FFF793FE3846FFF712FF3C
:1042100029463846FFF78CFE3846FFF70BFF384635
:10422000FFF7E9FE012007F05EFB0020E7E7000052
:104230001CB50024114D124E124FDFF84C808DF842
:1042400000408DF8044001230022694628681FF0D1
:1042500083FE10B9052000F097FA0123002201A97E
:1042600030681FF079FE20B93C8098F8000000F01B
:104270008BFA0A201FF034FEE5E70000440000201E
:104280004C000020580000204203002038B5154C97
:10429000154900252088401C80B22080097801EB58
:1042A0008101B0EB410F08D110488DF80050012377
:1042B0000022694600681FF0ADFE0D482188007895
:1042C00000EB8000B1EB400F0AD101208DF8000017
:1042D0000346084825800022694600681FF09AFEC0
:1042E00038BD000058000020B80500204400002020
:1042F000B9050020480000202DE9F0410025124CAE
:10430000124F012608B1267001E0207820B101216A
:104310003846FDF7EDFC58B103201FF0E1FD012107
:104320003846FDF7E5FC00B126702846BDE8F0816F
:1043300003201FF0D5FD01213846FDF7D9FC0028E8
:10434000F3D101252070F0E79C0700200000024017
:104350000EB500201A4FDFF86C801B4C1B4D8DF8FA
:1043600000008DF808008DF8040001264FF00209C6
:104370000020FFF7C1FF012802D002281CD102E073
:104380008DF800600CE001F091F88068B84205D12A
:104390000123002202A9D8F800000BE08DF800905C
:1043A00001230022694620681FF034FE0123002209
:1043B00001A928681FF02EFE01201FF091FDD7E70C
:1043C0004C03002048000020400000204C0000204A
:1043D00000B587B014216846FBF7B9FF0E480168A5
:1043E00041F00101016000684FF4041100F0010088
:1043F00005900120CDE90001029069460748FDF7CC
:1044000087FB002211460620FDF72CFD0620FDF754
:104410001CFD07B000BD0000303802400000024023
:104420002DE9F04104461D4616460F462A2000F0AD
:104430006FFA204600F05CFA304600F059FA2B2063
:1044400000F066FA384600F053FA284600F050FAB9
:10445000BDE8F0412C2000F05BBA000002490020CA
:104460000968486370470000340B002070B55D1A7E
:10447000141A641C6D1C143314316C439BB289B242
:10448000049EFFF7CDFF0D4D4FF40060E8602868F3
:10449000016841F400610160A2B231462846FEF78E
:1044A0001FFC0748006841680029FCD10020E86033
:1044B0002868016821F40061016070BD7C0A002059
:1044C000D40A002010B514460B460246FFF7A8FF99
:1044D0002046BDE8104000F00BBA2DE9F0478046B9
:1044E0001F4603F1130083B21646501E82B20C46DB
:1044F00001F1140081B24046DDF82090FFF790FFF3
:104500000AE0454604E0484600F0F2F96D1CADB201
:10451000B542F8D3641CA4B2BC42F2D3BDE8F08724
:10452000F0B587B014216846FBF711FF27480168F2
:1045300041F004010160016801F004010591016886
:1045400041F002010160016801F00201059101687A
:1045500041F008010160016801F00801059101685E
:1045600041F0010101600068012400F001000590A4
:104570001020CDE90004164E032569460395304608
:10458000FDF7C6FA012210213046FDF7BEFB2603D7
:10459000104FCDE90064694638460395FDF7B8FA37
:1045A000012231463846FDF7B0FB0420CDE9000476
:1045B000094C694603952046FDF7AAFA0122042119
:1045C0002046FDF7A2FB07B0F0BD000030380240E6
:1045D0000004024000080240000C024010B5FFF742
:1045E0009FFF002204216648FDF78FFB654C0022E7
:1045F00010212046FDF789FB642007F067F90122AE
:1046000010212046FDF781FB642007F05FF911209F
:1046100000F07EF9782007F059F9362000F078F99B
:10462000C02000F08BF93A2000F072F9052000F06C
:1046300085F9B22000F06CF90C2000F07FF90C2015
:1046400000F07CF9002000F079F9332000F076F9D1
:10465000332000F073F9B72000F05AF9352000F04C
:104660006DF9BB2000F054F9192000F067F9C02063
:1046700000F04EF92C2000F061F9C22000F048F95A
:10468000012000F05BF9C32000F042F9122000F095
:1046900055F9C42000F03CF9202000F04FF9C62065
:1046A00000F036F90F2000F049F9D02000F030F981
:1046B000A42000F043F9A12000F040F9E02000F030
:1046C00027F9D02000F03AF9042000F037F90D2046
:1046D00000F034F9112000F031F9132000F02EF928
:1046E0002B2000F02BF93F2000F028F9542000F097
:1046F00025F94C2000F022F9182000F01FF90D20B8
:1047000000F01CF90B2000F019F91F2000F016F939
:10471000232000F013F9E12000F0FAF8D02000F097
:104720000DF9042000F00AF90C2000F007F911201F
:1047300000F004F9132000F001F92C2000F0FEF83D
:104740003F2000F0FBF8442000F0F8F8512000F082
:10475000F5F82F2000F0F2F81F2000F0EFF81F20EE
:1047600000F0ECF8202000F0E9F8232000F0E6F853
:10477000212000F0CDF8BDE81040292000F0C8B895
:10478000000C024000040240411F5F2909D84FF489
:10479000967110FB01F06421B0FBF1F0014909684A
:1047A00048637047340B00202DE9FF4F81B0044669
:1047B000DDF83C9000904FEA59074FF00008780769
:1047C00000D0012000EBD70000FB09FB203AD0B25B
:1047D0000390029802994844401E83B2E019401E9B
:1047E00082B22046FFF71CFE002553E0B9F10C0F02
:1047F0002AD0B9F1100F2ED0B9F1180F2ED0B9F17F
:10480000200F49D12749039801EB8010002610F8AA
:1048100005A0109800284FF0010000FA06F000EA09
:104820000A0022D020B12046049A0299FFF74AFEDE
:10483000641C0098A4B2201AB84225D10298009CAA
:10484000401C80B2029023E00398174900EB40001F
:1048500001EB8000DAE71549039803E00398144957
:1048600000EB400001EB0010D0E708B1049800E035
:104870000E9800F03DF808F10100C0B2B0FBF7F16E
:10488000804607FB118050B1761CF6B2082EC0D3CB
:104890006D1CADB25D45A9D305B0BDE8F08F4FF0FA
:1048A0000008F5E7C47C0408906004080465040867
:1048B000F46A04082DE9FE4F9946DDE90D671446B8
:1048C0008A460546DDF830800CE0CDF800804B4686
:1048D00051462846CDE90167FFF766FF05EB560014
:1048E00085B2641C2278002AEFD1BDE8FE8F00005B
:1048F00008B5010A8DF800108DF80100012302228D
:1049000069460248FEF738F908BD00007C0A00201D
:1049100070B5094D06464FF48054002221462846C2
:10492000FDF7F3F9304600F009F821462846BDE8C6
:1049300070400122FDF7E9B90008024001B50123EA
:104940001A4669460148FEF717F908BD7C0A00209F
:1049500010B50321022000F06BF80F21BDE81040D4
:10496000202000F065B810B50021022000F060F8AA
:104970002F21BDE81040202000F05AB87CB5144625
:104980000D4606466A460621282000F035F89DF8B7
:1049900001009DF8003043EA002333809DF80300B6
:1049A00001029DF80200084328809DF805000102DD
:1049B0009DF80400084320807CBD7CB514460D465C
:1049C00006466A460621032000F016F89DF800000E
:1049D0009DF8013043EA002333809DF80200010274
:1049E0009DF80300084320809DF8040001029DF813
:1049F0000500084328807CBD2DE9F04190460E4615
:104A00000546192801D9192700E01E27002409E0CE
:104A10002819C2B239460548FFF77AFB08F80400A6
:104A2000641CE4B2B442F3D3BDE8F0816007002017
:104A30000B46192801D9192100E01E210246014820
:104A4000FFF7C8BB6007002038B50E4C0EA16846C2
:104A5000627801F061FF6946206A17F0B7FAA27820
:104A600009A1684601F058FF6946A06A17F0AEFA3E
:104A7000E27805A1684601F04FFF6946206B17F008
:104A8000A5FA38BD80060020253032640000000001
:104A900008B500200A4C8DF800004FF47A7500200C
:104AA00011F09AFFA84205D200231A466946206CED
:104AB0001FF0B0FA1DF062FF01201FF011FAEEE7BF
:104AC0000C00002008B501261B4FDFF87090DFF8BE
:104AD00070A0DFF870801C4C00254FF4967B00BF5F
:104AE00094F8350018B300F001F910B184F834607F
:104AF0001DE094F83400012817D184F8345000F0F8
:104B0000D5FC8068B84209D000F0D0FC81684945E6
:104B100004D000F0CBFC8168514506D1012300226E
:104B20006946D8F800001FF075FA84F834505846EA
:104B30001FF0D6F9D4E700004C0300206C040020DD
:104B4000F805002048000020600000207CB51446D5
:104B50000D4606466B4606223B21682000F048F8C9
:104B600000280BD1BDF8001049BA3180BDF8021001
:104B700049BA2980BDF8041049BA21807CBD3EB5F0
:104B80000C46054601AA694602A8FFF7DFFFBDF8FB
:104B9000000010FB00F1BDF8040010FB001000EE57
:104BA000100AB8EEC00A02F097FDBDF90800F0EE59
:104BB000400A00EE100AB8EEC01A81EE200A02F098
:104BC00039F8B1EE400A84ED000ABDF9000000EEAC
:104BD000100ABDF90400F8EEC00A00EE100AB8EEA3
:104BE000C01A80EE810A02F025F885ED000A3EBD6C
:104BF0002DE9F04106461D4614460F462048FFF7B2
:104C0000DBF97006010E1E48FFF792F91C48FFF70A
:104C100011FA28B11A48FFF7EEF90120BDE8F0813A
:104C200039461748FFF784F91548FFF703FA144887
:104C3000FFF7C2F9012000EB4600C1B21048FFF7B0
:104C400077F90F48FFF7F6F90BE00D48012C0FD06C
:104C5000FFF72EF928700A48FFF751F9641EE4B2F5
:104C60006D1C002CF1D10648FFF7C5F90020D5E7EF
:104C7000FFF71EF928700248FFF786F9EEE70000FB
:104C80006C0700202DE9F04104461E4615460F46EC
:104C90001548FFF791F96006010E1348FFF748F930
:104CA0001148FFF7C7F980B939460F48FFF740F9B7
:104CB0000D48FFF7BFF900240FE0315D0A48FFF708
:104CC00037F90948FFF7B6F928B10748FFF793F914
:104CD0000120BDE8F081641CE4B2AC42EDD302488F
:104CE000FFF789F90020F4E76C0700201CB501A943
:104CF0006846FFF744FF00984FF07C5188420ADC79
:104D00004FF03F42904206D80198884203DC90421F
:104D100001D801201CBD00201CBD00007FB500246F
:104D200015480094019402941249039401604FF4D1
:104D30008031C0E901140461047680F820400F49F5
:104D4000C0E90A140125C561C46080F8304045619E
:104D5000FCF7D0FB08B1FCF77DFA0095CDE90154D2
:104D600069460548FCF714FB002801D0FCF772FAED
:104D70007FBD000000200140140A00200100000F48
:104D8000114808B5016841F4800101600068002203
:104D900000F48000009005213A20FDF763F83A20E6
:104DA000FDF753F8002205214420FDF75BF844206D
:104DB000FDF74BF8002205214620FDF753F8BDE82A
:104DC00008404620FDF741B83038024010B501F0E8
:104DD000DBFC044A002104481FF050F90349086035
:104DE00010BD00008CF702087D5C00080000002068
:104DF00070B5194886B00024016841F004010160D3
:104E0000016801F004010591016841F001010160B0
:104E1000016801F001010591016841F002010160A2
:104E20000068142100F0020005906846FBF78FFA35
:104E30000A4E4FF40055002229463046FCF765FF24
:104E400001200095CDE90104694630460394FCF742
:104E50005FFE06B070BD000030380240000802401E
:104E600030B587B014216846FBF771FA2948002451
:104E700027490594C0E900147F218160FF21C0E922
:104E8000031444618461FDF793FC08B1FCF7E2F977
:104E900000212048FDF7A0FB45F25005A84234D080
:104EA00011208DF8000059208DF8010055208DF853
:104EB000020003940122694616480494FDF730FD70
:104EC00008B1FCF7C7F907208DF8140005208DF80C
:104ED000150021208DF8160023208DF817000122DF
:104EE00005A90C48FDF7D0FC08B1FCF7B3F9002286
:104EF0004FF4FA610748FDF779FB08B1FCF7AAF90E
:104F00002A4600210348FDF76CFB07B030BD0000C6
:104F1000002800405C0A0020104810B50E490160CE
:104F20004FF482714160002102228160C0E90312C6
:104F3000012242615202C0E906210162416281629E
:104F40000A21C162FDF768FD002803D0BDE81040CA
:104F5000FCF780B910BD0000003001407C0A002041
:104F600010B58AB0002407941C2168460894FBF70A
:104F7000EEF916484FF0804101606321C0E9011449
:104F80004FF49671C0E903148461FEF71EF908B16D
:104F9000FCF760F9079407A90C480894FDF730FF67
:104FA00008B1FCF757F96020CDE900040294002213
:104FB000694606480494FEF7A2F808B1FCF74AF9DE
:104FC0000248FEF773F80AB010BD0000340B002051
:104FD0000C4810B50A4901604FF4E13141600021ED
:104FE00081600C22C160C0E904128161C161FEF7D9
:104FF000FFFA002803D0BDE81040FCF72BB910BD24
:10500000001001407C0B0020FEE7000086B04A4EF5
:1050100000254FF47A77307800287DD047483570E6
:105020008DF804500123002201A900681EF0F2FF50
:10503000434944A001F060FC45A14148FBF799F9C0
:1050400078B144A13E48FBF794F970B144A13C48C3
:10505000FBF78FF980B13A48FBF784F9142847D061
:1050600058E041A001F048FC54E004231A46022114
:105070003FA001F041FC4DE0424C0022211D42487E
:10508000FDF76CFB002221463F48FDF745FB3F48FA
:1050900090F84E10217690F84D10617690F86D10D2
:1050A000A17690F86E10E176408EA083A2786178A8
:1050B00037A001F021FCA3796279217938A001F0B1
:1050C0001BFC94F918103CA001F016FC94F919107F
:1050D0003DA001F011FCA17E40A001F00DFCE17E9D
:1050E00043A001F009FCA18B44A001F005FC11E0F4
:1050F0000295039502A91248049500F069FE434801
:10510000007838B142A102A8FBF733F910B90C4876
:1051100001F084F8192100E002E00948FBF717F9D3
:10512000002029F047FA01463BA001F0E5FB384694
:105130001EF0D6FE6FE70000040000204C000020A7
:10514000800C00205265635374723A25730D0A0077
:105150004F5600004F562B56455253494F4E0000B4
:105160004F562B53454E44004F4B0D0A0000000094
:1051700056455253494F4E3D5625642E25642E25E3
:10518000640D0A00E40C00205C0A0020600000208E
:10519000646174613A2532642D253032640D0A0051
:1051A00074696D653A253032643A253032643A25A7
:1051B0003032640D0A00000068756D6964697479A5
:1051C0003A256425250D0A0074656D706572617459
:1051D0007572653A25640D0A000000004865617229
:1051E0007420526174653A256425250D0A0000007B
:1051F00053504F323A256425250D0A0053746570CB
:1052000020746F6461793A25640D0A00DC01002086
:105210004F562B53540000004D65737361676553FF
:10522000656E645461736B207265737420776F725E
:1052300064733A25640D0A00FEE700B5034602E0F8
:10524000184600F007F8184600F021F80028F7D0BB
:1052500000BD0000017D49B100EB8102491E9FEDB8
:10526000040A017582ED000A00207047FF20704794
:1052700000000000017D042907D000EB8102491CD9
:10528000017582ED000A00207047FF207047007D05
:1052900008B100207047012070472DE9FF4F81B011
:1052A00006460F460398FFF7C8FF049800F0B9FDC3
:1052B0000020824660F30704009030786AF3070507
:1052C0004FF0010BA0463038A9466BF307080A28B7
:1052D00003D3012005B0BDE8F08F0025F2EE041ADB
:1052E00091E0725D2E2A08D1032060F3070418F0C4
:1052F000FF0F01D00220EDE7A046A2F130000928FF
:1053000047D80399097D052903D8049A5279052ABB
:1053100001D90320DEE700EE100A48466AF30700D1
:10532000B8EEC00A81466AF3070418F0FF00F0EEF9
:10533000400A02D0032827D022E0009818B1401C70
:10534000C0B200900DE00398F0EE400A00EB81003F
:1053500010ED011A41EE210A0DE080EEA10AF0EEF7
:10536000400A401EC0B2F8D2039800EB810010ED55
:10537000010A70EE800A0398FFF76CFFB0EE600A36
:105380000398FFF777FF3CE0C0EE210A0120009070
:10539000EAE72B2A05D02D2A03D02A2A01D02F2A6A
:1053A00030D10398007D052803D80498407905285A
:1053B00001D904208EE7484662F3070081460020A9
:1053C000009008F0FF006BF30704012804D0049854
:1053D00000F047FD10B110E005207BE7049841790B
:1053E000401E085C114600F042FD30B1DDE90301CA
:1053F000FBF7CCFC09F0FF0100E01146049800F037
:1054000026FDA0466D1CBD42FFF66BAF002061E794
:1054100038B5114C207E002813D020461EF0C9FE5E
:10542000207E012570B104EB800050F8044C206808
:1054300080470095A06800236422006806211BF0C5
:105440006DFD38BD054904481EF0C1FE04490248FF
:105450001EF0BDFE024CEAE71C0D002010040020E7
:105460005C04002038B5104C207E00281BD002E0E0
:105470000D481EF09EFE207E0128F9D8C0B204EB34
:10548000800050F8040C0068804701200090207EC6
:10549000002304EB8000642250F8040C062180688D
:1054A00000681BF03BFD38BD1C0D00200448017E48
:1054B00021B100EB810050F8040C704700207047C8
:1054C0001C0D002038B50E490446087E052815D26B
:1054D00028B101EB800050F8040C40688047214659
:1054E00007481EF074FE2068804701200090A068E5
:1054F00000236422006806211BF010FD38BD000067
:105500001C0D0020084910B5002008760749064800
:105510001EF05DFE054C20688047A0680068BDE86D
:10552000104011F0BBBA00001C0D00201004002038
:10553000002208210148FCF7E8BB000000000240FF
:1055400010B52DED028BFBF70EFF00EE100ADFED1C
:10555000240AB8EEC00A20EE208AFBF7EFFE00EE28
:10556000100A9FED201A2048B8EEC00AB0F90810C2
:10557000C0EE010A00EE101AB0F90C1001EE101A7C
:10558000B8EEC00AB0F90410B8EEC11A00EE810AF4
:1055900090ED051A28EE202AB8EEC11A00EE801A06
:1055A00090ED040AB8EEC00A00EE810A01EE101A6E
:1055B000B0F90610B0F90A00B8EEC11A01EE900A6F
:1055C00008EE010A01EE101AF8EEE11ABDEC028BAA
:1055D000B8EEC11A00EEA11A02EE010A10BD0000D9
:1055E000000000360000C04978070020010901EBE7
:1055F000810100F00F0000EB4100C0B270470021B4
:1056000003E0491C0A38C9B2C0B20A28F9D2090716
:1056100040EA1160704700002DE9F041044600683F
:105620000025C168490618D4C16841F08001C160F5
:10563000FCF770FB06464FF47A78042707E000BFBA
:10564000FCF768FB801B404501D96777012520687E
:10565000C068400601D4002DF2D02846BDE8F08194
:1056600070B5044600680025C16821F08001C16062
:1056700020688068800606D42046FDF7B1F910B195
:10568000042060770125284670BD000008B500237E
:1056900000938DF802208DF801108DF8030014237B
:1056A00029F08AFA8DF80000002269460348FDF7C8
:1056B000EBF8002801D0FBF7CDFD08BD5C0A002007
:1056C00070B586B00D460646144614216846FAF7B2
:1056D0003EFE8DF800608DF801508DF802400022EA
:1056E00069460448FDF71CF9002801D0FBF7B2FD1C
:1056F00006B070BD5C0A00200148FCF7F3BF000053
:105700005C0A00204289406811B18169114300E0C0
:1057100011048161704710B501890068FCF7E8FA4F
:10572000012800D0002010BD10B586B00446142119
:105730006846FAF70CFE20890090002001900120B5
:1057400002900220039069462068FCF7E1F906B058
:1057500010BD0289006811B18169114300E0110494
:105760008161704710B586B0044614216846FAF787
:10577000EEFD20890090112001900020029002206F
:10578000039069462068FCF7C3F906B010BD10B558
:10579000806B01684A6822F003024A60416D41F063
:1057A00010014165012180F85110FDF734F910BD59
:1057B00010B5806BFDF701FB10BD38B50546846B55
:1057C000FCF7A8FA024628680068C00523D42068C0
:1057D000416821F0200141602068416821F0020108
:1057E00041606421204600F01BF818B1606D40F064
:1057F00020006065A068002118B92068C268806830
:105800000090E186012084F85100606D18B12046B7
:10581000FDF701F938BD2046FDF7CEFA38BD00008E
:1058200038B504461248134B0068B0FBF3F04FF450
:105830007A73584300906068B0F5827F0DD10B46B3
:10584000009200228021204600F016F870B1606DB1
:1058500040F020006065032038BD009830B1401E44
:10586000009020688068C0430006F6D5002038BD4F
:105870003C07002000366E012DE9F8431E46914694
:1058800088460446089DFCF745FA401B351AFCF78C
:1058900041FA074625480068C0F3CB30684338E03A
:1058A000701C37D0FCF736FAC01BA84203D215B1E2
:1058B000009860B32CE02068416821F0E00141606D
:1058C0006068B0F5827F0BD1A068B0F5004F02D0C0
:1058D000B0F5806F04D12068016821F040010160BB
:1058E000A06AB0F5005F09D12068016821F4005179
:1058F00001602068016841F400510160012084F8D2
:105900005100002084F850000320BDE8F8830025F2
:10591000401E00902068816838EA010004D0002110
:105920004945BDD10020F0E70121F9E73C070020FF
:10593000024676210148FEF7EBBB000090070020ED
:105940001CB5064806A190F86E20684600F0E4FFFA
:1059500004486946406816F039FB1CBD6000002011
:10596000256400005C06002008B50020124D134C91
:105970008DF8000000231A46694628681EF0ECFAEC
:1059800090B99DF80000012802D0022810D00BE049
:10599000FFF73EFDFFF78AFD8068A04204D100BFFB
:1059A000FBF7D2FBFEF7D4FF0A201EF099FAE1E7DD
:1059B000FFF758FDF4E70000400000206C040020D1
:1059C0008AB04FF00008754E754FDFF8D891DFF8B8
:1059D000D8A1DFF8D8B1764D764C8DF82080002321
:1059E0001A4609A930681EF0B7FAE8BBA06A8047DA
:1059F0002077401E632801D984F81C8094F8300079
:105A000010B9606C8047608694F84C0020BB626DD2
:105A100002A901A890479DED020A10EE100A484520
:105A20001AD210EE100A504516DADDED010AF5EE35
:105A3000C00AF1EE10FA0FDD10EE900A58450BDAAD
:105A4000FCEEE00ABCEEC00A10EE900A84F84E00AC
:105A500010EE100A84F84D0003208DF80000012399
:105A600000226946544800E002E000681EF0D2FAC5
:105A7000FFF71CFD8068B84206D10123002208A967
:105A800028681EF0C7FA83E0FFF710FD80684B49D5
:105A900088422ED10123002208A928681EF0BAFAF4
:105AA00094F84C0020BB626D01A9684690479DEDBB
:105AB000010A10EE100A48456AD210EE100A50454D
:105AC00066DADDED000AF5EEC00AF1EE10FA5FDDF0
:105AD00010EE900A58455BDABDEEC00A10EE100ACF
