:020000040800F2
:10000000803801209502000835290008531F000898
:100010003329000881100008012D000800000000AD
:10002000000000000000000000000000D52A0008C9
:10003000F91100080000000037290008D72A00083D
:10004000AF020008AF020008AF020008AF020008CC
:10005000AF020008AF020008AF020008AF020008BC
:10006000AF020008AF020008AF020008AF020008AC
:10007000AF020008AF020008AF020008AF0200089C
:10008000AF020008AF020008AF0200080000000045
:10009000000000000000000000000000AF020008A7
:1000A000AF020008AF020008AF020008AF0200086C
:1000B000AF020008AF020008AF020008AF0200085C
:1000C000AF020008AF020008AF020008AF0200084C
:1000D000AF020008AF020008AF02000800000000F5
:1000E000AF020008AF020008AF02000800000000E5
:1000F000000000000000000000000000AF02000847
:1001000000000000AF020008AF020008AF020008C4
:1001100000000000000000000000000000000000DF
:10012000AF020008AF020008AF020008AF020008EB
:10013000AF02000800000000000000000000000006
:10014000000000000000000000000000AF020008F6
:10015000AF020008AF020008AF020008AF020008BB
:10016000AF020008AF02000800000000000000001D
:10017000000000000000000000000000000000007F
:1001800000000000AF0200080000000000000000B6
:10019000AF020008AF02000800F002F800F06BF8B0
:1001A0000AA090E8000C82448344AAF10107DA45D2
:1001B00001D100F060F8AFF2090EBAE80F0013F0B9
:1001C000010F18BFFB1A43F00103184790B5010057
:1001D000B0B501000A444FF0000C10F8013B13F0D9
:1001E000070408BF10F8014B1D1108BF10F8015B90
:1001F000641E05D010F8016B641E01F8016BF9D183
:1002000013F0080F1EBF10F8014BAD1C0C1B09D1D9
:100210006D1E58BF01F801CBFAD505E014F8016B4B
:1002200001F8016B6D1EF9D59142D6D370470000DD
:100230000023002400250026103A28BF78C1FBD8EF
:10024000520728BF30C148BF0B607047642900F0D7
:100250006381002070471FB506F0E5FE9DE80300AE
:1002600000F004FB00F0A9F900F0BEFC1FBD10B5C2
:1002700000F023FD10BD00F068FE1146FFF7EBFF14
:1002800005F0FAFD00F086FE03B4FFF7F0FF03BCB3
:1002900000F0D0FE0948804709480047FEE7FEE726
:1002A000FEE7FEE7FEE7FEE7FEE7FEE7FEE7FEE726
:1002B00004480549054A064B704700006D2B0008AD
:1002C000990100088022012080380120802A012025
:1002D000802A012070B5064600F0ACFA056806F1E8
:1002E0000B0020F00704B4429CBF002070BD2B46D9
:1002F0006A68BAB11068A04210D304F108018842BC
:100300003CBF5068586007D35168101941601168AC
:10031000091B016058601460101D70BD13465268BF
:10032000002AE7D12146284600F08CFA0028DED1C9
:1003300070BD70B50446051F00F07CFA0068002C03
:1003400014BF446870BD002C18BFAC423CBF2046AF
:100350006468F8D301680A18AA4218BF456003D13F
:100360002A6805461144016028684119A1421CBF52
:100370006C6070BD6168696021680844286070BD68
:1003800053EA020C00F069802DE9F04B4FF00006B3
:10039000002B1FBFB3FA83F503FA05F424FA05F620
:1003A0005E4012BF1643B2FA82F502FA05F4C5F1B7
:1003B00020051EBF22FA05FC44EA0C04203556EA4B
:1003C000044C4FEA144418BF641C4FF000084FF06F
:1003D0000009904271EB030C39D3002919BFB1FA1F
:1003E00081F701FA07F6B0FA80F700FA07F6C7F1CD
:1003F00020071EBF20FA07FC46EA0C062037B6FB92
:10040000F4FCA7EB0507103F07F01F0BCBF120060C
:100410000CFA0BFB2CFA06F644BFB3460026202F3D
:10042000A4BF5E464FF0000B5BEA060C08BF4FF01E
:10043000010B19EB0B09ABFB027C48EB0608C01B58
:1004400006FB02CC0BFB03CC71EB0C01C1E70B46A6
:10045000024641464846BDE8F08B13B54FF0000018
:100460004FF00001AFF30080BDE81C407047000072
:100470000FB4044910B503AA029800F0AFFA10BCFB
:100480005DF814FB902001200FB41CB5074B06AAA1
:100490007B4469460090059800F087FA0020694681
:1004A00000F096FA1CBC5DF814FB00003D0500004E
:1004B0002DE9F0410E460446002020622046E16806
:1004C000884730B3252805D0D4E901219047206A18
:1004D000401CF2E7E168204600278847050018D055
:1004E000A5F14100192802D820354FF400673246A3
:1004F000294620462760FFF7A9FE40B1012804D015
:10050000F61D26F007060836D8E7361DD6E728463A
:10051000DAE7206ABDE8F0812DE9F04106460024C3
:1005200010687529314616A510D0AFF30080002859
:1005300002DA404213A507E031688A0701D512A507
:1005400002E0490704D511A5012401E0AFF30080C2
:1005500000210A2206F1240709E0B0FBF2FCB0FBFF
:10056000F2F302FB1C00303078541846491C002876
:10057000F3D123462A463046BDE8F04100F0B7B932
:10058000000000002D0000002B00000020000000F3
:100590000B4910B5A1F17C020A4CC2E93712372190
:1005A00006E000EB104342F82130074B00FB03400C
:1005B0000B1EA1F10101F4DC10BD0120E8E70000F1
:1005C000B4210120E119D666CD0D010040EA0103F6
:1005D00010B59B070FD1042A0DD310C808C9121FEC
:1005E0009C42F8D020BA19BA884201D9012010BD26
:1005F0004FF0FF3010BD1AB1D30703D0521C07E0F3
:10060000002010BD10F8013B11F8014B1B1B07D156
:1006100010F8013B11F8014B1B1B01D1921EF1D1C7
:10062000184610BD10B5431C02E010F8011B71B153
:100630008107FAD14FF0013202C88C1A8C4314EAB8
:10064000C211F9D0C01A0A0603D0C01E10BDC01ACC
:1006500010BD0A0401D0801E10BD0902FCD0401E4E
:1006600010BD40EA010370B59B072ED14FF0013653
:10067000042A2AD308C810C99D1B9D43121F15EADE
:10068000C61517D0D8B2E1B2401A50EA056110D1B0
:1006900098B2A1B2401A50EA05410AD123F07F4036
:1006A00024F07F41401A50EA052102D1180EA0EB38
:1006B000146070BDA342DBD018BA21BA884201D9B8
:1006C000012070BD4FF0FF3070BD0AB9002070BD31
:1006D00010F8013B11F8014B63B1A3420AD1521E3D
:1006E00008D010F8013B11F8014B1BB1A34201D116
:1006F000521EEDD1181B70BD10B5203AC0F00B8012
:10070000B1E81850203AA0E81850B1E81850A0E815
:100710001850BFF4F5AF5FEA027C24BFB1E818506F
:10072000A0E8185044BF18C918C0BDE810405FEADF
:10073000827C24BF51F8043B40F8043B08BF70475B
:10074000D20728BF31F8023B48BF11F8012B28BF60
:1007500020F8023B48BF00F8012B70474FF0000221
:1007600000B5134694469646203922BFA0E80C50A7
:10077000A0E80C50B1F12001BFF4F7AF090728BF82
:10078000A0E80C5048BF0CC05DF804EB890028BFFE
:1007900040F8042B08BF704748BF20F8022B11F027
:1007A000804F18BF00F8012B704700004FF0013C4C
:1007B00050F8042B51F8043B9A4221D1A2EB0C03D0
:1007C000934313EACC1317D150F8042B51F8043B90
:1007D0009A4215D1A2EB0C03934313EACC130BD12D
:1007E00050F8042B51F8043B9A4209D1A2EB0C03B8
:1007F000934313EACC13DBD04FF00000704700BFE7
:10080000D01A01BAB1FA81F101F0180122FA01F00F
:10081000CB40C1F12001DBB2C0B2C01A2CFA01F307
:10082000D11A914311EAC311E6D17047704770475E
:10083000704700000048704724220120704770472D
:100840007047704738B504460A4600206946AFF342
:100850000080002808BF38BD02460099204600F0FD
:1008600067FA012038BD012000F067BBF8B5AFF38F
:100870000080054600200C46102000BF0646A8193F
:10088000A0420DD9324669460020AFF30080070030
:1008900008BF00F052FB0098A04218BF0546C419DB
:1008A000FFF7C8FF05600746F01D20F00700461956
:1008B000284600F00AF8B44208BFF8BDA21B314632
:1008C0003868BDE8F84000F033BA00210160C0E9A3
:1008D000011070471020704710B500F025FA00682D
:1008E00010BD10B5044600F01FFA046010BD2DE9DC
:1008F000F0470D4699469246044600F124080168E7
:10090000880604D5E06921F01001216000E0012093
:10091000A84201DD471B00E00027A1697A1902EB1C
:100920000900081AA0612078C00602D42046AFF35F
:100930000080002608E0D4E901211AF8060090475B
:10094000206A401C761C20624E45F4DB2078C006ED
:100950000AD52046AFF3008006E0D4E9012130201B
:100960009047206A401C2062381EA7F10107F4DC82
:1009700007E0D4E9012118F805009047206A401CDF
:100980002062281EA5F10105F3DC2046AFF30080AC
:100990002078000602D50220BDE8F0870120FBE7A1
:1009A00001694A1C02610878704700B58FB0CDE933
:1009B00001310021059105497944CDE90310114623
:1009C0006846FFF775FD0FB000BD0000E5FFFFFFB3
:1009D0000A6802F8010B0A6070470000074B70B507
:1009E0000D467B44FFF7E1FF0446284600F0BAF9C4
:1009F00010B14FF0FF3070BD204670BDD7530000DE
:100A00002DE9F041044616460D464769007B8007F4
:100A10002ED0384602F0A8FF50BB3EB3012E02D0C4
:100A2000022E25D104E0204600F0A0F905441DE087
:100A3000384602F097FFE168002841F01001E160BC
:100A400005DA204600F058F80120BDE8F081C9031E
:100A50000BD56268E16A914200D81146A26911443F
:100A60002269891A814200DD08460544002D01DA19
:100A70000220EAE7E16A6068E268814206D29103F7
:100A8000E06203D522F4003141F01002A66900278C
:100A9000AE4213DCE16A814201D90B4600E0034615
:100AA00003EB060C2369ACEB030CAC4506DD81427D
:100AB00001D98C4600E084469C4505D1A76027609B
:100AC00042F02000A5620DE0AD1BE669AE1B81423D
:100AD000A66000D90846C01A281A2060581960601C
:100AE00022F0200003490840E060002084F84870AC
:100AF000ABE70000BFCFD7FFC16821F4001141F080
:100B00008001C16000218160016070472DE9F047DC
:100B1000814614460E464FF0FF383248D568576973
:100B2000054209D03846A16902F056FF002811DBC2
:100B30002C48C0430540E5602B46324649463846BE
:100B400002F04DFFA16920F00042B21A11440028C2
:100B5000A16103D02046FFF7CFFF4046BDE8F087F4
:100B600070B504460569C06A6168884200D80846C5
:100B7000E16821F42011E160C90312D5A84208D030
:100B80002246411B2846FFF7C1FF10B14FF0FF304E
:100B900070BD0020E562C4E90150E06820F48030B7
:100BA000E060002070BD10B50446C06820F0200051
:100BB000E060A16AA06988420DD02046FFF7D0FF0F
:100BC000E06820F4405040F01000E060A06AA061AE
:100BD0002069E062606044F24001E0688843E060C0
:100BE00010BD00001000020010B542485421FFF76C
:100BF000B5FD41485421FFF7B1FD40485421FFF7AE
:100C0000ADFD3F493B483C4A3F4B08603D490A60C7
:100C10003A491960531C0365481C1065012008659A
:100C20003B48344A39A1784400F0E4F820B9384808
:100C300078440A3800F07AF937482F4A35A17844C9
:100C400000F0D8F820B9344878440A3800F06EF93A
:100C500032482A4A2FA1784400F0CCF820B92F4816
:100C600078440A3800F062F940232248DC00002171
:100C7000224600F09CF820B125487844543800F012
:100C800055F91D4822464023002100F090F820B17C
:100C900021487844543800F049F918482246102376
:100CA000002100F084F8002806D01C487844BDE8F4
:100CB0001040563800F03AB910BD104870B5006DBC
:100CC00020F001040B4800F00BF90B4800F008F984
:100CD0000A4800F005F909E0206D20F001052046E2
:100CE00000F0FEF82046FFF724FB2C46002CF3D141
:100CF00070BD00003C20012090200120E420012054
:100D0000D00A0020D40A0020D80A00207200000077
:100D100076700100770000006570010055700100D9
:100D2000004870471C220120004870471C22012007
:100D3000034640688C46002818BF88423CBF0346E3
:100D40004068F8D318681844884207D00CF10300B3
:100D500020F00700001D411A521A0146081D0A60C2
:100D6000FFF7E7BA007B00F08000704710B501463E
:100D7000C268900703D0900607D5886A0AE0FFF79B
:100D8000D3FF01210160881E10BD8B69486818449B
:100D90000B69C01A91F848301BB191F84910401AFC
:100DA00010BD1103FCD50028FADD401E10BD70B542
:100DB000C468A50713D0650211D4B2F5807F09D0AD
:100DC000B2F5007F06D0B2F5806F08D1012300F1A3
:100DD000240106E05D1E6FF07F46B54201D301207D
:100DE00070BD0161C361416024F470611143C16051
:100DF000002070BD2DE9F0410C460746164610460E
:100E000000F06EF82078611C61280AD0722802D0A8
:100E100077283CD102E00125002405E002250424C6
:100E200002E0082448F2020511F8010B2B2806D035
:100E3000622809D011F8010C74280AD00BE045F0A3
:100E4000030544F00204EFE745F0040544F0010413
:100E5000EAE744F010043846214602F091FD411CB7
:100E600015D00021316171604FF40071F560F161BE
:100E70007061200704D5304602220021FFF7C0FD33
:100E8000306D40F0010030653046BDE8F081002053
:100E9000FBE72DE9F0410D460646104C206DC107D9
:100EA00004D0410804D020F00104F7E722460EE008
:100EB0005420FFF70FFA07000ED0206D47F0010114
:100EC0000843542120653846FFF748FC3A46294636
:100ED0003046BDE8F0418DE70020D6E73C200120F8
:100EE0002DE9F04704464FF000094FF0FF37C56881
:100EF000D4E90486A80707D02046FFF731FE304624
:100F000002F024FD002802DA3846BDE8F087280503
:100F100002D54046FFF70DFA4C212046FFF71EFC94
:100F2000206D20F0010020654846EEE710B500F086
:100F30003FF8BDE8104000F036B810B500F052F8A8
:100F4000BDE8104000F02FB870477546FFF7E8FE87
:100F5000AE4605006946534620F00700854618B0A6
:100F600020B5FFF7A5F9BDE820404FF000064FF08F
:100F700000074FF000084FF0000B21F00701AC46CE
:100F8000ACE8C009ACE8C009ACE8C009ACE8C009ED
:100F90008D46704710B50446AFF300802046BDE88B
:100FA0001040FFF771B9002801D000F043B8704736
:100FB00010B5014602A000F043F8012010BD00006A
:100FC00053494752545245443A2052656469726508
:100FD00063743A2063616E2774206F70656E3A20E7
:100FE0000000000010B5012805D0002103A000F08A
:100FF00027F8012010BD09A1F8E700005349475226
:10100000544D454D3A204F7574206F6620686561D8
:1010100070206D656D6F7279000000003A204865A0
:101020006170206D656D6F727920636F727275707B
:101030007465640001491820ABBEFEE7260002007B
:1010400070B505460C460A2000E06D1C00F011F852
:1010500035B128780028F8D102E0641C00F009F8C6
:1010600014B120780028F8D1BDE870400A20AFF311
:10107000008008B569468DF800000320ABBE08BDAE
:10108000FEE7000010B502F0F6F811490968114BAF
:10109000C1F30221104A012404290BD00F490C602E
:1010A0000C68002CFCD10D4908390B60096891428D
:1010B0000AD0FEE70A498C608C68002CFCD10B60DA
:1010C0000968914200D0FEE702F048F910BD000027
:1010D000002004E0C2A507F4CDB5E8B5084C0258DD
:1010E000003002400146F92000F05EB830B587B00C
:1010F00014216846FFF732FB0F48016841F00201F6
:10110000016000684FF4807400F002000590012037
:10111000CDE9004002900320084D0390694628461F
:1011200000F0A4F801222146284600F09CF904486A
:1011300000F010FF07B030BD30380240000402401C
:10114000B40A0020022000F027B800001CB501A856
:1011500000900423032215210E4801F001F89DF8A8
:1011600004109DF8050001F00F0140EA01229DF8EE
:1011700007009DF80630074903F00F030F3040EADF
:1011800003200839A0F21710C2F1EF024042C1E972
:1011900000201CBDB40A002002461521014801F0C0
:1011A00023B80000B40A00200B460246152101486E
:1011B00001F048B8B40A002010B5FFF797FFBDE86A
:1011C00010400520FFF78EBF70B50A4D4FF48074B4
:1011D00000222146284600F046F90A2000F034F8A3
:1011E00001222146284600F03EF9BDE87040642007
:1011F00000F02AB800040240704772B6FEE710B54E
:10120000040002D0607910B106E0012010BD00207A
:101210002071204600F004F801206071002010BD0C
:1012200008B500680649884208D10648016841F4BB
:1012300080510160006800F48050009008BD0000FB
:10124000003002403038024070B5044600F022F908
:101250000546601C02D004480078044400F01AF9E6
:10126000401BA042FAD370BDC00A00202DE9F84F00
:10127000DFF8B8A10022012403254FF00F090AF17D
:10128000040BAAF1040E00BF0B6804FA02F6334007
:10129000B34273D10F7907F00307012F01D0022F5A
:1012A00016D187684FEA420805FA08FC27EA0C07BE
:1012B000D1F80CC00CFA08FC4CEA070CC0F808C0C6
:1012C0004768B7430E79C6F3001696403E43466022
:1012D0000E79F643B6070DD0C768560005FA06FC2E
:1012E00027EA0C07D1F808C00CFA06FC4CEA070CF8
:1012F000C0F80CC00E7906F00306022E10D1D608F5
:1013000000EB8608D8F8206057074FEAD76C09FA37
:101310000CF7BE430F6907FA0CF73743C8F8207083
:1013200006684FEA420C05FA0CF7BE430F7907F046
:10133000030707FA0CF7374307604E6816F4403F7F
:101340006DD03B4E376847F480473760366822F0EF
:10135000030706F480460096364E07EB060CDCF8D1
:10136000086897073F0F09FA07F826EA0806DFF82A
:10137000C880404503D14FF000081EE04FE0DFF881
:10138000BC80404502D14FF0010816E0DFF8B08084
:10139000404502D14FF002080FE0DFF8A880404539
:1013A00002D14FF0030808E0DFF89C80404502D1ED
:1013B0004FF0040801E04FF0070808FA07F848EA80
:1013C0000608CCF80888DAF800605746D1F804C05F
:1013D0009E435FEACC2C00D51E433E60DBF80060E4
:1013E0005F46D1F804C09E435FEA8C2C00D51E43B3
:1013F0003E60DEF800607746D1F804C09E435FEAA5
:101400008C3C00D51E433E60084F083F3E68D1F833
:1014100004C09E435FEACC3C00D51E433E60521C94
:10142000102AFFF431AFBDE8F88F0000083C0140FE
:1014300044380240003001400000024000040240F5
:1014400000080240000C0240001002400069084001
:1014500000D001207047426921EA02030A4043EAB2
:101460000241816170470AB1816170470904FBE75D
:1014700002480068C0F30B0070470000002004E041
:10148000004870470001080101480068000C7047DF
:10149000002004E00148806870470000C00A002076
:1014A000024881680278114481607047C00A0020B8
:1014B0000B4810B5016841F400710160016841F406
:1014C00080610160016841F480710160032000F0D7
:1014D00061F80F2000F006F800F024F8002010BD9D
:1014E000003C024070B50D4D04464FF47A712878E7
:1014F000B1FBF0F00A490968B1FBF0F000F055FCCF
:1015000048B9102C07D200222146501E00F022F8C4
:1015100000206C6070BD012070BD0000C00A00207A
:10152000CC0A00200A4808B5016841F480410160F6
:10153000006800F4804000900548001F016841F0F9
:1015400080510160006800F08050009008BD0000EC
:1015500044380240F0B40E4B1B680C46C3F3022320
:10156000C3F10705042D00D90425191D072901D24F
:10157000002300E0DB1E012606FA05F1491E21408A
:1015800099409E40761E16403143F0BC01F0CCBB22
:101590000CED00E0064900F0070208684FF6FF0373
:1015A000184040EA0220034A1043086070470000D8
:1015B0000CED00E00000FA052DE9F0470E460500AD
:1015C00065D0DFF81481D8F80000F7B200F007000A
:1015D000B04207D288F80070D8F8000000F0070089
:1015E000B04254D128683D4C810712D5400703D53D
:1015F000206840F4E05020602878000703D5206878
:1016000040F4604020602068A96820F0F0000843A2
:1016100020602878C0072DD0304968680839012833
:1016200012D0022813D0032811D009688907002995
:101630002DDA216821F0030101432160FFF72AFF21
:10164000814641F2883A0EE009688903EFE70968AC
:101650008901ECE7FFF71EFFA0EB0901514502D914
:101660000320BDE8F0872068696800F00C00B0EB4B
:10167000810FEFD1D8F80010404601F00701B142C8
:1016800007D90770006800F00700B04201D00120C0
:10169000E7E72878400705D52068E96820F4E0509E
:1016A000084320602878000706D52068296920F4BF
:1016B000604040EAC100206000F03EF82168084A1E
:1016C000C1F30311515CC840064908600648006830
:1016D000FFF708FF0020C4E7003C02400838024042
:1016E00000B60108CC0A0020C40A002001480068A6
:1016F00070470000CC0A00200448054900680968CA
:10170000044AC1F38221515CC8407047CC0A0020D2
:101710000838024010B60108044805490068096805
:10172000044AC1F34231515CC8407047CC0A0020E2
:101730000838024010B60108154810B5006810F0CE
:101740000C02144813D01449042A0FD0082A0ED1D1
:101750000F4C241F2268236802F03F025B0207D56A
:101760002068C0F38810A0FB010106E0084610BD08
:101770002168C1F38811A1FB00010023FEF700FEE0
:101780002168C1F30141491C4900B0FBF1F010BDD3
:10179000083802400024F40040787D012DE9F84F1C
:1017A00004006ED02078DFF84C93C007A9F104053F
:1017B0004AD009F104000168C1F38101012908D070
:1017C0000068C0F3810002280AD1D9F80000400265
:1017D00006D52868800337D560680028E1D033E05B
:1017E0006068B0F5803F10D0B0F5A02F286810D009
:1017F00020F480302860286820F480202860606809
:10180000A8B1FFF747FE06460DE0286840F4803097
:10181000F4E740F480202860F7E700BFFFF73AFEC6
:10182000801B642873D828688003F7D50CE0FFF785
:1018300031FE064605E000BFFFF72CFE801B642842
:10184000F0D828688003F7D42078DFF8AC828007CE
:101850004FF0000A3ED5A748001D016811F00C0F9B
:1018600008D00068C0F3810002280BD1D9F800002D
:10187000400207D42868800716D5E068012800D107
:1018800012E033E1E068B8B10120C8F80000FFF7CA
:1018900001FE064605E000BFFFF7FCFD801B0228A5
:1018A000C0D828688007F7D52868216920F0F8009B
:1018B00040EAC10028600DE0C8F800A0FFF7EAFD8B
:1018C000064604E0FFF7E6FD801B02281FD82868C3
:1018D0008007F7D42078000722D5864F87486169B2
:1018E000703771B101210160FFF7D4FD064604E0B5
:1018F000FFF7D0FD801B022809D838688007F7D58C
:101900000EE0C0F800A0FFF7C5FD064605E082E046
:10191000FFF7C0FD801B02287DD838688007F7D408
:101920002078400768D5DFF8CCB100270BF13C0BDD
:10193000DBF80000C0000BD4DBF8001041F0805150
:10194000CBF80010DBF80000012700F08050009079
:101950006B4E3068C00510D4306840F48070306041
:10196000FFF798FD009005E0FFF794FD0099401AFD
:10197000022850D83068C005F6D55E4EA0686C3697
:1019800001280FD00528306810D020F00100306009
:10199000306820F004003060A068B8B1FFF77AFD2D
:1019A00000900FE0306840F00100F4E740F00400E0
:1019B0003060F7E7FFF76EFD0099411A41F2883079
:1019C000814266D830688007F4D50EE0FFF762FDEB
:1019D000009007E0FFF75EFD0099411A41F2883060
:1019E000814256D830688007F4D42FB1DBF800105C
:1019F00021F08051CBF80010A069C8B33D49091D02
:101A00000968C1F3810102294AD00228504607D053
:101A1000C8F8600000E03CE0FFF73CFD04463BE016
:101A20004746C8F86000FFF735FD064605E000BFF1
:101A3000FFF730FD801B02282BD828688001F7D4DF
:101A4000D4E907010843A16A2E4A490802EB014183
:101A5000626A41EA8211084394F82C1040EA01615D
:101A6000C9F8001001203866FFF714FD044606E0AF
:101A70003EE000BFFFF70EFD001B022809D82868D2
:101A80008001F7D534E000BFFFF704FD001B0228FA
:101A900002D90320BDE8F88F28688001F4D427E03C
:101AA0000128F7D0D9F80000E26900F480019142E2
:101AB0001CD1226A00F03F01914217D147F6C07154
:101AC000626A0140B1EB821F10D1A26A4FF0FF336E
:101AD00000F4403103EB5202B1EB024F06D194F80F
:101AE0002C1000F07060B0EB016F01D00120D1E745
:101AF0000020CFE70438024000004742800E4742F2
:101B0000007000400000FFFF70B5040009D0606A5B
:101B1000002540B125616561A56294F8510040B18E
:101B20000CE0012070BD6068B0F5827FF4D0E56103
:101B3000F2E784F85050204600F044F8022084F880
:101B400051002068016821F040010160A0882189CE
:101B500000F4827001F404410843A18901F400619A
:101B60000843217C01F002010843217D01F00101BD
:101B70000843218B01F400710843217F01F03801F3
:101B8000084394F8201001F080010843218D01F4EE
:101B90000051084321680860A069042101EA10404F
:101BA00094F8241001F0100108432168486020686F
:101BB000C16921F40061C1616565012084F85100AB
:101BC000002070BD10B586B0044614216846FEF7AB
:101BD000C5FD13492068884220D1124800210268BF
:101BE00042F480520260006800F4805005900D4875
:101BF0001438026842F002020260006800F002003D
:101C00000590282000900220CDE9010103200390D7
:101C10000520049069460448FFF728FB06B010BD74
:101C20000030014044380240000402402DE9F84FE2
:101C3000044690F8500000271D46164689460128A4
:101C40000DD04FF0010B84F850B0FFF723FC804615
:101C500094F85100BA46012804D0022793E00220EC
:101C6000BDE8F88FB9F1000F73D0002E71D00320BA
:101C700084F85100C4F854A0C4F83090A686E686D3
:101C8000C4F838A0A4F83CA0A4F83EA0C4F844A02E
:101C9000C4F840A0A068B0F5004F09D120680168E1
:101CA00021F0400101602068016841F48041016039
:101CB00020680168490603D4016841F040010160D1
:101CC000E068B0F5006F606803D030B3012E24D017
:101CD00041E008B1012E1CD1206B21680088C8604A
:101CE00006E020688168890709D5216B0988C160F1
:101CF000206B801C2063E08E401EE08609E0FFF729
:101D0000C9FBA0EB0800A84202D3681C01D031E057
:101D10007DB3E08E0028E4D120E0206B21680078BC
:101D2000087306E020688168890709D5216B097866
:101D30000173206B401C2063E08E401EE0860AE0A9
:101D4000FFF7A8FBA0EB0800A84203D3681C02D051
:101D500010E017E06DB1E08E0028E3D1424629463D
:101D6000204600F02FFE08B120206065A06818B161
:101D700006E0FFE7032706E02068C168806800905E
:101D8000606D00B1012784F851B084F850A0384646
:101D900066E74FF0E0210428086903D020F0040032
:101DA0000861704740F00400FAE710B5401EB0F13A
:101DB000807F01D3012010BD4FF0E02460610F212E
:101DC000601700F0B1FF0020A06107202061002013
:101DD00010BD70B5040004D094F83D00002510B18A
:101DE00006E0012070BD84F83C50204600F022F847
:101DF000242084F83D002068C16821F40051C160AE
:101E0000204600F0BBFE2068016921F49041016189
:101E10002068416921F02A0141612068C16841F4CC
:101E20000051C1602564202084F83D0084F83E0004
:101E3000002070BD10B586B0044614216846FEF738
:101E40008DFC14492068884221D113480021026882
:101E500042F010020260006800F0100005900E4889
:101E60001438026842F001020260006800F00100CC
:101E700005904FF4C06000900220CDE901010320DD
:101E800003900720049069460448FFF7EFF906B075
:101E900010BD000000100140443802400000024024
:101EA0002DE9F843044690F83D001F4616460D46BE
:101EB00020284CD1C5B1BEB194F83C00012846D0D1
:101EC000012084F83C004FF00008C4F84080212035
:101ED00084F83D00FFF7DEFAA6848146E684A06818
:101EE000B0F5805F03D004E00120BDE8F8832069ED
:101EF00028B12E465FF0000584F83C800EE00026F5
:101F0000FAE78021204600F0BFFEA0B9AEB116F876
:101F1000010B21684860E08C401EE084E08C4B4659
:101F20004FF0000200970028EBD14FF0400120460F
:101F300000F0AAFE30B10320D7E735F8020BC0F35A
:101F40000800E6E7202084F83D000020CDE70220CD
:101F5000CBE7FEE710B586B0044614216846FEF7CD
:101F6000FDFB208900900120019002900220039047
:101F700069462068FFF77AF96089009069466068D1
:101F8000FFF774F906B010BD70B5064608240025A9
:101F900000F0E4FC13E06806050E0021304600F076
:101FA000CBFC022003F0BBF90121304600F0C4FC59
:101FB000012003F0B4F9304600F0C7FC0543641E6D
:101FC000E4B2E8D20021304600F0B6FC304600F022
:101FD000E3FC284670BD10B50446002100F0D3FC98
:101FE000012003F09CF90121204600F0A5FC01200E
:101FF00003F095F90021204600F09EFCBDE810405A
:10200000012003F08CB9000070B50C460646082587
:1020100019E000BF00F090FC022003F080F904F00A
:102020008001304600F0AFFC012003F078F9600633
:10203000040E012003F073F90121304600F07CFC0E
:10204000012003F06CF96D1EEDB24FF00001304637
:10205000E0D200F071FCBDE87040022003F05FB9EF
:1020600010B50446012100F08EFC012003F057F961
:102070000121204600F060FC012003F050F900210E
:10208000204600F059FCBDE81040022003F047B99B
:1020900010B50446012100F076FC022003F03FF960
:1020A0000121204600F048FC012003F038F900210E
:1020B000204600F068FC012003F031F900212046A1
:1020C00000F03AFCBDE81040012003F028B910B53B
:1020D0000446002100F030FC022003F020F900212A
:1020E000204600F050FC012003F019F901212046A0
:1020F00000F022FC012003F012F90121204600F03B
:1021000042FCBDE81040012003F009B970B5054656
:10211000052400F023FC0121284600F00DFC05E019
:10212000641EA4B2012003F0FAF884B1284600F03E
:102130000CFC0028F4D1284600F02EFC0021284693
:1021400000F0FAFB022003F0EAF8002070BD2846F8
:1021500000F022FC2846FFF7BAFF012070BD000006
:102160002DE9F0411D4617460C468046069EFFF7B6
:102170008FFF6006010E4046FFF746FF4046FFF71F
:10218000C5FF28B14046FFF7A2FF0120BDE8F0815E
:1021900039464046FFF738FF4046FFF7B7FF404655
:1021A000FFF776FF012000EB4400C1B24046FFF785
:1021B0002BFF4046FFF7AAFF00246F1E0AE000BF76
:1021C000FFF7E2FE3055BC4202DA4046FFF703FF5C
:1021D000641CE4B2AC424046F2D3FFF741FF4046F4
:1021E000FFF775FF0020D1E770B516460C4605468F
:1021F000FFF74EFF6006010E2846FFF705FF284651
:10220000FFF784FF31462846FFF7FEFE2846FFF71A
:102210007DFF2846FFF73CFF012000EB4400C1B2E0
:102220002846FFF7F1FE2846FFF770FF2846FFF724
:10223000ABFE04462846FFF713FF2846FFF747FF8B
:10224000204670BD2DE9F0411D4616460C46074656
:10225000FFF71EFF6006010E3846FFF7D5FE384631
:10226000FFF754FF28B13846FFF731FF0120BDE8E2
:10227000F08131463846FFF7C7FE3846FFF746FF84
:1022800029463846FFF7C0FE3846FFF73FFF38467D
:10229000FFF71DFF012003F042F80020E7E70000F0
:1022A0002DE9F0410025124C124F012608B126708D
:1022B00001E0207820B101213846FFF7C7F858B176
:1022C000032003F01FF801213846FFF7BFF800B1E3
:1022D00026702846BDE8F081032003F013F80121A1
:1022E0003846FFF7B3F80028F3D101252070F0E756
:1022F000A80A00200000024000B587B014216846FB
:10230000FEF72CFA0A48016841F0010101600068FB
:102310004FF4041100F0010005900120CDE9000107
:10232000029069460348FEF7A1FF07B000BD000018
:1023300030380240000002402DE9F04104461D46BD
:1023400016460F462A2000F03BFA204600F028FAF5
:10235000304600F025FA2B2000F032FA384600F023
:102360001FFA284600F01CFABDE8F0412C2000F0CE
:1023700027BA10B514460B460246FFF7DDFF20468C
:10238000BDE8104000F00CBA2DE9F04780461F462A
:1023900003F1130083B21646501E82B20C4601F1BF
:1023A000140081B24046DDF82090FFF7C5FF0AE037
:1023B000454604E0484600F0F3F96D1CADB2B54265
:1023C000F8D3641CA4B2BC42F2D3BDE8F08700008D
:1023D000F0B587B014216846FEF7C0F92E480168B1
:1023E00041F004010160016801F0040105910168F8
:1023F00041F002010160016801F0020105910168EC
:1024000041F008010160016801F0080105910168CF
:1024100041F00101016000684FF4004600F0010046
:10242000059001241D4FCDE90064032569460395FD
:102430003846FEF71BFF012231463846FFF713F8F6
:102440001020CDE90004164E694603953046FEF78C
:102450000DFF012210213046FFF705F82603114F2A
:10246000CDE90064694638460395FEF7FFFE012278
:1024700031463846FEF7F7FF0420CDE900040A4C48
:10248000694603952046FEF7F1FE0122042120460D
:10249000FEF7E9FF07B0F0BD30380240000002400F
:1024A0000004024000080240000C024010B5FFF793
:1024B0008FFF002204216648FEF7D5FF654C0022FD
:1024C00010212046FEF7CFFF642002F01BFF0122FF
:1024D00010212046FEF7C7FF642002F013FF1120F1
:1024E00000F06EF9782002F00DFF362000F068F958
:1024F000C02000F07BF93A2000F062F9052000F0DE
:1025000075F9B22000F05CF90C2000F06FF90C2096
:1025100000F06CF9002000F069F9332000F066F952
:10252000332000F063F9B72000F04AF9352000F0BD
:102530005DF9BB2000F044F9192000F057F9C020E4
:1025400000F03EF92C2000F051F9C22000F038F9DB
:10255000012000F04BF9C32000F032F9122000F006
:1025600045F9C42000F02CF9202000F03FF9C620E6
:1025700000F026F90F2000F039F9D02000F020F902
:10258000A42000F033F9A12000F030F9E02000F0A1
:1025900017F9D02000F02AF9042000F027F90D20C7
:1025A00000F024F9112000F021F9132000F01EF9A9
:1025B0002B2000F01BF93F2000F018F9542000F008
:1025C00015F94C2000F012F9182000F00FF90D2039
:1025D00000F00CF90B2000F009F91F2000F006F9BB
:1025E000232000F003F9E12000F0EAF8D02000F009
:1025F000FDF8042000F0FAF80C2000F0F7F81120A4
:1026000000F0F4F8132000F0F1F82C2000F0EEF8C0
:102610003F2000F0EBF8442000F0E8F8512000F0F3
:10262000E5F82F2000F0E2F81F2000F0DFF81F206F
:1026300000F0DCF8202000F0D9F8232000F0D6F8D4
:10264000212000F0BDF8BDE81040292000F0B8B806
:10265000000C0240000402402DE9FF4F81B0044607
:10266000DDF83C9000904FEA59074FF000087807DA
:1026700000D0012000EBD70000FB09FB203AD0B2CC
:102680000390029802994844401E83B2E019401E0C
:1026900082B22046FFF750FE002553E0B9F10C0F3F
:1026A0002AD0B9F1100F2ED0B9F1180F2ED0B9F1F0
:1026B000200F49D12749039801EB8010002610F81C
:1026C00005A0109800284FF0010000FA06F000EA7B
:1026D0000A0022D020B12046049A0299FFF749FE51
:1026E000641C0098A4B2201AB84225D10298009C1C
:1026F000401C80B2029023E00398174900EB400091
:1027000001EB8000DAE71549039803E003981449C8
:1027100000EB400001EB0010D0E708B1049800E0A6
:102720000E9800F03DF808F10100C0B2B0FBF7F1DF
:10273000804607FB118050B1761CF6B2082EC0D33C
:102740006D1CADB25D45A9D305B0BDE8F08F4FF06B
:102750000008F5E718990108E47C01085881010890
:10276000488701082DE9FE4F9946DDE90D671446BB
:102770008A460546DDF830800CE0CDF800804B46F7
:1027800051462846CDE90167FFF766FF05EB560085
:1027900085B2641C2278002AEFD1BDE8FE8F0000CC
:1027A00008B5010A8DF800108DF8010001230222FE
:1027B00069460248FFF73AFA08BD0000A01F012051
:1027C00070B5094D06464FF4805400222146284634
:1027D000FEF749FE304600F009F821462846BDE8DC
:1027E00070400122FEF73FBE0008024001B5012300
:1027F0001A4669460148FFF719FA08BDA01F0120D3
:10280000074910B5054808600846FEF7F8FC00289F
:1028100003D0BDE81040FEF7F0BC10BD0030024010
:10282000A00A002070B586B014216846FDF796FF17
:102830001A480024016841F004010160016801F0B8
:1028400004010591016841F080010160016801F017
:1028500080010591016841F001010160016801F00A
:1028600001010591016841F00201016000680C4E10
:1028700000F002004FF40055059000222946304632
:10288000FEF7F1FD01200095CDE9010469463046CF
:102890000394FEF7EBFC06B070BD00003038024038
:1028A00000080240104810B50E4901604FF48271D3
:1028B0004160002102228160C0E9031201224261CD
:1028C0005202C0E906210162416281620A21C162AD
:1028D000FFF71AF9002803D0BDE81040FEF78DBCC1
:1028E00010BD000000300140A01F01200C4810B5B1
:1028F0000A4901604FF4E1314160002181600C22FE
:10290000C160C0E904128161C161FFF762FA002869
:1029100003D0BDE81040FEF770BC10BD00100140B0
:10292000F81F012010B5FFF7E1FFBDE8104001F0EE
:102930008BBDFEE7FEE770474289406811B18169AF
:10294000114300E011048161704710B501890068EE
:10295000FEF77CFD012800D0002010BD10B586B028
:10296000044614216846FDF7F9FE208900900020F6
:102970000190012002900220039069462068FEF732
:1029800075FC06B010BD0289006811B18169114360
:1029900000E011048161704710B586B0044614212F
:1029A0006846FDF7DBFE2089009011200190002091
:1029B00002900220039069462068FEF757FC06B09B
:1029C00010BD000038B504461248134B0068B0FB38
:1029D000F3F04FF47A73584300906068B0F5827F4B
:1029E0000DD10B46009200228021204600F016F8FF
:1029F00070B1606D40F020006065032038BD009824
:102A000030B1401E009020688068C0430006F6D5B3
:102A1000002038BDCC0A002000366E012DE9F843B5
:102A20001E46914688460446089DFEF733FD401B2E
:102A3000351AFEF72FFD074625480068C0F3CB3056
:102A4000684338E0701C37D0FEF724FDC01BA84255
:102A500003D215B1009860B32CE02068416821F0E2
:102A6000E00141606068B0F5827F0BD1A068B0F5ED
:102A7000004F02D0B0F5806F04D12068016821F0CA
:102A800040010160A06AB0F5005F09D120680168CB
:102A900021F4005101602068016841F40051016097
:102AA000012084F85100002084F850000320BDE884
:102AB000F8830025401E00902068816838EA0100F4
:102AC00004D000214945BDD10020F0E70121F9E7FC
:102AD000CC0A00207047FEF7E3BC000030B593B08D
:102AE00030216846FDF73AFE14210CA8FDF736FEAA
:102AF0001C480025016841F080510160006800F029
:102B0000805011901848016841F44041016000680C
:102B1000022400F440401190012000900004019034
:102B20008001CDE906400C2008906020CDE9090421
:102B300004200B906846FEF731FE08B172B6FEE73E
:102B40000CA90F2081E831004FF48050CDE90F052A
:102B500003210CA8FEF730FD002801D072B6FEE775
:102B600013B030BD40380240007000400248016898
:102B700041F470010160704788ED00E070B50446D3
:102B800000680169E26821F4405111430161216943
:102B9000A068E26908436169114308432168CA6873
:102BA00049F20C639A430243CA6020684169A269F2
:102BB00021F440711143416131492068884202D0BB
:102BC0003049884202D1FEF7A7FD01E0FEF794FDEF
:102BD000E2690023192164253226B2F5004F6268AC
:102BE00028D0A0FB0101930F9200FDF7C9FB01461D
:102BF000B0FBF5F06FF01802504301EB800006EBDC
:102C00000010B0FBF5F000F0F002B1FBF5F002EBC4
:102C10000012B1FBF5F06FF01803584301EB800090
:102C200006EB0010B0FBF5F000F00F002168104437
:102C3000886070BDA0FB010192185B41FDF7A0FB0D
:102C40000146B0FBF5F00201B1FBF5F06FF018039F
:102C5000584301EB800006EBC000B0FBF5F000F03C
:102C6000F80002EB4002B1FBF5F0584301EB8000A5
:102C700006EBC000B0FBF5F000F00700D6E700005F
:102C800000100140001401402DE9F041984617461C
:102C90000E460446069D27E0681C25D02DB1FEF7A0
:102CA000F9FBA0EB0800A8421ED920680C3050E8C0
:102CB000001F21F4D07140E80012002AF5D12068ED
:102CC000143050E8001F21F0010140E80012002AF2
:102CD000F5D1202084F83D0084F83E00002084F8DF
:102CE0003C000320BDE8F0812068006836EA00005F
:102CF00004D00020B842CFD00020F3E70120F9E74C
:102D0000FEE74100080218BF04200A0E18BF40F079
:102D100001004FF07F4232EA010108BF40F002009B
:102D2000012808BF052070470907090E002804DBA9
:102D300000F1E02080F80014704700F00F0000F16F
:102D4000E02080F8141D70479FED3C0A63E000BF4F
:102D500092ED003A91ED004AD2ED012AD1ED013A0F
:102D600004EE030A92ED022A91ED021AD2ED030A53
:102D7000D1ED031A91ED044A03EEA20AD2ED043A12
:102D800092ED053AD1ED052A01EE020A92ED062AEE
:102D900092ED071A01EEA00AD1ED061AD1ED070A4D
:102DA00004EE230AD2ED083A91ED084A02EE830AB6
:102DB000D2ED092A91ED093A01EE820A92ED0A2A32
:102DC000D1ED0A1A00EE810A92ED0B1AD1ED0B0A31
:102DD00004EE230A91ED0C4AD1ED0D3A03EE220ADE
:102DE00092ED0C3AD2ED0D2A01EE820A92ED0E2AF6
:102DF000D1ED0F1A00EE810A91ED0E1AD2ED0F0AF5
:102E000040314032103B04EE030A03EEA20A01EE09
:102E1000020A01EEA00A102B9AD206E0F1EC010A98
:102E20005B1EB2EC011A00EE810A002BF6D1D0ED48
:102E3000000A30EE800A80ED000A704700000000B2
:102E400010B510EE104A4FF019406849002200EB0F
:102E500044002DED028B884257D8DFED650A14F04F
:102E6000004F60EE200A14BFBEEE001AB6EE001A44
:102E700071EE200AFDEEE00A10EE900A00EE900AD4
:102E8000F8EEE00A9FED5B1A00EEC10A9FED5A1AB8
:102E900000EEC10ADFED590A9FED591A00EE201A23
:102EA000DFED580A40EE010A9FED571A574B00F02C
:102EB000030100EE201A21EE000A7B4403EB81039C
:102EC000D3ED000A524B7B4403EB810393ED001AD0
:102ED000504B41EE000A7B4403EB8101801091EDE1
:102EE000000A70EE800AEABB00EE100AB8EEC01AC3
:102EF000DFED491A9FED490ABDEC028B01EE210A74
:102F0000BCEEC00A20EE200A10BD4FF0FF40A043E7
:102F10001BD04FF0CE40B0EB440F82BFB7EE000A9B
:102F2000BDEC028B10BD3E48B0EB440F28BF012220
:102F300093D20220FDF7D5FC14F0004F15D0BDEC64
:102F4000028BBDE8104000F07BB814F5000F02BF03
:102F50009FED340ABDEC028B10BDBDEC028BBDE8C9
:102F6000104000E007E000F05FB8BDEC028BBDE868
:102F7000104000F05DB800EBD07359104FF07E5256
:102F800002EBC15100EE101AA0EB630002EBC0503F
:102F900060EE200A00EE100A20EE208A18EE100AD9
:102FA00088B118EE100AB0F1FF4F15D018EE100AD4
:102FB000FFF7A7FE042808BF00F042F8B0EE480A69
:102FC000BDEC028B10BD0220FDF78BFCBDEC028B2B
:102FD000BDE8104000F034B80220FDF782FCBDECE3
:102FE000028BBDE8104000F023B800000000501E26
:102FF0003BAAB8400070313EF4FD053712BB2A3DB4
:1030000012BB2A3EFFFFFF3EFFFF7F3FD687010036
:10301000DA870100AA8701000000004B00007E4E05
:103020000000A0850000000030EE000A704700009C
:103030009FED020A20EE000A7047000000000070B9
:103040009FED020A20EE000A704700000000001009
:10305000F0B5059D25F0010403EB84069FED460ABB
:10306000EF085AE051F8044BD3ED002A04F0FF0CAE
:103070004FEA1C1E02EB8E0E0CF00F0C9EED002A88
:1030800002EB8C0C02EE220ADCED001A93ED012A11
:10309000C4F3072C4FEA1C1E02EB8E0E01EE820ACF
:1030A0009EED001AD3ED021A0CF00F0C02EB8C0C03
:1030B000D3ED042A01EE210ADCED000A93ED031A98
:1030C000C4F3074C4FEA1C1E02EB8E0E00EE810A81
:1030D0009EED002A0CF00F0C02EB8C0C240EDCEDA4
:1030E000001A02EE220A93ED052A4FEA141C02EBA5
:1030F0008C0C04F00F049CED001A01EE820AD3ED53
:10310000061A02EB8404D4ED000A01EE210A93EDC5
:10311000071A20337F1E00EE810A002FA2D115E08E
:1031200011F8014B93ED001A270902EB870704F011
:103130000F04D7ED000A02EB840400EE810AD4EDFF
:10314000000A93ED011A083300EE810AB342E7D377
:10315000EC0709D0097893ED001A090902EB810107
:10316000D1ED000A00EE810AD0ED000A30EE800AAF
:1031700080ED000AF0BD000000000000F0B59FEDFA
:10318000380A059DEE0851E051F8044BD3ED002AB2
:10319000E7B202EB8707D7ED001AC4F3072702EB6B
:1031A000870701EEA20A97ED002AD3ED011AC4F3B6
:1031B000074702EB8707240E02EE210A97ED001A5B
:1031C000D3ED021A02EB8404D3ED042AD4ED000AF5
:1031D00001EE210A93ED031A51F8044BE7B202EB1A
:1031E000870700EE810A97ED002AC4F3072702EB58
:1031F0008707D7ED001A02EE220A93ED052AC4F3E1
:10320000074702EB8707240E97ED001A01EE820AAA
:10321000D3ED061A02EB8404D4ED000A01EE210A74
:1032200093ED071A2033761E00EE810A002EABD1F3
:1032300005F007040BE000BF11F8015B641E02EB10
:103240008505B3EC011AD5ED000A00EE810A002CC9
:10325000F2D1D0ED000A30EE800A80ED000AF0BD18
:103260000000000010B54169044688472069A0426B
:1032700000D1002010BD0120704700002DE9F04F63
:10328000002699B00F4605463446B0464CE0A86883
:10329000C4EBC4038946426802EB83020E92806845
:1032A00010AA00EBC40A2C480D9251F8082F406A6E
:1032B000120A62F31F200190D1F804B01C2105A866
:1032C000FDF74CFAD9F81800006801F021F90590D3
:1032D000D9F81800806806905FEA0A0009D0C0F8A3
:1032E0000080D9F80010416029B1498819B1012145
:1032F00002E0404603E00021016001B90020079090
:10330000D9F818001C2205A9406809900198CDE958
:103310000A0B0D98FDF7F0F91C2210A90E98FDF785
:10332000EBF9761CB6B2641C0DB1288800E00020D1
:10333000A04205D9686818B150F824100029A6D118
:103340001EB1A8684068386001E0C7F8008019B075
:103350003046BDE8F08F000018B601087047000045
:10336000D3ED021A93ED000A93ED011AF5EEC01A9F
:1033700001EB8203F1EE10FA00EB82002AD2B5EEE7
:10338000C01AF1EE10FA11D0001F1B1F8B4220D380
:10339000D3ED000AF4EEC00AF1EE10FA03D870EE95
:1033A000C00A60EE810AC0ED000AEDE79FED161A33
:1033B0000BE000BFD3ED000AF4EEC00AF1EE10FA04
:1033C00001D8F0EE410AC0ED000A001F1B1F8B421E
:1033D000F0D27047001F1B1F8B42FAD3D3ED000AB7
:1033E000F4EEE10AF1EE10FA09D8F4EEC00AF1EEBB
:1033F00010FA06D870EEC00A60EE810A01E0F0EE25
:10340000610AC0ED000AE5E700000000D3ED000A04
:103410009FED0B1A01EB820300EB8200001F1B1FC4
:103420008B420BD393ED000AB4EEE00AF1EE10FAF2
:1034300001D8B0EE410A80ED000AEFE770470000C6
:10344000000000002DE9F0479946DDE908870C46A9
:10345000054601EB820608E04A462146284600F070
:1034600009F804EB880405EB8705B442F4D3BDE802
:10347000F08700002DE9F04107462DED028B15463F
:103480000E4691ED008ADFED208A01200CE000BF9E
:1034900006EB800191ED000AB4EEC80AF1EE10FAD5
:1034A00001D3B0EE408A401CA842F1D300240EE0C4
:1034B00006EB840090ED000A30EE480AFFF7C0FCEE
:1034C00007EB840070EE288A80ED000A641CAC4291
:1034D000EED3F5EEC08AF1EE10FA10D0F7EE000A46
:1034E000002080EEA80A08E007EB8001401CD1ED27
:1034F000000A60EE800AC1ED000AA842F4D3BDECD8
:10350000028BBDE8F08100000000000070B50546A8
:103510000C4648886988884202D9AAB1002070BD4B
:1035200092B100260CE000BF6168C6EBC6006A6875
:1035300001EB800102EB80001C22FDF7DDF8761C18
:103540006088B042F0D801E0606868606088688098
:1035500020882880012070BD30B500B3F9B1F2B1E8
:103560005268E2B10F4C1368A34203D002600129F4
:1035700013D014E00023121D07E000BF52F82350BF
:10358000A54204D040F823505B1C8B42F6D38B42FB
:1035900005D152F82300A04201D1012030BD002006
:1035A00030BD0000DECAFAA170B50D460600144613
:1035B0001AD0CCB1104601F051F800B16088A84291
:1035C00012D10023042109E0C3EBC302606801EBC0
:1035D0008202805820B146F823005B1CAB42F3D333
:1035E000AB4201D1012070BD002070BD034988426B
:1035F00001D101207047002070470000DECAFAA107
:103600002DE9FE4F92468946040003D0A08D20B1DB
:10361000256B03E00020BDE8FE8F00250020E0823E
:10362000A082207BC043800702D030221121DCE041
:10363000B9F1000F61D0D5B32888C0B3D9F818000C
:103640000026D0F8008056E0A868006800EB06105D
:10365000019052D058B3C6EBC600029009EB80002F
:103660000121009001F00CF8DBF81830596888420D
:103670001AD80098DBF80C208069D768D0F80CC005
:10368000674511D19768D0F808C067450CD15268DA
:103690004068824208D1186800F02BFF0746584660
:1036A00002F0C8FB874203D2182212219DE024E0D9
:1036B000DBF81800006800F02BFF029920F07E4232
:1036C00059F8210020F07E40824201D01922ECE717
:1036D0000098406888B100988069006878B14146D8
:1036E000404500D208468046DDE900105A4600F009
:1036F0008FF8761C2DB1288804E01722D5E7212207
:10370000D3E70020B04206D9686820B150F826B04F
:10371000BBF1000F98D1BAF1000F74D0A08D012831
:1037200006D9256B0C3503D0288808B1002658E04F
:10373000182259E0A868006800EB061B3BD0BBF1DB
:10374000000F38D0C6EBC60001900AEB80000121C3
:10375000009000F095FFD9F8183059688842E7D8F2
:103760000098D9F80C208069D768D0F80CC067455C
:10377000DED19768D0F808C06745D9D15268406853
:103780008242D5D1186800F0B4FE0746484602F0E0
:1037900051FB8742CCD3D9F81800006800F0B8FE7E
:1037A00020F07E4201985AF8200020F07E408242AC
:1037B00003D0192218E0172216E00098406800286C
:1037C000F9D000988069006868B14146404500D250
:1037D000084680464A465846009900F019F8761C7B
:1037E0003DB1288806E021221321204601F0D7FCB4
:1037F00010E70020B04206D9686820B150F8269042
:10380000B9F1000F96D1A4F814804FF0010002E73F
:1038100070B504460E461546104602F00BFB0146F5
:10382000A060B06900684843E060716861607268D8
:1038300010442060A8690268920007D4D0E90223EE
:10384000D21A11448160A9696068C86070BD70B502
:103850000646002521E0B068006800EB0514886981
:103860000268920005D58168A268606802F0EEFCEB
:1038700008E0D0E90223D21A63681A448260896999
:103880006068C860D4E9010108446060216888422A
:1038900001D3E068081A6D1C60600EB1308800E04A
:1038A0000020A84206D97068002803D050F82510DF
:1038B0000029D0D170BD2DE9F0410646002529E050
:1038C000B1688369096801EB051419688900D4E9B6
:1038D00001120DD5986802F0B9FCD4E90101084441
:1038E00060602168884201D3E068081A606010E0D7
:1038F0000A44626021688A4201D3E2688A1A6260DF
:103900008169D1E90237DB1B1A448A6080696168EA
:10391000C1606D1C0EB1308800E00020A84206D9BD
:103920007068002803D050F825000028C8D1BDE8F1
:10393000F081000013B504480078002803D001216D
:1039400001A802F073FC1CBD940A00206FF4004132
:10395000401804D0012803D0022801D00814704771
:1039600000207047002070476FF40041401805D0D8
:10397000012802D0022801D00020704701207047A2
:1039800010B5044600783A280ED10DA12046FCF768
:103990000DFF60B10CA12046FCF708FF50B10CA14F
:1039A0002046FCF703FF40B14FF0FF3010BD48F256
:1039B000010010BD48F2020010BD48F2030010BD26
:1039C0003A535444494E00003A5354444F5554001E
:1039D0003A535444455252004FF0FF3070476FF451
:1039E000004141184FF0FF3004D0012901D00229D5
:1039F00000D10020704700002DE9F04F3F242DED4D
:103A0000088B91B08146B0EE408AF0EE608A0025C6
:103A10009FED490B51EC180B53EC102B03F06EF893
:103A200001D2012000E0002082469FED45AB9FEDD2
:103A3000469B00269FED46BBD9F8047009E000BF05
:103A400053EC1B2B51EC190B03F094F841EC190BC0
:103A5000761CB742F4DCBAF1000F05D051EC180B1C
:103A600002F034FE41EC180B53EC192B51EC1A0BFD
:103A700002F0ECFE53EC182B02F034FE53EC192B41
:103A800003F078F803F0D4FA06464FF02E0BE84620
:103A90000A2200233046FCF773FC0A22A0FB022313
:103AA000B21A303208F8042005F101050646A4F1E7
:103AB0000104AF4203D108F804B0641E6D1C56EA3D
:103AC0000100E5D13020AF4204D908F80400641E9B
:103AD0006D1CF8E7AF4203D108F804B0641E6D1CFA
:103AE0007F1CAF4203D108F80400641E6D1CBAF1BC
:103AF000000F04D02D2008F80400641E6D1CD9F8B6
:103B000000002021A84204D908F80410641E6D1C8E
:103B1000F8E70026641C06E008EB0400815DD9E9A3
:103B200003209047761CAE42F6D311B02846BDEC78
:103B3000088BBDE8F08F00000000000000000000CE
:103B4000000000000000E03F000000000000F03F27
:103B500000000000000024402DE9F04790B000264E
:103B600017468DF83F60926804463E259046B14660
:103B7000684652070DD5221E71F1000209DA0023B2
:103B8000D4EB03043A6863EB0101521E4FF02D0998
:103B90003A6082465FEAC86021D5200940EA017098
:103BA00004F00F0209090A2A08D35FEA087301D555
:103BB000412300E061231A440A3A00E03032D3B2D4
:103BC0000AF805306D1E0446761C52460843E1D1C2
:103BD000B9F1000F12D05FEAC8700BD00EE00A22D4
:103BE00000232046FCF7CCFB0A22A0FB0223A21AEA
:103BF0003032E4E70AF805906D1E761C30213868F3
:103C00002023B0420BDD5FEA887408D45FEAC874F1
:103C100001D0515500E053556D1E761CF1E7B9F106
:103C2000000F06D0401CB04203DD02F805906D1E67
:103C3000761C002490466D1C07E000BF08EB0500D1
:103C4000015DD7E903209047641CB442F6DB387A63
:103C5000800705D407E0D7E9032020219047761C90
:103C60003868B042F7DC10B03046BDE8F08700009D
:103C70002DE9F0410D468046FCF7D4FC0446686807
:103C8000002610B1A04200DA0446287A80070AD440
:103C9000274605E0D5E9032020219047761C7F1CAC
:103CA0002868B842F6DC002707E000BFD5E903200A
:103CB00018F8011B9047761C7F1CA742F6DB287A78
:103CC000800706D408E0D5E9032020219047641C32
:103CD000761C2868A042F6DC3046BDE8F081000082
:103CE0002DE9F04104460D4622A002F0B7F800226B
:103CF0002146284600F07AFE10F0FF0F06D025A1DD
:103D000000F0BAF84FF0FF30BDE8F08126A002F0D5
:103D1000A5F804F108010F46206800F0CFFE002549
:103D2000AE1ED0B1206800F0E5FE0028206808D063
:103D3000394600F0C3FE80B1384600F033FA002067
:103D4000E2E700F0A7FE1FA100F096F8206800F05F
:103D50007BFE6FF003002560D6E7206800F09AFE36
:103D60001DA100F089F8206800F06EFE3046256045
:103D7000CAE700004372656174696E672074686504
:103D8000206E6574776F726B20222573222E2E0DA4
:103D90000A00000061695F6D6E6574776F726B5F1A
:103DA0006372656174650000496E697469616C696C
:103DB0007A696E6720746865206E6574776F726BC0
:103DC0000D0A000061695F6D6E6574776F726B5FDD
:103DD000696E69740000000061695F6D6E657477DB
:103DE0006F726B5F6765745F696E666F00000000DD
:103DF0002DE9F0414FF0FF3600F076F80F4F00202C
:103E000038600FA002F02AF800252946002000F0B3
:103E100033FE04000CD0014611A002F01FF805EBA0
:103E2000C50007EB00102146FFF75AFF060002D13C
:103E30006D1C002CE9D13046BDE8F081480B002014
:103E4000446973636F766572696E67207468652074
:103E50006E6574776F726B2873292E2E2E0D0A00F3
:103E60000D0A466F756E64206E6574776F726B20F5
:103E7000222573220D0A0000020A29B1C0B213469E
:103E8000024603A001F0EABFC1B20DA001F0E6BFF7
:103E9000453A204149206572726F722028257329A6
:103EA000202D20747970653D30782530327820637C
:103EB0006F64653D3078253032780D0A00000000CF
:103EC000453A204149206572726F72202D20747925
:103ED00070653D30782530327820636F64653D3001
:103EE00078253032780D0A000EB501F067F9C0F37D
:103EF0000741C0F30722C0B2CDE9000202910122BE
:103F00000023114601A001F0A9FF0EBD0D0A414991
:103F100020706C6174666F726D20284150492025B5
:103F2000642E25642E2564202D2052554E54494D73
:103F3000452025642E25642E2564290D0A000000E5
:103F40002DE9F04304462DED028B81B006688069AF
:103F5000D0E9023201686DA001F080FFBCB1606958
:103F60000521B1EB102F06D1A069426801696AA052
:103F700001F074FF10E00621B1EB102F07D1A0690A
:103F8000D0E90412436866A001F068FF04E0A0696C
:103F9000416866A001F062FF0121204600F070FB3D
:103FA000014663A001F05AFFC6F34345012D06D038
:103FB000032D08D0F015C0070BD05EA10AE0C6F3B0
:103FC000C6115DA002E0C6F3C6115DA001F046FF78
:103FD00005E05DA1C6F3C6125CA001F03FFF022D13
:103FE00071D1A06800285AD00178C90757D040681D
:103FF00098B34788042F01D9042000E03846804652
:10400000394654A001F02AFF00259FED548A3CE078
:10401000A06878B10178C9070CD0416851B14A68ED
:1040200042B14988A94205DD116801EB850191ED96
:10403000000A01E0B0EE480AB8B10178C90714D00F
:10404000406890B101788907416807D569B1408817
:10405000A8420ADD4868405D08E020E029B14088B8
:10406000A84202DD4868405700E00020814610EE7B
:10407000100A02F067FF41EC100B39A053EC102B33
:10408000CDF8009001F0EAFE6D1C4545C0DB4745C8
:1040900001DD36A000E02EA001F0E0FE13E0C6F343
:1040A000C611082903D232A001F0D8FE0BE006F0B9
:1040B0007F03C6F3C0501844091AA3F140022FA091
:1040C000403101F0CBFE60684FF00101002820462E
:1040D0000ED000F0D5FA314600F0C9FA616801B09F
:1040E0000246BDEC028B27A0BDE8F04301F0B6BE4E
:1040F00000F0C6FA314600F0BAFA01B00146BDEC54
:10410000028B23A0BDE8F04301F0A8BE2825642C53
:1041100025642C25642C000025642C2564290000CE
:1041200025642C25642C25642900000025642900C1
:1041300025642F0069000000666C6F6174256400BF
:10414000626F6F6C256400007500000025732564A4
:10415000000000002025643A00000000000000007C
:104160002825662C2564292C000000002E2E000036
:1041700020696E7433322D2564620000205125645D
:104180002E2564002040307825582F25640000003B
:1041900020285573657220446F6D61696E292F2543
:1041A0006400000070B5044646A001F057FE4CA024
:1041B000216801F053FE51A0616801F04FFE56A046
:1041C000A16801F04BFE5BA0E16801F047FEA16928
:1041D000087810B15EA001F041FEA37F627F217FCD
:1041E00062A001F03BFED4E90C2369A001F036FE89
:1041F00070A0E16F01F032FEB4F8521074A001F02B
:104200002DFE002510E000BF606DC5EBC50100EB81
:104210008106294675A001F021FE3046FFF790FE89
:1042200035A001F01BFE6D1CB4F85200A842EBDC77
:10423000B4F84A106FA001F011FE002510E000BF95
:10424000E06CC5EBC50100EB8106294667A001F0D3
:1042500005FE3046FFF774FE27A001F0FFFD6D1C40
:10426000B4F84A00A842EBDC628F218F68A001F00D
:10427000F5FD00250EE029466DA001F0EFFDE06B95
:10428000C5EBC50100EB8100FFF75AFE1AA001F053
:10429000E5FD6D1C208FA842EDDC00250EE02946CF
:1042A00066A001F0DBFD206CC5EBC50100EB8100D1
:1042B000FFF746FE10A001F0D1FD6D1C608FA842F3
:1042C000EDDC70BD4E6574776F726B20696E666F42
:1042D000726D6174696F6E732E2E2E0D0A000000D0
:1042E000206D6F64656C206E616D6520202020203C
:1042F000202020203A2025730D0A0000206D6F64D5
:10430000656C207369676E6174757265202020206A
:104310003A2025730D0A0000206D6F64656C2064DF
:1043200061746574696D6520202020203A20257312
:104330000D0A000020636F6D70696C652064617404
:104340006574696D652020203A2025730D0A0000F0
:1043500020546F6F6C207265766973696F6E2020D0
:10436000202020203A2025730D0A000020746F6F52
:104370006C732076657273696F6E20202020202078
:104380003A2025642E25642E25640D0A00000000C5
:1043900020636F6D706C657869747920202020200F
:1043A000202020203A20256C6C75204D4143430D80
:1043B0000A00000020632D6E6F64657320202020AA
:1043C00020202020202020203A2025640D0A0000F3
:1043D000206D61705F61637469766174696F6E737B
:1043E000202020203A2025640D0A000020205B2593
:1043F000645D2000206D61705F7765696768747324
:1044000020202020202020203A2025640D0A0000B2
:10441000206E5F696E707574732F6E5F6F75747048
:10442000757473203A2025752F25750D0A0000003C
:104430002020495B25645D200000000020204F5BA8
:1044400025645D200000000010B50CA001F006FD01
:10445000002307220BA114A001F000FD16A001F01B
:10446000FDFC01F03BFF01F0D3FE00F0E5FEFFF79D
:10447000BFFC0320FCF78CF8002010BD0D0A230DB3
:104480000A00000041492073797374656D207065DE
:1044900072666F726D616E6365206D6561737572B2
:1044A000656D656E74000000232025732025642E41
:1044B00025640D0A00000000230D0A0079B1C0F345
:1044C000C6125143C91DC0F3415321F00701D94021
:1044D000C0F34340042804D0082807D104E000209A
:1044E000704701EB021101E001EB0221C91DC80870
:1044F000704759B1C0F3C6125143C91D21F00701DD
:10450000C0F34150C140C91DC80870470020704722
:1045100070B54021C0F34342022A1BD0394A20F033
:104520007E439C1A0D014E0193425FD029DC364A2E
:10453000A3EB0204934259D019DC402B57D0403BE7
:10454000B3F580234CD0802B37D0AB424FD12E49CE
:10455000C91F4CE0C0F3C051C905C0F3C61241EAFF
:10456000C21100F07F02114341F480213FE0A4F525
:104570004074F93C1FD00F2C35D0B44237D12349B9
:1045800035E0234BE21A9C421BD00BDC214AA218D7
:104590001DD0802A19D0AA4211D0A2F58062073A14
:1045A00025D117E00F2A18D0B2420CD01A4BDA42AC
:1045B0001DD11A491BE01A4919E01A4917E01A4996
:1045C00015E01A4913E01A4911E01A490FE0194998
:1045D00080390CE01449C91D09E014490F3106E087
:1045E0001049803903E00E490F3100E0114600F018
:1045F00080420A4300F00051114300F0006008437C
:1046000070BD000040040600470404004010040090
:1046100000047E00000482FF00F801FF40108201C8
:1046200040080400C00004004004840040088400E6
:1046300040108400C000840070B514460D46064644
:1046400000F00CF840B17068C5EBC50110EB8100BB
:1046500002D04460012070BD002070BD28B14168C7
:1046600019B1408808B10120704700207047002828
:1046700004D0C1F3C6114843C01DC00870470000F4
:1046800010B502002AD0164B1068B3EBC01F03D040
:10469000144BB3EBC01F01D1012000E00020084201
:1046A0009069406802D01F3020F01F005369D9B2D2
:1046B000012900D000211C0A07E0012907D09369D5
:1046C00053F821305843491C1AB1234602E0012314
:1046D000F8E700238B42F0DC002800DC002010BD4E
:1046E000006000420060000208B509A1096800915D
:1046F00048B101789DF80020914204D10422694616
:10470000FBF764FF08B1002008BD012008BD0000D0
:10471000038404842DE9FF4F2DED020B82B0DDE907
:104720001609DDE913E800FB08F0584302EB800AA4
:104730000027DDF848B0189CA7E06242002A00DCA0
:104740000022ABEB0405454500D34546A01805996A
:10475000584301EB800102FB03F0AA1AABEB020500
:104760005D430195A8EB02055D4300950AEB8000CF
:1047700003FB02F5F0EE400A002679E0002225F066
:104780000F0C62E091ED004AD0ED004A91ED013A44
:1047900090ED011A44EE840AD1ED023AD0ED022ADE
:1047A00091ED032AD0ED031A91ED044A41EE030A7C
:1047B000D0ED044A90ED063A90ED071A42EEA30AB6
:1047C000D1ED053AD1ED062A41EE820A90ED052A97
:1047D000D1ED071A44EE840AD1ED084A90ED084A5B
:1047E00042EE230AD0ED093A91ED0A2A43EE220A5D
:1047F00091ED093AD0ED0A2A41EE210A91ED0B1A0A
:10480000D0ED0B1A44EE240A91ED0C4AD0ED0C4A7F
:1048100043EE830A91ED0D3AD0ED0D3A42EE820A55
:10482000D0ED0E2A91ED0F2A41EE810A91ED0E1A7C
:10483000D0ED0F1A40304031103244EE840A43EE7E
:10484000830A42EE810A41EE820A94459ADC06E030
:10485000B0EC011A521CF1EC011A41EE210AAA42F5
:10486000F6DB019A761C01EB8201009A00EB8200D4
:104870004E4583DB04987F1CC0ED000A1199049813
:1048800000EB81000490199804447745FFF455AF7C
:1048900008B0BDE8F08FF0B5042BDDE9055400EB5E
:1048A000840427D0082B27D12FE000236E0812E0C4
:1048B0000F783F0902EB870797ED000A80ED000AA9
:1048C00011F8017B07F00F0702EB870797ED000A4D
:1048D00080ED010A08301F465B1CB742E8D3EB07A6
:1048E00008D011F8013B1B0902EB830393ED000A8A
:1048F000A0EC010AA042D8D3F0BD11F8013B02EBB5
:10490000830393ED000AA0EC010AA042F5D3F0BDA9
:104910002DE9F041446B002594B101260027207950
:10492000400707D5A16A204611B18847304600E00C
:10493000384605442069A04202D008B10446EEE79B
:104940002846BDE8F0812DE9F041C66B416B044675
:1049500000258163CEB1D9B10120226CB0470CE0B3
:104960000220226CB047A06BFEF77CFC07460320B8
:10497000226CA16BB0476D1CA763A16B0029EFD11E
:1049800006E0FEF76FFC6D1CA063A06B0028F8D159
:104990002846BDE8F08103460020596B002908D065
:1049A000CB600A69401C8A4203D0002A01D011461C
:1049B000F6E770472DE9F041446B002594B10126DC
:1049C00000272079C00707D0216A204611B1884707
:1049D000304600E0384605442069A04202D008B1C4
:1049E0000446EEE72846BDE8F08100002DE9F041DD
:1049F000804617460D46002000F06EF8060015D0E0
:104A0000104C4046214600F098F888B1BFB12269A9
:104A1000394628469047010A06D110F0FF0F03D10E
:104A20003460296871602E60BDE8F081312000E0BB
:104A3000142060F30705E8B200F58050F4E722691E
:104A40006168E6E7B87C010870B5054600F044F8F7
:104A500004000CD0D4E9001089698847616881425C
:104A600005D00448A04201D100210160002528465C
:104A700070BD00000C0C002070B5054C0D462146A1
:104A800000F05BF810B90DB1002070BD206870BD5A
:104A9000B87C010810B50146142262F30700C4B2C5
:104AA000084604F5805400F017F828B103C842699D
:104AB000BDE8104008461047204610BD10B50C4612
:104AC00000F00AF8002806D005C82146C368BDE8F2
:104AD00010401046184710BD0100054803D0884219
:104AE00004D10846704701680029FBD000207047B8
:104AF0000C0C002070B58EB0FFF7EEFF04001AD04A
:104B00002068816868468847002503AE08E0206871
:104B10002946806A50F825203046FFF78DFD6D1C30
:104B2000BDF80E00A842F2DCD4E90010CA6969465B
:104B300090470EB070BD0020FBE770B50C46050035
:104B400011D02068FBF76EFD06462846FBF76AFD8C
:104B5000864208D12068FBF765FD02462946206899
:104B6000FBF77FFD08B1002070BD012070BD70B55E
:104B700014460D46FFF7B0FF002808D009C82246AA
:104B8000066A2946B446BDE870401846604770BDC5
:104B90001CB500230522CDE900230123014A00F0C2
:104BA0008DF91CBD8C0600201FB500280CD00749CC
:104BB000D1E90023CDE90023D1E90221CDE9022189
:104BC0006A4602A900F022F904B010BD0072000884
:104BD00000F0F8B9002200F0B8BA00F0FFB9000008
:104BE00030B5A3B00C46054600F026F9FCB1F0B193
:104BF000882210496846FBF77FFD00F0D7FA049041
:104C000000F0DCFA059000F0F7F8099000F04CF99C
:104C10000A906946284600F029F8002805D0882225
:104C200069462046FBF768FD012023B030BD002017
:104C3000FBE70000787100082DE9F0410D460646BB
:104C400000F0DAF9041E0DD0294601F047FA0746B4
:104C50002946204601F0FEF900EA0704304600F03C
:104C600051FA2040BDE8F08100F06FBA2DE9F04123
:104C70008CB00C4600F0E0F805000DD064B10020C7
:104C8000E067686B60B1E16F491CE16701698142CF
:104C900006D029B10846F6E700200CB0BDE8F08147
:104CA000E06F70B1A88D00B1286B04F13C01FEF7F4
:104CB000E5FA208738B1A88D012807D9286B0C3078
:104CC00005E0182228E01822122126E0002004F135
:104CD0004001FEF7D3FA608730B105F124000746A2
:104CE000FFF7BCFC18B10AE01822132115E0384682
:104CF000FFF7B4FC18B1E88C08B113220CE005F101
:104D00001C008046FFF7AAFC58B94046FFF7A6FCF6
:104D100038B1E88B28B112221121284600F03FFA61
:104D2000BAE76868C4F88000FCF7ACF92C48206149
:104D300000F044FA606100F05FF8606200F0B4F8DF
:104D4000A062A86C00F044FA206226A1606CFEF715
:104D50004DFC50B126486064D5E90901C4E914014D
:104D6000D5E90701C4E9120138E0224807AE0FC8AF
:104D700086E80F001F491C2210316846FBF7BCFC77
:104D800007A8069004F160001C2269460646FBF75E
:104D9000B3FC04F144001C2269460446FBF7ACFC5A
:104DA0003846FFF75BFC50B13846FFF757FC08B1B7
:104DB000A96A00E000211C223046FBF79DFC40461A
:104DC000FFF74CFC50B14046FFF748FC08B1296A98
:104DD00000E000211C222046FBF78EFC01205CE74E
:104DE000B8510008676574207265706F72740000B6
:104DF000DECAFAA144B60108034810B50469FCF7FD
:104E000041F9204610BD000018B6010810B570B178
:104E100069B162B1074C0460D1E90041C0E90141C8
:104E2000D2E90012C0E903120123184610BD002088
:104E300010BD0000DECAFAA110B518B1044A01681D
:104E4000914200D000200446FCF71CF9204610BD1A
:104E50000001C0A130B44AB140B139B1074C136868
:104E6000A34206D130BC0C32FEF79EBB30BC002002
:104E7000704730BC1C32FEF76FBB0000DECAFAA1DF
:104E800030B44AB140B139B1064C1368A34206D1DF
:104E900030BC121DFEF788BB30BC0020704730BC10
:104EA000FEF75ABBDECAFAA1034810B54469FCF705
:104EB000E9F8204610BD000018B601082DE9F04FB2
:104EC00089B00646DDE912104FF0000A554663F33B
:104ED0000705CDE9011361F30F259046544660F3B1
:104EE00017458346FEF7C7F9304F01001CD0304804
:104EF00000680123C0F30220042806D02D481822A0
:104F000002600268182A13D00BE02B481422836039
:104F100083680BB1521EFBD1826812B90068401C35
:104F20000AD00846FEF71AFAF86909B0BDE8F08F12
:104F300003600268002AFCD10846FEF70FFAFCF76E
:104F4000A1F8E6B11D49C8F80010C6F8008000F0CD
:104F500064F9B0B1FFF7A8FF8146C5F30721E8B2B5
:104F6000002200F04EF90546C9F3072109F0FF00C1
:104F7000002200F046F9854205D07C680BE0386AD3
:104F8000D3E73C6807E00EA0006800906846FFF792
:104F9000ABFB10B9BC68C6F800A0DDE901105A46A9
:104FA00000F02FF9C8F848002046BEE718B60108FF
:104FB000002004E0084C0258003002400001C0A16B
:104FC0000384048410B50446FFF736FF18B1FFF7D9
:104FD0009FFC002010BD204610BD000010B5FFF75B
:104FE0002BFF20B1BDE81040103000F010B901488F
:104FF000806910BD18B601082DE9F04F91B00C463C
:10500000FFF71AFF050013D0B4B13BA12068FEF7EB
:10501000EDFA06004FF0000B11D020680190D4E9A2
:105020000301CDE90401D4E90101CDE9020143E026
:10503000002011B0BDE8F08F1122102158E00121AD
:105040002046D4F804A0FFF71BFB804604F11C00A7
:10505000D4F8209001211090FFF712FB074614228C
:10506000274906A8FBF748FB0120B8F1000F02D042
:10507000ADF81E0002E0ADF81EB0002408941FB188
:10508000ADF82600109802E0ADF826B000200A9096
:10509000B9F1000F02D10FB1132206E0BAF1000FEF
:1050A00005D1B8F1000F02D0122210211FE0142206
:1050B00006A901A8FBF720FB86F00102144602A90D
:1050C00005F11C00FEF722FA68B1224604A905F199
:1050D0002400FEF71BFA40B10320E8602846FFF7E2
:1050E0005AFC2846A5E7122200E013221621284682
:1050F00000F055F89CE70000696E6974000000003C
:1051000070B6010870B5FFF797FE041E08D0207B2B
:10511000800706D410221121204600F040F800201C
:1051200070BD2046FFF746FCE06B60B1656B55B182
:10513000D4E90F322946002098472869A84202D0B6
:1051400008B10546F4E7012070BD70B515460E465E
:10515000FFF772FE04462A463146FEF751FA002850
:105160001CD0A08D08B1256B00E00025012802D9D4
:10517000266B0C360DE000260BE02846FEF767FB99
:105180002046FFF7E0FB3046FEF795FBE08A401C27
:10519000E082E08AA18A8842EFD380B270BD002805
:1051A00002D0103000F03BB87047000010B5FBF79C
:1051B00069FF01A010BD000000000000034810B509
:1051C000C468FBF75FFF204610BD000018B6010859
:1051D0000021020E62F30701020C62F30F21000AA4
:1051E00060F317410846704702460068010A012033
:1051F00004E05368491E53F8213058430029F8D180
:105200007047000640EA014040EA02207047002251
:1052100001680270026008467047012070470378F9
:1052200013F0FF0F01D0002070470170016862F396
:105230001F210160012070477FB500F0D7FF164D98
:1052400000246C606420FBF7FFFF68686421B0FBFA
:10525000F1F021466A4600F033F9DDE9010100EB87
:10526000C00202EB001001EB80010CA0039A00F0D9
:10527000F5FD6A46601E002100F022F9DDE901100B
:1052800001EB4102C2EBC11100EBC1001149086002
:1052900000F0ACFF7FBD0000001000E02054696DFD
:1052A000657374616D70202020203A205379735407
:1052B00069636B202B20445754202864656C617906
:1052C0002831293D25642E25303364206D73290D46
:1052D0000A000000000C002010B50420FCF759FD66
:1052E00006484FF47A710078B1FBF0F00449096880
:1052F000BDE81040B1FBF0F0FCF757BDC00A00203C
:10530000CC0A002070B5054600244FF47A7603E0FD
:10531000304600F004F8641CAC42F9D370BD70B59F
:105320004FF0E0240022656964214843A169A36924
:105330008B42FCD002D2A1EB030102E0A5EB0306F5
:1053400031440A4419468242F1D370BD40F23342DF
:10535000A0F2334190422FD012DC40F22142A0F261
:105360002141904220D006DCA0F5806013381DD08A
:1053700006280DD10EE0022910D0102908D10FE027
:10538000012909D00E290DD0252911D0302911D09D
:105390000AA070470BA070470DA070470FA0704780
:1053A00012A0704715A0704717A0704719A070474A
:1053B0001BA070471DA070471FA07047554E4B4E55
:1053C0004F574E0053544D33324634783700000067
:1053D00053544D33324634363900000053544D3364
:1053E000324634303178422F4300000053544D335D
:1053F000324634313178432F4500000053544D3349
:10540000324634313200000053544D333246343486
:105410003600000053544D3332463478000000000B
:1054200053544D33324634313000000053544D3321
:10543000324634313300000053544D333246343059
:105440003178442F450000002DE9F04389460023C0
:105450004FF01E0C93FBFCF193FBFCF20CFB1131A3
:10546000C900D20001F1080502F1080700240CE090
:10547000164607E0C6EB061801EB0818761C10F874
:1054800008804444BE42F5DB491CA942F0DBE11729
:1054900004EB9161891100EE101ADFED080A09EBA7
:1054A0008301B8EEC00A5B1CB3F5617F80EE201A61
:1054B00081ED001ACEDBBDE8F083000000007F43E1
:1054C0002DE9F0471500064688463DD0FCF70EF959
:1054D00007460246002330464146FAF751FF4FF493
:1054E0007A72A6FB02C3044608FB0230002106FBC9
:1054F00001013A4600236046FAF742FF144A81460A
:10550000A6FB02C308FB0230002106FB01013A465C
:1055100000236046FAF734FF02464FF47A70A4FB8A
:105520000010B9EB01014FF47A70A1FB0003084BA6
:10553000A4FB0336C018121AC5E90212C5E90074AB
:105540004FF00000BDE8F0874FF0FF30FAE70000B1
:1055500040420F0010B5034611B10020012210E0B7
:10556000FF2010BD03EB820494ED000A03EB8004DE
:10557000D4ED000AB4EEE00AF1EE10FA00DDD0B28C
:10558000521C8A42EEDB10BD2DE9F04F81699DB0BF
:105590000F880FB14A6800E0002252683AB10FB19B
:1055A0004A6800E000225268D2F8008001E04FF023
:1055B0000008012F02D94A680C3200E0002252682C
:1055C0004AB1012F02D94A680C3200E00022526829
:1055D000D2F800C001E04FF0000C022F02D94A6857
:1055E000183200E00022526842B1022F02D94A6804
:1055F000183200E000225268136800E00023022FF6
:105600000BD94A6812F1180F07D032F8184F012C45
:1056100003D9526812B1526800E00022D8F80C4059
:10562000DCF80C50D4F804A06E681796EE68059666
:10563000AD681695E5681B95A4681594048DA4B211
:105640001A94848DA4B21994C46B2588ADB20A95BE
:10565000A488A4B20294048E1FFA84F9848EC069CF
:10566000A6B2DC68A56864680B90D8F8180080685A
:1056700014909869D0F808B00AB1926992681392B0
:10568000DCF81820731E4FF0000C926812926A1E0C
:1056900002FB03521192631EA9F1010203FB0242B5
:1056A0000E920268C2F3C613C2F3415823FA08F3FC
:1056B000C2F34342042A01D0082A24D1C26812B39B
:1056C000032F02D94868243000E00020406878B1F8
:1056D000032F02D94868243000E000204068D0F849
:1056E00000C0BCF1000F03D0DCF81800876800E0B0
:1056F0000027DCF8180059464068CDE900A038467C
:10570000FFF7C9F807B95F460B990E9BCDE90F610A
:10571000CDE90D39DDE919310DF124080A98119E02
:1057200088E84B0002990694CDE90751DDE9153070
:10573000179C1B99CDF800A0CDE90310CDE90143DA
:10574000DDE913303A46129900F0FAF81DB0BDE8D1
:10575000F08F00002DE9F04F2DED028B87B08069AE
:10576000018809B1426800E00022526832B109B1F3
:10577000426800E000225268156800E00025012917
:1057800002D942680C3200E00022526842B101297D
:1057900002D942680C3200E000225268146800E02E
:1057A0000024022902D94268183200E0002252681F
:1057B0003AB1022902D94268183200E00022526848
:1057C0001268022993460BD9426812F1180F07D0CC
:1057D00032F8183F012B03D9526812B1526800E029
:1057E00000220492EA68E3684FF0000AD2F80480CD
:1057F000D3F80490D3E902235A430092DBF818301F
:105800001A68C2F3C616C2F34157FE400696032932
:1058100002D94668243600E00026766856B103298E
:1058200002D94068243000E000204068006808B1D8
:10583000866900E00026C2F34340042801D008280E
:105840000ED1DF685EB1D6E90001FEF737FED6F86B
:105850000CA002465146384600F0F8FC00E0BA467B
:10586000DBF8140000999FED358A40680390A06929
:105870008468A86904EB89078068029009FB01F03D
:1058800004EB8000059051E0DBF81800866804986E
:1058900010B18069856800E00025BAF1000F35D0AD
:1058A0000698042816D02EE015B1B5EC010A01E0E7
:1058B000B0EE480A8DED010ACDF80080524631461F
:1058C00001A8029BFDF7C4FB03989DED010A064465
:1058D000A4EC010ABC42E7D322E015B1B5EC010A01
:1058E00001E0B0EE480A8DED010ACDF80080524685
:1058F000314601A8029BFDF741FC03989DED010A8A
:105900000644A4EC010ABC42E7D309E02B46324628
:1059100020460299CDE9008900F0CAF804EB890419
:10592000029907EB890701EB8800029005988442F1
:10593000AAD307B0BDEC028BBDE8F08F00000000D9
:105940002DE9F04F2DED028B9BB02F9C279E1592D9
:10595000CDE91303C4F1000A00209FED548ACDE97C
:105960001701DDE92C40444326984443179893E0FF
:105970002E9840420F90CAF10000002800DC002061
:10598000814629983299A0EB0A00884200D3084644
:10599000289A0AEB09015143269AA0EB09005143CA
:1059A000DDE9132B1090159D02EB8101DDF860807D
:1059B000A5F100601291B0F1807F27D2002722E08C
:1059C000149810B1BBEC010A01E0B0EE480ADDE921
:1059D0000F20CDE90602CDF81490DDE92C30309986
:1059E0000891289A2A990096CDE90330CDE9012142
:1059F0002A464046269B1299FEF78CFE05EB84054D
:105A000008F104087F1CB742DAD33AE0A000FAF7A5
:105A100061FC00270E902FE0002009E005EB8001DB
:105A200091ED000A0E9901EB8001401C81ED000A06
:105A30008442F3D8149810B1BBEC010A01E0B0EE37
:105A4000480ADDE90F123098CDE90710CDE905923B
:105A5000DDE92C10289B2A9A0096CDE90310CDE9A8
:105A600001324046269B0E9A1299FEF753FE05EB33
:105A7000840508F104087F1CB742CDD30E98FAF7CD
:105A800058FC2A981899704301EB800018901798D9
:105A90003199401C8A4417902B998842FFF468AFD3
:105AA0001BB0BDEC028BBDE8F08F000000000000D1
:105AB0002DE9F04F06462DED028B81B09A46DDE9C7
:105AC0000C98344606EB88078B4615469FED168AE0
:105AD0000EE000BF8DED008A4B465A4629466846C7
