:020000040800F2
:10000000284E002071020008B3120008CF1000082B
:10001000B1120008CD030008B91500080000000067
:10002000000000000000000000000000B101000816
:10003000DD030008000000000D020008D5120008D2
:100040008B0200088B0200088B0200088B0200085C
:100050008B0200088B0200088B0200088B0200084C
:100060008B0200088B0200088B0200088B0200083C
:100070008B0200088B0200088B0200088B0200082C
:100080008B0200088B0200088B02000800000000B1
:100090000000000000000000000000008B020008CB
:1000A0008B0200088B020008911300088B020008E5
:1000B0008B0200088B0200088B0200088B020008EC
:1000C0008B0200088B0200088B0200088B020008DC
:1000D0008B0200088B0200088B0200080000000061
:1000E0008B0200088B0200088B0200080000000051
:1000F0000000000000000000000000008B0200086B
:10010000000000008B0200088B0200088B02000830
:1001100000000000000000000000000000000000DF
:100120008B0200088B0200088B0200088B0200087B
:100130008B0200080000000000000000000000002A
:100140000000000000000000000000008B0200081A
:100150008B0200088B0200088B0200088B0200084B
:100160008B0200088B020008000000000000000065
:10017000000000000000000000000000000000007F
:10018000000000008B0200080000000000000000DA
:100190008B0200088B020008DFF810D000F004F991
:1001A00000480047ED170008AFF30080284E0020FC
:1001B0002C4B19680868B0E8F04F80F30988BFF34A
:1001C0006F8F4FF0000080F311887047000000002F
:1001D00008480068006880F308884FF0000080F34A
:1001E000148862B661B6BFF34F8FBFF36F8F00DF25
:1001F00000BF00BF08ED00E0DFF80C00016841F42B
:1002000070010160704700BF88ED00E0EFF30980E6
:10021000BFF36F8F134B1A681EF0100F08BF20ED4D
:10022000108A20E9F04F106009B44FF0500080F3BD
:100230001188BFF34F8FBFF36F8F02F0C7FA4FF0F3
:10024000000080F3118809BC19680868B0E8F04F15
:100250001EF0100F08BFB0EC108A80F30988BFF3BE
:100260006F8F704724000020EFF305807047000077
:100270000648804706480047FEE7FEE7FEE7FEE740
:10028000FEE7FEE7FEE7FEE7FEE7FEE78113000874
:10029000990100082DE9F05F0546002092469B4633
:1002A00088460646814640241BE02846414647468C
:1002B000224600F069F853465A46C01A914110D3BD
:1002C00011461846224600F050F82D1A67EB010837
:1002D0004F4622460120002100F047F817EB0009A5
:1002E0004E41201EA4F10104DFDC484631462A4677
:1002F0004346BDE8F09F40EA01039B0703D009E0B5
:1003000008C9121F08C0042AFAD203E011F8013B01
:1003100000F8013B521EF9D27047D2B201E000F85A
:10032000012B491EFBD270470022F6E710B5134699
:100330000A4604461946FFF7F0FF204610BD30B5C7
:100340000B46014600202022012409E021FA02F593
:100350009D4205D303FA02F5491B04FA02F528442D
:10036000151EA2F10102F1DC30BD202A04DB203A87
:1003700000FA02F1002070479140C2F1200320FAF8
:1003800003F3194390407047202A04DB203A21FAF6
:1003900002F00021704721FA02F3D040C2F120029E
:1003A0009140084319467047064C074D06E0E06847
:1003B00040F0010394E8070098471034AC42F6D3AC
:1003C000FFF7EEFEF036000810370008FEE70000E9
:1003D000014900200860704700000020704772B695
:1003E000FEE700002DE9F84FDFF8B8A10022012454
:1003F00003254FF00F090AF1040BAAF1040E00BF08
:100400000B6804FA02F63340B34273D10F7907F058
:100410000307012F01D0022F16D187684FEA420847
:1004200005FA08FC27EA0C07D1F80CC00CFA08FC06
:100430004CEA070CC0F808C04768B7430E79C6F30A
:10044000001696403E4346600E79F643B6070DD03F
:10045000C768560005FA06FC27EA0C07D1F808C061
:100460000CFA06FC4CEA070CC0F80CC00E7906F03A
:100470000306022E10D1D60800EB8608D8F82060BB
:1004800057074FEAD76C09FA0CF7BE430F6907FA12
:100490000CF73743C8F8207006684FEA420C05FA9B
:1004A0000CF7BE430F7907F0030707FA0CF7374341
:1004B00007604E6816F4403F6DD03B4E376847F4F6
:1004C00080473760366822F0030706F480460096BE
:1004D000364E07EB060CDCF8086897073F0F09FA61
:1004E00007F826EA0806DFF8C880404503D14FF038
:1004F00000081EE04FE0DFF8BC80404502D14FF01D
:10050000010816E0DFF8B080404502D14FF0020844
:100510000FE0DFF8A880404502D14FF0030808E063
:10052000DFF89C80404502D14FF0040801E04FF015
:10053000070808FA07F848EA0608CCF80888DAF845
:1005400000605746D1F804C09E435FEACC2C00D52A
:100550001E433E60DBF800605F46D1F804C09E4356
:100560005FEA8C2C00D51E433E60DEF800607746C3
:10057000D1F804C09E435FEA8C3C00D51E433E6028
:10058000084F083F3E68D1F804C09E435FEACC3C68
:1005900000D51E433E60521C102AFFF431AFBDE867
:1005A000F88F0000083C0140443802400030014010
:1005B000000002400004024000080240000C02401B
:1005C000001002400069084000D0012070474269D5
:1005D00021EA02030A4043EA0241816170470AB1FD
:1005E000816170470904FBE701488068704700009B
:1005F000140000200248816802781144816070472D
:10060000140000200B4810B5016841F4007101602E
:10061000016841F480610160016841F4807101600A
:10062000032000F099F80F2000F006F800F04AF8D7
:10063000002010BD003C024030B505461C4887B084
:100640000024016841F480210160006806A900F4DB
:100650008020009001A800F02BF900F059F915490D
:10066000154AB0FBF1F11548491E026040F2E7322D
:10067000C0E90324C0E90114846100F043FB0400D5
:1006800012D10E4800F06CFB04000DD11A2000F0CE
:1006900035F8102D07D2002229461A2000F03CF828
:1006A0000748056000E0012407B0204630BD000087
:1006B0004438024040420F0000480140F80000204A
:1006C000180000200C4882B0016841F480410160AC
:1006D000006800F4804000900748001F016841F066
:1006E000805101600068002200F0805000900F21CE
:1006F000901E02B000F010B844380240002809DB18
:1007000000F01F02012191404009800000F1E0202B
:10071000C0F8001170470000F0B40E4B1B680C4687
:10072000C3F30223C3F10705042D00D90425191DC5
:10073000072901D2002300E0DB1E012606FA05F19D
:10074000491E214099409E40761E16403143F0BC20
:1007500000F044BF0CED00E0064900F00702086815
:100760004FF6FF03184040EA0220034A1043086096
:10077000704700000CED00E00000FA052DE9F0479D
:100780000E46050065D0DFF81481D8F80000F7B2F6
:1007900000F00700B04207D288F80070D8F80000D7
:1007A00000F00700B04254D128683D4C810712D5B3
:1007B000400703D5206840F4E05020602878000707
:1007C00003D5206840F4604020602068A96820F0CC
:1007D000F000084320602878C0072DD030496868B1
:1007E0000839012812D0022813D0032811D0096833
:1007F000890700292DDA216821F0030101432160D6
:10080000FFF7F2FE814641F2883A0EE0096889035B
:10081000EFE709688901ECE7FFF7E6FEA0EB0901C5
:10082000514502D90320BDE8F0872068696800F0CF
:100830000C00B0EB810FEFD1D8F80010404601F06A
:100840000701B14207D90770006800F00700B04205
:1008500001D00120E7E72878400705D52068E9683E
:1008600020F4E050084320602878000706D520686F
:10087000296920F4604040EAC100206000F058F887
:100880002168084AC1F30311515CC8400649086059
:1008900006480068FFF7D0FE0020C4E7003C024095
:1008A00008380240A436000820000020180000206C
:1008B0000F2202600C4A136803F0030343601368BD
:1008C00003F0F0038360136803F4E053C36012681D
:1008D0004FF4E05303EAD20202610448006800F0DA
:1008E000070008607047000008380240003C0240E2
:1008F0000448054900680968044AC1F38221515C33
:10090000C84070472000002008380240B436000874
:100910000448054900680968044AC1F34231515C42
:10092000C84070472000002008380240B436000854
:10093000154810B5006810F00C02144813D0144983
:10094000042A0FD0082A0ED10F4C241F22682368D6
:1009500002F03F025B0207D52068C0F38810A0FBBD
:10096000010106E0084610BD2168C1F38811A1FB12
:1009700000010023FFF78EFC2168C1F30141491CEF
:100980004900B0FBF1F010BD083802400024F4002B
:1009900040787D012DE9F84F04006ED02078DFF813
:1009A0004C93C007A9F104054AD009F1040001687D
:1009B000C1F38101012908D00068C0F38100022839
:1009C0000AD1D9F80000400206D52868800337D53F
:1009D00060680028E1D033E06068B0F5803F10D057
:1009E000B0F5A02F286810D020F480302860286847
:1009F00020F4802028606068A8B1FFF7F5FD064666
:100A00000DE0286840F48030F4E740F4802028604E
:100A1000F7E700BFFFF7E8FD801B642873D828685C
:100A20008003F7D50CE0FFF7DFFD064605E000BFC9
:100A3000FFF7DAFD801B6428F0D828688003F7D41C
:100A40002078DFF8AC8280074FF0000A3ED5A74837
:100A5000001D016811F00C0F08D00068C0F3810080
:100A600002280BD1D9F80000400207D4286880077B
:100A700016D5E068012800D112E033E1E068B8B192
:100A80000120C8F80000FFF7AFFD064605E000BFF3
:100A9000FFF7AAFD801B0228C0D828688007F7D579
:100AA0002868216920F0F80040EAC10028600DE0C4
:100AB000C8F800A0FFF798FD064604E0FFF794FD94
:100AC000801B02281FD828688007F7D420780007E9
:100AD00022D5864F87486169703771B10121016065
:100AE000FFF782FD064604E0FFF77EFD801B02282B
:100AF00009D838688007F7D50EE0C0F800A0FFF7E6
:100B000073FD064605E082E0FFF76EFD801B0228BC
:100B10007DD838688007F7D42078400768D5DFF89B
:100B2000CCB100270BF13C0BDBF80000C0000BD46C
:100B3000DBF8001041F08051CBF80010DBF800002A
:100B4000012700F0805000906B4E3068C00510D433
:100B5000306840F480703060FFF746FD009005E09B
:100B6000FFF742FD0099401A022850D83068C005AE
:100B7000F6D55E4EA0686C3601280FD00528306887
:100B800010D020F001003060306820F004003060A8
:100B9000A068B8B1FFF728FD00900FE0306840F082
:100BA0000100F4E740F004003060F7E7FFF71CFDB8
:100BB0000099411A41F28830814266D83068800736
:100BC000F4D50EE0FFF710FD009007E0FFF70CFDF5
:100BD0000099411A41F28830814256D83068800726
:100BE000F4D42FB1DBF8001021F08051CBF80010C5
:100BF000A069C8B33D49091D0968C1F381010229F3
:100C00004AD00228504607D0C8F8600000E03CE017
:100C1000FFF7EAFC04463BE04746C8F86000FFF7F0
:100C2000E3FC064605E000BFFFF7DEFC801B022860
:100C30002BD828688001F7D4D4E907010843A16ABA
:100C40002E4A490802EB0141626A41EA82110843D7
:100C500094F82C1040EA0161C9F8001001203866B0
:100C6000FFF7C2FC044606E03EE000BFFFF7BCFC15
:100C7000001B022809D828688001F7D534E000BF9E
:100C8000FFF7B2FC001B022802D90320BDE8F88F51
:100C900028688001F4D427E00128F7D0D9F80000B3
:100CA000E26900F4800191421CD1226A00F03F0108
:100CB000914217D147F6C071626A0140B1EB821FC1
:100CC00010D1A26A4FF0FF3300F4403103EB52021F
:100CD000B1EB024F06D194F82C1000F07060B0EB2D
:100CE000016F01D00120D1E70020CFE70438024096
:100CF00000004742800E4742007000400000FFFFA6
:100D00007047704710B5040003D094F83D0010B14F
:100D100007E0012010BD002084F83C00204600F0D0
:100D20001EF8022084F83D00211D206800F036FBEB
:100D3000012084F8460084F83E0084F83F0084F8DF
:100D4000400084F8410084F8420084F8430084F8AD
:100D5000440084F8450084F83D00002010BD704731
:100D600090F83D10012901D001207047022180F840
:100D70003D100168CA6842F00102CA6000680E496D
:100D800088420ED0B0F1804F0BD00C49884208D079
:100D90000B49884205D00B49884202D00A49884253
:100DA00004D1816801F00701062903D0016841F0F0
:100DB0000101016000207047000001400004004074
:100DC00000080040000C004000400140704770B532
:100DD0000446006801694FF00005C943890715D42E
:100DE000C168C943890711D4E91E01610120207738
:100DF000206880698007204602D0FFF7E7FF04E003
:100E000000F098F8204600F096F8257720680169F0
:100E1000C943490717D4C168C943490713D46FF0C0
:100E200004010161022020772068806910F4407F6E
:100E3000204602D0FFF7CAFF04E000F07BF820460E
:100E400000F079F8257720680169C943090716D4AD
:100E5000C168C943090712D46FF008010161042079
:100E600020772068C0698007204602D0FFF7AEFFD8
:100E700004E000F05FF8204600F05DF82577206878
:100E80000169C943C90617D4C168C943C90613D447
:100E90006FF010010161082020772068C06910F40C
:100EA000407F204602D0FFF791FF04E000F042F8B7
:100EB000204600F040F8257720680169C943C9073A
:100EC00008D1C168C943C90704D1891E0161204600
:100ED00000F032F820680169C943090609D4C168E5
:100EE000C943090605D46FF0800101612046FFF770
:100EF00007FF20680169C943490609D4C168C9438D
:100F0000490605D46FF040010161204600F01EF84B
:100F100020680169C94389060BD4C168C9438906A1
:100F200007D46FF0200101612046BDE87040FFF753
:100F3000E8BE70BD7047704700680349884201D120
:100F4000FFF758BB7047000000480140704770B57C
:100F5000040004D094F83D00002510B106E0012003
:100F600070BD84F83C50204600F022F8242084F81C
:100F70003D002068C16821F40051C160204600F0A6
:100F800059FA2068016921F49041016120684169A2
:100F900021F02A0141612068C16841F40051C1601B
:100FA0002564202084F83D0084F83E00002070BDB8
:100FB00010B586B0044614216846FFF7B5F9144908
:100FC0002068884221D113480021026842F01002B3
:100FD0000260006800F0100005900E4814380268A6
:100FE00042F001020260006800F0010005904FF439
:100FF000C06000900220CDE901010320039007208A
:10100000049069460448FFF7EDF906B010BD0000F2
:101010000010014044380240000002402DE9F8432E
:10102000044690F83D001F4616460D4620284CD138
:10103000C5B1BEB194F83C00012846D0012084F827
:101040003C004FF00008C4F84080212084F83D00A7
:10105000FFF7CAFAA6848146E684A068B0F5805FEF
:1010600003D004E00120BDE8F883206928B12E46B2
:101070005FF0000584F83C800EE00026FAE780214E
:10108000204600F05DFAA0B9AEB116F8010B216858
:101090004860E08C401EE084E08C4B464FF000023C
:1010A00000970028EBD14FF04001204600F048FAAD
:1010B00030B10320D7E735F8020BC0F30800E6E7AC
:1010C000202084F83D000020CDE70220CBE7FEE79A
:1010D0002DE9F0410025124C124F012608B126706F
:1010E00001E0207820B101213846FFF76BFA58B1B2
:1010F000032000F08CFB01213846FFF763FA00B1B2
:1011000026702846BDE8F081032000F080FB012115
:101110003846FFF757FA0028F3D101252070F0E791
:10112000AC00002000000240054C0020FFF7D0FF7B
:1011300010B1E06800F020FC012000F068FBF4E74B
:101140000400002000B587B014216846FFF7ECF8D2
:101150000A48016841F00101016000684FF4041180
:1011600000F0010005900120CDE9000102906946E0
:101170000348FFF737F907B000BD000030380240E0
:1011800000000240074D4FF4FA746421E86800F053
:1011900079FB10B904A000F011FA204600F037FBEB
:1011A000F3E70000040000206B657920707265731E
:1011B0007365640D0A00000010B501210D4A084650
:1011C00000F08EFB0C4C0B4A0021E0606C3A0B489F
:1011D00000F0FEFB074A2060483A0021084800F072
:1011E000F7FB044A6060243A0021064800F0F0FB57
:1011F000A06010BD9436000804000020B51200085D
:10120000291100088511000870B586B014216846C0
:10121000FFF78AF816480024016841F004010160D4
:10122000016801F004010591016841F0800101604D
:10123000016801F080010591016841F00101016040
:1012400000680C4E00F001004FF40055059000229C
:1012500029463046FFF7C3F901200095CDE9010486
:10126000694630460394FFF7BDF806B070BD000034
:1012700030380240000802400C4810B50A490160AD
:101280004FF4E1314160002181600C22C160C0E96E
:1012900004128161C161FFF75AFE002803D0BDE846
:1012A0001040FFF79CB810BD00100140B4000020B2
:1012B000FEE7FEE7064D4FF400544FF4FA76214660
:1012C0002846FFF784F9304600F0A1FAF7E700005E
:1012D0000008024010B54FF0E020006901F0B2FFB5
:1012E000012803D0BDE8104001F02ABB10BD00006A
:1012F00030B593B030216846FFF716F814210CA8DA
:10130000FFF712F81C480024016841F08051016089
:10131000006800F0805011901848016841F4404185
:1013200001600068022500F4404011900120039004
:1013300010200490009506950820CDE90740642010
:10134000CDE9090504200B906846FFF723FB08B19F
:1013500072B6FEE70F20CDE90C054FF48050CDE9C1
:101360000E4003210CA81094FFF708FA002801D0C2
:1013700072B6FEE713B030BD403802400070004046
:101380000248016841F470010160704788ED00E097
:101390000148FFF71CBD0000F8000020F0B502680E
:1013A0001D4B1E4C9F031E4D1E4E984207D0B84247
:1013B00005D0A04203D0A84201D0B04204D122F00F
:1013C000700C4A6842EA0C02984210D0B8420ED023
:1013D000A0420CD0A8420AD0B04208D0124CA04281
:1013E00005D0124CA04202D0114CA04203D122F4ED
:1013F0004074CA6822434C6922F080022243026092
:101400008A68C2620A688262984201D109690163EE
:1014100001214161F0BD00000000014000040040D6
:1014200000080040000C0040004001400044014022
:101430000048014070B5044600680169E26821F483
:101440004051114301612169A068E2690843616963
:10145000114308432168CA6849F20C639A43024366
:10146000CA6020684169A26921F440711143416159
:1014700031492068884202D03049884202D1FFF7C2
:1014800047FA01E0FFF734FAE269002319216425E5
:101490003226B2F5004F626828D0A0FB0101930FFD
:1014A0009200FEF7F7FE0146B0FBF5F06FF0180270
:1014B000504301EB800006EB0010B0FBF5F000F0AC
:1014C000F002B1FBF5F002EB0012B1FBF5F06FF0AA
:1014D0001803584301EB800006EB0010B0FBF5F059
:1014E00000F00F0021681044886070BDA0FB01016E
:1014F00092185B41FEF7CEFE0146B0FBF5F002010B
:10150000B1FBF5F06FF01803584301EB800006EBD8
:10151000C000B0FBF5F000F0F80002EB4002B1FBB8
:10152000F5F0584301EB800006EBC000B0FBF5F08E
:1015300000F00700D6E70000001001400014014051
:101540002DE9F041984617460E460446069D27E0D1
:10155000681C25D02DB1FFF747F8A0EB0800A84282
:101560001ED920680C3050E8001F21F4D07140E8EB
:101570000012002AF5D12068143050E8001F21F035
:10158000010140E80012002AF5D1202084F83D0036
:1015900084F83E00002084F83C000320BDE8F08180
:1015A0002068006836EA000004D00020B842CFD09E
:1015B0000020F3E70120F9E7FEE700000FB4054B38
:1015C00010B503A9044A029800F028F810BC5DF891
:1015D00014FB0000D5170008B00000200907090E11
:1015E000002804DB00F1E02080F80014704700F0D0
:1015F0000F0000F1E02080F8141D704702E008C8D9
:10160000121F08C1002AFAD170477047002001E07C
:1016100001C1121F002AFBD1704700002DE9FF4FC6
:101620008BB09A460F460546002606E025280BD0CB
:1016300052460D9990476D1C761C28780028F5D1EC
:101640000FB03046BDE8F08F0024A046012260496B
:1016500000E0044315F8013F203B02FA03F0084282
:10166000F7D128782E2817D115F8010F44F004047B
:101670002A280ED06FF02F022878A0F13001092916
:101680000AD808EB880102EB410100EB01086D1C50
:10169000F2E757F8048B6D1C287869283ED006DCE9
:1016A0000028CDD063280BD0642804D136E07328FD
:1016B00010D075284BD052460D999047761C85E086
:1016C00017F8040B8DF8000000208DF80100E946A2
:1016D000012003E057F8049B4FF0FF3061074FF003
:1016E000000401D40AE0641C44450DDA8442FADBAC
:1016F00019F804100029F6D106E0641C8442FCDBD2
:1017000019F804100029F8D1264404E019F8010B57
:1017100052460D999047641EF8D257E001CF4FF022
:101720000A0B002802DA40422D2102E0210504D5EF
:101730002B218DF82410012103E0E10705D02021A1
:10174000F7E70DF1200908910CE00021F9E701CF3E
:101750004FF00A0BF9E75946FEF7F1FD01F13002AF
:1017600009F8012D0028F6D1ADEB090000F1200B9E
:10177000600701D44FF00108D84502DDA8EB0B004B
:1017800000E000208046002406E009A85246005DE3
:101790000D999047641C761C08988442F5DB04E0A0
:1017A000302052460D999047761CB8F10001A8F1FF
:1017B0000108F5DC05E019F8010B52460D99904738
:1017C000761CBBF10001ABF1010BF4DC6D1C34E7BE
:1017D0000928010013B54FF6FF730122694602483C
:1017E000FFF71CFC00981CBDB4000020FEF70AFFA8
:1017F000FFF77EFDFFF708FDFFF73EFDFFF7A2FCB8
:1018000000F012F8FFF7D8FC00F020F8FEE710B562
:10181000EFF3058111B16FF0050403E0002408B176
:1018200000F0D6FE204610BDEFF3058010B16FF03A
:10183000050070470448016811B14FF0FF30704750
:1018400001210160002070477C00002010B5EFF3FB
:10185000058010B16FF0050010BD0848016801292E
:1018600002D04FF0FF3010BD054A002182F8141D50
:101870000221016000F05CFF002010BD7C00002010
:101880000BE000E0F8B50D460024211F4E1C002897
:1018900004D000BFEFF30582A2B10DB10C461BE0EE
:1018A00000216A46009101F031FB012813D1009814
:1018B00090B10A494FF080500860BFF34F8FBFF3DB
:1018C0006F8F09E0294601F06FFB012804D015B1A4
:1018D0006FF0010400E034462046F8BD04ED00E05E
:1018E000F8B5144603460E464FF00005EFF30580A9
:1018F00098BB93B39E423DD84CB1A0680028E068E5
:1019000003D0502836D3012002E008B132E0002095
:10191000012B05D010B31846A26801F044F820E06E
:1019200040B103200090002211460120A36801F07D
:101930007BF804E003220021012001F054F80500A7
:1019400018D086B100231A46194601F0E5F801289F
:1019500009D0284600F0EEFD00250BE0184601F006
:1019600005F8050006D00CB1216800E000212846EA
:1019700000F0CCFD2846F8BD38B50024E51E00284F
:101980000BD000BFEFF30581A9B10021009169469A
:1019900001F0D1F9012815D102E06FF0030412E043
:1019A000009880B109494FF080500860BFF34F8F15
:1019B000BFF36F8F07E000231A46194601F0ACF819
:1019C000012800D02C46204638BD000004ED00E080
:1019D0002DE9FF414FEA01034FF00005EFF30581C8
:1019E000039549BB40B38027182100244AB31668E9
:1019F00006B1344696691EB13146761E382E02D2A3
:101A00001679F60703D0002004B0BDE8F0815669CE
:101A100006B1B708D2F808C0BCF1000F0DD0D568E8
:101A2000642D18D312693AB136B18DE806103A46E2
:101A3000214601F0DCFB03900DE0D6685EB9126927
:101A40004AB903AACDE90012BAB2214601F0A2FBBD
:101A5000012800D003950398D6E700002DE9F04156
:101A6000134C0F460546E6682068001D00F050FC48
:101A7000681C07D137B12168BDE8F0410D48091D48
:101A800000F096BC20683544B5424560216805D217
:101A9000206CBDE8F041091D00F072BCE06B091D2F
:101AA00000F06EFCA06A854200D2A562BDE8F0811C
:101AB00024000020300600202DE9F041054600F00A
:101AC00083FC2D4CA068401CA06020682B4F10B1F7
:101AD000606930B32BE02560A068012827D100267B
:101AE00006EB860007EB800000F03CFC761C382EED
:101AF000F6D3234800F036FC2148143000F032FCC5
:101B00001F48283000F02EFC1D483C3000F02AFC15
:101B10001B48503000F026FC1948E0631430206464
:101B200005E02068E96AC06A884200D82560606ADA
:101B3000401C6062A864E86A2169884200D920617B
:101B400000EB800007EB8000291D00F031FC00F065
:101B50005BFC606900280CD02068E96AC06A884292
:101B600007D208494FF080500860BFF34F8FBFF392
:101B70006F8FBDE8F081000024000020800100206C
:101B8000E005002004ED00E038B500F01DFC104C2D
:101B90002068C8B90F4800F0E5FB0E48143000F08B
:101BA000E1FB0C48E060143020610A4B0020F03B60
:101BB000009003F1500210210A2000F035FF206050
:101BC00010B105A100F0A2FCBDE8384000F01CBC3B
:101BD0006800002034070020546D7251000000009E
:101BE00030B4026C0B46002A0BD0C1681144C160AE
:101BF0008468A14201D30168C16030BC1846FEF779
:101C00007ABB30BC70472DE9F041856B174604461E
:101C10000026026C82B1C7B1E068FEF76CFBE16898
:101C2000206C091AE1602268914202D2A168081A68
:101C3000E060022F16D017E02068A8B9A06801F074
:101C400079FB06460020A0600EE06068FEF753FBBB
:101C5000216C606808446060A168884204D32068F1
:101C6000606001E005B16D1E6D1CA5633046BDE8E6
:101C7000F08110B5044690F8610058B101280CD0ED
:101C800002280FD0502080F31188BFF34F8FBFF38D
:101C90006F8FFEE7206B00F0CBFB2046BDE81040C5
:101CA00000F0C6BB10BD000010484FF47051420751
:101CB00006D0C01D0D4920F00700411AC1F5705132
:101CC0000B4A00230144C2E900030839183A21F005
:101CD000070111604B600B600B1AC0E900139360A1
:101CE0004FF000405360506170470000240E002008
:101CF00098000020144E154CA6F29C474FF08058D7
:101D0000DFF84C9012E000BF00F05EFBF068C568A1
:101D1000281D00F0FDFAA068401EA0606068401E0B
:101D2000606000F071FB2846FFF7A3FF60680028A1
:101D3000EAD138680128F9D9C9F80080BFF34F8F7C
:101D4000BFF36F8FF2E700001C0600202400002084
:101D500004ED00E070B51D46049C51B1C4F80020AC
:101D6000C4E90F010121204600F092FE84F84C5096
:101D700070BD2460F4E72DE9F05F8846DDE90B943F
:101D80001546834691009A460A9EA522206BFEF7CF
:101D9000C4FA6FF00301206B01EB8501084420F0C9
:101DA0000707780707D0502080F31188BFF34F8FC3
:101DB000BFF36F8FFEE700256764B8F1000F0ED008
:101DC0000020221818F8001082F8341018F80010BB
:101DD00011B1401C1028F4D384F8435001E084F87A
:101DE0003450382E00D33726E662C4E91465201D2E
:101DF00000F0C3FA04F1180000F0BFFA2461C6F144
:101E000038006462A061A565E56584F860505246BB
:101E10005946384600F066FA2060B9F1000F01D04B
:101E2000C9F80040BDE8F09F30B5114900E0114607
:101E30000A688242FBD34B685C18844203D1406835
:101E400018444860084643681C18944209D1084C5D
:101E5000183C2468A24209D052681A4442600A68B9
:101E600012680260814200D0086030BD0460F9E76A
:101E70009800002070B5002441600B4D0061914234
:101E800006D8D11A8269914206D2011D286907E05D
:101E90009A4203D2994201D3012403E0011DE8686C
:101EA00000F06EFA204670BD6800002010B50446B0
:101EB00000F08AFAA06B28B15FF0000400F0A4FAE9
:101EC000204610BD0124F9E730B589B03C4D6EE0E5
:101ED0000498002806DADDE90601059A904704987F
:101EE000002864DB069C606910B1201D00F010FA28
:101EF00003A800F0D7F8024604980A2857D2DFE872
:101F000000F00505052D334A05052D3394F828000A
:101F100040F0010084F828000599A069059B014460
:101F20002046FFF7A7FF68B3216A2046884794F848
:101F3000280040073BD5002000900598A1690023A8
:101F400042181946204601F03BFBD8B9502080F3D7
:101F50001188BFF34F8FBFF36F8FFEE714F8280F80
:101F600020F00100207022E094F8280040F00100E9
:101F700084F828000598A06128B1811813462046EE
:101F8000FFF778FF13E0502080F31188BFF34F8FE5
:101F9000BFF36F8FFEE794F82800810703D4204633
:101FA00000F046FA03E020F0010084F82800002247
:101FB00004A9286800F00EFF002889D109B030BDBF
:101FC000680000202DE9FC410F46054600F0F6FBB5
:101FD00001A800F067F80446019818B101F05EFA14
:101FE000BDE8FC81254EAFB130690068D0B3002751
:101FF000291B3A46306800F0C9FA01F04FFA002870
:10200000EED11F494FF080500860BFF34F8FBFF3F0
:102010006F8FE5E7A542EBD801F040FAF06827465C
:10202000C068C468201D00F073F994F828004107C7
:1020300019D5A0692B4641193A462046FFF71AFFE9
:10204000A8B100200346014600902A46204601F030
:10205000B7FA60B9502080F31188BFF34F8FBFF3F8
:102060006F8FFEE707E020F0010084F82800216A66
:1020700020468847B4E70127BAE70000680000203F
:1020800004ED00E00648C16B096829B1C16BC9685D
:10209000C9684968816270474FF0FF31FAE7000074
:1020A0002400002070B5054601F0DAF8064E04461B
:1020B000B068844203D200F009F8012000E000205B
:1020C00028602046B46070BD68000020F8B5194D46
:1020D00020E0C068C4680668201D00F019F9216A74
:1020E0002046884794F82800400713D5A06930445B
:1020F000B04206D924616060211DE86800F040F913
:1021000008E000200346014600903246204601F0D8
:1021100057FA38B1E86801680029DAD12969C5E9B8
:102120000310F8BD502080F31188BFF34F8FBFF329
:102130006F8FFEE76800002008484068401C4FF0A1
:10214000500080F3118804D0BFF34F8FBFF36F8F1F
:10215000FEE7BFF34F8FBFF36F8FFEE7A0000020B5
:10216000074CE068016841B1C0680021D0F8000068
:10217000FFF728FFFFF7A8FEF3E701210020F7E7AC
:10218000680000202DE9F041044600F01DF994F9A3
:10219000455004F1240609E0606A48B1304601F078
:1021A00045F908B100F042FA6D1E6DB2002DF3DC66
:1021B0004FF0FF3684F8456000F026F900F004F98E
:1021C00094F9445004F1100709E0206948B13846F9
:1021D00001F02CF908B100F029FA6D1E6DB2002D46
:1021E000F3DC84F84460BDE8F04100F00DB9000074
:1021F0002DE9F0410546002700F0E0FA324E306844
:1022000008B9FFF751FD706905424ED1C5B30835D5
:1022100068070ED005F00700C0F108000544680704
:1022200007D0502080F31188BFF34F8FBFF36F8F1B
:10223000FEE72DB37068854237D823481830014631
:102240000C6801E020460C466168A94202D2216870
:102250000029F7D131688C4227D0076821680160D6
:1022600060680837411B10290FD96019420708D050
:10227000502080F31188BFF34F8FBFF36F8FFEE7BD
:1022800013E041606560FFF7CFFD61687068401A38
:102290007060B268904200D2B06070690143002063
:1022A000C4E90001F068401CF06001F0F7F878071D
:1022B00007D0502080F31188BFF34F8FBFF36F8F8B
:1022C000FEE73846BDE8F081800000200449086838
:1022D00018B10868426D521C4265086870470000DA
:1022E0002400002010B5031F4FF080741C601B1FDA
:1022F00021F001011960191F044B0B6014390A60A9
:10230000091F6FF0020244380A6010BD392100082D
:10231000D0E9013201699A60D0E901235A604A6824
:10232000824201D182684A60002202610868401E30
:102330000860086870470000034B036003F1640005
:1023400008608020106070475C070020044B036029
:1023500003F1640008604FF4807010607047000063
:10236000C009002000F108014FF0FF32C0E901125E
:10237000C160016100210160704700210161704767
:1023800030B50B685A1C02D000F1080202E0026965
:1023900004E02246546825689D42FAD953684B6090
:1023A00099608A60516008610168491C016030BD14
:1023B00042684A6093688B609368596091600861D5
:1023C0000168491C01607047502080F31188BFF3F9
:1023D0004F8FBFF36F8F0A494868401C486001283F
:1023E0000CD10848006810F0FF0F07D0502080F390
:1023F0001188BFF34F8FBFF36F8FFEE77047000068
:10240000A000002004ED00E00849486828B1401E03
:10241000486001D180F311887047502080F3118803
:10242000BFF34F8FBFF36F8FFEE70000A0000020C7
:1024300070B500282AD0164DA0F1080460686969BB
:10244000084207D1502080F31188BFF34F8FBFF3AC
:102450006F8FFEE722683AB1502080F31188BFF3F6
:102460004F8FBFF36F8FFEE78843606000F0A6F9DF
:1024700060686968084468602046FFF7D5FC2869F1
:10248000401C2861BDE8704001F008B870BD000034
:10249000800000204FF0E0200021016181610549AA
:1024A0004FF47A720968B1FBF2F1491E41610721CC
:1024B000016170472000002010B5FDF7D5FE1149DD
:1024C00010280ED300F1E02090F8F0030A78904233
:1024D00007D2502080F31188BFF34F8FBFF36F8F67
:1024E000FEE709480068896800F4E060884207D97F
:1024F000502080F31188BFF34F8FBFF36F8FFEE73B
:1025000010BD0000A00000200CED00E010B5084B4D
:10251000002200BF53F832401CB1521C082AF9D3E4
:1025200010BD43F8321003EBC201486010BD00003B
:102530004001002010B504000AD000F013F894F810
:10254000460000280CD12046BDE81040FFF770BFC0
:10255000502080F31188BFF34F8FBFF36F8FFEE7DA
:1025600010BD0000084A002102EBC1035B688342F2
:1025700006D1002042F8310002EBC10148607047EB
:10258000491C0829F0D370474001002070B515465A
:102590000E460446FFF718FF94F944100020491C2A
:1025A00001D184F8440094F94510491C01D184F804
:1025B0004500FFF729FFA06B28B92A46314604F1F0
:1025C000240000F051F82046BDE87040FFF7DABD66
:1025D00010B5020014D00F48006B38B1502080F3C2
:1025E0001188BFF34F8FBFF36F8FFEE700F0E6F85F
:1025F00000211046FFF732FA00F050FF002807D103
:1026000005494FF080500860BFF34F8FBFF36F8FC5
:1026100010BD00002400002004ED00E002490A6A19
:102620000260C96841607047240000200149012010
:10263000C86170472400002010B50C4650B109490C
:1026400009681831FFF79CFE2046BDE810400121C3
:10265000FFF704BA502080F31188BFF34F8FBFF308
:102660006F8FFEE72400002070B514460D4668B158
:102670000A4909681831FFF79BFE0CB14FF0FF358E
:1026800021462846BDE87040FFF7E8B9502080F3A6
:102690001188BFF34F8FBFF36F8FFEE72400002038
:1026A00070B504003ED0626DA2B1206D884200D3A7
:1026B0000146E06A884235D0012A33D11A4D2A6892
:1026C00094420FD1502080F31188BFF34F8FBFF396
:1026D0006F8FFEE7502080F31188BFF34F8FBFF359
:1026E0006F8FFEE7E162A269002A02DBC1F13801C7
:1026F000A1610E4E00EB8000616906EB8000814213
:1027000010D1201DFFF704FEE06A2969884200D934
:10271000286100EB800006EB8000211DBDE87040C1
:10272000FFF746BE70BD000024000020800100209D
:1027300030B587B00024039405AA04A903A8049423
:10274000FFF7FAFDDDE903010094CDE90110002354
:1027500016A11848059A00F04AFD174D0028E862B6
:1027600021D000F0FDFE012809D0401C1BD15020D3
:1027700080F31188BFF34F8FBFF36F8FFEE75020B8
:1027800080F31188BFF34F8FBFF36F8F4FF0FF308F
:10279000A86201206861EC60FDF71AFE07B0BDE891
:1027A000304000F053B807B030BD000049444C45FC
:1027B00000000000F51C0008240000200248016B06
:1027C000491C016370470000240000201C4810B51C
:1027D000016B11B10121C16110BD0021C161194915
:1027E00009688163436B994204D90268CB1A946DDE
:1027F0002344936541630169134A01E0B9B1491E5D
:1028000001EB810352F82330002BF7D001EB810359
:1028100002EB830202F1080453685B685360A34231
:1028200001D15B685360DA680260016110BD50201D
:1028300080F31188BFF34F8FBFF36F8FFEE7000067
:102840002400002000000020800100201CB5374833
:102850000168374A914207D1502080F31188BFF3B5
:102860004F8FBFF36F8FFEE700683149491E8842E2
:1028700007D1502080F31188BFF34F8FBFF36F8FC4
:10288000FEE72C4908780190FF20087008788DF841
:1028900000009DF800009DF8002000F0F00090423C
:1028A00007D0502080F31188BFF34F8FBFF36F8F95
:1028B000FEE79DF80000204C00F05000207007203B
:1028C000A06005E09DF8002052008DF80020401E19
:1028D0009DF800201206F5D4A060032807D05020F0
:1028E00080F31188BFF34F8FBFF36F8FFEE74FF474
:1028F0004070A060019808700C482030016841F4D5
:1029000070010160016841F070410160FFF7C2FD94
:1029100000206060FDF770FC0848016841F040410C
:102920000160FDF755FC00201CBD000000ED00E03B
:1029300071C20F4100E400E0A000002034EF00E08D
:1029400010B5502080F31188BFF34F8FBFF36F8F06
:1029500000F08CFC18B104494FF080500860002052
:1029600080F3118810BD000004ED00E010B50C46A6
:1029700048B184420FD9502080F31188BFF34F8FA4
:10298000BFF36F8FFEE7502080F31188BFF34F8FA6
:10299000BFF36F8FFEE70222002100F024F8002829
:1029A00000D0846310BD38B50C4648B184420FD9BD
:1029B000502080F31188BFF34F8FBFF36F8FFEE776
:1029C000502080F31188BFF34F8FBFF36F8FFEE766
:1029D0000221134600220091114600F025F800283C
:1029E00000D0846338BDF8B517460E46050013D0F5
:1029F00005FB06F05030FFF7FBFB04000AD0002077
:102A000084F8460004F150023B46314628460094C3
:102A1000FFF7A0F92046F8BD502080F31188BFF3DE
:102A20004F8FBFF36F8FFEE738B5049D18B153B1D8
:102A3000CAB181B120E0502080F31188BFF34F8FDD
:102A4000BFF36F8FFEE7502080F31188BFF34F8FE5
:102A5000BFF36F8FFEE7502080F31188BFF34F8FD5
:102A6000BFF36F8FFEE739B1502080F31188BFF3B9
:102A70004F8FBFF36F8FFEE750241C46012384F86D
:102A800046302B460094FFF765F9204638BD00001C
:102A900070B50D46040025D0FFF796FCD4E90F2051
:102AA000216802FB0011A1600021A163216861601F
:102AB0000A46D4E90F01401E00FB0121E1602146D6
:102AC0004FF0FF3001F8440F487004F110008DB151
:102AD000FFF748FC04F12400FFF744FCFFF794FCE7
:102AE000012070BD502080F31188BFF34F8FBFF3DA
:102AF0006F8FFEE721690029F0D000F097FC0028D5
:102B0000ECD004494FF080500860BFF34F8FBFF303
:102B10006F8FE3E704ED00E02DE9FF4782B01D462B
:102B20008A464FF00008040003D0BAF1000F08D025
:102B300011E0502080F31188BFF34F8FBFF36F8FE8
:102B4000FEE7206C38B1502080F31188BFF34F8F1F
:102B5000BFF36F8FFEE7022D0AD1E06B012807D08B
:102B6000502080F31188BFF34F8FBFF36F8FFEE7C4
:102B700000F068FB3F4F4FF000094FF0805648B916
:102B8000049838B1502080F31188BFF34F8FBFF302
:102B90006F8FFEE7FFF718FCA06BE16B884207D34D
:102BA000022D05D00498D0B1B8F1000F1AD01EE064
:102BB0002A4651462046FFF726F8616A19B104F10A
:102BC000240000F033FC20B13E60BFF34F8FBFF311
:102BD0006F8FFFF719FC012006B0BDE8F087FFF703
:102BE00013FC22E06846FFF719FD4FF00108FFF7DC
:102BF0000BFCFFF7E3FDFFF7E7FB94F94400401CF3
:102C000001D184F8449094F94500401C01D184F826
:102C10004590FFF7F9FB04A9684600F081FA30B14E
:102C20002046FFF7AFFA00F039FC0020D4E7FFF7A9
:102C3000CBFBA06BE16B884213D1FFF7E5FB04F1FE
:102C400010000499FFF7F8FC2046FFF79BFA00F00C
:102C500025FC00289ED13E60BFF34F8FBFF36F8FDE
:102C600098E7FFF7D1FB2046FFF78CFA00F016FC3F
:102C700090E7000004ED00E02DE9F0471F46904684
:102C80008946040003D0B9F1000F08D011E05020AC
:102C900080F31188BFF34F8FBFF36F8FFEE7206C77
:102CA00038B1502080F31188BFF34F8FBFF36F8F7F
:102CB000FEE7022F0AD1E06B012807D0502080F3F5
:102CC0001188BFF34F8FBFF36F8FFEE7FFF7F4FB61
:102CD0005020EFF3118680F31188BFF34F8FBFF3BD
:102CE0006F8FA06BE16B884206D3022F04D00020C7
:102CF00086F31188BDE8F08794F94550A06B3A46F9
:102D000049462046FEF77FFF681C04D06D1C84F8FE
:102D100045500120ECE7606A0028FAD004F1240055
:102D200000F084FB0028F4D0B8F1000FF1D00121AD
:102D3000C8F80010EDE770B50E46040009D0206C0D
:102D400078B1502080F31188BFF34F8FBFF36F8F9E
:102D5000FEE7502080F31188BFF34F8FBFF36F8FD2
:102D6000FEE7206848B9A06838B1502080F3118888
:102D7000BFF34F8FBFF36F8FFEE7FFF79DFB502030
:102D8000EFF3118580F31188BFF34F8FBFF36F8F7F
:102D9000A16BE06B884218D994F94500491CA163E6
:102DA000411C04D0401C84F8450001200EE0606AFC
:102DB0000028FAD004F1240000F038FB0028F4D0F9
:102DC000002EF2D001203060EFE7002085F311885B
:102DD00070BD00002DE9F747002683B08A46040045
:102DE00003D0BAF1000F08D011E0502080F3118811
:102DF000BFF34F8FBFF36F8FFEE7206C38B15020C9
:102E000080F31188BFF34F8FBFF36F8FFEE700F0A1
:102E100019FADFF8F4804FF000094FF0805748B9F5
:102E2000059838B1502080F31188BFF34F8FBFF35E
:102E30006F8FFEE7FFF7C8FAA56BC5B15146204674
:102E4000FEF7CEFE6D1EA563206950B104F110009F
:102E500000F0ECFA28B1C8F80070BFF34F8FBFF351
:102E60006F8FFFF7D1FA012006B0BDE8F087059813
:102E700008B11EB106E0FFF7C7FA27E06846FFF782
:102E8000CDFB0126FFF7C0FAFFF798FCFFF79CFA8D
:102E900094F94400401C01D184F8449094F9450011
:102EA000401C01D184F84590FFF7AEFA05A96846A9
:102EB00000F036F9002820460AD0FFF763F900F049
:102EC000EDFA2046FEF7F2FF0028B3D00020CBE752
:102ED000FEF7ECFF90B104F124000599FFF7ACFB7D
:102EE0002046FFF74FF900F0D9FA0028A2D1C8F820
:102EF0000070BFF34F8FBFF36F8F9BE72046FFF744
:102F000041F900F0CBFA95E704ED00E02DE9F04738
:102F100090468946040003D0B9F1000F08D011E0B3
:102F2000502080F31188BFF34F8FBFF36F8FFEE700
:102F3000206C38B1502080F31188BFF34F8FBFF35E
:102F40006F8FFEE7FFF7B8FA5020EFF3118680F39A
:102F50001188BFF34F8FBFF36F8FA76BF7B194F951
:102F6000445049462046FEF73BFE7F1EA763681C7F
:102F700004D06D1C84F84450012010E02069002822
:102F8000FAD004F1100000F051FA0028F4D0B8F1A2
:102F9000000FF1D00121C8F80010EDE7002086F302
:102FA0001188BDE8F08700002DE9F343002683B0C7
:102FB0000400354609D0206C78B1502080F3118888
:102FC000BFF34F8FBFF36F8FFEE7502080F3118860
:102FD000BFF34F8FBFF36F8FFEE700F033F9DFF8D9
:102FE0003C814FF000094FF0805748B9049838B140
:102FF000502080F31188BFF34F8FBFF36F8FFEE730
:10300000FFF7E2F9A06BC8B1401EA063206810B9B9
:10301000FFF75CF9A060206950B104F1100000F0E6
:1030200005FA28B1C8F80070BFF34F8FBFF36F8F58
:10303000FFF7EAF9012005B0BDE8F083049808B174
:1030400066B10FE03DB1502080F31188BFF34F8F80
:10305000BFF36F8FFEE7FFF7D7F95DE06846FFF734
:10306000DDFA0126FFF7D0F9FFF7A8FBFFF7ACF96F
:1030700094F94400401C01D184F8449094F945002F
:10308000401C01D184F84590FFF7BEF904A96846B9
:1030900000F046F80028204612D0FFF773F800F041
:1030A000FDF92046FEF702FF0028A9D09DB3FFF7E7
:1030B0008BF9606A50B3206B0068C0F1380126E0DC
:1030C000FEF7F4FEE0B1206838B9FFF77DF9A0689B
:1030D00000F070F90546FFF797F904F12400049910
:1030E000FFF7AAFA2046FFF74DF800F0D7F90028BD
:1030F00086D1C8F80070BFF34F8FBFF36F8F7FE7A3
:103100002046FFF73FF800F0C9F979E70021A068F1
:10311000FFF7C6FA9FE7FFE700208CE704ED00E029
:103120002DE9F0410C46050011D0C4B1FFF74CF970
:10313000174BDA686E682068911B471C17D02F6800
:103140001B6A9F4219D0964217D8012410E05020E4
:1031500080F31188BFF34F8FBFF36F8FFEE75020CE
:1031600080F31188BFF34F8FBFF36F8FFEE700240A
:10317000FFF74AF92046BDE8F081884205D9401A98
:1031800020602846FFF74AFAF1E700202060DCE7DC
:10319000240000202DE9FF5F8346DDE90E87994674
:1031A00016468A469000FFF723F805001CD06420DD
:1031B000FFF71EF8040014D00020256384F8610096
:1031C000CDE90240CDE900874B463246514658468C
:1031D000FEF7D1FD2046FEF76FFC012004B0BDE8EC
:1031E000F09F2846FFF724F94FF0FF30F6E7F0B5DF
:1031F00085B0DDE90B640A9DA6B1DCB164270097B8
:103200002663022684F86160002604AFCDE90246F9
:10321000CDE90057FEF7AFFD2046FEF74DFC0498C0
:1032200005B0F0BD502080F31188BFF34F8FBFF37E
:103230006F8FFEE7502080F31188BFF34F8FBFF3ED
:103240006F8FFEE70548416919B1006B18B1002086
:1032500070470120704702207047000024000020C2
:103260000148C06870470000240000202DE9F041AB
:103270002E4C0027206B28B1A069401CA061384665
:10328000BDE8F081E668761CE66013D1E06B00686B
:1032900038B1502080F31188BFF34F8FBFF36F8F89
:1032A000FEE7E06B216CE1632064206A401C206231
:1032B000FEF7E8FEA06ADFF87880864209D3E06B6B
:1032C0000068A0B1E06BC068C5686868864211D22A
:1032D000A0622068C06A00EB800158F82100012834
:1032E00000D90127E0690028C9D00127C7E74FF0BE
:1032F000FF30EDE7281DFFF70BF8A86A18B105F1BC
:103300001800FFF705F8E86A2169884200D92061B2
:1033100000EB800108EB8100291DFFF749F8E86AFE
:103320002168C96A8842CAD30127C8E7240000205F
:103330008001002070B504004FF0000133D01B4D18
:103340002868844207D0502080F31188BFF34F8F44
:10335000BFF36F8FFEE7606D38B1401E6065236D6F
:10336000E26A9A421FD040B11DE0502080F31188DC
:10337000BFF34F8FBFF36F8FFEE7201DFEF7C8FF2F
:10338000206DE062C0F13800A061E06A29698842DE
:1033900000D92861064900EB800001EB8000211D67
:1033A000FFF706F80121084670BD00002400002048
:1033B0008001002070B504004FF000002BD0194DA3
:1033C000E16A2A68D26A914226D2A069002804DB09
:1033D0002868C06AC0F13800A061134E01EB81017A
:1033E000606906EB8101884211D1201DFEF790FF34
:1033F0002868C06AE0622969884200D9286100EB28
:10340000800006EB8000211DFEF7D2FF02E0286855
:10341000C06AE062012070BD216D2A68D26A9142C3
:10342000F8D370BD240000208001002070B5C06872
:10343000C46854B104F118000646FEF769FF144D44
:10344000286B50B13146134815E0502080F31188A5
:10345000BFF34F8FBFF36F8FFEE7201DFEF758FFBE
:10346000E06A2969884200D928610B4900EB800095
:1034700001EB8000211DFEF79BFFE06A2968C96A05
:10348000884202D90120E86170BD002070BD0000B3
:103490002400002008060020800100202DE9F047CC
:1034A0002C4D00242746286B38B1FEF78DFF286B82
:1034B000401E2863286B40B146E0502080F31188FD
:1034C000BFF34F8FBFF36F8FFEE7A968224E012035
:1034D000D1B3A6F5916980463068E0B1F068C46860
:1034E00004F11800FEF714FF201DFEF711FFE06A3B
:1034F0002969884200D9286100EB800109EB81002D
:10350000211DFEF755FFE06A2968C96A8842E3D3A6
:10351000C5F81C80E0E70CB1FEF7B4FDAC694CB116
:103520004FEA0806FFF7A2FE00B1EE61641EF9D172
:103530000020A861E86938B1084901273807086008
:10354000BFF34F8FBFF36F8FFEF75EFF3846BDE8C6
:10355000F0870000240000200806002004ED00E0B1
:1035600010B586B0FEF710FB114C2068B8B10020F2
:103570000390049005AA04A903A8FEF7E7FEDDE97D
:10358000032102208DE8070000230AA10B48059AB9
:10359000FFF72DFE606010B106B0012010BD502075
:1035A00080F31188BFF34F8FBFF36F8FFEE70000EA
:1035B00068000020546D722053766300612100087A
:1035C0002DE9FF411E46134602000A9D4FF0000000
:1035D00016D0144C2768002F0FD0CDE900130292AB
:1035E000062917DAFFF72EFE02284FF000030FD04E
:1035F000002269462068FFF78FFA04B0BDE8F08129
:10360000502080F31188BFF34F8FBFF36F8FFEE719
:103610002A46EEE70023324669463846FFF72CFB80
:10362000EBE7000068000020D8360008000000002A
:103630000000000000000000000000000002000088
:10364000080000000000000000000000E436000850
:10365000000000000000000000000000000000006A
:10366000000200000900000000000000000000004F
:10367000CC36000800000000000000000000000040
:10368000000000000002000009000000000000002F
:1036900000000000BC360008000000000000000030
:1036A0000000000000000000000000000102030410
:1036B0000607080900000000010203044B65794277
:1036C000696E61727953656D303100004C6F675FD0
:1036D0005461736B0000000064656661756C74541E
:1036E00061736B006B65795F7461736B0000000040
:1036F0001037000800000020B4000000FC1500088E
:10370000C4370008B4000020744D00000C160008F7
:1037100000000000000000000000000000000000A9
:103720000000000001000000100000000000000088
:103730000024F40000000000000000000000000071
:103740000000000000000000000000000000000079
:103750000000000000000000000000000000000069
:103760000000000000000000000000000000000059
:103770000000000000000000000000000000000049
:103780000000000000000000000000000000000039
:103790000000000000000000000000000000000029
:1037A0000000000000000000000000000000000019
:1037B00000000000AAAAAAAA000000000100000060
:0437C0000000000005
:040000050800019955
:00000001FF
