:020000040800F2
:10000000A087012071020008CF200008E118000835
:10001000CD20000833040008B125000800000000CE
:10002000000000000000000000000000B101000816
:10003000D1050008000000000D020008352300086B
:100040008B0200088B0200088B0200088B0200085C
:100050008B0200088B020008D30500088B02000801
:100060008B0200088B0200088B0200088B0200083C
:100070008B0200088B0200088B0200088B0200082C
:100080008B0200088B0200088B02000800000000B1
:100090000000000000000000000000008B020008CB
:1000A0008B0200088B020008F12300088B02000875
:1000B0008B0200088B0200088B0200088B020008EC
:1000C0008B0200088B0200088B0200088B020008DC
:1000D0008B0200088B0200088B0200080000000061
:1000E0008B0200088B0200088B0200080000000051
:1000F0000000000000000000000000008B0200086B
:10010000000000008B0200088B0200088B02000830
:1001100000000000000000000000000000000000DF
:100120008B0200088B020008210500088B020008E2
:100130008B0200080000000000000000000000002A
:100140000000000000000000000000008B0200081A
:100150008B0200088B0200088B0200088B0200084B
:100160008B0200088B020008000000000000000065
:10017000000000000000000000000000000000007F
:10018000000000008B0200080000000000000000DA
:100190008B0200088B020008DFF810D000F00CF989
:1001A00000480047BD0C0208AFF30080A087012083
:1001B0002C4B19680868B0E8F04F80F30988BFF34A
:1001C0006F8F4FF0000080F311887047000000002F
:1001D00008480068006880F308884FF0000080F34A
:1001E000148862B661B6BFF34F8FBFF36F8F00DF25
:1001F00000BF00BF08ED00E0DFF80C00016841F42B
:1002000070010160704700BF88ED00E0EFF30980E6
:10021000BFF36F8F134B1A681EF0100F08BF20ED4D
:10022000108A20E9F04F106009B44FF0500080F3BD
:100230001188BFF34F8FBFF36F8F25F0A9FD4FF0EB
:10024000000080F3118809BC19680868B0E8F04F15
:100250001EF0100F08BFB0EC108A80F30988BFF3BE
:100260006F8F70473C000020EFF30580704700005F
:100270000648804706480047FEE7FEE7FEE7FEE740
:10028000FEE7FEE7FEE7FEE7FEE7FEE7E123000804
:10029000990100082DE9F05F0546002092469B4633
:1002A00088460646814640241BE02846414647468C
:1002B000224600F071F853465A46C01A914110D3B5
:1002C00011461846224600F058F82D1A67EB01082F
:1002D0004F4622460120002100F04FF817EB00099D
:1002E0004E41201EA4F10104DFDC484631462A4677
:1002F0004346BDE8F09F40EA01039B0703D009E0B5
:1003000008C9121F08C0042AFAD203E011F8013B01
:1003100000F8013B521EF9D27047D2B201E000F85A
:10032000012B491EFBD270470022F6E710B5134699
:100330000A4604461946FFF7F0FF204610BD421C4E
:1003400010F8011B0029FBD1801A704710B500225C
:1003500000E0521C835C8C5CA34201D1002BF8D1DD
:10036000D8B2E1B2401A10BD034611F8012B00F8D3
:10037000012B002AF9D118467047202A04DB203AC5
:1003800000FA02F1002070479140C2F1200320FAE8
:1003900003F3194390407047202A04DB203A21FAE6
:1003A00002F00021704721FA02F3D040C2F120028E
:1003B0009140084319467047064C074D06E0E06837
:1003C00040F0010394E8070098471034AC42F6D39C
:1003D000FFF7E6FE64B0020884B0020870B58C181E
:1003E00010F8015B15F0070301D110F8013B2A1149
:1003F00006D110F8012B03E010F8016B01F8016B36
:100400005B1EF9D12B0705D40023521E0DD401F831
:10041000013BFAE710F8013BCB1A921C03E013F8FA
:10042000015B01F8015B521EF9D5A142D8D300202F
:1004300070BDFEE730B587B014216846FFF774FF42
:100440000F48016841F00201016000684FF48074B8
:1004500000F0020005900120CDE900400290032049
:10046000084D03906946284600F04AFA01222146C9
:10047000284600F042FB044801F045FA07B030BDC1
:1004800030380240000402400C000020022000F03E
:1004900027B800001CB501A80090042303221521F1
:1004A0000E4801F035FB9DF804109DF8050001F0A1
:1004B0000F0140EA01229DF807009DF80630074928
:1004C00003F00F030F3040EA03200839A0F21710A1
:1004D000C2F1EF024042C1E900201CBD0C00002027
:1004E00002461521014801F057BB00000C00002016
:1004F00070B50A4D4FF4807400222146284600F062
:10050000FCFA0A2000F0DCF901222146284600F01E
:10051000F4FABDE87040642000F0D2B90004024053
:10052000014800F05BB800000803002001681823B0
:10053000CAB2103AB2FBF3F2054B6FF30901032A7A
:100540009B5CC36500D9091D8165084670470000A2
:10055000F069020810B5014600208B698A6A4FF0E5
:10056000C07453B1B3F5005F15D072B1012A0CD03D
:10057000022A0AD0032A09D104E01AB1012A06D0BE
:10058000022A03D1C96AC90100D5012010BDC96A78
:10059000A142FAD010BD002AF7D0012AF2D0022AD7
:1005A000F3D0032AF3D010BD30B50468256825F4D4
:1005B00080252560046863608368402B036803D04E
:1005C00099600068C26030BD9A600068C16030BD4B
:1005D0007047012000F088B972B6FEE72DE9F843B4
:1005E00004464FF00009CDF8009063484FF41651CF
:1005F000A56D0068B0FBF1F72E6894F85C10082038
:1006000000FA01F131420FD021680A6852070BD578
:100610000A6822F004020A6094F85C108840A8601E
:10062000606D40F00100606594F85C104FF00108C7
:1006300008FA01F0304208D021684969090604D55A
:10064000A860606D40F00200606594F85C100420C2
:100650008840304208D021680968890704D5A8601D
:10066000606D40F00400606594F85C1010208840D4
:10067000304218D021680968090714D5A86020689D
:100680000168490304D50068000308D5A16C07E0A0
:100690000168C90503D4016821F008010160216CDB
:1006A00009B12046884794F85C10202088403042E9
:1006B00031D021680968C9062DD5A86094F83500A5
:1006C00005282068016806D0490347D50068000363
:1006D0001DD4616C1CE021F01601016020684169A5
:1006E00021F080014161206C08B9A06C20B1206824
:1006F000016821F00801016094F85C103F208840F7
:10070000A86084F8358084F83490216D1FE0E16B97
:1007100009B120468847606D00282BD0606DC00766
:1007200014D0052084F835002068016821F001010B
:1007300001600098401C0090B84203D8206800680F
:10074000C007F6D184F8358084F83490E16C002934
:1007500010D001B02046BDE8F04308470168C90544
:10076000D5D4016821F01001016084F8358084F847
:100770003490CCE7BDE8F883380000202DE9F04143
:10078000044600F0BFF906465CB1022084F835004B
:10079000002584F834502068016821F001010160CF
:1007A0000DE00120BDE8F08100F0ACF9801B0528C8
:1007B00005D920206065032084F83500F2E7206821
:1007C0000068C007F0D12268116820480140D4E9D0
:1007D00001031843D4E903363343184363691843CC
:1007E000A3691843E3691843236A18430843616AFD
:1007F000042903D1D4E90B1319430843106020687E
:100800004069666A20F0070130460E43012704283C
:100810000CD1A06A0643E06A40B12046FFF79AFE79
:1008200020B14020606584F83570BAE720684661E1
:100830002046FFF77BFE94F85C203F2191408160C9
:10084000656584F835700020ACE700003F8010F04B
:100850002DE9F0410446866D90F83400002501280A
:100860000DD0012084F8340094F835700020012F59
:1008700007D084F8340002252846BDE8F081022024
:10088000FBE7022784F8357060652046FFF78CFE91
:1008900094F85C103F208840B0602068016841F007
:1008A00016010160206C20B12068016841F0080148
:1008B00001602068016841F001010160DCE700008F
:1008C00070B5044600F01EF90546601C02D00448CD
:1008D0000078044400F016F9401BA042FAD370BD22
:1008E0002C00002070470000044910B50A6802423D
:1008F00002D00860FFF7F6FF10BD0000143C014075
:100900002DE9F84FDFF8B8A10022012403254FF0AC
:100910000F090AF1040BAAF1040E00BF0B6804FAD8
:1009200002F63340B34273D10F7907F00307012F6A
:1009300001D0022F16D187684FEA420805FA08FC59
:1009400027EA0C07D1F80CC00CFA08FC4CEA070C9B
:10095000C0F808C04768B7430E79C6F30016964042
:100960003E4346600E79F643B6070DD0C768560081
:1009700005FA06FC27EA0C07D1F808C00CFA06FCB9
:100980004CEA070CC0F80CC00E7906F00306022EE4
:1009900010D1D60800EB8608D8F8206057074FEA38
:1009A000D76C09FA0CF7BE430F6907FA0CF7374307
:1009B000C8F8207006684FEA420C05FA0CF7BE43EF
:1009C0000F7907F0030707FA0CF7374307604E6803
:1009D00016F4403F6DD03B4E376847F48047376090
:1009E000366822F0030706F480460096364E07EB81
:1009F000060CDCF8086897073F0F09FA07F826EAA3
:100A00000806DFF8C880404503D14FF000081EE01B
:100A10004FE0DFF8BC80404502D14FF0010816E0FE
:100A2000DFF8B080404502D14FF002080FE0DFF858
:100A3000A880404502D14FF0030808E0DFF89C8011
:100A4000404502D14FF0040801E04FF0070808FAD2
:100A500007F848EA0608CCF80888DAF80060574634
:100A6000D1F804C09E435FEACC2C00D51E433E6003
:100A7000DBF800605F46D1F804C09E435FEA8C2C2F
:100A800000D51E433E60DEF800607746D1F804C012
:100A90009E435FEA8C3C00D51E433E60084F083FF2
:100AA0003E68D1F804C09E435FEACC3C00D51E43AB
:100AB0003E60521C102AFFF431AFBDE8F88F0000F1
:100AC000083C014044380240003001400000024030
:100AD0000004024000080240000C024000100240E6
:100AE0000069084000D001207047426921EA0203F2
:100AF0000A4043EA0241816170470AB1816170474F
:100B00000904FBE701488068704700002C000020C2
:100B10000248816802781144816070472C000020EF
:100B20000B4810B5016841F400710160016841F49F
:100B300080610160016841F480710160032000F070
:100B400099F80F2000F006F800F04AF8002010BDD8
:100B5000003C024030B505461C4887B000240168BF
:100B600041F480210160006806A900F48020009013
:100B700001A800F02BF900F059F91549154AB0FB0E
:100B8000F1F11548491E026040F2E732C0E9032442
:100B9000C0E90114846100F02FFD040012D10E4859
:100BA00000F058FD04000DD11A2000F035F8102D8A
:100BB00007D2002229461A2000F03CF807480560B9
:100BC00000E0012407B0204630BD00004438024058
:100BD00040420F0000480140B003002030000020D8
:100BE0000C4882B0016841F480410160006800F463
:100BF000804000900748001F016841F0805101606B
:100C00000068002200F0805000900F21901E02B07A
:100C100000F010B844380240002809DB00F01F0241
:100C2000012191404009800000F1E020C0F800114E
:100C300070470000F0B40E4B1B680C46C3F3022350
:100C4000C3F10705042D00D90425191D072901D278
:100C5000002300E0DB1E012606FA05F1491E2140B3
:100C600099409E40761E16403143F0BC01F0BABC5C
:100C70000CED00E0064900F0070208684FF6FF039C
:100C8000184040EA0220034A104308607047000001
:100C90000CED00E00000FA052DE9F0470E460500D6
:100CA00065D0DFF81481D8F80000F7B200F0070033
:100CB000B04207D288F80070D8F8000000F00700B2
:100CC000B04254D128683D4C810712D5400703D566
:100CD000206840F4E05020602878000703D52068A1
:100CE00040F4604020602068A96820F0F0000843CC
:100CF00020602878C0072DD030496868083901285D
:100D000012D0022813D0032811D0096889070029BE
:100D10002DDA216821F0030101432160FFF7F2FE83
:100D2000814641F2883A0EE009688903EFE70968D5
:100D30008901ECE7FFF7E6FEA0EB0901514502D976
:100D40000320BDE8F0872068696800F00C00B0EB74
:100D5000810FEFD1D8F80010404601F00701B142F1
:100D600007D90770006800F00700B04201D00120E9
:100D7000E7E72878400705D52068E96820F4E050C7
:100D8000084320602878000706D52068296920F4E8
:100D9000604040EAC100206000F058F82168084A2D
:100DA000C1F30311515CC840064908600648006859
:100DB000FFF7D0FE0020C4E7003C024008380240A4
:100DC000F869020838000020300000200F2202607D
:100DD0000C4A136803F003034360136803F0F00345
:100DE0008360136803F4E053C36012684FF4E05368
:100DF00003EAD20202610448006800F007000860BC
:100E00007047000008380240003C02400448054991
:100E100000680968044AC1F38221515CC8407047E8
:100E20003800002008380240086A020804480549D2
:100E300000680968044AC1F34231515CC8407047F8
:100E40003800002008380240086A0208154810B52A
:100E5000006810F00C02144813D01449042A0FD073
:100E6000082A0ED10F4C241F2268236802F03F028B
:100E70005B0207D52068C0F38810A0FB010106E0E3
:100E8000084610BD2168C1F38811A1FB00010023B1
:100E9000FFF700FA2168C1F30141491C4900B0FB8A
:100EA000F1F010BD083802400024F40040787D01C4
:100EB0002DE9F84F04006ED02078DFF84C93C0077E
:100EC000A9F104054AD009F104000168C1F38101C8
:100ED000012908D00068C0F3810002280AD1D9F89E
:100EE0000000400206D52868800337D560680028D6
:100EF000E1D033E06068B0F5803F10D0B0F5A02FAE
:100F0000286810D020F480302860286820F48020E1
:100F100028606068A8B1FFF7F5FD06460DE0286877
:100F200040F48030F4E740F480202860F7E700BF09
:100F3000FFF7E8FD801B642873D828688003F7D585
:100F40000CE0FFF7DFFD064605E000BFFFF7DAFD26
:100F5000801B6428F0D828688003F7D42078DFF855
:100F6000AC8280074FF0000A3ED5A748001D0168FB
:100F700011F00C0F08D00068C0F3810002280BD1DB
:100F8000D9F80000400207D42868800716D5E06829
:100F9000012800D112E033E1E068B8B10120C8F8BF
:100FA0000000FFF7AFFD064605E000BFFFF7AAFD12
:100FB000801B0228C0D828688007F7D528682169D7
:100FC00020F0F80040EAC10028600DE0C8F800A059
:100FD000FFF798FD064604E0FFF794FD801B02280A
:100FE0001FD828688007F7D42078000722D5864FBD
:100FF00087486169703771B101210160FFF782FD97
:10100000064604E0FFF77EFD801B022809D83868F9
:101010008007F7D50EE0C0F800A0FFF773FD064685
:1010200005E082E0FFF76EFD801B02287DD838685E
:101030008007F7D42078400768D5DFF8CCB10027C7
:101040000BF13C0BDBF80000C0000BD4DBF8001008
:1010500041F08051CBF80010DBF80000012700F0D0
:10106000805000906B4E3068C00510D4306840F45A
:1010700080703060FFF746FD009005E0FFF742FD0D
:101080000099401A022850D83068C005F6D55E4E47
:10109000A0686C3601280FD00528306810D020F0E9
:1010A00001003060306820F004003060A068B8B102
:1010B000FFF728FD00900FE0306840F00100F4E7F2
:1010C00040F004003060F7E7FFF71CFD0099411A7B
:1010D00041F28830814266D830688007F4D50EE04E
:1010E000FFF710FD009007E0FFF70CFD0099411A93
:1010F00041F28830814256D830688007F4D42FB14D
:10110000DBF8001021F08051CBF80010A069C8B3C3
:101110003D49091D0968C1F3810102294AD002280D
:10112000504607D0C8F8600000E03CE0FFF7EAFC5A
:1011300004463BE04746C8F86000FFF7E3FC06467C
:1011400005E000BFFFF7DEFC801B02282BD82868D3
:101150008001F7D4D4E907010843A16A2E4A49085F
:1011600002EB0141626A41EA8211084394F82C10B3
:1011700040EA0161C9F8001001203866FFF7C2FC9F
:10118000044606E03EE000BFFFF7BCFC001B02285F
:1011900009D828688001F7D534E000BFFFF7B2FC1A
:1011A000001B022802D90320BDE8F88F28688001BF
:1011B000F4D427E00128F7D0D9F80000E26900F460
:1011C000800191421CD1226A00F03F01914217D167
:1011D00047F6C071626A0140B1EB821F10D1A26A6A
:1011E0004FF0FF3300F4403103EB5202B1EB024FFA
:1011F00006D194F82C1000F07060B0EB016F01D0B4
:101200000120D1E70020CFE7043802400000474228
:10121000800E4742007000400000FFFF704770B52D
:10122000040009D0606A002540B125616561A562AE
:1012300094F8510040B10CE0012070BD6068B0F539
:10124000827FF4D0E561F2E784F85050204600F048
:1012500045F8022084F851002068016821F040011F
:101260000160A088218900F4827001F404410843E0
:10127000A18901F400610843217C01F002010843C7
:10128000217D01F001010843218B01F40071084325
:10129000217F01F03801084394F8201001F080010B
:1012A0000843218D01F40051084321680860A069BA
:1012B000042101EA104094F8241001F010010843C1
:1012C000216848602068C16921F40061C1616565D9
:1012D000012084F85100002070BD000070B586B078
:1012E000064614216846FFF71FF81F4930688842F8
:1012F00038D11E480025016841F480510160006822
:1013000000F48050059019481438016841F002013A
:1013100001600068694600F00200059028200090F6
:101320000220CDE901050320039005200490104818
:10133000FFF7E6FA104C0F4820604FF080606060C5
:101340004020C4E902050001C4E90405A561E56186
:10135000256220466562FFF711FA08B1FFF73CF9F4
:10136000B464A66306B070BD00300140443802404A
:101370000004024040640240080300202DE9F84FB9
:10138000984616468A460446FFF7BCFB814694F809
:10139000510001281ED1BAF1000F73D0002E71D078
:1013A00094F85000012815D0012784F850700320CC
:1013B00084F8510000256565C4F830A0A686E6864D
:1013C000A563A587E58765642564A068B0F5004F2F
:1013D00003D00CE00220BDE8F88F2068016821F0FE
:1013E000400101602068016841F48041016020688B
:1013F0000168490603D4016841F040010160E068DA
:10140000B0F5006F606803D048B3012E27D047E0E5
:1014100008B1012E1FD1206B21680088C86006E04A
:1014200020688168890709D5216B0988C160206B14
:10143000801C2063E08E401EE0860CE0FFF762FB1C
:10144000A0EB0901414503D3B8F1FF3F03D035E0DC
:10145000B8F1000F32D0E08E0028E1D123E0206BFC
:1014600021680078087306E02068816889070AD53A
:10147000216B09780173206B401C2063E08E401EB5
:10148000E0860DE02BE0FFF73DFBA0EB09014145B5
:1014900003D3B8F1FF3F03D010E0B8F1000F0DD037
:1014A000E08E0028E0D14A464146204600F09EFEEC
:1014B00008B120206065A06830B109E084F851705F
:1014C00084F85050032086E72068C1688068009047
:1014D00084F8517004F8505F60680028F3D0012050
:1014E00079E7000070B5044690F8510001281CD13E
:1014F000C9B1C2B194F85000012816D0012084F877
:101500005000032084F85100002565652163A28600
:10151000E286A56365642564A587E587A068B0F5C4
:10152000004F04D00DE0012070BD022070BD206886
:10153000016821F0400101602068016841F48041A8
:101540000160A16C17480864A16C1748C863A16CBE
:101550001648C864A06C0565E38E2268216B0C32C6
:10156000A06CFFF775F930B1606D40F01000606558
:1015700084F85050D7E720680168490603D4016811
:1015800041F04001016084F850502068416841F00A
:10159000200141602068416841F002014160002063
:1015A00070BD00007D210008872100085B21000834
:1015B000704770474FF0E0210428086903D020F0FD
:1015C00004000861704740F00400FAE710B5401EBF
:1015D000B0F1807F01D3012010BD4FF0E0246061A5
:1015E0000F21601700F0FEFF0020A061072020619E
:1015F000002010BD7047704710B5040003D094F868
:101600003D0010B107E0012010BD002084F83C002F
:10161000204600F01EF8022084F83D00211D2068BD
:1016200000F0ECFE012084F8460084F83E0084F8C7
:101630003F0084F8400084F8410084F8420084F8B8
:10164000430084F8440084F8450084F83D000020FD
:1016500010BD704790F83D10012901D0012070475E
:10166000022180F83D100168CA6842F00102CA6098
:1016700000680E4988420ED0B0F1804F0BD00C4963
:10168000884208D00B49884205D00B49884202D0D5
:101690000A49884204D1816801F00701062903D074
:1016A000016841F001010160002070470000014025
:1016B0000004004000080040000C004000400140D1
:1016C00070472DE9F04104460068C66805694FF08F
:1016D0000007A90713D5B10711D5F91E0161012033
:1016E0002077206880698007204602D0FFF7E8FF56
:1016F00004E000F07EF8204600F07CF827776807C9
:1017000016D5700714D521686FF004000861022017
:1017100020772068806910F4407F204602D0FFF7D0
:10172000CFFF04E000F065F8204600F063F827776B
:10173000280715D5300713D521686FF00800086118
:10174000042020772068C0698007204602D0FFF778
:10175000B7FF04E000F04DF8204600F04BF8277783
:10176000E80616D5F00614D521686FF01000086160
:10177000082020772068C06910F4407F204602D0FE
:10178000FFF79EFF04E000F034F8204600F032F846
:101790002777E80708D0F00706D021686FF001002E
:1017A0000861204600F028F8280608D5300606D53E
:1017B00021686FF0800008612046FFF71BFF680674
:1017C00008D5700606D521686FF0400008612046F4
:1017D00000F01CF8A8060AD5B00608D521686FF0FD
:1017E000200008612046BDE8F041FFF704BFBDE8D6
:1017F000F08170477047000000680349884201D1BA
:10180000FFF786B97047000000480140704770B587
:10181000040004D094F84100002510B106E0012036
:1018200070BD84F84050204600F024F8242084F84D
:1018300041002068C16821F40051C160204600F0D9
:1018400031FE2068016921F49041016120684169FD
:1018500021F02A0141612068C16841F40051C16052
:101860006564202084F8410084F84200656300200C
:1018700070BD000010B586B0044614216846FEF71E
:1018800053FD14492068884221D113480021026881
:1018900042F010020260006800F0100005900E484F
:1018A0001438026842F001020260006800F0010092
:1018B00005904FF4C06000900220CDE901010320A3
:1018C00003900720049069460448FFF719F806B012
:1018D00010BD0000001001404438024000000240EA
:1018E000FEE724F04DFA04F0F7FA16F08DF91CF03B
:1018F0008BF81CF0AFF823F033FF24F061FF0020D9
:1019000024F070F9EDE710B586B00446142168465E
:10191000FEF70AFD2089009001200190029002202C
:10192000039069462068FEF7EBFF608900906946E6
:101930006068FEF7E5FF06B010BD70B506460824E6
:10194000002500F0D7FB13E06806050E00213046A5
:1019500000F0BEFB022004F0E2FA0121304600F064
:10196000B7FB012004F0DBFA304600F0BAFB054378
:10197000641EE4B2E8D20021304600F0A9FB3046F4
:1019800000F0D6FB284670BD10B50446002100F0DB
:10199000C6FB012004F0C3FA0121204600F098FBA9
:1019A000012004F0BCFA0021204600F091FBBDE8C4
:1019B0001040012004F0B3BA70B50C460646082565
:1019C00019E000BF00F084FB022004F0A8FA04F044
:1019D0008001304600F0A3FB012004F0A0FA60066D
:1019E000040E012004F09BFA0121304600F070FB48
:1019F000012004F094FA6D1EEDB24FF00001304664
:101A0000E0D200F065FBBDE87040022004F087BA28
:101A100010B50446012100F082FB012004F07FFA9A
:101A20000121204600F054FB012004F078FA002147
:101A3000204600F04DFBBDE81040022004F06FBAD4
:101A400010B50446012100F06AFB022004F067FA99
:101A50000121204600F03CFB012004F060FA002147
:101A6000204600F05CFB012004F059FA00212046DA
:101A700000F02EFBBDE81040012004F050BA10B574
:101A80000446002100F024FB022004F048FA002163
:101A9000204600F044FB012004F041FA01212046D9
:101AA00000F016FB012004F03AFA0121204600F074
:101AB00036FBBDE81040012004F031BA70B5054690
:101AC000052400F017FB0121284600F001FB05E08A
:101AD000641EA4B2012004F022FA84B1284600F06A
:101AE00000FB0028F4D1284600F022FB0021284604
:101AF00000F0EEFA022004F012FA002070BD284631
:101B000000F016FB2846FFF7BAFF012070BD000069
:101B10002DE9F0411D4617460C468046069EFFF70C
:101B20008FFF6006010E4046FFF746FF4046FFF775
:101B3000C5FF28B14046FFF7A2FF0120BDE8F081B4
:101B400039464046FFF738FF4046FFF7B7FF4046AB
:101B5000FFF776FF012000EB4400C1B24046FFF7DB
:101B60002BFF4046FFF7AAFF00246F1E0AE000BFCC
:101B7000FFF7E3FE3055BC4202DA4046FFF704FFB0
:101B8000641CE4B2AC424046F2D3FFF741FF40464A
:101B9000FFF775FF0020D1E770B516460C460546E5
:101BA000FFF74EFF6006010E2846FFF705FF2846A7
:101BB000FFF784FF31462846FFF7FEFE2846FFF771
:101BC0007DFF2846FFF73CFF012000EB4400C1B237
:101BD0002846FFF7F1FE2846FFF770FF2846FFF77B
:101BE000ACFE04462846FFF713FF2846FFF747FFE1
:101BF000204670BD2DE9F04104461D4616460F46AD
:101C00002A2000F093F9204600F080F9304600F0D9
:101C10007DF92B2000F08AF9384600F077F9284644
:101C200000F074F9BDE8F0412C2000F07FB900000D
:101C30002DE9F04107461C4603F1140083B20D461E
:101C400001F1140081B216463846DDF81880FFF71E
:101C5000D1FFF01B611B401C491C48434FF6FF712C
:101C600001EA400241460548FFF73CFC0448006891
:101C700041680029FCD1BDE8F0810000B0020020DD
:101C800008030020F0B587B014216846FEF74CFB2E
:101C90002E48016841F004010160016801F004016F
:101CA0000591016841F002010160016801F0020143
:101CB0000591016841F008010160016801F0080127
:101CC0000591016841F00101016000684FF4004690
:101CD00000F00100059001241D4FCDE900640325AB
:101CE000694603953846FEF70BFE01223146384619
:101CF000FEF703FF1020CDE90004164E6946039558
:101D00003046FEF7FDFD012210213046FEF7F5FEBC
:101D10002603114FCDE90064694638460395FEF766
:101D2000EFFD012231463846FEF7E7FE0420CDE9FB
:101D300000040A4C694603952046FEF7E1FD0122A6
:101D400004212046FEF7D9FE07B0F0BD303802402E
:101D5000000002400004024000080240000C024063
:101D600010B5FFF78FFF002204216648FEF7C5FE7D
:101D7000654C002210212046FEF7BFFE642004F0CF
:101D8000C1F8012210212046FEF7B7FE642004F0BE
:101D9000B9F8112000F0CAF8782004F0B3F8362022
:101DA00000F0C4F8C02000F0D7F83A2000F0BEF8E8
:101DB000052000F0D1F8B22000F0B8F80C2000F0B7
:101DC000CBF80C2000F0C8F8002000F0C5F8332054
:101DD00000F0C2F8332000F0BFF8B72000F0A6F8FA
:101DE000352000F0B9F8BB2000F0A0F8192000F071
:101DF000B3F8C02000F09AF82C2000F0ADF8C22013
:101E000000F094F8012000F0A7F8C32000F08EF84D
:101E1000122000F0A1F8C42000F088F8202000F083
:101E20009BF8C62000F082F80F2000F095F8D02033
:101E300000F07CF8A42000F08FF8A12000F08CF8CE
:101E4000E02000F073F8D02000F086F8042000F0C5
:101E500083F80D2000F080F8112000F07DF81320A9
:101E600000F07AF82B2000F077F83F2000F074F8AB
:101E7000542000F071F84C2000F06EF8182000F0AB
:101E80006BF80D2000F068F80B2000F065F81F20BB
:101E900000F062F8232000F05FF8E12000F046F83F
:101EA000D02000F059F8042000F056F80C2000F083
:101EB00053F8112000F050F8132000F04DF82C20BA
:101EC00000F04AF83F2000F047F8442000F044F8C2
:101ED000512000F041F82F2000F03EF81F2000F0C4
:101EE0003BF81F2000F038F8202000F035F82320C0
:101EF00000F032F8212000F019F8BDE81040292048
:101F000000F014B8000C02400004024008B5010AB9
:101F10008DF800108DF80100012302226946024865
:101F2000FFF72CFA08BD0000B002002070B5094D83
:101F300006464FF48054002221462846FEF7DDFD78
:101F4000304600F009F821462846BDE870400122DD
:101F5000FEF7D3BD0008024001B501231A466946C9
:101F60000148FFF70BFA08BDB00200201EF01CFA72
:101F70001E2800D91E201FF027FBF7E7094808B5E7
:101F8000016841F4800101600068002200F48000D3
:101F9000009005213A20FEF74DFEBDE808403A20AA
:101FA000FEF73ABE3038024010B500F003FB044A99
:101FB000002104481FF044FB0349086010BD0000E5
:101FC00084690208152300080000002070B586B05F
:101FD00014216846FEF7A8F91A480024016841F068
:101FE00004010160016801F004010591016841F0FC
:101FF00080010160016801F080010591016841F0F4
:1020000001010160016801F001010591016841F0E1
:102010000201016000680C4E00F002004FF4005510
:102020000590002229463046FEF767FD0120009505
:10203000CDE90104694630460394FEF761FC06B021
:1020400070BD00003038024000080240104810B552
:102050000E4901604FF482714160002102228160CB
:10206000C0E90312012242615202C0E90621016265
:10207000416281620A21C162FFF7D1F8002803D0D2
:10208000BDE81040FEF7A8BA10BD000000300140C6
:10209000B00200200C4810B50A4901604FF4E1314C
:1020A0004160002181600C22C160C0E9041281619D
:1020B000C161FFF7ACFB002803D0BDE81040FEF77C
:1020C0008BBA10BD0010014068030020FEE7FEE758
:1020D0004289406811B18169114300E011048161B6
:1020E000704710B501890068FEF7FAFC012800D09E
:1020F000002010BD10B586B0044614216846FEF7D6
:1021000013F9208900900020019001200290022004
:10211000039069462068FEF7F3FB06B010BD028904
:10212000006811B18169114300E0110481617047B9
:1021300010B586B0044614216846FEF7F5F82089EC
:102140000090112001900020029002200390694627
:102150002068FEF7D5FB06B010BD10B5806B016896
:102160004A6822F003024A60416D41F01001416566
:10217000012180F85110FFF751F810BD10B5806BA8
:10218000FFF717FA10BD38B50546846BFEF7BAFCA9
:10219000024628680068C00523D42068416821F001
:1021A000200141602068416821F002014160642102
:1021B000204600F01BF818B1606D40F0200060650B
:1021C000A068002118B92068C26880680090E18684
:1021D000012084F85100606D18B12046FFF71EF809
:1021E00038BD2046FFF7E4F938BD0000F8B51546C4
:1021F0000E460B46009204460122022100F02CF804
:10220000A0B9134813490068B0FBF1F04FF47A719C
:10221000484300906068B0F5827F0DD133460022BC
:1022200080212046009500F017F870B1606D40F0F5
:10223000200060650320F8BD009830B1401E00907A
:1022400020688068C0430006F6D50020F8BD000075
:102250003800002000366E012DE9F8431E469146F5
:1022600088460446089DFEF74DFC401B351AFEF7D4
:1022700049FC074626480068C0F3CB3068430AE0B3
:10228000701C09D0FEF73EFCC01BA8420FD275B1EE
:102290000098B8B3401E00902068816838EA0100B9
:1022A00033D000214945EBD10020BDE8F8832068F8
:1022B000416821F0E00141606068B0F5827F0BD198
:1022C000A068B0F5004F02D0B0F5806F04D120684F
:1022D000016821F040010160A06AB0F5005F09D1FA
:1022E0002068016821F4005101602068016841F410
:1022F00000510160012084F85100002084F8500052
:102300000320D2E7FFE70025C6E70121CAE7000066
:1023100038000020064D4FF400544FF4FA76214661
:102320002846FEF7E2FB30461FF04EF9F7E70000C3
:102330000008024010B54FF0E020006924F048F991
:10234000012803D0BDE8104023F076BE10BD000088
:1023500030B593B030216846FDF7E6FF14210CA894
:10236000FDF7E2FF1C480025016841F08051016043
:10237000006800F0805011901848016841F4404115
:1023800001600068022400F4404011900120009098
:10239000000401908001CDE906400C2008906020E7
:1023A000CDE9090404200B906846FEF781FD08B1D1
:1023B00072B6FEE70CA90F2081E831004FF480507F
:1023C000CDE90F0503210CA8FEF766FC002801D01B
:1023D00072B6FEE713B030BD4038024000700040D6
:1023E0000248016841F470010160704788ED00E027
:1023F0000148FFF766B90000B0030020F0B502689D
:102400001F4B204C204D214E4FF0804C984207D05E
:10241000604505D0A04203D0A84201D0B04203D10C
:1024200022F070074A683A43984210D060450ED0B7
:10243000A0420CD0A8420AD0B04208D0144CA0420E
:1024400005D0144CA04202D0134CA04203D122F478
:102450004074CA6822434C6922F0800222438C688F
:10246000C4620C688462984201D109690163016801
:1024700041F004010160012141610260F0BD0000F2
:10248000000001400004004000080040000C004033
:1024900000400140004401400048014001201DF07F
:1024A000F7BE000070B5044600680169E26821F4D7
:1024B0004051114301612169A068E26908436169E3
:1024C000114308432168CA6849F20C639A430243E6
:1024D000CA6020684169A26921F4407111434161D9
:1024E00031492068884202D03049884202D1FEF743
:1024F0009DFC01E0FEF78AFCE269002319216425B6
:102500003226B2F5004F626828D0A0FB0101930F7C
:102510009200FDF7BFFE0146B0FBF5F06FF0180228
:10252000504301EB800006EB0010B0FBF5F000F02B
:10253000F002B1FBF5F002EB0012B1FBF5F06FF029
:102540001803584301EB800006EB0010B0FBF5F0D8
:1025500000F00F0021681044886070BDA0FB0101ED
:1025600092185B41FDF796FE0146B0FBF5F00201C3
:10257000B1FBF5F06FF01803584301EB800006EB58
:10258000C000B0FBF5F000F0F80002EB4002B1FB38
:10259000F5F0584301EB800006EBC000B0FBF5F00E
:1025A00000F00700D6E700000010014000140140D1
:1025B000FEE7000010B5074A002107481FF040F869
:1025C000064C044A00212060243205481FF038F8E8
:1025D000606010BDA8690208E31800081800002018
:1025E0006D1F00080907090E002804DB00F1E02038
:1025F00080F80014704700F00F0000F1E02080F830
:10260000141D704702E008C8121F08C1002AFAD141
:1026100070477047002001E001C1121F002AFBD162
:10262000704770B5044600256FF02F0608E020685B
:10263000411C2160007805EB850106EB410145183E
:102640002068007800F004F80028F0D1284670BD1A
:102650003038092801D80120704700207047000059
:1026600010B54021074801F081F800221E210648DC
:102670001DF068FE054CA06002F0CCF80020207030
:1026800010BD0000D0B70020BD4800083402002073
:1026900070B5B1F90030B2F90040A34200DC234626
:1026A0000380B1F90250B2F90240A54200DD2C4688
:1026B0004480B1F90460B2F90450AE4200DA354604
:1026C0008580B1F90610B2F90620914200DB11466F
:1026D000C1800120AB4201DC8C4200DD002070BDD6
:1026E000F8B50D460446B0F90000B1F900101646E1
:1026F000884247DBB4F90210B5F90220914241DB70
:10270000B4F90410B5F9042091423BDCB4F9061089
:10271000B5F90620914235DC96B3ADF8000060882B
:10272000ADF8020032466946284600F099F80028C4
:1027300027D0A088ADF800006088ADF802003246CE
:102740006946284600F08CF800281AD02088ADF899
:102750000000E088ADF8020032466946284600F0E5
:102760007FF800280DD0A088ADF80000E088ADF813
:10277000020032466946284600F072F8002800D070
:102780000120F8BD0020F8BDB0F90020B1F90430F7
:102790009A4213DCB0F90420B1F900309A420DDB03
:1027A000B0F90220B1F906309A4207DCB0F9060010
:1027B000B1F90210884201DB012070470020704708
:1027C000F8B50D460446B0F90400B1F900101646FC
:1027D000884243DBB4F90600B5F9021088423DDBBC
:1027E000B4F90000B5F90410884237DCB4F90210DE
:1027F000B5F90620914231DC76B3ADF8000060886F
:10280000ADF8020032466946284600F029F818BBA8
:10281000A088ADF800006088ADF802003246694635
:10282000284600F01DF8B8B92088ADF80000E0880F
:10283000ADF8020032466946284600F011F858B952
:10284000A088ADF80000E088ADF802003246694685
:10285000284600F005F808B10020F8BD0120F8BDB9
:102860002DE9FC4114460E46B1F90020B0F90010E4
:1028700005468A423ADBB5F90400824236DCB6F9F5
:102880000270B5F90220974230DBB5F906309F425D
:102890002CDC002C75DD401A9A1A401C521C00B228
:1028A00012B200EBD07002EBD27240105210904284
:1028B00000DB1046844200DD0446ADF80010288895
:1028C00000222044ADF804006888ADF80200688852
:1028D00031462044ADF806006846FFF7C1FF40B11D
:1028E000BDF804002044ADF804003FE00020BDE83E
:1028F000FC81E8880022001BADF80200E888ADF8F2
:10290000060031466846FFF7ABFF28B1BDF804006A
:102910002044ADF8040011E0A8880022001BADF8A7
:102920000000A888ADF8040031466846FFF798FF1C
:1029300050B1BDF80000001BADF80000BDF802006A
:10294000001BADF8020016E06888ADF80200688848
:1029500000222044ADF8060031466846FFF780FFAC
:1029600070B1BDF80000001BADF80000BDF8060016
:102970002044ADF80600314668461BF029F8B6E75A
:10298000FFE70120B3E710B5B1F90040B2F900301C
:102990009C4200DA23460380B1F90240B2F90230CA
:1029A0009C4200DA23464380B1F90440B2F9043076
:1029B0009C4200DD23468380B1F90610B2F906205F
:1029C000914200DC1146C18010BD0000FEB50746F3
:1029D0001DF054FC0025354C0646009537B1F868CB
:1029E000606038461DF07CFD606802E010F06EFD0E
:1029F000606000691AF088FF6068406908B11AF0E9
:102A000083FF6068C0691AF07FFF6068006A1AF08F
:102A10007BFF60680169E1B31BF020FA1BF09CF9B1
:102A20006068B0F8501199B30168097C890715D521
:102A300010F0AAFD401E07B2606810F05FFD401E56
:102A400003B20022114601A800970EF008FA606850
:102A500001A90268926B516004F0FCF960684FF4C0
:102A60008071303016F070FD6068202100F598709C
:102A700016F06AFD6068A0F8505130461DF0F8FB72
:102A8000009060680068436A13B122680099984713
:102A900000E007E016F09AFB00F036F8BDE8FE40D3
:102AA00000F006B8A0F85051FEBD0000F000002074
:102AB00070B50A4D002400BFC4EBC40655F82600CB
:102AC00008B116F0F7FB05EB86001C2116F03CFD63
:102AD000641CE4B2042CEFD370BD0000ACB800203D
:102AE000084949680AE04A68824202D00A6882427C
:102AF00003D10A7E42F001020A7649690029F2D127
:102B000070470000C4000020704700000421014805
:102B100000F02CBEC4B700201C21014800F026BEE6
:102B2000DCB700202DE9FF5F0446DDE90E0613B98E
:102B3000B0F5807F7ED0B6F900504FF0FF376D4280
:102B4000454307EB25252DB22580B6F902C0CCF10F
:102B5000000C0CFB00FC07EB2C273FB26780B6F99A
:102B600000C0A1EB0C0141434FF0020C0CEB212102
:102B700009B2A180B6F90280A2EB080242430CEB35
:102B8000222000B2E080002B7ED04FF00A0A93FB97
:102B9000FAF5684200EB800003EB400705F10109FC
:102BA00028B21DF0DDFD00900FFA89F01DF0D8FD70
:102BB00083465A3528B21DF0D3FD804609F15A00EC
:102BC00000B21DF0CDFD0146009AC7F10A0000FBDE
:102BD00002F300FB08F00BFB073301FB070193FB3B
:102BE000FAF291FBFAF04FEA601AB4F90010B4F966
:102BF00002000AFB01FCCDF80CC05511378805FB1B
:102C000010C207EBA2220FFA82F905FB01F2BB46C4
:102C1000029277880AFB002107EBA1210BB2B4F9DD
:102C20000410BE460AFB01FC05FB10C20BEBA222FE
:102C300016B200E02FE005FB01F7CDE9007CB4F906
:102C40000680DDF80CC00AFB007005FB18C1DDF83A
:102C500004C0009F05FB18C5029A0AFB087C0AFB0A
:102C600008220BEBA1210EEBAC270EEBA02009B242
:102C70000EEBA2220BEBA5250FFA87FC00B212B2D5
:102C80002DB24F46494500E00EE000DA0F46B5424E
:102C900016DAA84615E000202080491E6080A18039
:102CA000521EE280BDE8FF9F32882A44228072884B
:102CB0003A44628032881144A180718808444FE010
:102CC000B046474504DA4F46494506DA0F4604E068
:102CD000B54201DA2F4600E0374627804F46494586
:102CE00000DD0F46B54201DDA84600E0B04647458D
:102CF00003DD4D46494505DC01E0B54201DD2946CD
:102D000000E03146A1809A4201DA154600E01D46F6
:102D1000844501DA614600E001468D4205DA9A42B7
:102D200001DA114606E0194604E0844501DA6146FD
:102D300000E0014661809A4201DD114600E019463B
:102D4000844501DD654600E00546A94205DD9A425D
:102D500001DD104604E0184602E0844500DD6046CF
:102D6000E0809FE72DE9FE4F0446D0F800B0B0F9AF
:102D70000800E589081AB4F90A10511AD4E9093291
:102D8000B5F5807F38D0A589ADB3A66B70434511EA
:102D90004E437011266BE16A06FB05F701FB1077C5
:102DA000694306FB001003EBA72902EBA020804635
:102DB0000612B4F904004FEA2927B8424EDD002F6D
:102DC0004CDBB4F90610B14248DD002E46DB94F826
:102DD00034104A0745D58A0704F1140322D400FBB6
:102DE000067045004FF0020A0BEB050152461846EB
:102DF00016F060FB27E00DE0256BE66A05FB00F7A7
:102E000006FB1177464305FB016003EBA70902EBC4
:102E1000A000CCE7A56B68434D4303EB601902EBC0
:102E20006510C4E700FB067000EB40054FF0030A95
:102E30000BEB05010222184616F03CFBE81C584437
:102E400010F8010CA07594F83400C0071FD04EF2A2
:102E50000700ADF80000A18A814218D10020BDE82A
:102E6000FE8F32B204F118002369CDE9010200257A
:102E700039B2AA468B4613F089FE0090BDF80000D7
:102E8000A082DDE90102594613F018FEDAE7E07C82
:102E900078B1A4F83C90A4F83E80A4F84070A4F85F
:102EA0004260656484F848A02046BDE8FE4F00F00B
:102EB00002B80120D3E72DE9F04F044690F83C100A
:102EC000D0F8009090F83E0087B04FF0FF367029A0
:102ED00007DAB4F940203546012A00D500258031B3
:102EE0000DE0902916DDB4F94020B4F90430012535
:102EF000521C9A4200DB0025A1F27F114942C9B25F
:102F00008846702809DAB4F94210012900D5002654
:102F1000803010E00025FF21F2E790280DDDB4F9A4
:102F20004210B4F906200126491C914200DB00261C
:102F3000A0F27F104042C7B201E00026FF2760697F
:102F40000090A07D0590002083468246049094F86E
:102F50003400400744D594F84810606C11FB05011B
:102F60004944022201A816F0A5FAA08894F8481056
:102F700010FB01F0616C022206FB0011494403A81A
:102F800016F098FAA18894F8480011FB00F1626CE1
:102F900006FB012210FB05901118022202A816F070
:102FA00089FA94F83400800761D594F84800626C7F
:102FB00010FB052300EB09010B4413F8013C0493BB
:102FC000A38813FB00F306FB0322114411F801BC94
:102FD00010FB0500111801EB090010F8010C45E089
:102FE000B4F84000B4F94220284401B204F11800BA
:102FF0008146236913F0CAFD0190B4F84200B4F988
:103000004010304402B254F8103F484613F0BEFD61
:103010000390608E2368304402B2208E284401B2AF
:10302000484613F0B3FD029094F82400103C80074A
:103030001DD5B4F9422034F8400F284401B2484667
:1030400013F03CFD04906088B4F90010304402B2E3
:10305000484613F033FD83466088304402B234F8AA
:103060004009284401B2484613F028FD824694F8EE
:10307000340042464546800735D5059810FB08F3D5
:103080000499C8F1FF0011FB0031C1F307211BFBBC
:1030900008F61AFB0060C0F3072011FB07F3C7F125
:1030A000FF0610FB06331B0AA375022907D8022866
:1030B00003D8002007B0BDE8F08F002702E0022807
:1030C00000D8FF270598022800D80022049802287B
:1030D00000D8FF22BBF1020F00D80025BAF1020F81
:1030E00003D8FF2501E0FF20A075EAB1FF2A04D034
:1030F000DDE900010FF016FC0090BDB1FF2D17D0E7
:10310000DDE902102A460FF00DFC049097B1FF2F65
:1031100005D001463A4600980FF004FC0090BDF837
:103120000000A0820120C5E70198E5E70298ECE7DE
:103130000398EAE7BDF81000F3E700002DE9F04737
:103140000446B0F908000A2700026062B4F90A00D8
:103150000002A062B4F90C1091FBF7F5684200EB95
:10316000800001EB4006684205F1010800B21DF045
:10317000F7FA8246E84300B21DF0F2FA8146C5F143
:103180005A0000B21DF0ECFA0546C8F15A0000B230
:103190001DF0E6FAC6F10A0101FB0AF3024609FB3B
:1031A0000630694390FBF7F002FB061191FBF7F143
:1031B0004011E06248112063A07C13F097FD94F861
:1031C000341060F3000184F83410A07C13F07EFD0D
:1031D00094F8341060F3410184F83410A07C042882
:1031E00024D0052822D0062820D021F0040100BFD9
:1031F00084F8341021682162A16921F0E00160F3B4
:103200000401A08860F39421E08860F35F51A1611C
:10321000E0894FF4001101EB5001B1FBF0F0A06325
:10322000FF20A075208AA082BDE8F08741F004014C
:10323000DEE700002DE9F04115460E460746114C29
:103240001DF01CF880462B4632463946204614F0C5
:10325000CFF820B10020A062E06950B110E02C212D
:10326000204616F071F94FF00040A0620020BDE842
:10327000F08140461CF0FCFFE06108B90120E061EC
:103280002046F4E700B8002010B51421074800F0EC
:103290006DFA14F073F840B10549016005494160C9
:1032A000054981600549C16010BDFEE7E8B700200F
:1032B000A96D0108257101089D720108756D01084D
:1032C00070B50D4604461021284616F03DF92068D9
:1032D0000078012804D0022807D0042807D008E08D
:1032E000208A2880608A688003E0E06800E00A2085
:1032F000686020684268002A03D02946BDE8704013
:10330000104770BDFEB5866A0446BEB9A08A218A00
:103310000844A082E08A618A0844E082204609F0DD
:103320002CFF060079D020460CF080F900220921FC
:10333000304612F001FF607880076ED4208A10B901
:10334000608A002869D00025ADF80450ADF8085017
:1033500094F83C0000F00F000328304616D017F018
:103360007BFE0746304617F031FD03460C200090E7
:10337000B4F912103A46304609F0E0FAADF8080008
:10338000304617F075FDC10712D017E017F0F8FDB1
:103390000746304617F094FD024603200090B4F92A
:1033A00010103B46304609F0C9FAADF80400E7E7D3
:1033B000BDF90410002901DDADF80450810705D4E2
:1033C000BDF90410002901DAADF80450410705D415
:1033D000BDF90810002901DDADF80850000705D43B
:1033E000BDF90800002801DAADF8085002AA01A9C9
:1033F00020461FF070FB0023BDF90820BDF9041022
:10340000304619F02FFEA08ABDF804100844A082AF
:10341000E08ABDF808100844E082FEBD2DE9FC5F9B
:103420000446806A5FEA000B71D094F83C00000704
:103430006DD014F097FA019000684021457E5846FF
:1034400018F0B4FD4FF0000818B9A4F81A80A4F8D9
:103450001880584617F0F2FD8246584617F0F5FDE1
:10346000064694F83C004FF0640900F00F000C2869
:1034700002D003284CD09AE0A4F8188056B1B4F9D1
:103480001A50002714F06EFA00684946407EC0F1D9
:10349000640022E0608BC5F1640110FB01F191FB37
:1034A000F9F06083584617F091FC0546584617F02E
:1034B000D3FD02460C200090B4F91A102B46584652
:1034C00009F03CFA6083024600231EE07A1917B225
:1034D00010FB05F292FBF1F215B2002DF6D1ADF81A
:1034E0000070A4F81A806A46002120461FF0F3FA03
:1034F00041F6FF72BDF900305142584609F0A2FF73
:10350000BDF800100123084402B200214CE09AE00B
:10351000A4F81A80BAF1000F0AD0B4F918500027A5
:1035200014F020FA00684946407EC0F1640022E0B1
:10353000208BC5F1640110FB01F191FBF9F02083B0
:10354000584617F0BDFC0546584617F019FD0346CE
:1035500003200090B4F918102A46584609F0EEF9F5
:103560002083014600231EE07A1917B210FB05F2F2
:1035700092FBF1F215B2002DF6D1ADF80070A4F86F
:1035800018800022694620461FF0A5FA41F6FF7216
:10359000BDF900305142584609F0CCFEBDF800108C
:1035A0000123084401B20022584619F05BFD208B2C
:1035B000002848D1608B002845D1C6B9584617F07D
:1035C0004BFD0546584617F001FC002D06DC00288F
:1035D0000DDD002D02DA01232A4604E0002806DA78
:1035E0000123404202B20021584619F03BFDBAF1D6
:1035F000000F19D1584617F063FC0546584617F0DE
:10360000BFFC002D07DC00280EDD002D03DA0123AE
:103610000022294605E0002806DA01230022404264
:1036200001B2584619F01EFD0A215846019A12F0BF
:1036300083FD6078800706D414F83C0F20F00F005B
:10364000207044F8148CBDE8FC9F00007FB50E4646
:10365000040003D10FF03AFF040023D00025FEB18F
:10366000ADF80050ADF802500FF048FF401EADF825
:10367000040020460FF088FF401EADF806006A46A1
:10368000314602A8FFF704F800280BD02068017C1F
:10369000890708D5DDE90001C4E90C0101202AE011
:1036A000A0F850517FBD82690AB102A99047002657
:1036B0000BE000BF04EBC601002202A83031FFF787
:1036C0000FF80028EED1761CB6B2B4F85001B04223
:1036D000F0D880B2202804D204EBC00002A9303018
:1036E00004E0A4F8505104F1300069460DF00EFBDF
:1036F000B4F85001401CA4F8500160680028D1D0F3
:103700001CF0FAFE7FBD70B5054600F012F80446C5
:103710000CE02146284600F01EF8064621462846C1
:1037200000F071F8204615F0C5FD3446002CF0D1AC
:1037300070BD002800D04068704700B503460022E5
:10374000FFF7F7FF03E01846521C00F004F80100F1
:10375000F9D1104600BD0068091D40587047006847
:1037600040587047002800D08068704700224260AF
:10377000C91C21F0030182600160704770B50446E6
:103780000068083015F00CFD050013D0014600223A
:1037900020461DF087FE2946204662681DF07CFE0B
:1037A000616819B12A4620461DF07CFE6560A0685C
:1037B00000B9A560284670BD70B5044600680830A1
:1037C00015F0EEFC050013D00146002220461DF046
:1037D00063FE29462046A2681DF064FEA16819B167
:1037E0002A4620461DF058FEA560606800B9656055
:1037F000284670BD28B1416809B9806808B1002029
:1038000070470120704770B504000DD0FFF791FF9D
:1038100000228842204608D1FFF79DFF6060011E0C
:1038200001D000221EE0A26070BDFFF79BFF88421E
:10383000206808440AD10168A16029B12046BDE88A
:10384000704000221DF028BE626070BD05682046F1
:10385000FFF781FF06460246294620461DF01CFE62
:103860002A4631462046BDE870401DF01BBE10B50B
:103870000446006882680AB12146904720680068C3
:10388000002801D02060F5E710BD8068002801D035
:10389000B0F91600704700002DE9F047074690B0D8
:1038A000408C189E40F00400788490463A849946F3
:1038B0008A463289384618F0E5F90546A7F820907F
:1038C00032895146384618F0DDF90446788CA54215
:1038D00020F00400788403D12904B1EB044F68D0B0
:1038E000A7F8208032895146384618F0CBF90546B2
:1038F0008046A7F82090514638460AF073FF318978
:1039000000682A461BF030FC3089602823D147F636
:10391000FF794D4501D04C451DD1384618F0FDFAD0
:1039200000EBD0704510384618F0F7FA00EBD07075
:103930004010C84506D1691C431C994200DA00E0DA
:10394000194688464C4506D1691C421C914201DA51
:103950006C1C00E014461948FFF710FF05002BD03F
:103960002F60C5E903843089A8806846C5F808A09F
:103970000CF0E4FC1248FF21CDE900501148029000
:103980001148039000200790CDE9080130880A9083
:1039900070889DF83E1040420B90F0680690002021
:1039A00060F300018DF83E103069059068460CF018
:1039B00039FD10B0BDE8F087FEE70000F4B7002045
:1039C00009540208C9550208255502081421014866
:1039D000FFF7CCBEF4B700202DE9FC5F002592462E
:1039E0008B4606462C46042743F60F0843F60E097D
:1039F00001E100BFF06807EBC401405881017CD4AD
:103A000080B230EA0B0113D05FF0000130EA0A0007
:103A100010D00020814270D0F06801AA41F6100158
:103A200050F8340000901BF085F9002866D103E0BF
:103A30000121EBE70120EDE701AA41F61101009811
:103A40001BF078F9002873D101AA41F61201009801
:103A50001BF070F900286BD101AA41F61301009800
:103A60001BF068F9002863D101AA41F615010098FE
:103A70001BF060F900285BD101AA41F614010098FF
:103A80001BF058F9D0BB01AA41F2690100981BF064
:103A900051F998BB01AA43F20C0100981BF04AF9B6
:103AA00060BB01AA43F20D0100981BF043F928BB4B
:103AB00001AA41F2010100981BF03CF9F0B901AAFA
:103AC00041F2040100981BF035F9B8B901AA41F29E
:103AD000020100981BF02EF980B901AA41F20301FE
:103AE00000981BF027F948B901AA41F20501009896
:103AF0001BF020F910B901AA01E07BE018E041F2C7
:103B0000060100981BF016F990B901AA41F23201A2
:103B100000981BF00FF958B901AA414600981BF014
:103B200009F928B901AA494600981BF003F910B118
:103B30000320BDE8FC9F01AA40F60A0100981BF093
:103B4000F9F8E8BB01AA40F60B0100981BF0F2F867
:103B5000B0BB01AA414600981BF0ECF880BB01AA5B
:103B6000494600981BF0E6F850BB01AA40F63C011C
:103B700000981BF0DFF818BB01AA40F63D01009841
:103B80001BF0D8F8E0B901AA40F63A0100981BF002
:103B9000D1F8A8B901AA4FF4046100981BF0CAF843
:103BA00070B901AA40F6450100981BF0C3F838B976
:103BB00001AA40F6410100981BF0BCF800B900E0F2
:103BC00014E001AA40F6420100981BF0B3F868B96E
:103BD00001AA40F6430100981BF0ACF830B901AAE5
:103BE00040F6490100981BF0A5F808B1022501E054
:103BF00005B90125641C708CC0F3C500A0423FF6D6
:103C0000F9AE284695E7000001484068704700007B
:103C1000F00000207047C0F30410072800D90720E7
:103C20007047000010B518210348FFF79FFD0349B6
:103C30000120087010BD0000A0B700206002002025
:103C40002DE9F04190460C46050015D0FCF777FBB6
:103C50000A4F06462146BA68284690470446BA6885
:103C60002819414690470146701A03E06218AA5C81
:103C70002A55641CA042F9D2BDE8F08174020020EC
:103C80002DE9F041094D90460E466A681C460746EC
:103C900019469047306020B120686A683844002196
:103CA0009047C8F80000BDE8F081000074020020D1
:103CB0002DE9F04F87B08A46DDE910581F4693463C
:103CC0000446002105B129805CB12078002809D084
:103CD000BAF1000F05D0002618F0060F15D000200D
:103CE00004E0002007B0BDE8F08F401C215C0A29E9
:103CF00004D00D2902D00029F7D100E0401C002D8E
:103D0000F0D04FF0FF312980ECE75FEA887001D5F1
:103D100041F6FF77894608468DF81410049127E094
:103D20000498CDF8189068B34FF0000C05AA06ABC4
:103D3000CDF80CC0CDF80080CDE9013220443B46DF
:103D40005A4651461CF036FD06997A1A314417B28C
:103D50000EB288B104990144049120780A280BD04E
:103D60000D2809D0605C0A280FD00D280DD0084618
:103D7000205C08B1002FD3DC049848B105B12E8037
:103D80000498AFE74FF0010CD0E7481C0490F3E72C
:103D9000064A04A9204652689047002DF0D00146FB
:103DA0000022504612F0A3FA06B2E8E7740200209F
:103DB0002DE9F0411746884606001ED0002F1CD082
:103DC000FCF7BDFA04463846FCF7B9FA050014D0F2
:103DD0000B4A2C444146926830469047411903E013
:103DE000621BB25C3255641EA142F9D930442A46A6
:103DF0003946BDE8F04115F069BBBDE8F08100002F
:103E00007402002000230278232902D0012A0DD059
:103E10000FE02AB10021012A04D0022A04D008E0D0
:103E2000012101E0017004E0017001E0202902D0CD
:103E30000123184670470221F6E72DE9F0410E46AE
:103E4000804602460021334608461CF0EFFE044639
:103E50000027401C15F0A4F9050008D02F55334663
:103E60004246611C1CF0E2FE2846BDE8F081FEE7F8
:103E70002DE9F0471E4614460D468246DDF8209097
:103E800015E000BF4FEA540808FB06573946504674
:103E90004A469047002808DD44F30000C0EB540474
:103EA00007EB0605A4F1010401E005DA4446002C05
:103EB000E8D12046BDE8F0873846FBE72DE9FC5FF6
:103EC0009B460CAB8A468146DDE9116093E81210EF
:103ED000DDE90F575FEA80784FF030031AD45EB106
:103EE0005FEAC07808D000F00C0858EA0C0803D04C
:103EF000761E01E00B55641CBC4204D2202CF9D381
:103F000001E00B55641C5FEAC07803D0B44201D2D3
:103F1000202CF6D35FEAC06825D55FEA40580AD462
:103F20004CB1BC4201D0B44205D1641E03D0102D67
:103F300003D1641E04E0102D02D0022D0AD00EE041
:103F4000850603D4202C1ED2782506E0202C1AD218
:103F5000582502E0202C16D262250D55641C202C19
:103F600011D20B55641C202C0DD2BCF1000F01D0D6
:103F70002D2306E0430701D52B2302E0030702D5DA
:103F800020230B55641CCDE900BAC846154681466E
:103F90008B46AA46800714D1274607E02A46DDE96A
:103FA00000316D1C2020C446E0477F1CB742F5D38A
:103FB00007E02A466D1C641EDDE900311BF8040091
:103FC000C047002CF5D15FEA897006D409E02A4683
:103FD000DDE900316D1C2020C047A5EB0A00B0428E
:103FE000F5D32846BDE8FC9F2DE9F04F8FB09946E8
:103FF0008B46DDE91818DDE91C63DDE91A479246B6
:104000008646002209B923F01003580507AD00D5F4
:10401000C9B1B1FBF4F004FB1010C0B20A2801D200
:10402000303009E05FEA836C02D54FF0410C01E0CB
:104030004FF0610C60440A38B1FBF4F1A854521CF3
:1040400009B1202AE5D3CDF80880CDE90563CDE993
:104050000052CDE903474B46524659467046FFF79A
:104060002DFF0FB0BDE8F08F2DE9FF4F8FB01CACD6
:10407000DDE9239594E8030820AC94E8C00400240B
:1040800050EA010201D125F010056A050DF11C0866
:1040900002D550EA010217D032463B46FCF7FAF847
:1040A000D2B20A2A01D2303206E0AB0601D5412352
:1040B00000E061231A440A3A08F80420641C50EA1C
:1040C000010201D0202CE7D3CDE90084CDF808B05F
:1040D000CDE90595CDE9036A0FAF97E80F00FFF72B
:1040E000EDFE13B0BDE8F08F9A4200D288547047BD
:1040F000704700002DE9FF4F89B005460A9800245B
:104100009246002800D1FE4D8FE1252804D022469A
:10411000641C53460A990BE2491C4FF000080846FC
:104120000C9101782B2919D004DC202919D02329DE
:1041300004D119E02D290ED0302909D00026C8B2AB
:10414000FEF786FAB0B10CA8FEF76BFA06461FE040
:1041500048F001010AE048F0020107E048F00401DC
:1041600004E048F0080101E048F01001401C8846D6
:104170000C90D6E70C9908782A2809D1169840C8DF
:104180001690002E02DA48F002087642491C0C9183
:104190000C984FF0000B01782E2919D1401C0C907F
:1041A00048F480680078FEF753FA20B10CA8FEF7B7
:1041B00038FA83460CE00C9A10782A2808D1169811
:1041C00002C81690002900DC0021521C8B460C927C
:1041D0000C9801786C290AD004DC68290FD06A2970
:1041E00019D128E0742929D07A2914D126E0401C5D
:1041F0000C90017848F480786C291CD00BE0401CAE
:104200000C90017848F08008682904D148F04001FA
:10421000401C88460C9002460078692822D015DCA4
:1042200062281FD00DDC252871D050281AD05828BC
:104230007FF46DAF16E048F40071E9E748F480714F
:10424000E6E7632878D06428F2D10BE0732874D0B5
:1042500004DC6F2806D07028EAD103E0752801D06D
:104260007828E5D178280DD058280BD070280BD0AD
:10427000502809D06F2816D0622816D00A2128F0BD
:10428000100016E0102107E05078102148F48878DB
:10429000562804D1521C0C921078582807D0107858
:1042A000502804D006E0082109E0022107E048F088
:1042B000200080461078692803D0642801D028F0B7
:1042C0000C085FEA485001D528F0010810786928E9
:1042D0001ED064281CD0562864D05FEA885072D55E
:1042E000169804ABC01D002283E806080292CDE9AF
:1042F000076820F007005346F0E80212CDE90012EB
:104300001690224628460A99FFF7AEFE89E00AE198
:104310005FEA885024D5169804AFC01D20F007032B
:10432000F3E802021693002387E80A08CDE907683C
:10433000002A03DA012102E080E0A6E00021002348
:10434000029119461B1A914101DA114603E000213E
:10435000404261EB020153462246CDE90001D1E71C
:104360005FEAC85004D5169804C80FE0524215E021
:104370005FEA486003D5169810F8042B06E05FEA60
:104380000860F0D5169830F8042B12B21690CDE9DB
:10439000021BCDE90468D00F002AE7DDCDE900203B
:1043A00053461EE01698AAEB040202C8169048680D
:1043B000006800900A980B6801192846FFF79AFEDA
:1043C00004442FE0FFE75FEAC8500CD5CDE9021B9B
:1043D000CDE9046816980021534604C8CDE90021B0
:1043E0001690224619E05FEA486003D5169810F847
:1043F000042B08E05FEA0860169803D530F8042B18
:1044000092B200E004C816900020CDE90020CDE96A
:10441000021BCDE904685346224628460A99FFF755
:10442000E3FD04460C98401C0C900C990878002879
:104430007FF46BAE54457DD222467DE001275FEAD2
:10444000887006D509E02246641C534620200A994C
:10445000A84738467F1CB042F5D316992246641C03
:1044600011F8040B169153460A99A8475FEA887021
:1044700006D4D7E72246641C534620200A99A84751
:1044800038467F1CB042F5D3CCE7169850F8049B11
:1044900016904B46BBF1000001D0014601E04FF001
:1044A000FF31484600E0401C02780AB1491EFAD2AA
:1044B000C71A5FEA485003D558465F4500D3074600
:1044C0005FEA887006D512E02246641C534620201D
:1044D0000A99A84738467F1CB042F5D307E000BFD1
:1044E000224609F10109641C53460A99A84799F824
:1044F000000040B15FEA4851F2D5BBF1010B01E089
:10450000F1400008ECD25FEA887006D48AE72246C0
:10451000641C534620200A99A84738467F1CB042A5
:10452000F5D37FE706E02246641C534625200A990E
:10453000A84777E7AAF10102534600200A99A84745
:104540000DB02046BDE8F08F10B502004FF000001E
:104550000CD04B1E194200D0FEE70A44521E9A436B
:10456000B2F5803F02D20C2A01D9104610BD0C20B2
:1045700010BD08444A1E401E9043114200D0FEE781
:10458000704700002DE9F0410F4601210025044647
:1045900041862E460BE01B49FBF7D8FE10B16D1C7F
:1045A000ADB202E0608E401C6086761CB6B257F851
:1045B000260010B101780029EDD1208EA8421ED02E
:1045C000A06A002610B114F075FEA662E06A10B170
:1045D00014F070FEE662E80014F0E2FDA06238B16B
:1045E000680014F0DDFDE06218B1A16A11B102E0CB
:1045F000FEE7FEE70025690014F0A6FF2586BDE86A
:10460000F0810000CC1601082DE9F84F8146407A70
:104610000F4600F00700022819D010468046974246
:1046200000DD3A46164603202A4C2B4A00EB460092
:1046300020F00305A06811681035411A636805EB86
:10464000010C9C4505D2416821F0004124E0084658
:10465000E4E79D4219D892464FF0FF3B4819616844
:10466000884210D9002269461C48CDF800B00BF0F2
:1046700095FB002269461A480BF090FBA168DAF816
:104680000000091AEAE7A068DDE7284614F088FD73
:10469000C0B1416841F0004188EA6702416089EA9F
:1046A00002010160416801F04041491C31F0804144
:1046B00041608681A0F80E8005D500F1100181606F
:1046C000BDE8F88FFEE7A16801F11002294482607D
:1046D000A160F5E7F80000205002002069D1000831
:1046E000FDFD000870B586B000228DF808208DF819
:1046F0000C208DF8102090F83C20454C02F003036C
:104700001422A5784FF4B476012B23D0022B63D06A
:10471000AB4211D010F8265F05EB051505EB4505FA
:10472000B5FBF2F52570407800EB001000EB40007F
:10473000B0FBF2F06070A37004AA03A8CDE90002F8
:1047400001EB41004FF6FF7101EA400002AB6278D5
:1047500021781AE0AB4210D0858C05EB45056D023F
:10476000B5FBF6F5A58090F8270000EB001000EBF4
:104770004000B0FBF2F06070A37004AA03A8CDE97A
:104780000002C9B202AB627840E008F029FA9DF855
:104790000C00BDF8003044099DF8081064F30203D2
:1047A000ADF80030CB08BDF800109DF8102063F381
:1047B000C701D20889B262F30C21ADF8001081085C
:1047C000BDF8000061F34F30ADF8000080B20090FA
:1047D000BDF8000006B070BDAB4210D0858C05EB73
:1047E00045056D02B5FBF6F5A58090F8260000EBB7
:1047F000001000EB4000B0FBF2F02070A37004AAA0
:1048000003A8CDE90002CAB2217802ABA088BCE7B8
:10481000A801002010B5084C012020700748FEF7C1
:1048200088FF0028A06803D0BDE810401BF064BEDC
:10483000BDE810401BF054BE34020020D0B7002069
:1048400010B5044690F83E00626B810707D4A18F33
:1048500039B1A1F57F43FF3B15D0491EA187A18F38
:1048600089B90AB181070ED521461348FEF7CBFF5F
:10487000FFF7D0FFE16809B1204688472046BDE830
:10488000104014F017BDA16B4942E162002A11D01B
:10489000810702D4216B4942E1624110491C61F356
:1048A000410084F83E00616AE069E1616062A06AEB
:1048B000A262606310BD0000D0B7002070B5304D1B
:1048C00068681BF0D5FC0646687880F001006870C7
:1048D00047E00020287094F83E006978C0F3800219
:1048E0008A4242D061F3820084F83E00E16A8A196C
:1048F000030719D4002917DC002A15DBC00709D1EA
:10490000216939B120468847E1690144E161616A62
:1049100008446062A16809B12046884794F83E00C7
:1049200040F0080084F83E00E06A8019E06216D486
:10493000A16A884200DDE162A169204688470146FC
:10494000206A884204D0216262680AB120689047D8
:10495000D4E90A01814202DB2046FFF771FF287883
:1049600018B10848FEF7E5FE03E021460548FEF7CA
:10497000F2FE0400ADD11BF081FC686070BD000048
:1049800034020020D0B7002070B5044640680D46C0
:1049900008B1FFF7F9FF2268002A04D02946204613
:1049A000BDE87040104770BD89B20CF014B989B2EF
:1049B0000CF04DB910B50446406882080AD0496829
:1049C00021F00301091D08446060204600F042F810
:1049D000204610BDFEE74068103120F003008842F9
:1049E00001D301207047002070472DE9FC470546A0
:1049F00048680C4620F0030001AA69461CF0F4FB4D
:104A0000DDE9007005EBC71101EB80098046D9F89C
:104A10003C0060B164B1C4E9020504F10806C46059
:104A200030460421FFF7A5FD864202D0FEE7FEE7EF
:104A3000FEE7C9F83C400120296900FA07F211435A
:104A4000296105EB870100FA08F04A6902434A61CF
:104A5000BDE8FC8710B5044600F087F8046010BD7F
:104A60002DE9FC4706464FF000000D000090074678
:104A7000019042D00C46E9460DF10408802907D385
:104A8000084620F096FC411F01208840401E044447
:104A90004246494620461CF0A7FB009C0A2C2CDA13
:104AA00006EB8400019A40694FF0FF3101FA02F2EF
:104AB00010400CD1641C3069A14008401DD020F08A
:104AC00070FC0446009006EB8000406978B120F04D
:104AD00068FC034606EBC411019001EB8000C76B34
:104AE0005FB1786820F00300A84201D2FEE7FEE73C
:104AF00039463046009A1DF029FE3846BDE8FC874D
:104B000010B50446FFF7A6FF416841F0020141607D
:104B1000606840F00100606010BD10B5044600F010
:104B200024F8416821F002014160606820F0010032
:104B3000606010BD70B506460D46084600F015F8D9
:104B4000040010D02079C0070BD0686880080BD013
:104B50002146304600F03CF821462846FFF72AFF60
:104B60000546284670BDFEE7FEE7426800F10801F1
:104B700022F00300001F0844910800D1FEE77047AF
:104B800070B506460C004FF000001ED0F2B120793F
:104B90001546C0071BD011462046FFF71CFF78B111
:104BA0002946204600F025F805462046FFF752FF2B
:104BB0006868294640F0020068603046FFF715FF3C
:104BC0002046FFF7AAFF04F1080070BDFEE7FEE7EC
:104BD0007CB5054648680C4620F0030001AA6946EA
:104BE0001CF002FBDDE90023214628461DF0AEFD46
:104BF0007CBD2DE9F0410D46044600F10801281F57
:104C00000E18606806F1080720F00300401BA0F1B1
:104C1000040838460421FFF7ACFC874200D0FEE7C9
:104C2000606820F0030108EB0500001D814200D000
:104C3000FEE7307900F0030040EA0800706020F0E1
:104C400003000C2800D2FEE7207900F0030028437F
:104C500060603046FFF754FF3046BDE8F08138B55C
:104C6000044612F07FFE054612F0B1FE00282046F1
:104C700005D0218FE18617F067FC012038BD11F0C7
:104C800021F8002820461ED010F0F1FE218FE08E82
:104C900081420CD02087E08E00906A461C2120467D
:104CA00011F04AFA0128E9D1204617F04DFC2846B8
:104CB00012F099FE0428E0D1204616F035F80021C4
:104CC00011F0DBFED9E711F059F8D6E770B511F015
:104CD0002EFA054616F06EF8044628460CF0B0FD94
:104CE00001462046BDE8704001221AF0EDBD0000EB
:104CF0002DE9F04F0D4687B00446002115F049FF1D
:104D000060B32946204600F061FA2946204600F0AB
:104D10006FF80021204616F073FE05900021204612
:104D200016F040FF04900021204616F035FD0128C2
:104D300000D0002080460021204617F0CBF807461F
:104D40000021204616F0A6FD42F2D17906464F45D5
:104D50000BD1608C400508D4012707E007B0284636
:104D6000BDE8F04F1C2114F0EFBB0027204615F0E2
:104D70008EFFDFF878A0834620460021BAF8022093
:104D800016F080FFD5F810C0AB682968CDF800C0D8
:104D9000CDF80C80CDE90131C2B239465846059BA9
:104DA00009F092FD28834E4504D1608C800501D422
:104DB000012600E00026204615F04FFF074620465A
:104DC0000021BAF8062016F05DFFC2B2686900241F
:104DD0006B68E9688DE81B0031463846049B09F092
:104DE00073FD688307B0BDE8F08F00003C01002030
:104DF0002DE9F34F81B00C46019808F0D1FF06462B
:104E0000019815F044FF8246304600F02FFF2061E4
:104E1000400014F0F1F920602069400014F0ECF932
:104E2000002541F69A79A0603AE036F91510DFF8CE
:104E30002081494533D10027DFF818B11FE03946FA
:104E4000019815F0A6FE5946009017F0B6F8A8B9DB
:104E5000009808F0B7FF012810D1009808F0A8FFCB
:104E6000A8420BD1009817F058F84146404501DAA6
:104E7000084602E0009817F050F880467F1C019821
:104E800015F099FEB842DAD8B8F1000F03DBA1683B
:104E900021F8158003E0A168002021F815006D1CA1
:104EA0002069A842C1D800252F46284641F69B78A4
:104EB0004B4615E036F91010414504DB0D44A5F5CD
:104EC000F8559B3D0BE0994204D1A16831F81010D0
:104ED000394403E0A26822F8101039440FB2401C94
:104EE00021698142E6D80021019816F089FD2169E7
:104EF000C1F1010200FB02A0C01B00B2002800DAD1
:104F0000002000224FF0FF331146C44611E000BFDD
:104F100036F9117067450BDBA7F5F8579B3F3AB29E
:104F200010FB02F3B3FBF5F3A76827F811300B462B
:104F3000491C27698F42EBD8002B07DBA91A414394
:104F4000B1FBF5F1401AA16821F81300BDE8FE8F0E
:104F500001E0FFFF010006002DE9F14F002211469C
:104F6000009818F0BDF90021009816F049FC04469D
:104F70000021009816F02BFE20440FFA80F9002142
:104F8000009816F0E9FC20440FFA80F8009816F01B
:104F9000A9FB00EB090101EB0800DFF898A006B2BD
:104FA0005446009815F007FE074600252AE00098B1
:104FB00021498068006850F82500834616F0FDFFFF
:104FC000F8B9584617F022FB40BB0021584616F0AE
:104FD000AEFB18B3012821D002281FD003281DD012
:104FE0000021584616F092FF58B9BBF81A10BBF8CA
:104FF0001600081A401C00B24844A04200DB0446D8
:1050000024B26D1CBD42D2D3544504D004EB080039
:1050100000B2B04200DC3046BDE8F88F0098BBF922
:105020001A10B0F91600081A411CA142E8DB0C4620
:10503000E6E7000001E0FFFF010004002DE9F84F62
:1050400000228046114618F035F90021404616F03E
:10505000D7FB04460021404616F050FD20440FFACD
:1050600080FA0021404616F0EEFC20440FFA80F949
:10507000404616F045FB00EB090101EB0A00DFF8A2
:1050800044B105B25C46404615F095FD0746002147
:10509000404616F06CFB01284FF0000644D078E043
:1050A000D8F808004849006850F82600009016F02B
:1050B00084FFC0BB009817F0A9FA50B10098B8F966
:1050C0001810B0F91400091A481CA0422ADB4C1C25
:1050D00028E00021009816F02AFB58B1032809D0D7
:1050E000062807D0082805D00021009816F007FFF1
:1050F00058B118E00098B8F91810B0F91400081A5F
:10510000411CA1420EDB0C460CE0009814300090CC
:105110000BF06DFE5044A04204DB00980BF067FEDC
:1051200000EB0A0424B2761CBE42B9D35C453BD0E6
:1051300004EB090033E000BFD8F8080022490068FA
:1051400050F82600009016F038FF08BB009817F0C2
:105150005DFA60BB0021009816F0E9FA38B3012827
:1051600025D0042823D0072821D00021009816F04C
:10517000CDFE68B90098143000900BF038FE48441A
:10518000A04204DB00980BF032FE00EB090424B2CD
:10519000761CBE42D0D35C4506D004EB0A0000B2B8
:1051A000584501D0A84200DC2846BDE8F88F009899
:1051B000B0F91810B8F91400091A481CA042E6DB2F
:1051C0004C1CE4E701E0FFFF010004002DE9F84F6B
:1051D0000C46834609F004FA064600F047FD60617C
:1051E000400014F009F860606069400014F004F8B1
:1051F000002541F69A79E0603AE036F91500DFF8CB
:105200000C81484533D10027DFF804A11FE039465F
:10521000584615F0BEFC5146009016F0CEFEA8B9D7
:10522000009809F063FA012810D1009809F054FAA7
:10523000A8420BD1009815F07CFD4146404501DAAB
:10524000084602E0009815F074FD80467F1C584621
:1052500015F0B1FCB842DAD8B8F1000F03DBE16811
:1052600021F8158003E0E168002021F815006D1C8D
:105270006069A842C1D800273D46384641F69B7870
:105280004A4615E036F91010414504DB0F44A7F5F6
:10529000F8579B3F0BE0914204D1E16831F81010C0
:1052A000294403E0E36823F8101029440DB2401CA0
:1052B00061698142E6D80021584616F073FC8146A8
:1052C000584615F0CAFC01466069C0F1010209FBAD
:1052D0000210401B02B2002A00DA002200204346DE
:1052E0000FE000BF36F91010994209DBA1F5F85123
:1052F0009B3912FB01F1B1FBF7F1E56825F81010BD
:10530000401C61698142EDD8BDE8F88F01E0FFFFE4
:10531000010006001CB50B8804892344ADF8003059
:105320004B8844892344ADF802308B880489234498
:10533000ADF80430C98843891944ADF806104369B3
:10534000694698471CBD0000F8B50D46D0E90C2110
:1053500004468AB112787AB141B100BF1AF0B5FDA6
:105360000D4909688847616B884211D2206B88B16A
:1053700000200A4E009006E061B1EFE7326869460E
:105380009047A84206D0206B0099415C0029F5D1D6
:105390000020F8BD0120F8BD8C020020780200201A
:1053A0002DE9FF4F87B0C878189CC0070D4600282C
:1053B00001D0F14800E0F148069001D0F04800E04B
:1053C000F048049001D1EE4800E0EE484FF0100A9A
:1053D0004FF00C0ECDF814006088A1884FF0000B40
:1053E000A0EB010001B25A465846276912E000BFFF
:1053F00000EB8006E3680AEB860C13F80CC05FEA4A
:10540000CC7C0BD04FF0080C0CEB86069B5BC91ACA
:1054100009B2401C8742EBD8002347E00EEB86061A
:105420009B5B1A4412B2F4E703EB8306E7680AEBCE
:1054300086000190385CC00737D191FBF2F00EEB8B
:10544000860CCDF800C037F80CC00CFB00FC0FFA3E
:105450008CF94FF0060C04200CEB860C00EB860058
:1054600037F90C80385ECC46C84500DCC446604540
:1054700004DC4046CC46C84500DD6046484506D0C1
:10548000DDF804804FF0010CE34647F808C0D4F87B
:105490000CC0082707EB86062CF80600E768009E7C
:1054A000BE5B921B081A12B201B25B1C20699842C3
:1054B000BAD8BBF1000F8FD10021079816F065F91B
:1054C000012826D000270020ADF80800ADF80C0018
:1054D00003A902A8CDE900012089B4F9022003B292
:1054E000287816991CF0F1F8E878384207D0079828
:1054F00015F0CDFBBDF808100844ADF80800099977
:10550000079815F046FB06464FF4FA684FF0640B17
:1055100027E10127D7E79C49304616F04EFD0028C9
:105520007DD10021304616F09DF9E8B34FF0000917
:105530004846216911E000BFE26800EB800352F8A1
:105540002320B24208D100EB8002E168082000EB82
:10555000820031F9009002E0401C8142ECD8E878EA
:10556000C007708C02D040F4806001E040F400700D
:10557000708406F11400049982468847484528D073
:10558000304616F0E1FFB08AADF80000F08AADF8C1
:105590000200308BADF80400708BADF80600069A5F
:1055A00049465046904700E00FE06A4629213046C0
:1055B00010F0C2FD304615F0FDFB3246222110F0FE
:1055C000BBFD304616F0C0FF03E0708C20F4C060D5
:1055D0007084002000906878012810D0022816D12D
:1055E000059906F114008847B4F90010491C21F010
:1055F0000101081A00EBD07040F34F0006E0059956
:1056000006F1140088472188081A00B20090E87853
:1056100038420AD0049906F11400884700E098E067
:10562000BDF80810081AADF808003046002143F212
:105630000C0216F027FB0FFA80F93046002143F2E6
:105640000D0216F01FFB0FFA80FA304616F065FCCB
:105650000190304615F06DFB0146C9F34130012839
:105660000ED129F4C04040450ADCB0F57A7F01DD57
:10567000C0F57A70019A504390FBFBF00FFA80F965
:10568000CAF3413001280DD12AF4C040404509DC5D
:10569000B0F57A7F01DDC0F57A70484390FBFBF0EE
:1056A0000FFA80FAB18A1498F28A411A01EB0900C4
:1056B000159900B28A1A02EB0A01EA7809B2D207F8
:1056C000002A02D0BDF9082000E0009A10440FFA29
:1056D00080FA01D0009801E0BDF9080008440FFAF3
:1056E00080F95AEA09001BD0304616F02DFFB18A26
:1056F00001EB0A00B082318B01EB0A003083F18AA2
:1057000001EB0900F082718B01EB090070833046D8
:1057100016F01AFF01234A465146304616F0C4FFE0
:10572000E87838420CD1049906F11400884717999B
:105730000844BDF80C100844BDF80810084406E001
:10574000BDF80C1017980844BDF80810081AADF8F9
:105750000800E87809AAC0F38001079808F00CFE59
:105760000646002E04D0DDE9090188427FF4D3AE5D
:105770000BB0BDE8F08F0000770E01086D0E010838
:10578000130E0108BB0D0108010006002DE9F04FC2
:1057900091B00E0005463FD02E83286808B113F063
:1057A00089FD06EB4600062101EB400013F0F8FCF2
:1057B000286040B3022101EB46010144E960042165
:1057C00001EB86010144C5E9010101210024012EFC
:1057D0001AD0F000083013F00FFD814600EB860070
:1057E00000F10408B00000B2A346ADF81000C0F10B
:1057F00001028010ADF812B00FFA82FA5C46CDF8C3
:1058000028B00690ABE0FEE7B4220270E86804809E
:10581000E8684180A868048011B0BDE8F08F0027D7
:10582000BDF81220BAF1000F07DC032101EB4201A1
:105830000AEB01000FFA80FA0CE0BDF81010052306
:10584000521A03EB420202EB0A00491E0FFA80FAD9
:10585000ADF81010BDF81200401CADF8120004A8FD
:1058600000F0E9F868B1BDF9100006A9821041F80E
:1058700027200AA900F0030041F827007F1C042F0D
:10588000CEDB042F71D109990698884212D129F8EC
:10589000140028F814B0DDE90A010144DDE90C2008
:1058A0001044084469680855696800010855641C7B
:1058B00024B252E00799884219D029F8140028F838
:1058C00014B06A680A9810556A6800011055641C83
:1058D000069A20B2521E29F8102028F810B0DDE9EF
:1058E0000B120A440D99091D11446A682FE00899AA
:1058F00029F81400884228F814B0DDE90A02594654
:10590000104412D06A6810556A6800011055641C72
:10591000069A20B2521E29F8102028F81010DDE94E
:105920000C12114408316A6811E00C9A10446A683C
:1059300010556A6800011055641C069A20B2521E68
:1059400029F8102028F810100D996A680C311154AC
:105950006A6809011154401C04B20BF1010B04A840
:1059600000F069F800287FF45AAF40F2D32016FB0C
:1059700000F109EB4402881232F9022C824205D16F
:1059800008EB440232F9022C82421AD0A1EB8021AA
:10599000B1F5007F03DC494341F3CF3106E0C1F5A7
:1059A0008061494341F3CF31C1F10F0129F814005F
:1059B00028F8140068680155686809010155641CDD
:1059C00024B2A01E0EE000BF38F8102029F81420E1
:1059D00039F8102028F8142069680A5C0A55641CFC
:1059E00024B2401E0028EFDAEA6800210846118040
:1059F0001BE0EA6822F81100AB6839F8102023F8A0
:105A000011200AE0AE6839F9102036F811309342BF
:105A100000DA1A4626F81120401C38F910208A4274
:105A200001D1A042EEDB491C09B2A042E1DB4846AD
:105A300013F02EFCF0E6B0F90210B0F9000081423C
:105A400001DC012070470020704717B581B0022AA1
:105A500003D8BDF8080004B010BDBDF80830BDF88B
:105A60000400C3F3C401C0F3C40421441F2900D3BC
:105A70001F2161F3C7005907890E01EB533100F074
:105A8000070401EBC40101EB5031ADF804003F29DC
:105A900000D33F21CC0864F3020061F34F30C3F31D
:105AA0000421C0F304231944ADF804001F2900D3D6
:105AB0001F2161F30C20ADF80400FF2A07D0DDE9B7
:105AC00001010CF078FF0090BDF80000C3E780B240
:105AD000C1E717B581B0022A03D8BDF8080004B0A9
