:020000040800F2
:10000000481B0020C10200085F1A0008C51900083B
:100010005D1A0008D90E0008D71C00080000000077
:10002000000000000000000000000000631A00084B
:10003000DB0E000800000000611A0008651A0008C5
:10004000DB020008DB020008DB020008DB0200081C
:10005000DB020008DB020008DB020008DB0200080C
:10006000DB020008DB020008DB020008DB020008FC
:10007000DB020008DB020008DB020008DB020008EC
:10008000DB020008DB020008DB02000800000000C1
:10009000000000000000000000000000DB0200087B
:1000A000DB020008DB020008DB020008DB020008BC
:1000B000DB020008DB020008DB020008DB020008AC
:1000C000DB020008DB020008DB020008DB0200089C
:1000D000DB020008DB020008DB0200080000000071
:1000E000DB020008DB020008DB0200080000000061
:1000F000000000000000000000000000DB0200081B
:1001000000000000DB020008DB020008DB02000840
:1001100000000000000000000000000000000000DF
:10012000DB020008DB020008DB020008DB0200083B
:10013000DB020008000000000000000000000000DA
:10014000000000000000000000000000DB020008CA
:10015000DB020008DB020008DB020008DB0200080B
:10016000DB020008DB0200080000000000000000C5
:10017000000000000000000000000000000000007F
:1001800000000000DB02000800000000000000008A
:10019000DB020008DB02000800F002F800F066F85D
:1001A0000AA090E8000C82448344AAF10107DA45D2
:1001B00001D100F05BF8AFF2090EBAE80F0013F0BE
:1001C000010F18BFFB1A43F001031847D86D000058
:1001D000F86D00000A444FF0000C10F8013B13F0DA
:1001E000070408BF10F8014B1D1108BF10F8015B90
:1001F000641E05D010F8016B641E01F8016BF9D183
:1002000013F0080F1EBF10F8014BAD1C0C1B09D1D9
:100210006D1E58BF01F801CBFAD505E014F8016B4B
:1002200001F8016B6D1EF9D59142D6D370470000DD
:100230000023002400250026103A28BF78C1FBD8EF
:10024000520728BF30C148BF0B6070471FB506F08A
:10025000BCFB9DE8030000F0C1FA00F066F900F075
:10026000F3FB1FBD10B500F058FC10BD00F099FD68
:100270001146FFF7EBFF05F08BFB00F0B7FD03B471
:10028000FFF7F0FF03BC00F001FE00000B49D1F8BE
:1002900000C04A685CF8043B1068184442F8040B3C
:1002A0008C4528BFA1F1DC0C8A4228BFA1F1DC02F9
:1002B000C1F800C04A6020F000407047DC0A00200E
:1002C0000948804709480047FEE7FEE7FEE7FEE7EA
:1002D000FEE7FEE7FEE7FEE7FEE7FEE70448054926
:1002E000054A064B70470000F91A000899010008FA
:1002F000480B0020481B0020481300204813002012
:1003000070B5064600F04EFA056806F10B0020F0C5
:100310000704B4429CBF002070BD2B466A68BAB186
:100320001068A04210D304F1080188423CBF506815
:10033000586007D35168101941601168091B0160AA
:1003400058601460101D70BD13465268002AE7D132
:100350002146284600F02EFA0028DED170BD70B587
:100360000446051F00F01EFA0068002C14BF446804
:1003700070BD002C18BFAC423CBF20466468F8D367
:1003800001680A18AA4218BF456003D12A680546C9
:100390001144016028684119A1421CBF6C6070BD06
:1003A0006168696021680844286070BD53EA020CE6
:1003B00000F069802DE9F04B4FF00006002B1FBFC5
:1003C000B3FA83F503FA05F424FA05F65E4012BF8A
:1003D0001643B2FA82F502FA05F4C5F120051EBFF4
:1003E00022FA05FC44EA0C04203556EA044C4FEA94
:1003F000144418BF641C4FF000084FF000099042ED
:1004000071EB030C39D3002919BFB1FA81F701FA56
:1004100007F6B0FA80F700FA07F6C7F120071EBF0B
:1004200020FA07FC46EA0C062037B6FBF4FCA7EBE3
:100430000507103F07F01F0BCBF120060CFA0BFB52
:100440002CFA06F644BFB3460026202FA4BF5E4612
:100450004FF0000B5BEA060C08BF4FF0010B19EBE5
:100460000B09ABFB027C48EB0608C01B06FB02CC69
:100470000BFB03CC71EB0C01C1E70B460246414676
:100480004846BDE8F08B13B54FF000004FF0000177
:10049000AFF30080BDE81C407047000070B5044613
:1004A000C068810713D0800601D5A56A04E0A16960
:1004B000606808442169451A204600F081FA00224C
:1004C00006462946204600F0CBF9304670BD002094
:1004D00070BD70B510B1BDE87040DFE70025074C76
:1004E0006E1E07E02046FFF7D9FF00B13546206DAC
:1004F00020F00104002CF5D1284670BD040900202D
:100500000B4910B5A1F17C020A4CC2E93712372120
:1005100006E000EB104342F82130074B00FB03409C
:100520000B1EA1F10101F4DC10BD0120E8E7000081
:100530007C0A0020E119D666CD0D010040EA0103D6
:1005400010B59B070FD1042A0DD310C808C9121F7C
:100550009C42F8D020BA19BA884201D9012010BDB6
:100560004FF0FF3010BD1AB1D30703D0521C07E083
:10057000002010BD10F8013B11F8014B1B1B07D1E7
:1005800010F8013B11F8014B1B1B01D1921EF1D158
:10059000184610BD10B5431C02E010F8011B71B1E4
:1005A0008107FAD14FF0013202C88C1A8C4314EA49
:1005B000C211F9D0C01A0A0603D0C01E10BDC01A5D
:1005C00010BD0A0401D0801E10BD0902FCD0401EDF
:1005D00010BD40EA010370B59B072ED14FF00136E4
:1005E000042A2AD308C810C99D1B9D43121F15EA6F
:1005F000C61517D0D8B2E1B2401A50EA056110D141
:1006000098B2A1B2401A50EA05410AD123F07F40C6
:1006100024F07F41401A50EA052102D1180EA0EBC8
:10062000146070BDA342DBD018BA21BA884201D948
:10063000012070BD4FF0FF3070BD0AB9002070BDC1
:1006400010F8013B11F8014B63B1A3420AD1521ECD
:1006500008D010F8013B11F8014B1BB1A34201D1A6
:10066000521EEDD1181B70BD10B5203AC0F00B80A2
:10067000B1E81850203AA0E81850B1E81850A0E8A6
:100680001850BFF4F5AF5FEA027C24BFB1E8185000
:10069000A0E8185044BF18C918C0BDE810405FEA70
:1006A000827C24BF51F8043B40F8043B08BF7047EC
:1006B000D20728BF31F8023B48BF11F8012B28BFF1
:1006C00020F8023B48BF00F8012B70474FF00002B2
:1006D00000B5134694469646203922BFA0E80C5038
:1006E000A0E80C50B1F12001BFF4F7AF090728BF13
:1006F000A0E80C5048BF0CC05DF804EB890028BF8F
:1007000040F8042B08BF704748BF20F8022B11F0B7
:10071000804F18BF00F8012B704700004FF0013CDC
:1007200050F8042B51F8043B9A4221D1A2EB0C0360
:10073000934313EACC1317D150F8042B51F8043B20
:100740009A4215D1A2EB0C03934313EACC130BD1BD
:1007500050F8042B51F8043B9A4209D1A2EB0C0348
:10076000934313EACC13DBD04FF00000704700BF77
:10077000D01A01BAB1FA81F101F0180122FA01F0A0
:10078000CB40C1F12001DBB2C0B2C01A2CFA01F398
:10079000D11A914311EAC311E6D1704770477047EF
:1007A0007047000000487047EC0A0020704770470F
:1007B0007047704738B504460A4600206946AFF3D3
:1007C0000080002808BF38BD02460099204600F08E
:1007D000DFF9012038BD012000F0DBBAF8B5AFF336
:1007E0000080054600200C46102000BF0646A819D0
:1007F000A0420DD9324669460020AFF300800700C1
:1008000008BF00F0C6FA0098A04218BF0546C419F8
:10081000FFF7C8FF05600746F01D20F007004619E6
:10082000284600F00AF8B44208BFF8BDA21B3146C2
:100830003868BDE8F84000F0ABB900210160C0E9BC
:10084000011070471020704710B500F09DF9006846
:1008500010BD10B5044600F097F9046010BD00000B
:100860002DE9F041044616460D464769007B800796
:100870002ED0384602F09CF850BB3EB3012E02D079
:10088000022E25D104E0204600F09CF905441DE02D
:10089000384602F08BF8E168002841F01001E16071
:1008A00005DA204600F058F80120BDE8F081C903C0
:1008B0000BD56268E16A914200D81146A2691144E1
:1008C0002269891A814200DD08460544002D01DABB
:1008D0000220EAE7E16A6068E268814206D2910399
:1008E000E06203D522F4003141F01002A66900272E
:1008F000AE4213DCE16A814201D90B4600E00346B7
:1009000003EB060C2369ACEB030CAC4506DD81421E
:1009100001D98C4600E084469C4505D1A76027603C
:1009200042F02000A5620DE0AD1BE669AE1B8142DE
:10093000A66000D90846C01A281A206058196060BD
:1009400022F0200003490840E060002084F848704D
:10095000ABE70000BFCFD7FFC16821F4001141F021
:100960008001C16000218160016070472DE9F0477E
:10097000814614460E464FF0FF383248D568576915
:10098000054209D03846A16902F04AF8002811DB77
:100990002C48C0430540E5602B4632464946384660
:1009A00002F041F8A16920F00042B21A1144002877
:1009B000A16103D02046FFF7CFFF4046BDE8F08796
:1009C00070B504460569C06A6168884200D8084667
:1009D000E16821F42011E160C90312D5A84208D0D2
:1009E0002246411B2846FFF7C1FF10B14FF0FF30F0
:1009F00070BD0020E562C4E90150E06820F4803059
:100A0000E060002070BD10B50446C06820F02000F2
:100A1000E060A16AA06988420DD02046FFF7D0FFB0
:100A2000E06820F4405040F01000E060A06AA0614F
:100A30002069E062606044F24001E0688843E06061
:100A400010BD00001000020010B542485421FFF70D
:100A50003DFE41485421FFF739FE40485421FFF73D
:100A600035FE3F493B483C4A3F4B08603D490A60E0
:100A70003A491960531C0365481C1065012008653C
:100A80003B48344A39A1784400F0E0F820B93848AE
:100A900078440A3800F076F937482F4A35A178446F
:100AA00000F0D4F820B9344878440A3800F06AF9E4
:100AB00032482A4A2FA1784400F0C8F820B92F48BC
:100AC00078440A3800F05EF940232248DC00002117
:100AD000224600F098F820B125487844543800F0B8
:100AE00051F91D4822464023002100F08CF820B126
:100AF00021487844543800F045F91848224610231C
:100B0000002100F080F8002806D01C487844BDE899
:100B10001040563800F036B910BD104870B5006D61
:100B200020F001040B4800F007F90B4800F004F92D
:100B30000A4800F001F909E0206D20F00105204687
:100B400000F0FAF82046FFF70AFC2C46002CF3D1FF
:100B500070BD00000409002058090020AC090020E5
:100B6000EC060020F0060020F406002072000000D1
:100B7000BE62000077000000AD6200009D620000D0
:100B800000487047E40A002000487047E40A00204B
:100B9000034640688C46002818BF88423CBF034685
:100BA0004068F8D318681844884207D00CF1030055
:100BB00020F00700001D411A521A0146081D0A6064
:100BC000FFF7CDBB10B50146C268900703D0900671
:100BD00007D5886A0AE0FFF7D7FF01210160881E68
:100BE00010BD8B69486818440B69C01A91F84830E9
:100BF0001BB191F84910401A10BD1103FCD5002813
:100C0000FADD401E10BD70B5C468A50713D065029B
:100C100011D4B2F5807F09D0B2F5007F06D0B2F5CD
:100C2000806F08D1012300F1240106E05D1E6FF002
:100C30007F46B54201D3012070BD0161C3614160AF
:100C400024F470611143C160002070BD2DE9F041B2
:100C50000C4607461646104600F06EF82078611CD8
:100C600061280AD0722802D077283CD102E0012501
:100C7000002405E00225042402E0082448F20205CD
:100C800011F8010B2B2806D0622809D011F8010CAD
:100C900074280AD00BE045F0030544F00204EFE7A6
:100CA00045F0040544F00104EAE744F01004384636
:100CB000214601F089FE411C15D00021316171608F
:100CC0004FF40071F560F1617061200704D5304682
:100CD00002220021FFF7C4FD306D40F001003065B5
:100CE0003046BDE8F0810020FBE72DE9F0410D46DC
:100CF0000646104C206DC10704D0410804D020F0F6
:100D00000104F7E722460EE05420FFF7F9FA070046
:100D10000ED0206D47F0010108435421206538466C
:100D2000FFF7D4FC3A4629463046BDE8F0418DE74E
:100D30000020D6E7040900202DE9F04704464FF0D3
:100D400000094FF0FF37C568D4E90486A80707D02B
:100D50002046FFF735FE304601F01CFE002802DA7F
:100D60003846BDE8F087280502D54046FFF7F7FA78
:100D70004C212046FFF7AAFC206D20F001002065E1
:100D80004846EEE710B500F03FF8BDE8104000F02F
:100D900036B810B500F052F8BDE8104000F02FB89A
:100DA00070477546FFF7ECFEAE46050069465346B0
:100DB00020F00700854618B020B5FFF78FFABDE890
:100DC00020404FF000064FF000074FF000084FF0B2
:100DD000000B21F00701AC46ACE8C009ACE8C00943
:100DE000ACE8C009ACE8C0098D46704710B50446B0
:100DF000AFF300802046BDE81040FFF740BA00285E
:100E000001D000F043B8704710B5014602A000F0D1
:100E100043F8012010BD0000534947525452454445
:100E20003A2052656469726563743A2063616E2783
:100E300074206F70656E3A200000000010B5012824
:100E400005D0002103A000F027F8012010BD09A162
:100E5000F8E7000053494752544D454D3A204F752D
:100E600074206F662068656170206D656D6F7279A2
:100E7000000000003A2048656170206D656D6F725A
:100E80007920636F7272757074656400014918206F
:100E9000ABBEFEE72600020070B505460C460A20F0
:100EA00000E06D1C00F011F835B128780028F8D169
:100EB00002E0641C00F009F814B120780028F8D191
:100EC000BDE870400A20AFF3008008B569468DF890
:100ED00000000320ABBE08BDFEE7704772B6FEE718
:100EE00070B5044600F010F90546601C02D00448B5
:100EF0000078044400F008F9401BA042FAD370BD0A
:100F0000DC0600202DE9F84FDFF8B8A1002201240B
:100F100003254FF00F090AF1040BAAF1040E00BFDC
:100F20000B6804FA02F63340B34273D10F7907F02D
:100F30000307012F01D0022F16D187684FEA42081C
:100F400005FA08FC27EA0C07D1F80CC00CFA08FCDB
:100F50004CEA070CC0F808C04768B7430E79C6F3DF
:100F6000001696403E4346600E79F643B6070DD014
:100F7000C768560005FA06FC27EA0C07D1F808C036
:100F80000CFA06FC4CEA070CC0F80CC00E7906F00F
:100F90000306022E10D1D60800EB8608D8F8206090
:100FA00057074FEAD76C09FA0CF7BE430F6907FAE7
:100FB0000CF73743C8F8207006684FEA420C05FA70
:100FC0000CF7BE430F7907F0030707FA0CF7374316
:100FD00007604E6816F4403F6DD03B4E376847F4CB
:100FE00080473760366822F0030706F48046009693
:100FF000364E07EB060CDCF8086897073F0F09FA36
:1010000007F826EA0806DFF8C880404503D14FF00C
:1010100000081EE04FE0DFF8BC80404502D14FF0F1
:10102000010816E0DFF8B080404502D14FF0020819
:101030000FE0DFF8A880404502D14FF0030808E038
:10104000DFF89C80404502D14FF0040801E04FF0EA
:10105000070808FA07F848EA0608CCF80888DAF81A
:1010600000605746D1F804C09E435FEACC2C00D5FF
:101070001E433E60DBF800605F46D1F804C09E432B
:101080005FEA8C2C00D51E433E60DEF80060774698
:10109000D1F804C09E435FEA8C3C00D51E433E60FD
:1010A000084F083F3E68D1F804C09E435FEACC3C3D
:1010B00000D51E433E60521C102AFFF431AFBDE83C
:1010C000F88F0000083C01404438024000300140E5
:1010D000000002400004024000080240000C0240F0
:1010E0000010024002480068C0F30B007047000087
:1010F000002004E00048704700050801014800682E
:10110000000C7047002004E0014880687047000030
:10111000DC06002002488168027811448160704733
:10112000DC0600200B4810B5016841F40071016035
:10113000016841F480610160016841F480710160DF
:10114000032000F061F80F2000F006F800F024F80A
:10115000002010BD003C024070B50D4D04464FF418
:101160007A712878B1FBF0F00A490968B1FBF0F018
:1011700000F004FB48B9102C07D200222146501E73
:1011800000F022F800206C6070BD012070BD0000EE
:10119000DC060020E80600200A4808B5016841F492
:1011A00080410160006800F4804000900548001F05
:1011B000016841F080510160006800F080500090AB
:1011C00008BD000044380240F0B40E4B1B680C46CA
:1011D000C3F30223C3F10705042D00D90425191D0B
:1011E000072901D2002300E0DB1E012606FA05F1E3
:1011F000491E214099409E40761E16403143F0BC66
:1012000000F07DBD0CED00E0064900F00702086823
:101210004FF6FF03184040EA0220034A10430860DB
:10122000704700000CED00E00000FA052DE9F047E2
:101230000E46050065D0DFF81481D8F80000F7B23B
:1012400000F00700B04207D288F80070D8F800001C
:1012500000F00700B04254D128683D4C810712D5F8
:10126000400703D5206840F4E0502060287800074C
:1012700003D5206840F4604020602068A96820F011
:10128000F000084320602878C0072DD030496868F6
:101290000839012812D0022813D0032811D0096878
:1012A000890700292DDA216821F00301014321601B
:1012B000FFF72AFF814641F2883A0EE00968890368
:1012C000EFE709688901ECE7FFF71EFFA0EB0901D2
:1012D000514502D90320BDE8F0872068696800F015
:1012E0000C00B0EB810FEFD1D8F80010404601F0B0
:1012F0000701B14207D90770006800F00700B0424B
:1013000001D00120E7E72878400705D52068E96883
:1013100020F4E050084320602878000706D52068B4
:10132000296920F4604040EAC100206000F03EF8E6
:101330002168084AC1F30311515CC840064908609E
:1013400006480068FFF708FF0020C4E7003C0240A1
:10135000083802408C6D0008E8060020E0060020F6
:101360000148006870470000E8060020044805496D
:1013700000680968044AC1F38221515CC840704783
:10138000E8060020083802409C6D00080448054922
:1013900000680968044AC1F34231515CC840704793
:1013A000E8060020083802409C6D0008154810B57A
:1013B000006810F00C02144813D01449042A0FD00E
:1013C000082A0ED10F4C241F2268236802F03F0226
:1013D0005B0207D52068C0F38810A0FB010106E07E
:1013E000084610BD2168C1F38811A1FB000100234C
:1013F000FEF7DCFF2168C1F30141491C4900B0FB45
:10140000F1F010BD083802400024F40040787D015E
:101410002DE9F84F04006ED02078DFF84C93C00718
:10142000A9F104054AD009F104000168C1F3810162
:10143000012908D00068C0F3810002280AD1D9F838
:101440000000400206D52868800337D56068002870
:10145000E1D033E06068B0F5803F10D0B0F5A02F48
:10146000286810D020F480302860286820F480207C
:1014700028606068A8B1FFF747FE06460DE02868BF
:1014800040F48030F4E740F480202860F7E700BFA4
:10149000FFF73AFE801B642873D828688003F7D5CD
:1014A0000CE0FFF731FE064605E000BFFFF72CFE1B
:1014B000801B6428F0D828688003F7D42078DFF8F0
:1014C000AC8280074FF0000A3ED5A748001D016896
:1014D00011F00C0F08D00068C0F3810002280BD176
:1014E000D9F80000400207D42868800716D5E068C4
:1014F000012800D112E033E1E068B8B10120C8F85A
:101500000000FFF701FE064605E000BFFFF7FCFD07
:10151000801B0228C0D828688007F7D52868216971
:1015200020F0F80040EAC10028600DE0C8F800A0F3
:10153000FFF7EAFD064604E0FFF7E6FD801B022800
:101540001FD828688007F7D42078000722D5864F57
:1015500087486169703771B101210160FFF7D4FDDF
:10156000064604E0FFF7D0FD801B022809D8386842
:101570008007F7D50EE0C0F800A0FFF7C5FD0646CE
:1015800005E082E0FFF7C0FD801B02287DD83868A7
:101590008007F7D42078400768D5DFF8CCB1002762
:1015A0000BF13C0BDBF80000C0000BD4DBF80010A3
:1015B00041F08051CBF80010DBF80000012700F06B
:1015C000805000906B4E3068C00510D4306840F4F5
:1015D00080703060FFF798FD009005E0FFF794FD04
:1015E0000099401A022850D83068C005F6D55E4EE2
:1015F000A0686C3601280FD00528306810D020F084
:1016000001003060306820F004003060A068B8B19C
:10161000FFF77AFD00900FE0306840F00100F4E73A
:1016200040F004003060F7E7FFF76EFD0099411AC3
:1016300041F28830814266D830688007F4D50EE0E8
:10164000FFF762FD009007E0FFF75EFD0099411A89
:1016500041F28830814256D830688007F4D42FB1E7
:10166000DBF8001021F08051CBF80010A069C8B35E
:101670003D49091D0968C1F3810102294AD00228A8
:10168000504607D0C8F8600000E03CE0FFF73CFDA2
:1016900004463BE04746C8F86000FFF735FD0646C4
:1016A00005E000BFFFF730FD801B02282BD828681B
:1016B0008001F7D4D4E907010843A16A2E4A4908FA
:1016C00002EB0141626A41EA8211084394F82C104E
:1016D00040EA0161C9F8001001203866FFF714FDE7
:1016E000044606E03EE000BFFFF70EFD001B0228A7
:1016F00009D828688001F7D534E000BFFFF704FD62
:10170000001B022802D90320BDE8F88F2868800159
:10171000F4D427E00128F7D0D9F80000E26900F4FA
:10172000800191421CD1226A00F03F01914217D101
:1017300047F6C071626A0140B1EB821F10D1A26A04
:101740004FF0FF3300F4403103EB5202B1EB024F94
:1017500006D194F82C1000F07060B0EB016F01D04E
:101760000120D1E70020CFE70438024000004742C3
:10177000800E4742007000400000FFFF10B5401E81
:10178000B0F1807F01D3012010BD4FF0E0246061F3
:101790000F21601700F0B3FA0020A061072020613C
:1017A000002010BD70B5040004D094F8410000255D
:1017B00010B106E0012070BD84F84050204600F0D2
:1017C00023F8242084F841002068C16821F40051E6
:1017D000C160204600F0C0F92068016921F4904101
:1017E00001612068416921F02A0141612068C168D6
:1017F00041F40051C1606564202084F8410084F800
:1018000042006563002070BD10B586B00446142107
:101810006846FEF75BFF14492068884221D11348CF
:101820000021026842F010020260006800F010001F
:1018300005900E481438026842F001020260006808
:1018400000F0010005904FF4C06000900220CDE947
:101850000101032003900720049069460448FFF724
:1018600051FB06B010BD000000100140443802409A
:10187000000002402DE9F84F044690F842009A46D5
:1018800016460D46202802D00220BDE8F88FB5B1DB
:10189000AEB100206064222184F842102063FFF77B
:1018A00033FCA6858146E685A0684FF48058202742
:1018B000404501D1206920B12E46002529E00120B4
:1018C000E3E7002625E04B46002220212046CDF804
:1018D00000A000F0C7F918B184F842700320D4E7E3
:1018E00026B1A06840451AD038B108E020684068A9
:1018F000C0F3080025F8020B08E0206978B12068E1
:10190000406800F07F0000BF06F8010BE08D401E2C
:10191000E085E08D0028D6D184F84270B5E72068D4
:101920004068F1E72DE9F843044690F841009846F5
:1019300016460D46202802D00220BDE8F88385B166
:101940007EB100206064212084F84100FFF7DCFBB9
:10195000A6848146E684A0682027B0F5805F02D087
:1019600003E00120E9E7206910B12E4600250EE0D2
:1019700000260CE08021204600F074F9A8B9C6B119
:1019800016F8010B21684860E08C401EE084E08C72
:101990004B464FF00002CDF800800028EAD14FF00E
:1019A0004001204600F05EF940B184F84170032008
:1019B000C3E735F8020BC0F30800E3E784F8417091
:1019C0000020BAE7FEE700000D4808B5016841F0C5
:1019D00004010160016801F004010091016841F017
:1019E00080010160016801F080010091016841F00F
:1019F00001010160006800F00100009008BD0000D6
:101A0000303802400C4810B50A4901604FF4E1310A
:101A10004160002181600C22C160C0E90412816133
:101A2000C161FFF7BFFE002803D0BDE81040FFF7FB
:101A300055BA10BD00100140BC08002010B5FFF7DA
:101A4000E1FFBDE8104001F0ABBF10B501F0DAFFD7
:101A5000BDE810404FF47A70FFF742BAFEE7FEE7A8
:101A600070477047FFF756BB30B593B030216846DA
:101A7000FEF72CFE14210CA8FEF728FE1C480025BA
:101A8000016841F080510160006800F080501190C1
:101A90001848016841F4404101600068022400F4E4
:101AA0004040119001200090000401908001CDE998
:101AB00006400C2008906020CDE9090404200B901A
:101AC0006846FFF7A5FC08B172B6FEE70CA90F2027
:101AD00081E831004FF48050CDE90F0503210CA8B7
:101AE000FFF7A4FB002801D072B6FEE713B030BDAB
:101AF00040380240007000400248016841F4700123
:101B00000160704788ED00E001680C3151E8002F5A
:101B100022F4907241E80023002BF5D101681431C2
:101B200051E8002F22F0010241E80023002BF5D1FB
:101B3000016B012909D101680C3151E8002F22F015
:101B4000100241E80023002BF5D1202180F842103B
:101B5000002101637047000070B504460068016908
:101B6000E26821F44051114301612169A068E269F2
:101B700008436169114308432168CA6849F20C634C
:101B80009A430243CA6020684169A26921F4407106
:101B90001143416131492068884202D0304988426E
:101BA00002D1FFF7F3FB01E0FFF7E0FBE26900235E
:101BB000192164253226B2F5004F626828D0A0FBB7
:101BC0000101930F9200FEF7F1FB0146B0FBF5F027
:101BD0006FF01802504301EB800006EB0010B0FBE1
:101BE000F5F000F0F002B1FBF5F002EB0012B1FBF2
:101BF000F5F06FF01803584301EB800006EB00107E
:101C0000B0FBF5F000F00F0021681044886070BD53
:101C1000A0FB010192185B41FEF7C8FB0146B0FB37
:101C2000F5F00201B1FBF5F06FF01803584301EB3A
:101C3000800006EBC000B0FBF5F000F0F80002EB0E
:101C40004002B1FBF5F0584301EB800006EBC00009
:101C5000B0FBF5F000F00700D6E7000000100140EF
:101C6000001401402DE9F843984617460D460446F6
:101C7000089E24E0701C22D0FFF746FAA0EB080073
:101C8000B0421AD8CEB12068C168490717D5802D57
:101C900015D0402D13D00168C94309070FD401683E
:101CA0000025406800902046FFF72EFF0820606462
:101CB00084F840500120BDE8F8830320FBE720684A
:101CC000006835EA000004D00020B842D2D00020DD
:101CD000F1E70120F9E7FEE74100080218BF042000
:101CE0000A0E18BF40F001004FF07F4232EA0101B6
:101CF00008BF40F00200012808BF0520704709070F
:101D0000090E002804DB00F1E02080F80014704781
:101D100000F00F0000F1E02080F8141D7047000073
:101D20009FED4B0A63E000BFD2ED003A91ED004A0F
:101D300092ED013A91ED011A04EE230AD2ED021A56
:101D400091ED022AD2ED032AD1ED030A92ED044A65
:101D500001EE030AD1ED043A91ED053A92ED071A2E
:101D600002EE210A92ED052AD1ED061A00EEA20A32
:101D7000D2ED062AD1ED070A03EE840A92ED084A55
:101D8000D1ED083A03EE020A92ED093A92ED0A2AE1
:101D900001EEA20AD1ED092AD1ED0A1A00EE810A5C
:101DA00092ED0B1AD1ED0B0A03EE840AD2ED0C3A38
:101DB00091ED0C4A02EE830AD2ED0D2A91ED0D3A17
:101DC00001EE820A92ED0E2AD1ED0F1A00EE810A81
:101DD000D1ED0E0A92ED0F1A40314032103B04EE65
:101DE000230A03EE220A00EE820A01EE810A102B7A
:101DF0009AD21AE0D1ED000A92ED001A00EE810AA3
:101E0000D1ED010A92ED011A00EE810AD1ED020A2C
:101E100092ED021A00EE810AD1ED030A92ED031A47
:101E2000103110321B1F00EE810A042BE2D206E0B3
:101E3000F1EC010A5B1EB2EC011A00EE810A002BE4
:101E4000F6D1D0ED000A30EE800A80ED000A70472E
:101E50000000000010B510EE104A4FF0194068491C
:101E6000002200EB44002DED028B884257D8DFEDB5
:101E7000650A14F0004F60EE200A14BFBEEE001A8F
:101E8000B6EE001A71EE200AFDEEE00A10EE900A9E
:101E900000EE900AF8EEE00A9FED5B1A00EEC10A30
:101EA0009FED5A1A00EEC10ADFED590A9FED591A4B
:101EB00000EE201ADFED580A40EE010A9FED571A96
:101EC000574B00F0030100EE201A21EE000A7B447C
:101ED00003EB8103D3ED000A524B7B4403EB8103F8
:101EE00093ED001A504B41EE000A7B4403EB810155
:101EF000801091ED000A70EE800AEABB00EE100A35
:101F0000B8EEC01ADFED491A9FED490ABDEC028B0D
:101F100001EE210ABCEEC00A20EE200A10BD4FF0EF
:101F2000FF40A0431BD04FF0CE40B0EB440F82BF28
:101F3000B7EE000ABDEC028B10BD3E48B0EB440F7B
:101F400028BF012293D20220FEF783FC14F0004F39
:101F500015D0BDEC028BBDE8104000F0EDB814F5D3
:101F6000000F02BF9FED340ABDEC028B10BDBDEC2B
:101F7000028BBDE8104000E007E000F0D1B8BDECF6
:101F8000028BBDE8104000F0CFB800EBD0735910C1
:101F90004FF07E5202EBC15100EE101AA0EB63002D
:101FA00002EBC05060EE200A00EE100A20EE208AFC
:101FB00018EE100A88B118EE100AB0F1FF4F15D0D4
:101FC00018EE100AFFF788FE042808BF00F0B4F8E6
:101FD000B0EE480ABDEC028B10BD0220FEF739FCC2
:101FE000BDEC028BBDE8104000F0A6B80220FEF761
:101FF00030FCBDEC028BBDE8104000F095B800004D
:102000000000501E3BAAB8400070313EF4FD053779
:1020100012BB2A3D12BB2A3EFFFFFF3EFFFF7F3F60
:10202000624F0000664F0000364F00000000004B7A
:1020300000007E4E0000A0850000000010B510EEEC
:10204000104A2DED028B4FF07F40B0EEC08AB0EB0E
:10205000440F55D318EE101A2C4A914220DD18EE89
:10206000101AB0EB410F1BD318EE101A284AF7EEE6
:10207000008A914207DD18EE101AB0EB410F28BF1D
:10208000B0EE680A35D238EE080AFFF7E3FE70EECC
:10209000280AB0EE001A81EE200A38EEC00A28E0C5
:1020A00018EE101AB1F1665F0FDA18EE101AB0EBE5
:1020B000410F0AD318EE100AFFF70EFE042808BFDE
:1020C00000F03AF8B0EE480A13E028EE080ADFED17
:1020D000110ADFED111A9FED111A40EE210A60EE90
:1020E000800A30EE010A80EE801AB0EE480A08EE4F
:1020F000010A002CB8BFB1EE400ABDEC028B10BD46
:10210000BDEC028BBDE8104000F00AB8549F0C3FB4
:10211000B32C1041C6E252BFB2117BBB1A2A1E403B
:1021200030EE000A704700009FED020A20EE000A20
:1021300070470000000000709FED020A20EE000AC8
:10214000704700000000001070B50C4605460E6890
:102150000121204602F004F9314602F0F8F8294640
:102160006268BDE87040034601A003F003BC0000B4
:1021700020205B25645D202040307825582F256481
:102180000D0A000010B54169044688472069A04245
:1021900000D1002010BD00002DE9F04F002699B0BD
:1021A0000F4605463446B0464CE0A868C4EBC4036D
:1021B0008946426802EB83020E92806810AA00EB07
:1021C000C40A2C480D9251F8082F006A120A62F3D3
:1021D0001F200190D1F804B01C2105A8FEF776FA63
:1021E000D9F81800006802F001F80590D9F8180035
:1021F000806806905FEA0A0009D0C0F80080D9F82C
:102200000010416029B1498819B1012102E040461E
:1022100003E00021016001B900200790D9F81800FF
:102220001C2205A9406809900198CDE90A0B0D9878
:10223000FEF71AFA1C2210A90E98FEF715FA761C62
:10224000B6B2641C0DB1288800E00020A04205D978
:10225000686818B150F824100029A6D11EB1A868EA
:102260004068386001E0C7F8008019B03046BDE82A
:10227000F08F0000A46D0008F0B50546059C24F021
:10228000010003EB80069FED460AE70856E001C90E
:10229000D3ED002AC0F3031C02EB8C0C9CED002A4A
:1022A00000F00F0C02EB8C0C02EE220ADCED001A9F
:1022B00093ED012AC0F3072C4FEA1C1C02EB8C0C97
:1022C00001EE820A9CED001AD3ED021AC0F3032C32
:1022D00002EB8C0CD3ED042A01EE210ADCED000A9E
:1022E00093ED031AC0F3074C4FEA1C1C02EB8C0C55
:1022F00000EE810A9CED002AC0F3034C02EB8C0C2B
:10230000DCED001A02EE220A93ED052A4FEA107C5A
:1023100002EB8C0CC0F303609CED001A01EE820A04
:10232000D3ED061A02EB8000D0ED000A01EE210A7F
:1023300093ED071A20337F1E00EE810A002FA6D1ED
:1023400016E000BF11F8010B93ED001A070902EB2C
:10235000870700F00F00D7ED000A02EB800000EEC7
:10236000810AD0ED000A93ED011A083300EE810ACC
:10237000B342E7D3E0070AD011F8010B93ED001A3E
:10238000000902EB8000D0ED000A00EE810AD5EDD5
:10239000000A084630EE800A85ED000AF0BD000014
:1023A00000000000F0B50446059D9FED370AE808DF
:1023B0004FE040C9D3ED002AF7B202EB8707401E79
:1023C00097ED002AC6F3072702EB870702EE220AE1
:1023D000D7ED001A93ED012AC6F3074702EB8707F2
:1023E000360E01EE820A97ED001AD3ED021A02EBC7
:1023F0008606D3ED042AD6ED000A01EE210A93EDFC
:10240000031A40C9F7B200EE810A02EB870797ED85
:10241000002AC6F3072702EB870702EE220AD7ED50
:10242000001A93ED052AC6F3074702EB8707360E1D
:1024300001EE820A97ED001AD3ED061A02EB86062A
:10244000D6ED000A01EE210A93ED071A203300EEC3
:10245000810A0028ADD105F007000AE011F8015B00
:10246000401E02EB8505B3EC011AD5ED000A00EE23
:10247000810A0028F2D1D4ED000A084630EE800A25
:1024800084ED000AF0BD00000000000070B50546B4
:102490000C4648886988884202D9AAB1002070BDDC
:1024A00092B100260CE000BF6168C6EBC6006A6806
:1024B00001EB800102EB80001C22FEF7D5F8761CB0
:1024C0006088B042F0D801E0606868606088688029
:1024D00020882880012070BD30B500B3F9B1F2B179
:1024E0005268E2B10F4C1368A34203D00260012985
:1024F00013D014E00023121D07E000BF52F8235050
:10250000A54204D040F823505B1C8B42F6D38B428B
:1025100005D152F82300A04201D1012030BD002096
:1025200030BD0000DECAFAA170B50D4606001446A3
:102530001AD0CCB1104601F001FF00B16088A8426A
:1025400012D10023042109E0C3EBC302606801EB50
:102550008202805820B146F823005B1CAB42F3D3C3
:10256000AB4201D1012070BD002070BD03498842FB
:1025700001D101207047002070470000DECAFAA197
:102580002DE9FE4F92468946040003D0208E20B1EB
:10259000656B03E00020BDE8FE8F0025002060830E
:1025A0002083207CC043800702D030221121DCE050
:1025B000B9F1000F61D0D5B32888C0B3D9F818009D
:1025C0000026D0F8008056E0A868006800EB0610EE
:1025D000019052D058B3C6EBC600029009EB8000C0
:1025E0000121009001F0BCFEDBF8183059688842E8
:1025F0001AD80098DBF80C208069D768D0F80CC096
:10260000674511D19768D0F808C067450CD152686A
:102610004068824208D1186801F0D8FD0746584644
:1026200003F082F9874203D2182212219DE024E0B0
:10263000DBF81800006801F0D9FD029920F07E4215
:1026400059F8210020F07E40824201D01922ECE7A7
:102650000098406888B100988069006878B1414668
:10266000404500D208468046DDE900105A4600F099
:102670008FF8761C2DB1288804E01722D5E7212297
:10268000D3E70020B04206D9686820B150F826B0E0
:10269000BBF1000F98D1BAF1000F74D0208E012841
:1026A00006D9656B0C3503D0288808B1002658E0A0
:1026B000182259E0A868006800EB061B3BD0BBF16C
:1026C000000F38D0C6EBC60001900AEB8000012154
:1026D000009001F045FED9F8183059688842E7D8D3
:1026E0000098D9F80C208069D768D0F80CC06745ED
:1026F000DED19768D0F808C06745D9D152684068E4
:102700008242D5D1186801F061FD0746484603F0C2
:102710000BF98742CCD3D9F81800006801F066FDA8
:1027200020F07E4201985AF8200020F07E4082423C
:1027300003D0192218E0172216E0009840680028FC
:10274000F9D000988069006868B14146404500D2E0
:10275000084680464A465846009900F019F8761C0B
:102760003DB1288806E021221321204602F03EFCDC
:1027700010E70020B04206D9686820B150F82690D2
:10278000B9F1000F96D1A4F818804FF0010002E7CC
:1027900070B504460E461546104603F0C5F80146CE
:1027A000A060B06900684843E06071686160726869
:1027B00010442060A8690268920007D4D0E902237F
:1027C000D21A11448160A9696068C86070BD70B593
:1027D0000646002521E0B068006800EB0514886912
:1027E0000268920005D58168A268606803F094F9D8
:1027F00008E0D0E90223D21A63681A44826089692A
:102800006068C860D4E901010844606021688842BA
:1028100001D3E068081A6D1C60600EB1308800E0DA
:102820000020A84206D97068002803D050F825106F
:102830000029D0D170BD2DE9F0410646002529E0E0
:10284000B1688369096801EB051419688900D4E946
:1028500001120DD5986803F05FF9D4E9010108442D
:1028600060602168884201D3E068081A606010E067
:102870000A44626021688A4201D3E2688A1A62606F
:102880008169D1E90237DB1B1A448A60806961687B
:10289000C1606D1C0EB1308800E00020A84206D94E
:1028A0007068002803D050F825000028C8D1BDE882
:1028B000F0817FB514004FF0000304D0226812B1FC
:1028C000A2891AB104E0012004B070BD4FF48073F6
:1028D000E5896D1E954201D143F40073002230B1A9
:1028E000012814D0022815D003282AD044E0207AE9
:1028F000C0073ED0A089ADF800004888ADF80400BC
:102900000888ADF80200886943F001012BE02161DD
:10291000A28131E02161207A80072DD5A089ADF810
:1029200000004888ADF804000888ADF80200886906
:1029300043F00201CDE90220D4E900306A4698470D
:102940001AE0207A400714D5A089ADF8000020696C
:1029500043F004014088ADF8040020690088ADF818
:10296000020020698069CDE90220D4E900306A467E
:102970009847A089401CA0810020A5E713B5044812
:102980000078002803D0012101A803F03BF81CBD0A
:10299000C40600206FF40041401804D0012803D081
:1029A000022801D0081470470020704700207047AB
:1029B0006FF40041401805D0012802D0022801D050
:1029C000002070470120704710B5044600783A286F
:1029D0000ED10DA12046FDF7A1FE60B10CA120464D
:1029E000FDF79CFE50B10CA12046FDF797FE40B1CB
:1029F0004FF0FF3010BD48F2010010BD48F2020058
:102A000010BD48F2030010BD3A535444494E000033
:102A10003A5354444F5554003A535444455252008B
:102A20004FF0FF3070476FF4004141184FF0FF3016
:102A300004D0012901D0022900D1002070470000F4
:102A40002DE9F04F3F242DED088B91B08146B0EE7B
:102A5000408AF0EE608A00259FED490B51EC180B7F
:102A600053EC102B03F01CFD01D2012000E00020EC
:102A700082469FED45AB9FED469B00269FED46BBF2
:102A8000D9F8047009E000BF53EC1B2B51EC190B73
:102A900003F042FD41EC190B761CB742F4DCBAF1AD
:102AA000000F05D051EC180B03F09CFA41EC180B09
:102AB00053EC192B51EC1A0B03F054FB53EC182B6D
:102AC00003F09CFA53EC192B03F026FD03F082FF70
:102AD00006464FF02E0BE8460A2200233046FDF74B
:102AE00065FC0A22A0FB0223B21A303208F8042047
:102AF00005F101050646A4F10104AF4203D108F82F
:102B000004B0641E6D1C56EA0100E5D13020AF42CE
:102B100004DD08F80400641E6D1CF8E7AF4203D121
:102B200008F804B0641E6D1C7F1CAF4203D108F886
:102B30000400641E6D1CBAF1000F04D02D2008F8AB
:102B40000400641E6D1CD9F800002021A84204DD99
:102B500008F80410641E6D1CF8E70026641C06E0EB
:102B600008EB0400815DD9E903209047761CAE4252
:102B7000F6DB11B02846BDEC088BBDE8F08F0000F5
:102B80000000000000000000000000000000E03F26
:102B9000000000000000F03F0000000000002440A2
:102BA0002DE9F04790B0002617468DF83F609268F7
:102BB00004463E259046B146684652070DD5221E72
:102BC00071F1000209DA0023D4EB03043A6863EBE5
:102BD0000101521E4FF02D093A6082465FEAC8603B
:102BE00021D5200940EA017004F00F0209090A2AE0
:102BF00008D35FEA087301D5412300E061231A443A
:102C00000A3A00E03032D3B20AF805306D1E0446AD
:102C1000761C52460843E1D1B9F1000F12D05FEAA9
:102C2000C8700BD00EE00A2200232046FDF7BEFB41
:102C30000A22A0FB0223A21A3032E4E70AF8059028
:102C40006D1E761C302138682023B0420BDD5FEA10
:102C5000887408D45FEAC87401D0515500E0535518
:102C60006D1E761CF1E7B9F1000F06D0401CB04292
:102C700003DD02F805906D1E761C002490466D1C45
:102C800007E000BF08EB0500015DD7E9032090478E
:102C9000641CB442F6DB387A800705D407E0D7E934
:102CA000032020219047761C3868B042F7DC10B032
:102CB0003046BDE8F08700002DE9F0410D46804622
:102CC000FDF768FC04466868002610B1A04200DAEF
:102CD0000446287A80070AD4274605E0D5E9032070
:102CE00020219047761C7F1C2868B842F6DC00271C
:102CF00007E000BFD5E9032018F8011B9047761CB8
:102D00007F1CA742F6DB287A800706D408E0D5E9C5
:102D1000032020219047641C761C2868A042F6DC22
:102D20003046BDE8F08100002DE9F04104460D4633
:102D300022A002F01FFE00222146284601F008FED4
:102D400010F0FF0F06D025A100F0EAF84FF0FF3099
:102D5000BDE8F08126A002F00DFE04F108010F4647
:102D6000206801F072FE0025AE1ED0B1206801F08F
:102D700089FE0028206808D0394601F066FE80B13F
:102D8000384600F0CDFC0020E2E701F035FE1FA13F
:102D900000F0C6F8206801F009FE6FF0030025601E
:102DA000D6E7206801F028FE1DA100F0B9F82068E0
:102DB00001F0FCFD30462560CAE700004372656102
:102DC00074696E6720746865206E6574776F726BC6
:102DD00020222573222E2E0D0A00000061695F6DEE
:102DE0006E6574776F726B5F637265617465000006
:102DF000496E697469616C697A696E672074686587
:102E0000206E6574776F726B0D0A000061695F6DEB
:102E10006E6574776F726B5F696E69740000000095
:102E200061695F6D6E6574776F726B5F6765745F04
:102E3000696E666F0000000070B509A002F09AFD8F
:102E40000F4C00252068002809D001F0AFFD28B103
:102E5000206801F0D1FD0BA100F062F8256070BD83
:102E600052656C656173696E672074686520696E70
:102E70007374616E63652873292E2E2E0D0A00006F
:102E80005007002061695F6D6E6574776F726B5FCC
:102E900064657374726F79002DE9F0414FF0FF366D
:102EA00000F096FA0F4F002038600FA002F062FD8C
:102EB00000252946002001F091FD04000CD00146B8
:102EC00011A002F057FD05EBC50007EB00102146ED
:102ED000FFF72AFF060002D16D1C002CE9D1304615
:102EE000BDE8F08150070020446973636F76657216
:102EF000696E6720746865206E6574776F726B28E1
:102F000073292E2E2E0D0A000D0A466F756E642051
:102F10006E6574776F726B20222573220D0A000094
:102F2000020A29B1C0B21346024603A002F022BD34
:102F3000C1B20DA002F01EBD453A20414920657284
:102F4000726F722028257329202D20747970653DB9
:102F500030782530327820636F64653D30782530D5
:102F600032780D0A00000000453A20414920657280
:102F7000726F72202D20747970653D307825303263
:102F80007820636F64653D3078253032780D0A0013
:102F90002DE9F04300282DED028B9DB06CD0036825
:102FA000002B69D0D0F88400002865D06A4D286ACB
:102FB000002861D00EAA0DA9184601F031FD2A465D
:102FC00066490D9802F08CF865A002F0D3FC286ADF
:102FD000002633468268D5E90601FDF7E7F909AA1C
:102FE00002F05CFADDE90A1001EB4102C2EBC1110B
:102FF00000EBC10162A00C9A02F0BCFC286A00231D
:103000008268D5E90401FDF7D1F909AA02F046FA70
:10301000DDE90A1001EB4102C2EBC11100EBC10175
:1030200066A00C9A02F0A6FC72A0009074A375A290
:1030300076A178A002F09EFC7CA002F09BFC002709
:103040003C46ADF81460A94658E0BDF81410D9F814
:1030500020004D4600EB01120023D2E90001C71900
:103060004C419268FDF7A2F909AA02F017FABDF8DF
:103070001600000403D500E069E07AA000E083A018
:103080008046D5E9060103F0C5F941EC180BBDF8FF
:103090001410286A00EB0111D1E9000103F0BAF91C
:1030A0009FED831B53EC112B03F036FA53EC182BD6
:1030B00003F058F80546BDF816000E46C0F30E00A2
:1030C00001F0E2F9024625200295CDE90360DDE931
:1030D0000A3103EB4305C5EBC3130C9801EBC301A5
:1030E000CDE90010BDF81830BDF81410404602F0CC
:1030F00041FCBDF81400401CADF8140005A90D9862
:1031000001F07AFF0028A0D16BA002F033FCD9F8BF
:1031100020004D460023826838462146FDF746F9D7
:1031200009AA02F0BBF9DDE90A1001EB4102C2EB8A
:10313000C11100EBC1022EA16DA00C9B02F01AFC84
:10314000286AFDF70CF928210348FDF7BFFA1DB0E6
:10315000BDEC028BBDE8F083E0070020B95D0008FC
:103160000D0A20496E666572656E63652074696D2F
:103170006520627920632D6E6F64650D0A00000082
:1031800020206B65726E656C20203A2025642E2508
:103190003033646D73202874696D652070617373BA
:1031A000656420696E2074686520632D6B65726E9E
:1031B000656C2066637473290D0A00002020757306
:1031C0006572202020203A2025642E253033646D3E
:1031D00073202874696D652070617373656420695C
:1031E0006E207468652075736572206362290D0A0C
:1031F0000000000074696D6520286D7329000000CF
:10320000696400007479706500000000635F6964A0
:10321000000000000D0A20252D3673252D32307355
:10322000252D3773202025730D0A0000202D2D2D0C
:103230002D2D2D2D2D2D2D2D2D2D2D2D2D2D2D2DBE
:103240002D2D2D2D2D2D2D2D2D2D2D2D2D2D2D2DAE
:103250002D2D2D2D2D2D2D2D2D2D2D2D2D2D2D2D9E
:103260000D0A000020252D366454442D252D3137BC
:1032700073252D3564202536642E253033642025B2
:10328000362E3032662025630D0A000020252D36AB
:1032900064252D323073252D3564202536642E2586
:1032A0003033642025362E3032662025630D0A0027
:1032B0000000000000005940202D2D2D2D2D2D2D1A
:1032C0002D2D2D2D2D2D2D2D2D2D2D2D2D2D2D2D2E
:1032D0002D2D2D2D2D2D2D2D2D2D2D2D2D2D2D2D1E
:1032E0002D2D2D2D2D2D2D2D2D2D0D0A0000000005
:1032F0002025333173202536642E25303364206D2C
:10330000730D0A0030B58FB004002AD02068002861
:1033100027D0D4F88410002923D06A460EA901F0E2
:103320007FFB28211248FDF7D1F9D4F8840005016C
:103330002846FCF7E5FF0E4C2946206298B1FDF7C0
:10334000C5F9062322460B490E9801F091FE00288C
:1033500007D109A002F00EFB206AFDF700F800205B
:1033600020620FB030BD0DA002F004FBF9E70000B1
:10337000E0070020B95D0008573A20756E61626C65
:103380006520746F20726567697374657220746854
:103390006520757365722043420D0A00573A206517
:1033A0006E61626C6520746F20616C6C6F63617418
:1033B000652074686520755F6E6F64655F73746106
:1033C00074732028737A3D256429202E2E0D0A005F
:1033D00000B587B001A802F0E7FB13A002F0CAFA1B
:1033E00012A002F0C7FA14A002F0C4FA9DF80E3041
:1033F0009DF80D209DF80C101DA002F0BBFA04985A
:1034000000909DF80A309DF809209DF8081020A032
:1034100002F0B0FA27A0069902F0ACFA02A002F07E
:10342000A9FA07B000BD00000D0A000053542E4158
:10343000492052540D0A00002D2D2D2D2D2D2D2DFE
:103440002D2D2D2D2D2D2D2D2D2D2D2D2D2D2D2DAC
:103450002D2D2D2D2D2D2D2D2D2D2D2D2D2D2D2D9C
:103460002D2D2D2D2D2D2D2D2D2D0D0A0000000083
:1034700020746F6F6C732076657273696F6E202095
:10348000203A207625642E25642E25640D0A00003E
:10349000206E6574776F726B207274206C69622085
:1034A000203A207625642E25642E25642D25780D5E
:1034B0000A000000202020636F6D70696C65642035
:1034C00077697468203A2025730D0A002DE9F843C6
:1034D000044606688069D0E9023201686AA002F0F9
:1034E00049FABCB160690521B1EB102F06D1A06982
:1034F0004268016967A002F03DFA10E00621B1EBD5
:10350000102F07D1A069D0E90412436863A002F02C
:1035100031FA04E0A069416863A002F02BFA0121AE
:10352000204600F01DFF014660A002F023FAC6F31A
:103530004345012D06D0032D08D0F015C0070BD050
:103540005BA10AE0C6F3C6115AA002E0C6F3C61199
:103550005AA002F00FFA05E05AA1C6F3C6125AA00B
:1035600002F008FA022D72D1A06800285BD0017821
:10357000C90758D04068A0B34788042F01D9042058
:1035800000E038468046394651A002F0F3F90025A4
:103590003FE0A06890B10178C9070FD0416869B1D8
:1035A0004A6842B14988A94205DD116801EB8501ED
:1035B00091ED000A04E0B7EE000A01E09FED460A33
:1035C000B8B10178C90714D0406890B10178890773
:1035D000416807D569B14088A8420ADD4868405D66
:1035E00008E020E029B14088A84202DD4868405741
:1035F00000E00020814610EE100A03F075F941EC5E
:10360000100B36A053EC102BCDF8009002F0B2F95D
:103610006D1C4545BDDB474501DD33A000E02BA017
:1036200002F0A8F913E0C6F3C611082903D22FA0AF
:1036300002F0A0F90BE006F07F00A0F14002C6F313
:10364000C0531844091A2CA0403102F093F9606865
:103650004FF00101002820460BD000F081FE3146DA
:1036600000F075FE6168BDE8F843024624A002F050
:1036700081B900F075FE314600F069FEBDE8F843FF
:10368000014622A002F076B92825642C25642C2559
:10369000642C000025642C256429000025642C2559
:1036A000642C2564290000002564290025642F006E
:1036B00069000000666C6F6174256400626F6F6C56
:1036C00025640000750000002573256400000000DB
:1036D0002025643A00000000000000002825662C28
:1036E0002564292C000000002E2E000020696E7435
:1036F00033322D2564620000205125642E2564009C
:103700002040307825582F2564000000202855736C
:10371000657220446F6D61696E292F256400000079
:1037200070B5044640A002F025F946A0216802F0D9
:1037300021F94BA0616802F01DF950A0A16802F0C8
:1037400019F955A0E16802F015F9A169087810B1DE
:1037500058A002F00FF9A37F627F217F5CA002F0E6
:1037600009F9D4E90C0102F00FFB014661A002F057
:1037700001F968A0E16F02F0FDF8B4F852106CA0F6
:1037800002F0F8F8002508E0606DC5EBC50100EB1C
:1037900081012846FEF7D8FC6D1CB4F85200A842FF
:1037A000F2DCB4F84A1069A002F0E4F8002508E061
:1037B000E06CC5EBC50100EB81012846FEF7C4FCB7
:1037C0006D1CB4F84A00A842F2DC628F218F66A01B
:1037D00002F0D0F800250EE029466BA002F0CAF8EE
:1037E000E06BC5EBC50100EB8100FFF76FFE1BA08E
:1037F00002F0C0F86D1C208FA842EDDC00250EE021
:10380000294664A002F0B6F8206CC5EBC50100EBB8
:103810008100FFF75BFE11A002F0ACF86D1C608F19
:10382000A842EDDC70BD00004E6574776F726B20AE
:10383000696E666F726D6174696F6E732E2E2E0DD8
:103840000A000000206D6F64656C206E616D65205C
:1038500020202020202020203A2025730D0A00005F
:10386000206D6F64656C207369676E617475726535
:10387000202020203A2025730D0A0000206D6F645F
:10388000656C206461746574696D6520202020205A
:103890003A2025730D0A000020636F6D70696C6516
:1038A000206461746574696D652020203A20257359
:1038B0000D0A000020546F6F6C2072657669736981
:1038C0006F6E2020202020203A2025730D0A000052
:1038D00020746F6F6C732076657273696F6E202031
:1038E000202020203A2025642E25642E25640D0AF0
:1038F0000000000020636F6D706C6578697479203A
:1039000020202020202020203A202573204D4143D4
:10391000430D0A0020632D6E6F6465732020202004
:1039200020202020202020203A2025640D0A00009D
:10393000206D61705F61637469766174696F6E7325
:10394000202020203A2025640D0A0000206D61709F
:103950005F7765696768747320202020202020200D
:103960003A2025640D0A0000206E5F696E70757440
:10397000732F6E5F6F757470757473203A202575A0
:103980002F25750D0A0000002020495B25645D206D
:103990000000000020204F5B25645D200000000037
:1039A00010B50BA001F0E6FF012307220AA110A029
:1039B00001F0E0FF12A001F0DDFF02F00DF901F0CF
:1039C0009FFCFFF769FA0320FCF79AFD002010BD69
:1039D0000D0A230D0A0000004149207379737465B4
:1039E0006D20706572666F726D616E6365000000B8
:1039F000232025732025642E25640D0A0000000075
:103A0000230D0A002DE9F04100273E4C3D464FF0C2
:103A100001084FF47A76384600F05CF90027002858
:103A200039D100F021F96428F5D0032827D136A038
:103A300001F0A0FF35A001F09DFF3FA001F09AFF2B
:103A400046A001F097FF52A001F094FF56A001F0AC
:103A500091FF64A001F08EFF6AA001F08BFF2AA005
:103A600001F088FF70A001F085FF02E03046FDF70D
:103A700037FA00F0F9F80028F8D06428CBD00528F0
:103A80000BD006280FD002280FD001281AD0042806
:103A900029D00028BFD0BDE8F08184F8018060689B
:103AA00040006060B7E72570B5E7657084F8008076
:103AB0000520606014A001F05DFFFFF7BDF9FFF77E
:103AC0006FFFA8E7657010A001F054FF72B6FFF712
:103AD000B3F90DA001F04EFF5BA001F04BFF3046A3
:103AE000FDF7FEF9FBE708A001F044FF4EA001F04E
:103AF00041FF02E03046FDF7F3F900F0B5F8002889
:103B000089D1F7E7BC0600200D0A0000506F7373DF
:103B100069626C65206B657920666F7220746865D8
:103B200020696E74657261637469766520636F6E77
:103B3000736F6C653A0D0A0020205B712C515D207B
:103B400020202020207175697420746865206170C0
:103B5000706C69636174696F6E0D0A0020205B727E
:103B60002C525D20202020202072652D73746172FC
:103B70007420284E4E2064652D696E697420616E34
:103B8000642072652D696E6974290D0A00000000B9
:103B900020205B702C505D2020202020207061753B
:103BA00073650D0A0000000020205B642C445D203A
:103BB0002020202020686964652064657461696C38
:103BC000656420696E666F726D6174696F6E20281E
:103BD00027722720746F20726573746F7265290DC8
:103BE0000A00000020205B682C482C3F5D2020202C
:103BF000207468697320696E666F726D6174696F95
:103C00006E0D0A00202020787820202020202020FF
:103C100020636F6E74696E756520696D6D6564698A
:103C20006174656C790D0A00507265737320616E62
:103C300079206B657920746F20636F6E74696E757F
:103C4000652E2E0D0A000000426F617264207368B9
:103C50006F756C6420626520726573657465642E8F
:103C60002E2E0D0A0000000008B500208DF800007F
:103C700041F28831684601F06BFE401C1CD09DF873
:103C80000000712819D0512817D0642817D0442873
:103C900015D0722815D0522813D0682813D0482880
:103CA00011D03F280FD070280FD050280DD0782881
:103CB0000DD058280BD0642008BD012008BD062077
:103CC00008BD022008BD032008BD042008BD052052
:103CD00008BD00002DE9F04F9FB00021069100EBD8
:103CE000C001C0484FF0FF3B00EB0114206828B131
:103CF000BD4D687830B16868000104E0BBA001F0F8
:103D000039FE17E0102082460246BF48A16801F044
:103D100031FE0021CDE90311B4F84000012803D899
:103D2000B4F84200012809D9B8A001F023FE6420AC
:103D3000FDF7D6F858461FB0BDE8F08F00264FF0CB
:103D4000040919E0606CC6EBC60700EB870112A8F6
:103D500000EB870080461C22FCF786FC616C09EBB7
:103D60008700085810B1C8F8040004E0B54850F8BE
:103D70002610C8F80410761CB4F84000B042E1DC0C
:103D8000002619E0A06CC6EBC60700EB87010BA864
:103D900000EB870080461C22FCF766FCA16C09EB57
:103DA0008700085810B1C8F8040004E0A64850F88D
:103DB0002610C8F80410761CB4F84200B042E1DCCA
:103DC000687830B1A1A0696801F0D4FDA648FCF77D
:103DD00080FB8548007820B12046FFF793FACDF8A4
:103DE00018B000207FE0002648E000BFC6EBC60107
:103DF00012A800EB810750F82120002522F07E490F
:103E0000D7F804B033E000BFFCF740FA00EE100A28
:103E1000F0EE000AB8EEC00A60EE200A9FED931A99
:103E2000B7EE000AC9F3434010EE810A012811D011
:103E3000C9F3C611082919D3DFED8D0A032820EE36
:103E4000200ABDEEC00A10EE101A49B20BF8051098
:103E500005D00BE00BEB850080ED000A06E00029A1
:103E600001DD012100E000210BF805106D1C384632
:103E7000012100F075FAA842C6D8761CB4F84000BB
:103E8000B042B3DCFDF740F97A49002288607A48F5
:103E90004260406848600BAA12A9206800F02FFE1B
:103EA000012806D0206800F0A7FD74A1FFF738F8BC
:103EB0001DE001F0FDF9DDE903231B184A41CDE9BE
:103EC000032307AA01F0EAFA4748407848B908985E
:103ED0000A2800DDC2466DA001F04CFD6248FCF7E7
:103EE000F8FA08F1010080465045FFF67CAF68A063
:103EF00001F040FD66A001F03DFD3A499031D1E965
:103F00000403DDE90312101A61EB030142464FEA94
:103F1000E873FCF74BFA05460E4607AA01F0BEFA15
:103F2000D4E90E0101F030FF8246FDF719FADFF8FF
:103F30006491B0FBF9F7FDF713FAB0FBF9F3CDE9A3
:103F4000007A42465448A16801F014FDDDE90801F9
:103F500000EB4002C2EBC01001EBC0014FA00A9A77
:103F600001F008FD3146284601F00EFF014655A03C
:103F700001F000FD31466426A5FB060701FB067132
:103F8000002305FB031105460E46079AFCF70EFABF
:103F90000146252253A001F0EDFCD4E90E2328466A
:103FA0003146FCF703FA054664220023FCF7FEF9CC
:103FB00001466422A1FB02022A1A55A001F0DAFC94
:103FC00060A001F0D7FC66A001F0D4FCD4F88420F6
:103FD0006FA0069901F0CEFC2046FEF7D9FF002025
:103FE000A9E6000050070020BC060020453A206EDC
:103FF0006574776F726B2068616E646C652069739D
:10400000204E554C4C0D0A00046F0008453A2041E3
:10401000495F4D4E4554574F524B5F494E2F4F55B8
:10402000545F4E554D20646566696E6974696F6EA4
:104030002061726520696E636F686572656E740DCC
:104040000A000000C8060020CC06002050726F66EF
:10405000696C696E67206D6F646520282564292E60
:104060002E2E0D0A0000000058090020000000302C
:104070000000FE4220080020001000E061695F6D32
:104080006E6574776F726B5F72756E002E00000044
:104090000D0A000040420F00BC6E000820647572DB
:1040A0006174696F6E20202020203A2025642E251F
:1040B000303364206D7320286176657261676529ED
:1040C0000D0A000020435055206379636C6573200E
:1040D00020203A2025732028617665726167652962
:1040E0000D0A00002043505520576F726B6C6F61B2
:1040F00064203A2025642563202864757479206340
:1041000079636C65203D203173290D0A00000000A1
:10411000206379636C65732F4D41434320203A201F
:1041200025642E25303264202861766572616765CA
:1041300020666F7220616C6C206C617965727329E6
:104140000D0A0000207573656420737461636B2031
:1041500020203A2044495341424C45440D0A000076
:1041600020757365642068656170202020203A20E6
:1041700044495341424C4544206F72204E4F5420D5
:1041800059455420535550504F525445440D0A0040
:10419000206F6273657276657220726573203A20B3
:1041A0002564206279746573207573656420667276
:1041B0006F6D207468652068656170202825642013
:1041C000632D6E6F646573290D0A000059B1C0F349
:1041D000C6125143C91D21F00701C0F34150C1402F
:1041E000C91DC808704700207047000030B5402145
:1041F000C0F34342022A19D03A4A20F07E439C1A67
:104200004D01934263D028DC374AA3EB020493426A
:104210005DD018DC402B5BD0403BB3F5802350D001
:10422000802B3DD0B3F5806F52D134E0C0F3C05144
:10423000C905C0F3C61241EAC21100F07F02114362
:1042400041F4802144E0A4F54074F93C26D00F2CC1
:104250003AD0AC423CD125493AE0254BE21A9C4287
:1042600029D00CDC234AA21813D0B2F5F83F1FD096
:10427000214BD2181AD0B2F5607F29D112E0A2F5F5
:104280004072F93A10D00F2A18D0AA4220D11B4907
:104290001EE01B491CE01449C91F19E0194917E029
:1042A000194915E0194913E0194911E019490FE0BE
:1042B000184980390CE01549C91D09E014490F312E
:1042C00006E01149803903E00E490F3100E0114644
:1042D00000F080420A4300F00051114300F00060FA
:1042E000084330BD400406004704040040100400A9
:1042F00007007E0000F483FF800FFEFF4010840063
:104300004010820040080400C00004004004840003
:1043100040088400C000840070B514460D4606466F
:1043200000F00CF840B17068C5EBC50110EB8100DE
:1043300002D04460012070BD002070BD28B14168EA
:1043400019B1408808B1012070470020704700284B
:1043500004D0C1F3C6114843C01DC0087047000017
:1043600010B502002AD0164B1068B3EBC01F03D063
:10437000144BB3EBC01F01D1012000E00020084224
:104380009069406802D01F3020F01F005369D9B2F5
:10439000012900D000211C0A07E0012907D09369F8
:1043A00053F821305843491C1AB1234602E0012337
:1043B000F8E700238B42F0DC002800DC002010BD71
:1043C000006000420060000208B509A10968009180
:1043D00048B101789DF80020914204D10422694639
:1043E000FCF7ACF808B1002008BD012008BD0000B2
:1043F0000384048440F21D12A0F21D11904241D0AA
:1044000014DCA0F580701D283AD2DFE800F03B3BB9
:104410003B3B3B393B3B3B3B3B3B3B3B3B3B3B3BEE
:104420003B3B3B3B3B3B3B3B3B3B3B00102929D0D1
:104430000BDC102924D2DFE801F0232525232525D4
:104440002525252525252525252526291AD009DCDC
:10445000A1F11101072913D2DFE801F0141214149D
:104460001414140064290DD006DC27290AD0282949
:1044700008D0632904D105E0652903D0662901D05D
:10448000002070470120704700B50346FFF7B2FFD8
:10449000F0B340F21D10A3F21D1183427CD014DC56
:1044A000A3F580731D2B3CD2DFE803F03D3F414371
:1044B000453B47494B4D4F51535557595B5D5F61E4
:1044C0006365676A6C6E70727400102970D00BDCC3
:1044D000102926D2DFE801F02562642566686A6D3E
:1044E0006F717375777A7C7E262979D009DCA1F10A
:1044F0001101072915D2DFE801F07114797B7D7F66
:104500008500642970D008DC27296BD0282900E0B9
:1045100007E073D0632904D176E0652978D0662955
:1045200078D03DA000BD3DA000BD3EA000BD3EA096
:1045300000BD3EA000BD3FA000BD40A000BD40A00A
:1045400000BD40A000BD41A000BD45A000BD47A0EA
:1045500000BD48A000BD48A000BD49A000BD4BA0C3
:1045600000BD4FA000BD50A000BD51A000BD53A094
:1045700000BD54A000BD57A000BD5CA000BD0BE075
:104580005BA0FBE75CA0F9E75DA0F7E75EA0F5E7BD
:104590005EA0F3E75FA0F1E760A0EFE761A0EDE7C1
:1045A00062A0EBE764A0E9E765A0E7E766A0E5E7BE
:1045B00012E067A0E2E76CA0E0E76CA0DEE76DA088
:1045C000DCE76EA0DAE772A0D8E709E077A0D5E7CC
:1045D00078A0D3E77CA0D1E77EA0CFE780A0CDE78D
:1045E00085A0CBE787A0C9E710E007E087A0C5E773
:1045F00089A0C3E78BA0C1E78DA0BFE78EA0BDE770
:1046000006E007E08FA0B9E792A0B7E794A0B5E76E
:1046100095A0B3E796A0B1E70000000042415345E2
:104620000000000041444400424E0000434F4E56FB
:104630003244000044454E53450000004C524E00A9
:104640004E4C00004E4F524D000000004F50544958
:104650004D495A45445F434F4E56324400000000D6
:104660005452414E53504F5345000000504F4F4C51
:1046700000000000534D000053504C49540000000E
:1046800054494D455F44454C4159000054494D45FE
:104690005F44495354524942555445440000000078
:1046A000434F4E434154000047454D4D000000002C
:1046B000555053414D504C4500000000454C545757
:1046C00049534500454C54574953455F494E54455D
:1046D00047455200494E5354414E43454E4F524D6B
:1046E000414C495A4154494F4E000000504144004A
:1046F000534C49434500000054494C45000000001C
:104700005245445543450000524E4E0052455349D0
:104710005A45000047415448455200005041434B20
:1047200000000000554E5041434B00004152474DA0
:10473000494E4D41580000004341535400000000D1
:1047400049464F524553540053564D524547000079
:10475000415252415946454154555245455854528B
:104760004143544F52000000535643005A49504DA4
:104770004150000057484552450000004C494E4505
:104780004152434C415353494649455200000000B1
:10479000545245455F454E53454D424C455F434C51
:1047A000415353494649455200000000544F504B75
:1047B000000000005245445543455F4C4F475F534E
:1047C000554D5F45585000005245445543455F4C98
:1047D000310000004C4954455F47524150480000A9
:1047E000545245455F454E53454D424C455F5245F9
:1047F00047524553534F52004741544845525F4E2C
:10480000440000004D41544D554C0000434F4E565E
:1048100032445F44514E4E00504F4F4C5F44514E16
:104820004E00000044454E53455F44514E4E00003B
:104830005245564552534500534341545445525FE7
:104840004E44000054464C4954455F575241505025
:1048500045520000535441544546554C0000000059
:104860004C53544D00000000435553544F4D00002D
:10487000475255002DE9F041846B002594B1012683
:1048800000272079400707D5A16A204611B1884743
:10489000304600E0384605442069A04202D008B105
:1048A0000446EEE72846BDE8F0812DE9F041066CAC
:1048B000816B04460025C163CEB1D9B10120626C81
:1048C000B0470CE00220626CB047E06BFDF75AFC89
:1048D00007460320626CE16BB0476D1CE763E16B38
:1048E0000029EFD106E0FDF74DFC6D1CE063E06BA5
:1048F0000028F8D12846BDE8F08103460020996BD6
:10490000002908D0CB600A69401C8A4203D0002AE3
:1049100001D01146F6E770472DE9F041846B002580
:1049200094B1012600272079C00707D0216A2046CC
:1049300011B18847304600E0384605442069A0425E
:1049400002D008B10446EEE72846BDE8F081000039
:104950002DE9F041804617460D46002000F084F80E
:10496000060015D0104C4046214600F0AEF888B144
:10497000BFB12269394628469047010A06D110F096
:10498000FF0F03D13460296871602E60BDE8F081AB
:10499000312000E0142060F30705E8B200F58050F4
:1049A000F4E722696168E6E7606D000870B50546C6
:1049B00000F05AF804000CD0D4E900108969884747
:1049C0006168814205D00448A04201D10021016004
:1049D0000025284670BD00002C08002070B5054C4D
:1049E0000D46214600F071F810B90DB1002070BDE0
:1049F000206870BD606D000810B50146142262F396
:104A00000700C4B2084604F5805400F02DF828B120
:104A100003C84269BDE8104008461047204610BD53
:104A200070B515460C4600F01FF858B154B14DB1A1
:104A30004168216000F1080138222846FBF714FE86
:104A4000002070BD4FF0FF3070BD10B50C4600F077
:104A50000BF8002806D005C82146C368BDE8104001
:104A60001046184710BD00000100054803D08842D9
:104A700004D10846704701680029FBD00020704728
:104A80002C08002070B58EB0FFF7EEFF04001AD09E
:104A90002068816868468847002503AE08E02068E2
:104AA0002946806A50F825203046FFF735FC6D1CFA
:104AB000BDF80E00A842F2DCD4E90010CA696946CC
:104AC00090470EB070BD0020FBE770B50C460500A6
:104AD00011D02068FBF75EFD06462846FBF75AFD1D
:104AE000864208D12068FBF755FD0246294620681A
:104AF000FBF76FFD08B1002070BD012070BD70B5DF
:104B000014460D46FFF7B0FF002808D009C822461A
:104B1000066A2946B446BDE870401846604770BD35
:104B20002DE9F0418CB00C4600F0DAF805000DD00C
:104B300064B10020E067A86B60B1E16F491CE167D8
:104B40000169814206D029B10846F6E700200CB081
:104B5000BDE8F081E06F70B1288E00B1686B04F1A0
:104B60003C01FDF719FB208738B1288E012807D9B1
:104B7000686B0C3005E0182228E01822122126E08C
:104B8000002004F14001FDF707FB608730B105F11B
:104B900028000746FFF7D2FB18B10AE018221321BC
:104BA00015E03846FFF7CAFB18B1688D08B113222B
:104BB0000CE005F120008046FFF7C0FB58B94046E5
:104BC000FFF7BCFB38B1688C28B1122211212846AE
:104BD00000F00CFABAE76868C4F880002D4E2C4843
:104BE0002061F0686061306960627069A062A868E5
:104BF00000F094FA206228A1606CFDF7B7FC50B178
:104C000028486064D5E90A01C4E91401D5E908011E
:104C1000C4E912013AE028360DF11C0C96E80F00A9
:104C20008CE80F001B491C2238316846FBF71CFD3D
:104C300007A8069004F160001C2269460646FBF7AF
:104C400013FD04F144001C2269460446FBF70CFDE9
:104C50003846FFF773FB50B13846FFF76FFB08B1DA
:104C6000E96A00E000211C223046FBF7FDFC4046CB
:104C7000FFF764FB50B14046FFF760FB08B1696A7B
:104C800000E000211C222046FBF7EEFC01205EE73D
:104C90000C510008A46D0008676574207265706F80
:104CA00072740000DECAFAA1014800697047000072
:104CB000A46D000810B570B169B162B1074C046011
:104CC000D1E90041C0E90141D2E90012C0E9031273
:104CD0000123184610BD002010BD0000DECAFAA155
:104CE000016810B1024A8A4300D0002070470000DA
:104CF0000001C0A130B44AB140B139B1074C1368CA
:104D0000A34206D130BC0C32FDF70EBC30BC0020F3
:104D1000704730BC1C32FDF7DFBB0000DECAFAA1D1
:104D200030B44AB140B139B1064C1368A34206D140
:104D300030BC121DFDF7F8BB30BC0020704730BC02
:104D4000FDF7CABBDECAFAA10148406970470000FE
:104D5000A46D00082DE9F04F89B00500DDE91210BF
:104D60004FF0000A564663F30706CDE9011361F3DD
:104D70000F261D4F9146544660F31746834618D0C0
:104D8000C5F8009000F05EFAB8B1B846BF8AC6F325
:104D90000721F0B2002200F049FA0646C7F30721C6
:104DA000F8B2002200F042FA864208D0D8F8044057
:104DB0000EE0F86909B0BDE8F08F3C6808E00BA090
:104DC000006800906846FFF7FFFA18B9D8F8084065
:104DD000C5F800A0DDE901105A4600F027FAC9F82D
:104DE00008002046E6E70000A46D00080384048460
:104DF00010B50346FFF774FF38B1054A01689142C8
:104E000001D1FFF737FD002010BD184610BD00008E
:104E10000001C0A110B5FFF763FF20B1BDE810404D
:104E20000C3000F009BA0148806910BDA46D00087B
:104E30002DE9F04F91B00C46FFF752FF050013D05B
:104E4000B4B13DA12068FDF791FB06004FF0000BC7
:104E500011D020680190D4E90301CDE90401D4E91F
:104E60000101CDE9020143E0002011B0BDE8F08F5F
:104E7000112210215CE001212046D4F804A0FFF7A4
:104E80006FFA804604F11C00D4F8209001211090A4
:104E9000FFF766FA07461422294907A8FBF7E4FB47
:104EA0000120B8F1000F02D0ADF8220002E0ADF809
:104EB00022B0002409941FB1ADF82A00109802E036
:104EC000ADF82AB000200B90B9F1000F02D10FB15C
:104ED000132206E0BAF1000F05D1B8F1000F02D09D
:104EE0001222102123E0142207A901A8FBF7BCFB22
:104EF00014492868884212D186F00102144602A99A
:104F000005F12000FDF7C2FA68B1224604A905F1B7
:104F10002800FDF7BBFA40B12846FFF7EEFC03205E
:104F200028612846A1E7122200E013221621284614
:104F300000F05CF898E70000696E697400000000FA
:104F4000F86D00080001C0A170B5FFF7C9FE002888
:104F500007D0017C890705D41022112100F046F802
:104F6000002070BD0B4A0168914211D10546FFF740
:104F7000D3FC286C60B1AC6B54B1D5E9103221463A
:104F8000002098472069A04202D008B10446F4E707
:104F9000012070BD0001C0A170B513460D46FFF79A
:104FA0009FFE04461A462946FDF7EAFA00281CD05F
:104FB000208E08B1656B00E00025012802D9666BE0
:104FC0000C360DE000260BE02846FDF700FC2046DD
:104FD000FFF76BFC3046FDF72EFC608B401C6083B6
:104FE000608B218B8842EFD380B270BD002802D045
:104FF0000C3000F04FB9704770B50B46FFF770FEEC
:1050000030B12BB1017C890705D4102211212AE08F
:105010001022114627E0826B002112B31D888D42B9
:1050200017D19069D8601088A0F580710F3907D02A
:10503000508898801088588000209860012070BDAA
:10504000D06941889980018841F400415980806984
:10505000F3E7491C146989B2944202D00CB122468C
:10506000DDE714221146FFF7C1FF002070BD0000EC
:105070002DE9F0411D4616460F46FFF731FE0400AC
:1050800004D0606C28B14022112115E011221021BA
:1050900013E0142000F0D8F860B10023C381A16BA5
:1050A00081B1C289521CC2810A698A420AD04AB1BE
:1050B0001146F6E7102231212046FFF797FF002026
:1050C000BDE8F081C0E90076E9B2838141F08071EA
:1050D00081606064014820640120F1E7B328000882
:1050E00010B5FFF7FDFD040008D0606C08B100F0BA
:1050F000B6F8002060642064012010BD1122102148
:10510000FFF774FF002010BD00A0704700000000F2
:105110000148C06870470000A46D00080021020E1D
:1051200062F30701020C62F30F21000A60F31741DA
:105130000846704702460068010A012004E05368EF
:10514000491E53F8213058430029F8D17047000018
:105150001CB500230522CDE900230123014AFFF7F6
:10516000F9FD1CBD340400201FB500280CD00749F0
:10517000D1E90023CDE90023D1E90221CDE90221C3
:105180006A4602A9FFF796FD04B010BD886B0008BF
:10519000FFF72EBE0022FFF7FFBEFFF73BBE000069
:1051A00030B5A3B00C460546FFF79AFDFCB1F0B14F
:1051B000882210496846FBF757FAFFF7A5FF0490CD
:1051C000FFF7A6FF0590FFF76FFD0990FFF7BCFD05
:1051D0000A9069462846FFF7A3FC002805D08822DC
:1051E00069462046FBF740FA012023B030BD00207D
:1051F000FBE70000006B00082DE9F0410D46064674
:10520000FFF716FE041E0DD0294600F037FC0746B6
:105210002946204600F006FC00EA07043046FFF766
:1052200093FE2040BDE8F081FFF7B6BE000640EADD
:10523000014040EA022070470022016802700260CB
:10524000084670470120704710B5002806D0001DA1
:10525000FBF756F8002801D00060001D10BD0028A3
:1052600001D000F001B8704710B5044600F009F80D
:1052700028B100210160FBF772F8002010BD204624
:1052800010BD0100A1F1040002D00168814200D0EC
:1052900000207047037813F0FF0F01D00020704703
:1052A0000170016862F31F21016001207047000056
:1052B0002DE9F04110484068104E00247168451AED
:1052C000FBF722FFB1683268401A2146131A74EBCB
:1052D00001030DD20023FBF769F8661E0B46A0FB05
:1052E000061703FB0673002200FB02304D194441F0
:1052F00028462146BDE8F081001000E0200800208B
:105300007FB500F06DFB164D00246C606420FBF748
:10531000E7FD68686421B0FBF1F021466A4600F0C1
:10532000BDF8DDE9010100EBC00202EB001001EB6A
:1053300080010CA0039A00F01DFB6A46601E00214C
:1053400000F0ACF8DDE9011001EB4102C2EBC11144
:1053500000EBC1001149086000F042FB7FBD000076
:10536000001000E02054696D657374616D70202039
:1053700020203A205379735469636B202B204457C3
:1053800054202864656C61792831293D25642E25D7
:10539000303364206D73290D0A00000020080020BE
:1053A00040F23342A0F2334190422FD012DC40F25F
:1053B0002142A0F22141904220D006DCA0F580607D
:1053C00013381DD006280DD10EE0022910D0102967
:1053D00008D10FE0012909D00E290DD0252911D0BF
:1053E000302911D00AA070470BA070470DA070475C
:1053F0000FA0704712A0704715A0704717A0704704
:1054000019A070471BA070471DA070471FA07047D0
:10541000554E4B4E4F574E0053544D333246347811
:105420003700000053544D33324634363900000003
:1054300053544D33324634303178422F430000000C
:1054400053544D33324634313178432F45000000F8
:1054500053544D33324634313200000053544D33EF
:10546000324634343600000053544D3332463478DB
:105470000000000053544D333246343130000000F8
:1054800053544D33324634313300000053544D33BE
:10549000324634303178442F450000002DE9F04782
:1054A0001500064688463DD0FBF75AFF07460246E0
:1054B000002330464146FAF779FF4FF47A72A6FB93
:1054C00002C3044608FB0230002106FB01013A46F4
:1054D00000236046FAF76AFF144A8146A6FB02C31E
:1054E00008FB0230002106FB01013A46002360461A
:1054F000FAF75CFF02464FF47A70A4FB0010B9EB98
:1055000001014FF47A70A1FB0003084BA4FB0336A2
:10551000C018121AC5E90212C5E900744FF0000064
:10552000BDE8F0874FF0FF30FAE7000040420F007F
:105530002DE9F047806988B0018809B1426800E030
:105540000022526832B109B1426800E0002252687C
:10555000146800E00024012902D942680C3200E0FE
:10556000002252684AB1012902D942680C3200E097
:1055700000225268D2F8008001E04FF000080229B2
:1055800002D94268183200E00022526842B1022972
:1055900002D94268183200E000225268176800E021
:1055A000002702290BD9426812F1180F07D032F8F0
:1055B000183F012B03D9526812B1526800E0002253
:1055C000E368D8F80CC003295E68DCE90153DCF815
:1055D0000CC003FB0CF3D7F818C0DCF8007027F000
:1055E0007E4A02D94768243700E000277F685FB110
:1055F000032902D94068243000E000204068006898
:1056000010B18069876800E00027D8F81800A16908
:105610008068896812B19269946800E00024DCE92E
:10562000022CDFF85080E1461AEB080C10D0BCF5D4
:105630009C0F15D0BCF5DC0F07D10097CDE90353C3
:10564000CDE901464B4600F063F808B0BDE8F087AD
:105650008DE85700CDE90553684600F00DF8F4E7F2
:105660000097CDE90353CDE901464B4600F0A6F87B
:10567000EBE70000C0EF7DFF2DE9F04F04462DED74
:10568000028B81B0D0E9005AD4E90501484305EB0B
:10569000800934E060692E4605EB80089FED1B8A87
:1056A000D4F810B0A7680DE08DED008A5B46524635
:1056B00039466846FCF734FB9DED000A07EB8B0783
:1056C000A6EC010A4645EFD3E06890B100200DE05A
:1056D000E16801EB800191ED000A05EB8001401CBF
:1056E000D1ED000A30EE200A81ED000A61698142A5
:1056F000EED8216960690AEB810A05EB80054D450A
:10570000C8D301B0BDEC028BBDE8F08F00000000F3
:105710002DE9FF4F04462DED028B83B08B46DDE96A
:105720001550DDE9128A684304EB8006DDF85090DD
:105730005FEA080005D040224146184600F0ECF927
:1057400033E0984631E000BF04EB85079FED1A8AED
:1057500007990DE08DED018A5B46424601A8CDF820
:105760000090FCF789FD9DED010A0146A4EC010AB9
:10577000BC42EFD30BEB890BBAF1000F15D0A4EBB1
:10578000850100200DE000BF01EB80020AEB8003E1
:1057900092ED000AD3ED000A401C30EE200A82EDA3
:1057A000000AA842F0D301EB8504B442CCD303B085
:1057B000BDEC028BBDE8FF8F000000002DE9FF4F1C
:1057C00004462DED028B83B08B46DDE91550DDE9F3
:1057D000128A684304EB8006DDF850905FEA080007
:1057E00006D04FF480624146184600F095F932E049
:1057F000984630E004EB85079FED1A8A07990DE083
:105800008DED018A5B46424601A8CDF80090FCF779
:10581000C9FD9DED010A0146A4EC010ABC42EFD38B
:105820000BEB890BBAF1000F15D0A4EB850100201A
:105830000DE000BF01EB80020AEB800392ED000A4D
:10584000D3ED000A401C30EE200A82ED000AA84287
:10585000F0D301EB8504B442CCD303B0BDEC028B92
:10586000BDE8FF8F0000000070B58069018809B1B4
:10587000426800E00022526832B109B1426800E09B
:1058800000225268146800E00024012902D942680D
:105890000C3200E00022526842B1012902D940686E
:1058A0000C3000E000204068056800E0002504F1AD
:1058B0000800FFF73FFC024621462846BDE870403D
:1058C000002300F075B800000C4808B5006800908F
:1058D000009900F0070040F08070C90501D540F440
:1058E00080700099890501D540F400700099490540
:1058F00001D540F4806040F4803008BD003C024097
:1059000010B504000ED0FBF72BFD2060FBF728FD3F
:105910006060FFF7D9FFA060FBF7E4FBE060FBF7F6
:10592000EDFB206110BD00000146C0684A6989692D
:10593000C068D26809685043044A1140A1F580222A
:10594000C03A01D1C01DC00870470000FFFF7F01B1
:1059500010B50B46010006D001220548FBF78AFF6F
:10596000032800D010B14FF0FF3010BD012010BD52
:10597000BC0800200FB4002110B503AB0348029A05
:1059800000F05CFA10BC5DF814FB00007D290008F3
:10599000FBF7C8FBFCF768F8FCF716F8FCF732F8E1
:1059A000FCF74CF8FCF751F86420FBF799FAF9E79B
:1059B00070B58E6980696FF00301B36801EB8201F5
:1059C00080685C18451807E094ED000AFCF736FB88
:1059D00085ED000A241F2D1FB068A042F4D970BDC8
:1059E0000648016841F0807101600548002141606E
:1059F000016841F00101016070470000FCED00E02A
:105A0000001000E08AB210B501464FF0FF330448A1
:105A1000FBF788FF08B1002010BD012010BD000079
:105A2000BC08002010B504460A4601211248FFF7C1
:105A300061F9C8B11048104A0168083201F110003C
:105A40009060D0601032001D9060D0601032906085
:105A5000D06010329160D16010329060D06010320E
:105A600001209160D16010BD132230212046FFF744
:105A7000BDFA002010BD00006C03002010B50446E4
:105A80000A4601212348FFF74BF9D0B3214964317D
:105A900001F11002086840F0804008601D4800686D
:105AA0008860C860116841F08041116000F12801F0
:105AB0009160D1601032116841F08041116000F1B5
:105AC00050019160D1601032116841F08041116045
:105AD00000F58C719160D1601032116841F0804105
